{
  "contractName": "SupportChildren",
  "abi": [
    {
      "anonymous": false,
      "inputs": [
        {
          "indexed": false,
          "internalType": "uint256",
          "name": "campaignId",
          "type": "uint256"
        }
      ],
      "name": "CampaignCreated",
      "type": "event"
    },
    {
      "anonymous": false,
      "inputs": [
        {
          "indexed": false,
          "internalType": "uint256",
          "name": "campaignId",
          "type": "uint256"
        },
        {
          "indexed": false,
          "internalType": "uint256",
          "name": "currentAmount",
          "type": "uint256"
        },
        {
          "indexed": false,
          "internalType": "string[]",
          "name": "notifyEmails",
          "type": "string[]"
        }
      ],
      "name": "CampaignFinished",
      "type": "event"
    },
    {
      "anonymous": false,
      "inputs": [
        {
          "indexed": false,
          "internalType": "uint256",
          "name": "campaignId",
          "type": "uint256"
        },
        {
          "indexed": false,
          "internalType": "uint256",
          "name": "donationAmount",
          "type": "uint256"
        },
        {
          "indexed": false,
          "internalType": "string",
          "name": "notifyEmail",
          "type": "string"
        },
        {
          "indexed": false,
          "internalType": "address",
          "name": "token",
          "type": "address"
        }
      ],
      "name": "DonationMade",
      "type": "event"
    },
    {
      "inputs": [],
      "name": "quoter",
      "outputs": [
        {
          "internalType": "contract IQuoter",
          "name": "",
          "type": "address"
        }
      ],
      "stateMutability": "view",
      "type": "function",
      "constant": true
    },
    {
      "inputs": [],
      "name": "uniswapRouter",
      "outputs": [
        {
          "internalType": "contract IUniswapRouter",
          "name": "",
          "type": "address"
        }
      ],
      "stateMutability": "view",
      "type": "function",
      "constant": true
    },
    {
      "stateMutability": "payable",
      "type": "receive",
      "payable": true
    },
    {
      "inputs": [
        {
          "internalType": "string",
          "name": "_name",
          "type": "string"
        },
        {
          "internalType": "string",
          "name": "_description",
          "type": "string"
        },
        {
          "internalType": "string",
          "name": "_creatorEmail",
          "type": "string"
        },
        {
          "internalType": "string",
          "name": "_image",
          "type": "string"
        },
        {
          "internalType": "uint256",
          "name": "_endTimestamp",
          "type": "uint256"
        },
        {
          "internalType": "uint256",
          "name": "_targetCurrency",
          "type": "uint256"
        },
        {
          "internalType": "uint256",
          "name": "_targetAmount",
          "type": "uint256"
        },
        {
          "internalType": "address payable",
          "name": "_beneficiaryAddress",
          "type": "address"
        }
      ],
      "name": "createCampaign",
      "outputs": [],
      "stateMutability": "nonpayable",
      "type": "function"
    },
    {
      "inputs": [
        {
          "internalType": "uint256",
          "name": "_campaignId",
          "type": "uint256"
        }
      ],
      "name": "endCampaign",
      "outputs": [],
      "stateMutability": "nonpayable",
      "type": "function"
    },
    {
      "inputs": [
        {
          "internalType": "uint256",
          "name": "_campaignId",
          "type": "uint256"
        },
        {
          "internalType": "string",
          "name": "_name",
          "type": "string"
        },
        {
          "internalType": "string",
          "name": "_description",
          "type": "string"
        },
        {
          "internalType": "string",
          "name": "_creatorEmail",
          "type": "string"
        },
        {
          "internalType": "string",
          "name": "_image",
          "type": "string"
        }
      ],
      "name": "editCampaign",
      "outputs": [],
      "stateMutability": "nonpayable",
      "type": "function"
    },
    {
      "inputs": [
        {
          "internalType": "uint256",
          "name": "_campaignId",
          "type": "uint256"
        },
        {
          "internalType": "string",
          "name": "_donorEmail",
          "type": "string"
        }
      ],
      "name": "donateEthToEthCampaign",
      "outputs": [],
      "stateMutability": "payable",
      "type": "function",
      "payable": true
    },
    {
      "inputs": [
        {
          "internalType": "uint256",
          "name": "_campaignId",
          "type": "uint256"
        },
        {
          "internalType": "string",
          "name": "_donorEmail",
          "type": "string"
        },
        {
          "internalType": "address",
          "name": "token",
          "type": "address"
        },
        {
          "internalType": "uint256",
          "name": "amountOut",
          "type": "uint256"
        },
        {
          "internalType": "uint256",
          "name": "amountInMax",
          "type": "uint256"
        }
      ],
      "name": "donateTokenToETHCampaign",
      "outputs": [],
      "stateMutability": "nonpayable",
      "type": "function"
    },
    {
      "inputs": [
        {
          "internalType": "uint256",
          "name": "_campaignId",
          "type": "uint256"
        },
        {
          "internalType": "string",
          "name": "_donorEmail",
          "type": "string"
        },
        {
          "internalType": "address",
          "name": "tokenIn",
          "type": "address"
        },
        {
          "internalType": "address",
          "name": "tokenOut",
          "type": "address"
        },
        {
          "internalType": "uint256",
          "name": "amountOut",
          "type": "uint256"
        },
        {
          "internalType": "uint256",
          "name": "amountInMax",
          "type": "uint256"
        }
      ],
      "name": "donateTokenToTokenCampaign",
      "outputs": [],
      "stateMutability": "nonpayable",
      "type": "function"
    },
    {
      "inputs": [
        {
          "internalType": "uint256",
          "name": "_campaignId",
          "type": "uint256"
        }
      ],
      "name": "getDonorEmails",
      "outputs": [
        {
          "internalType": "string[]",
          "name": "",
          "type": "string[]"
        }
      ],
      "stateMutability": "view",
      "type": "function",
      "constant": true
    },
    {
      "inputs": [
        {
          "internalType": "address",
          "name": "_donor",
          "type": "address"
        }
      ],
      "name": "getDonorsCampaingsList",
      "outputs": [
        {
          "internalType": "uint256[]",
          "name": "",
          "type": "uint256[]"
        }
      ],
      "stateMutability": "view",
      "type": "function",
      "constant": true
    },
    {
      "inputs": [],
      "name": "getCampaigns",
      "outputs": [
        {
          "components": [
            {
              "internalType": "uint256",
              "name": "id",
              "type": "uint256"
            },
            {
              "internalType": "string",
              "name": "name",
              "type": "string"
            },
            {
              "internalType": "string",
              "name": "description",
              "type": "string"
            },
            {
              "internalType": "string",
              "name": "creatorEmail",
              "type": "string"
            },
            {
              "internalType": "string",
              "name": "image",
              "type": "string"
            },
            {
              "internalType": "uint256",
              "name": "targetCurrency",
              "type": "uint256"
            },
            {
              "internalType": "uint256",
              "name": "targetAmount",
              "type": "uint256"
            },
            {
              "internalType": "uint256",
              "name": "currentAmount",
              "type": "uint256"
            },
            {
              "internalType": "address payable",
              "name": "beneficiaryAddress",
              "type": "address"
            },
            {
              "internalType": "address",
              "name": "creatorAddress",
              "type": "address"
            },
            {
              "internalType": "bool",
              "name": "active",
              "type": "bool"
            },
            {
              "internalType": "uint256",
              "name": "endTimestamp",
              "type": "uint256"
            }
          ],
          "internalType": "struct SupportChildren.Campaign[]",
          "name": "",
          "type": "tuple[]"
        }
      ],
      "stateMutability": "view",
      "type": "function",
      "constant": true
    },
    {
      "inputs": [
        {
          "internalType": "uint256",
          "name": "_campaignId",
          "type": "uint256"
        }
      ],
      "name": "getCampaignAmount",
      "outputs": [
        {
          "internalType": "uint256",
          "name": "",
          "type": "uint256"
        }
      ],
      "stateMutability": "view",
      "type": "function",
      "constant": true
    }
  ],
  "bytecode": "0x608060405234801561001057600080fd5b50613c73806100206000396000f3fe6080604052600436106100ab5760003560e01c8063a2f5d1e811610064578063a2f5d1e8146101eb578063a6b0363314610214578063af0f42ee1461023f578063c6bbd5a714610268578063dd0408ae14610293578063e981dc02146102bc576100b2565b806311862ab1146100b757806318fedf06146100e0578063296c10f41461011d5780636fb91dd01461015a578063735de9f714610183578063909f7d66146101ae576100b2565b366100b257005b600080fd5b3480156100c357600080fd5b506100de60048036038101906100d99190612772565b6102d8565b005b3480156100ec57600080fd5b5061010760048036038101906101029190612493565b6104b8565b6040516101149190613131565b60405180910390f35b34801561012957600080fd5b50610144600480360381019061013f9190612613565b61054f565b6040516101519190613345565b60405180910390f35b34801561016657600080fd5b50610181600480360381019061017c91906126c9565b61057e565b005b34801561018f57600080fd5b50610198610760565b6040516101a5919061316e565b60405180910390f35b3480156101ba57600080fd5b506101d560048036038101906101d09190612613565b610778565b6040516101e291906130ed565b60405180910390f35b3480156101f757600080fd5b50610212600480360381019061020d91906124ed565b610864565b005b34801561022057600080fd5b50610229610b9b565b604051610236919061310f565b60405180910390f35b34801561024b57600080fd5b5061026660048036038101906102619190612809565b610f3c565b005b34801561027457600080fd5b5061027d61115b565b60405161028a9190613153565b60405180910390f35b34801561029f57600080fd5b506102ba60048036038101906102b59190612613565b611173565b005b6102d660048036038101906102d1919061266d565b61136f565b005b60006102e58484846118e6565b90506003600087815260200190815260200160002085908060018154018082558091505060019003906000526020600020016000909190919091509080519060200190610333929190612317565b50600460003273ffffffffffffffffffffffffffffffffffffffff1673ffffffffffffffffffffffffffffffffffffffff16815260200190815260200160002086908060018154018082558091505060019003906000526020600020016000909190919091505582600287815481106103af576103ae61388b565b5b90600052602060002090600b0201600701546103cb9190613598565b600287815481106103df576103de61388b565b5b90600052602060002090600b0201600701819055507fe3a6b824a5dcd9cc376de3c8eddd6aef4d82cce288e42272e2b874fa54f2d51a86826002898154811061042b5761042a61388b565b5b90600052602060002090600b02016003018760405161044d94939291906133dc565b60405180910390a1600286815481106104695761046861388b565b5b90600052602060002090600b0201600601546002878154811061048f5761048e61388b565b5b90600052602060002090600b020160070154106104b0576104af86611d5c565b5b505050505050565b6060600460008373ffffffffffffffffffffffffffffffffffffffff1673ffffffffffffffffffffffffffffffffffffffff16815260200190815260200160002080548060200260200160405190810160405280929190818152602001828054801561054357602002820191906000526020600020905b81548152602001906001019080831161052f575b50505050509050919050565b6000600282815481106105655761056461388b565b5b90600052602060002090600b0201600701549050919050565b600061058c85858585611ec0565b905060036000888152602001908152602001600020869080600181540180825580915050600190039060005260206000200160009091909190915090805190602001906105da929190612317565b50600460003273ffffffffffffffffffffffffffffffffffffffff1673ffffffffffffffffffffffffffffffffffffffff16815260200190815260200160002087908060018154018082558091505060019003906000526020600020016000909190919091505582600288815481106106565761065561388b565b5b90600052602060002090600b0201600701546106729190613598565b600288815481106106865761068561388b565b5b90600052602060002090600b0201600701819055507fe3a6b824a5dcd9cc376de3c8eddd6aef4d82cce288e42272e2b874fa54f2d51a878260028a815481106106d2576106d161388b565b5b90600052602060002090600b0201600301886040516106f494939291906133dc565b60405180910390a1600287815481106107105761070f61388b565b5b90600052602060002090600b020160060154600288815481106107365761073561388b565b5b90600052602060002090600b020160070154106107575761075687611d5c565b5b50505050505050565b73e592427a0aece92de3edee1f18e0157c0586156481565b606060036000838152602001908152602001600020805480602002602001604051908101604052809291908181526020016000905b828210156108595783829060005260206000200180546107cc90613781565b80601f01602080910402602001604051908101604052809291908181526020018280546107f890613781565b80156108455780601f1061081a57610100808354040283529160200191610845565b820191906000526020600020905b81548152906001019060200180831161082857829003601f168201915b5050505050815260200190600101906107ad565b505050509050919050565b600082116108a7576040517f08c379a000000000000000000000000000000000000000000000000000000000815260040161089e90613289565b60405180910390fd5b4284116108e9576040517f08c379a00000000000000000000000000000000000000000000000000000000081526004016108e0906132c9565b60405180910390fd5b60018314806108f85750600083145b610937576040517f08c379a000000000000000000000000000000000000000000000000000000000815260040161092e90613229565b60405180910390fd5b600260405180610180016040528060015481526020018a8152602001898152602001888152602001878152602001858152602001848152602001600081526020018373ffffffffffffffffffffffffffffffffffffffff1681526020013273ffffffffffffffffffffffffffffffffffffffff1681526020016001151581526020018681525090806001815401808255809150506001900390600052602060002090600b0201600090919091909150600082015181600001556020820151816001019080519060200190610a0c929190612317565b506040820151816002019080519060200190610a29929190612317565b506060820151816003019080519060200190610a46929190612317565b506080820151816004019080519060200190610a63929190612317565b5060a0820151816005015560c0820151816006015560e082015181600701556101008201518160080160006101000a81548173ffffffffffffffffffffffffffffffffffffffff021916908373ffffffffffffffffffffffffffffffffffffffff1602179055506101208201518160090160006101000a81548173ffffffffffffffffffffffffffffffffffffffff021916908373ffffffffffffffffffffffffffffffffffffffff1602179055506101408201518160090160146101000a81548160ff02191690831515021790555061016082015181600a015550507fbc0a5edd152fa5b886dcae82c5c109d113708653b4b9c0224549ccdf715af94e600154604051610b719190613345565b60405180910390a160016000815480929190610b8c906137e4565b91905055505050505050505050565b60606002805480602002602001604051908101604052809291908181526020016000905b82821015610f3357838290600052602060002090600b02016040518061018001604052908160008201548152602001600182018054610bfd90613781565b80601f0160208091040260200160405190810160405280929190818152602001828054610c2990613781565b8015610c765780601f10610c4b57610100808354040283529160200191610c76565b820191906000526020600020905b815481529060010190602001808311610c5957829003601f168201915b50505050508152602001600282018054610c8f90613781565b80601f0160208091040260200160405190810160405280929190818152602001828054610cbb90613781565b8015610d085780601f10610cdd57610100808354040283529160200191610d08565b820191906000526020600020905b815481529060010190602001808311610ceb57829003601f168201915b50505050508152602001600382018054610d2190613781565b80601f0160208091040260200160405190810160405280929190818152602001828054610d4d90613781565b8015610d9a5780601f10610d6f57610100808354040283529160200191610d9a565b820191906000526020600020905b815481529060010190602001808311610d7d57829003601f168201915b50505050508152602001600482018054610db390613781565b80601f0160208091040260200160405190810160405280929190818152602001828054610ddf90613781565b8015610e2c5780601f10610e0157610100808354040283529160200191610e2c565b820191906000526020600020905b815481529060010190602001808311610e0f57829003601f168201915b505050505081526020016005820154815260200160068201548152602001600782015481526020016008820160009054906101000a900473ffffffffffffffffffffffffffffffffffffffff1673ffffffffffffffffffffffffffffffffffffffff1673ffffffffffffffffffffffffffffffffffffffff1681526020016009820160009054906101000a900473ffffffffffffffffffffffffffffffffffffffff1673ffffffffffffffffffffffffffffffffffffffff1673ffffffffffffffffffffffffffffffffffffffff1681526020016009820160149054906101000a900460ff16151515158152602001600a8201548152505081526020019060010190610bbf565b50505050905090565b846001151560028281548110610f5557610f5461388b565b5b90600052602060002090600b020160090160149054906101000a900460ff16151514610fb6576040517f08c379a0000000000000000000000000000000000000000000000000000000008152600401610fad90613269565b60405180910390fd5b853273ffffffffffffffffffffffffffffffffffffffff1660028281548110610fe257610fe161388b565b5b90600052602060002090600b020160090160009054906101000a900473ffffffffffffffffffffffffffffffffffffffff1673ffffffffffffffffffffffffffffffffffffffff161461106a576040517f08c379a0000000000000000000000000000000000000000000000000000000008152600401611061906132a9565b60405180910390fd5b856002888154811061107f5761107e61388b565b5b90600052602060002090600b020160010190805190602001906110a3929190612317565b5084600288815481106110b9576110b861388b565b5b90600052602060002090600b020160020190805190602001906110dd929190612317565b5083600288815481106110f3576110f261388b565b5b90600052602060002090600b02016003019080519060200190611117929190612317565b50826002888154811061112d5761112c61388b565b5b90600052602060002090600b02016004019080519060200190611151929190612317565b5050505050505050565b73b27308f9f90d607463bb33ea1bebb41c27ce5ab681565b80600115156002828154811061118c5761118b61388b565b5b90600052602060002090600b020160090160149054906101000a900460ff161515146111ed576040517f08c379a00000000000000000000000000000000000000000000000000000000081526004016111e490613269565b60405180910390fd5b813273ffffffffffffffffffffffffffffffffffffffff16600282815481106112195761121861388b565b5b90600052602060002090600b020160090160009054906101000a900473ffffffffffffffffffffffffffffffffffffffff1673ffffffffffffffffffffffffffffffffffffffff16146112a1576040517f08c379a0000000000000000000000000000000000000000000000000000000008152600401611298906132a9565b60405180910390fd5b6000600284815481106112b7576112b661388b565b5b90600052602060002090600b02016007015411156112dd576112d883611d5c565b61136a565b7fbc6fdcbbc64181fa5b0a580ffa8643761277b5ab073214c08cce86c7317bf4008360006003600087815260200190815260200160002060405161132393929190613360565b60405180910390a16000600284815481106113415761134061388b565b5b90600052602060002090600b020160090160146101000a81548160ff0219169083151502179055505b505050565b8160011515600282815481106113885761138761388b565b5b90600052602060002090600b020160090160149054906101000a900460ff161515146113e9576040517f08c379a00000000000000000000000000000000000000000000000000000000081526004016113e090613269565b60405180910390fd5b823273ffffffffffffffffffffffffffffffffffffffff16600282815481106114155761141461388b565b5b90600052602060002090600b020160090160009054906101000a900473ffffffffffffffffffffffffffffffffffffffff1673ffffffffffffffffffffffffffffffffffffffff16141561149e576040517f08c379a000000000000000000000000000000000000000000000000000000000815260040161149590613209565b60405180910390fd5b833273ffffffffffffffffffffffffffffffffffffffff16600282815481106114ca576114c961388b565b5b90600052602060002090600b020160080160009054906101000a900473ffffffffffffffffffffffffffffffffffffffff1673ffffffffffffffffffffffffffffffffffffffff161415611553576040517f08c379a000000000000000000000000000000000000000000000000000000000815260040161154a906131e9565b60405180910390fd5b8460006002828154811061156a5761156961388b565b5b90600052602060002090600b020160050154146115bc576040517f08c379a00000000000000000000000000000000000000000000000000000000081526004016115b3906131c9565b60405180910390fd5b600034116115ff576040517f08c379a00000000000000000000000000000000000000000000000000000000081526004016115f690613189565b60405180910390fd5b42600287815481106116145761161361388b565b5b90600052602060002090600b0201600a015411611666576040517f08c379a000000000000000000000000000000000000000000000000000000000815260040161165d906132e9565b60405180910390fd5b6002868154811061167a5761167961388b565b5b90600052602060002090600b020160060154600b61169891906135ee565b600a34600289815481106116af576116ae61388b565b5b90600052602060002090600b0201600701546116cb9190613598565b6116d591906135ee565b10611715576040517f08c379a000000000000000000000000000000000000000000000000000000000815260040161170c906131a9565b60405180910390fd5b6003600087815260200190815260200160002085908060018154018082558091505060019003906000526020600020016000909190919091509080519060200190611761929190612317565b50600460003273ffffffffffffffffffffffffffffffffffffffff1673ffffffffffffffffffffffffffffffffffffffff16815260200190815260200160002086908060018154018082558091505060019003906000526020600020016000909190919091505534600287815481106117dd576117dc61388b565b5b90600052602060002090600b0201600701546117f99190613598565b6002878154811061180d5761180c61388b565b5b90600052602060002090600b0201600701819055507fe3a6b824a5dcd9cc376de3c8eddd6aef4d82cce288e42272e2b874fa54f2d51a8634600289815481106118595761185861388b565b5b90600052602060002090600b02016003013060405161187b94939291906133dc565b60405180910390a1600286815481106118975761189661388b565b5b90600052602060002090600b020160060154600287815481106118bd576118bc61388b565b5b90600052602060002090600b020160070154106118de576118dd86611d5c565b5b505050505050565b6000808473ffffffffffffffffffffffffffffffffffffffff1663dd62ed3e33306040518363ffffffff1660e01b8152600401611924929190613064565b60206040518083038186803b15801561193c57600080fd5b505afa158015611950573d6000803e3d6000fd5b505050506040513d601f19601f820116820180604052508101906119749190612640565b9050828110156119b9576040517f08c379a00000000000000000000000000000000000000000000000000000000081526004016119b090613249565b60405180910390fd5b8473ffffffffffffffffffffffffffffffffffffffff166323b872dd3330866040518463ffffffff1660e01b81526004016119f69392919061308d565b602060405180830381600087803b158015611a1057600080fd5b505af1158015611a24573d6000803e3d6000fd5b505050506040513d601f19601f82011682018060405250810190611a4891906124c0565b506000600f42611a589190613598565b90506000869050600073c02aaa39b223fe8d0a0e5c4f27ead9083c756cc290506000610bb89050600030905060008a73ffffffffffffffffffffffffffffffffffffffff1663095ea7b373e592427a0aece92de3edee1f18e0157c058615648b6040518363ffffffff1660e01b8152600401611ad59291906130c4565b602060405180830381600087803b158015611aef57600080fd5b505af1158015611b03573d6000803e3d6000fd5b505050506040513d601f19601f82011682018060405250810190611b2791906124c0565b5060006040518061010001604052808773ffffffffffffffffffffffffffffffffffffffff1681526020018673ffffffffffffffffffffffffffffffffffffffff1681526020018562ffffff1681526020018473ffffffffffffffffffffffffffffffffffffffff1681526020018881526020018c81526020018b81526020018373ffffffffffffffffffffffffffffffffffffffff168152509050600073e592427a0aece92de3edee1f18e0157c0586156473ffffffffffffffffffffffffffffffffffffffff1663db3e2198836040518263ffffffff1660e01b8152600401611c129190613329565b602060405180830381600087803b158015611c2c57600080fd5b505af1158015611c40573d6000803e3d6000fd5b505050506040513d601f19601f82011682018060405250810190611c649190612640565b90506000818c611c749190613648565b905060008e73ffffffffffffffffffffffffffffffffffffffff1663a9059cbb33846040518363ffffffff1660e01b8152600401611cb39291906130c4565b602060405180830381600087803b158015611ccd57600080fd5b505af1158015611ce1573d6000803e3d6000fd5b505050506040513d601f19601f82011682018060405250810190611d0591906124c0565b905080611d47576040517f08c379a0000000000000000000000000000000000000000000000000000000008152600401611d3e90613309565b60405180910390fd5b829b5050505050505050505050509392505050565b7fbc6fdcbbc64181fa5b0a580ffa8643761277b5ab073214c08cce86c7317bf4008160028381548110611d9257611d9161388b565b5b90600052602060002090600b02016007015460036000858152602001908152602001600020604051611dc69392919061339e565b60405180910390a160028181548110611de257611de161388b565b5b90600052602060002090600b020160080160009054906101000a900473ffffffffffffffffffffffffffffffffffffffff1673ffffffffffffffffffffffffffffffffffffffff166108fc60028381548110611e4157611e4061388b565b5b90600052602060002090600b0201600701549081150290604051600060405180830381858888f19350505050158015611e7e573d6000803e3d6000fd5b50600060028281548110611e9557611e9461388b565b5b90600052602060002090600b020160090160146101000a81548160ff02191690831515021790555050565b6000808573ffffffffffffffffffffffffffffffffffffffff1663dd62ed3e33306040518363ffffffff1660e01b8152600401611efe929190613064565b60206040518083038186803b158015611f1657600080fd5b505afa158015611f2a573d6000803e3d6000fd5b505050506040513d601f19601f82011682018060405250810190611f4e9190612640565b905082811015611f93576040517f08c379a0000000000000000000000000000000000000000000000000000000008152600401611f8a90613249565b60405180910390fd5b8573ffffffffffffffffffffffffffffffffffffffff166323b872dd3330866040518463ffffffff1660e01b8152600401611fd09392919061308d565b602060405180830381600087803b158015611fea57600080fd5b505af1158015611ffe573d6000803e3d6000fd5b505050506040513d601f19601f8201168201806040525081019061202291906124c0565b506000600f426120329190613598565b90506000610bb89050600030905060008973ffffffffffffffffffffffffffffffffffffffff1663095ea7b373e592427a0aece92de3edee1f18e0157c05861564896040518363ffffffff1660e01b81526004016120919291906130c4565b602060405180830381600087803b1580156120ab57600080fd5b505af11580156120bf573d6000803e3d6000fd5b505050506040513d601f19601f820116820180604052508101906120e391906124c0565b5060006040518061010001604052808c73ffffffffffffffffffffffffffffffffffffffff1681526020018b73ffffffffffffffffffffffffffffffffffffffff1681526020018562ffffff1681526020018473ffffffffffffffffffffffffffffffffffffffff1681526020018681526020018a81526020018981526020018373ffffffffffffffffffffffffffffffffffffffff168152509050600073e592427a0aece92de3edee1f18e0157c0586156473ffffffffffffffffffffffffffffffffffffffff1663db3e2198836040518263ffffffff1660e01b81526004016121ce9190613329565b602060405180830381600087803b1580156121e857600080fd5b505af11580156121fc573d6000803e3d6000fd5b505050506040513d601f19601f820116820180604052508101906122209190612640565b90506000818a6122309190613648565b905060008d73ffffffffffffffffffffffffffffffffffffffff1663a9059cbb33846040518363ffffffff1660e01b815260040161226f9291906130c4565b602060405180830381600087803b15801561228957600080fd5b505af115801561229d573d6000803e3d6000fd5b505050506040513d601f19601f820116820180604052508101906122c191906124c0565b905080612303576040517f08c379a00000000000000000000000000000000000000000000000000000000081526004016122fa90613309565b60405180910390fd5b829950505050505050505050949350505050565b82805461232390613781565b90600052602060002090601f016020900481019282612345576000855561238c565b82601f1061235e57805160ff191683800117855561238c565b8280016001018555821561238c579182015b8281111561238b578251825591602001919060010190612370565b5b509050612399919061239d565b5090565b5b808211156123b657600081600090555060010161239e565b5090565b60006123cd6123c88461344d565b613428565b9050828152602081018484840111156123e9576123e86138ee565b5b6123f484828561373f565b509392505050565b60008135905061240b81613be1565b92915050565b60008135905061242081613bf8565b92915050565b60008151905061243581613c0f565b92915050565b600082601f8301126124505761244f6138e9565b5b81356124608482602086016123ba565b91505092915050565b60008135905061247881613c26565b92915050565b60008151905061248d81613c26565b92915050565b6000602082840312156124a9576124a86138f8565b5b60006124b7848285016123fc565b91505092915050565b6000602082840312156124d6576124d56138f8565b5b60006124e484828501612426565b91505092915050565b600080600080600080600080610100898b03121561250e5761250d6138f8565b5b600089013567ffffffffffffffff81111561252c5761252b6138f3565b5b6125388b828c0161243b565b985050602089013567ffffffffffffffff811115612559576125586138f3565b5b6125658b828c0161243b565b975050604089013567ffffffffffffffff811115612586576125856138f3565b5b6125928b828c0161243b565b965050606089013567ffffffffffffffff8111156125b3576125b26138f3565b5b6125bf8b828c0161243b565b95505060806125d08b828c01612469565b94505060a06125e18b828c01612469565b93505060c06125f28b828c01612469565b92505060e06126038b828c01612411565b9150509295985092959890939650565b600060208284031215612629576126286138f8565b5b600061263784828501612469565b91505092915050565b600060208284031215612656576126556138f8565b5b60006126648482850161247e565b91505092915050565b60008060408385031215612684576126836138f8565b5b600061269285828601612469565b925050602083013567ffffffffffffffff8111156126b3576126b26138f3565b5b6126bf8582860161243b565b9150509250929050565b60008060008060008060c087890312156126e6576126e56138f8565b5b60006126f489828a01612469565b965050602087013567ffffffffffffffff811115612715576127146138f3565b5b61272189828a0161243b565b955050604061273289828a016123fc565b945050606061274389828a016123fc565b935050608061275489828a01612469565b92505060a061276589828a01612469565b9150509295509295509295565b600080600080600060a0868803121561278e5761278d6138f8565b5b600061279c88828901612469565b955050602086013567ffffffffffffffff8111156127bd576127bc6138f3565b5b6127c98882890161243b565b94505060406127da888289016123fc565b93505060606127eb88828901612469565b92505060806127fc88828901612469565b9150509295509295909350565b600080600080600060a08688031215612825576128246138f8565b5b600061283388828901612469565b955050602086013567ffffffffffffffff811115612854576128536138f3565b5b6128608882890161243b565b945050604086013567ffffffffffffffff811115612881576128806138f3565b5b61288d8882890161243b565b935050606086013567ffffffffffffffff8111156128ae576128ad6138f3565b5b6128ba8882890161243b565b925050608086013567ffffffffffffffff8111156128db576128da6138f3565b5b6128e78882890161243b565b9150509295509295909350565b60006129008383612b6d565b905092915050565b60006129148383612ba6565b905092915050565b60006129288383612e6d565b905092915050565b600061293c8383613046565b60208301905092915050565b6129518161368e565b82525050565b6129608161367c565b82525050565b61296f8161367c565b82525050565b6000612980826134d8565b61298a8185613543565b93508360208202850161299c8561347e565b8060005b858110156129d857848403895281516129b985826128f4565b94506129c48361350f565b925060208a019950506001810190506129a0565b50829750879550505050505092915050565b60006129f5826134e3565b6129ff8185613543565b935083602082028501612a118561348e565b8060005b85811015612a4c57848403895281612a2d8582612908565b9450612a388361351c565b925060208a01995050600181019050612a15565b50829750879550505050505092915050565b6000612a69826134ee565b612a738185613554565b935083602082028501612a85856134a3565b8060005b85811015612ac15784840389528151612aa2858261291c565b9450612aad83613529565b925060208a01995050600181019050612a89565b50829750879550505050505092915050565b6000612ade826134f9565b612ae88185613565565b9350612af3836134b3565b8060005b83811015612b24578151612b0b8882612930565b9750612b1683613536565b925050600181019050612af7565b5085935050505092915050565b612b3a816136a0565b82525050565b612b49816136e5565b82525050565b612b5881613709565b82525050565b612b678161372d565b82525050565b6000612b7882613504565b612b828185613576565b9350612b9281856020860161374e565b612b9b816138fd565b840191505092915050565b60008154612bb381613781565b612bbd8186613576565b94506001821660008114612bd85760018114612bea57612c1d565b60ff1983168652602086019350612c1d565b612bf3856134c3565b60005b83811015612c1557815481890152600182019150602081019050612bf6565b808801955050505b50505092915050565b60008154612c3381613781565b612c3d8186613587565b94506001821660008114612c585760018114612c6a57612c9d565b60ff1983168652602086019350612c9d565b612c73856134c3565b60005b83811015612c9557815481890152600182019150602081019050612c76565b808801955050505b50505092915050565b6000612cb3601e83613587565b9150612cbe8261390e565b602082019050919050565b6000612cd6601583613587565b9150612ce182613937565b602082019050919050565b6000612cf9601883613587565b9150612d0482613960565b602082019050919050565b6000612d1c602b83613587565b9150612d2782613989565b604082019050919050565b6000612d3f602883613587565b9150612d4a826139d8565b604082019050919050565b6000612d62602b83613587565b9150612d6d82613a27565b604082019050919050565b6000612d85601983613587565b9150612d9082613a76565b602082019050919050565b6000612da8601583613587565b9150612db382613a9f565b602082019050919050565b6000612dcb602c83613587565b9150612dd682613ac8565b604082019050919050565b6000612dee602783613587565b9150612df982613b17565b604082019050919050565b6000612e11601f83613587565b9150612e1c82613b66565b602082019050919050565b6000612e34601983613587565b9150612e3f82613b8f565b602082019050919050565b6000612e57600d83613587565b9150612e6282613bb8565b602082019050919050565b600061018083016000830151612e866000860182613046565b5060208301518482036020860152612e9e8282612b6d565b91505060408301518482036040860152612eb88282612b6d565b91505060608301518482036060860152612ed28282612b6d565b91505060808301518482036080860152612eec8282612b6d565b91505060a0830151612f0160a0860182613046565b5060c0830151612f1460c0860182613046565b5060e0830151612f2760e0860182613046565b50610100830151612f3c610100860182612948565b50610120830151612f51610120860182612957565b50610140830151612f66610140860182612b31565b50610160830151612f7b610160860182613046565b508091505092915050565b61010082016000820151612f9d6000850182612957565b506020820151612fb06020850182612957565b506040820151612fc36040850182613037565b506060820151612fd66060850182612957565b506080820151612fe96080850182613046565b5060a0820151612ffc60a0850182613046565b5060c082015161300f60c0850182613046565b5060e082015161302260e0850182613028565b50505050565b613031816136ac565b82525050565b613040816136cc565b82525050565b61304f816136db565b82525050565b61305e816136db565b82525050565b60006040820190506130796000830185612966565b6130866020830184612966565b9392505050565b60006060820190506130a26000830186612966565b6130af6020830185612966565b6130bc6040830184613055565b949350505050565b60006040820190506130d96000830185612966565b6130e66020830184613055565b9392505050565b600060208201905081810360008301526131078184612975565b905092915050565b600060208201905081810360008301526131298184612a5e565b905092915050565b6000602082019050818103600083015261314b8184612ad3565b905092915050565b60006020820190506131686000830184612b40565b92915050565b60006020820190506131836000830184612b4f565b92915050565b600060208201905081810360008301526131a281612ca6565b9050919050565b600060208201905081810360008301526131c281612cc9565b9050919050565b600060208201905081810360008301526131e281612cec565b9050919050565b6000602082019050818103600083015261320281612d0f565b9050919050565b6000602082019050818103600083015261322281612d32565b9050919050565b6000602082019050818103600083015261324281612d55565b9050919050565b6000602082019050818103600083015261326281612d78565b9050919050565b6000602082019050818103600083015261328281612d9b565b9050919050565b600060208201905081810360008301526132a281612dbe565b9050919050565b600060208201905081810360008301526132c281612de1565b9050919050565b600060208201905081810360008301526132e281612e04565b9050919050565b6000602082019050818103600083015261330281612e27565b9050919050565b6000602082019050818103600083015261332281612e4a565b9050919050565b60006101008201905061333f6000830184612f86565b92915050565b600060208201905061335a6000830184613055565b92915050565b60006060820190506133756000830186613055565b6133826020830185612b5e565b818103604083015261339481846129ea565b9050949350505050565b60006060820190506133b36000830186613055565b6133c06020830185613055565b81810360408301526133d281846129ea565b9050949350505050565b60006080820190506133f16000830187613055565b6133fe6020830186613055565b81810360408301526134108185612c26565b905061341f6060830184612966565b95945050505050565b6000613432613443565b905061343e82826137b3565b919050565b6000604051905090565b600067ffffffffffffffff821115613468576134676138ba565b5b613471826138fd565b9050602081019050919050565b6000819050602082019050919050565b60008190508160005260206000209050919050565b6000819050602082019050919050565b6000819050602082019050919050565b60008190508160005260206000209050919050565b600081519050919050565b600081549050919050565b600081519050919050565b600081519050919050565b600081519050919050565b6000602082019050919050565b6000600182019050919050565b6000602082019050919050565b6000602082019050919050565b600082825260208201905092915050565b600082825260208201905092915050565b600082825260208201905092915050565b600082825260208201905092915050565b600082825260208201905092915050565b60006135a3826136db565b91506135ae836136db565b9250827fffffffffffffffffffffffffffffffffffffffffffffffffffffffffffffffff038211156135e3576135e261382d565b5b828201905092915050565b60006135f9826136db565b9150613604836136db565b9250817fffffffffffffffffffffffffffffffffffffffffffffffffffffffffffffffff048311821515161561363d5761363c61382d565b5b828202905092915050565b6000613653826136db565b915061365e836136db565b9250828210156136715761367061382d565b5b828203905092915050565b6000613687826136ac565b9050919050565b6000613699826136ac565b9050919050565b60008115159050919050565b600073ffffffffffffffffffffffffffffffffffffffff82169050919050565b600062ffffff82169050919050565b6000819050919050565b60006136f0826136f7565b9050919050565b6000613702826136ac565b9050919050565b60006137148261371b565b9050919050565b6000613726826136ac565b9050919050565b6000613738826136db565b9050919050565b82818337600083830152505050565b60005b8381101561376c578082015181840152602081019050613751565b8381111561377b576000848401525b50505050565b6000600282049050600182168061379957607f821691505b602082108114156137ad576137ac61385c565b5b50919050565b6137bc826138fd565b810181811067ffffffffffffffff821117156137db576137da6138ba565b5b80604052505050565b60006137ef826136db565b91507fffffffffffffffffffffffffffffffffffffffffffffffffffffffffffffffff8214156138225761382161382d565b5b600182019050919050565b7f4e487b7100000000000000000000000000000000000000000000000000000000600052601160045260246000fd5b7f4e487b7100000000000000000000000000000000000000000000000000000000600052602260045260246000fd5b7f4e487b7100000000000000000000000000000000000000000000000000000000600052603260045260246000fd5b7f4e487b7100000000000000000000000000000000000000000000000000000000600052604160045260246000fd5b600080fd5b600080fd5b600080fd5b600080fd5b6000601f19601f8301169050919050565b7f646f6e6174696f6e206d757374206265206c6172676572207468616e20300000600082015250565b7f54617267657420616d6f756e7420657863656465640000000000000000000000600082015250565b7f54686973206973206e6f74204554482063616d706169676e0000000000000000600082015250565b7f796f752063616e27742062652063616d706169676e2062656e65666163746f7260008201527f20746f20646f2074686973000000000000000000000000000000000000000000602082015250565b7f796f752063616e27742062652063616d706169676e2063726561746f7220746f60008201527f20646f2074686973000000000000000000000000000000000000000000000000602082015250565b7f63616d7061696e67207461726765742063757272656e6379206d75737420626560008201527f20455448206f7220444149000000000000000000000000000000000000000000602082015250565b7f436865636b2074686520746f6b656e20616c6c6f77616e636500000000000000600082015250565b7f63616d7061696e67206861732066696e69736865640000000000000000000000600082015250565b7f63616d706169676e2074617267657420616d6f756e74206d757374206265206c60008201527f6172676572207468616e20300000000000000000000000000000000000000000602082015250565b7f796f75206d7573742062652063616d706169676e2063726561746f7220746f2060008201527f646f207468697300000000000000000000000000000000000000000000000000602082015250565b7f43616d706169676e206d75737420656e6420696e207468652066757475726500600082015250565b7f43616d706169676e20616c72656164792066696e697368656400000000000000600082015250565b7f726566756e64206661696c656400000000000000000000000000000000000000600082015250565b613bea8161367c565b8114613bf557600080fd5b50565b613c018161368e565b8114613c0c57600080fd5b50565b613c18816136a0565b8114613c2357600080fd5b50565b613c2f816136db565b8114613c3a57600080fd5b5056fea26469706673582212208082273742840a32f281ca0d8a9a9bd2e9a78b0d55ad1e07be695432aaf7259e64736f6c63430008060033",
  "immutableReferences": {},
  "source": "// SPDX-License-Identifier: MIT\npragma solidity >=0.7.6 <0.9.0;\npragma abicoder v2;\n\n// import \"https://github.com/Uniswap/uniswap-v3-periphery/blob/main/contracts/interfaces/ISwapRouter.sol\";\n// import \"https://github.com/Uniswap/uniswap-v3-periphery/blob/main/contracts/interfaces/IQuoter.sol\";\nimport \"@uniswap/v3-periphery/contracts/interfaces/ISwapRouter.sol\";\nimport \"@uniswap/v3-periphery/contracts/interfaces/IQuoter.sol\";\n\ninterface IUniswapRouter is ISwapRouter {\n    function refundETH() external payable;\n}\n\ninterface IERC20 {\n    function transferFrom(\n        address sender, \n        address recipient, \n        uint256 amount) \n        external \n        returns (bool);\n    function approve(address spender, uint tokens)  external returns (bool);\n    function totalSupply() external view returns (uint256);\n    function balanceOf(address account) external view returns (uint256);\n    function allowance(address owner, address spender) external view returns (uint256);\n\n    function transfer(address recipient, uint256 amount) external returns (bool);\n}\n\ninterface IUniswap {\n    function swapExactTokensForETH(\n        uint amountIn, \n        uint amountOutMin, \n        address[] calldata path, \n        address to, \n        uint deadline)\n        external\n        returns (uint[] memory amounts);\n    function WETH() external pure returns (address);\n}\n\n// interface IERC20 {\n//     function transferFrom(\n//         address sender, \n//         address recipient, \n//         uint256 amount) \n//         external \n//         returns (bool);\n//     function approve(address spender, uint tokens)  external returns (bool);\n// }\n    \ncontract SupportChildren {\n      IUniswapRouter public constant uniswapRouter = IUniswapRouter(0xE592427A0AEce92De3Edee1F18E0157C05861564);\n  IQuoter public constant quoter = IQuoter(0xb27308f9F90D607463bb33eA1BeBb41C27CE5AB6);\n  address private constant multiDaiKovan = 0x6B175474E89094C44Da98b954EedeAC495271d0F;\n  address private constant WETH9 = 0xC02aaA39b223FE8D0A0e5C4F27eAD9083C756Cc2;\n\n  function convertExactEthToToken(address token) internal {\n    require(msg.value > 0, \"Must pass non 0 ETH amount\");\n\n    uint256 deadline = block.timestamp + 15; // using 'now' for convenience, for mainnet pass deadline from frontend!\n    address tokenIn = WETH9;\n    address tokenOut = token;\n    uint24 fee = 3000;\n    address recipient = address(this);\n    uint256 amountIn = msg.value;\n    uint256 amountOutMinimum = 1;\n    uint160 sqrtPriceLimitX96 = 0;\n    \n    ISwapRouter.ExactInputSingleParams memory params = ISwapRouter.ExactInputSingleParams(\n        tokenIn,\n        tokenOut,\n        fee,\n        recipient,\n        deadline,\n        amountIn,\n        amountOutMinimum,\n        sqrtPriceLimitX96\n    );\n    \n    uniswapRouter.exactInputSingle{ value: msg.value }(params);\n    uniswapRouter.refundETH();\n    \n    // refund leftover ETH to user\n    (bool success,) = msg.sender.call{ value: address(this).balance }(\"\");\n    require(success, \"refund failed\");\n  }\n  \n  function convertTokenToExactEth(address token, uint amountOut, uint amountInMaximum) internal returns (uint256) {\n    uint256 allowance = IERC20(token).allowance(msg.sender, address(this));\n    require(allowance >= amountInMaximum, \"Check the token allowance\");\n    IERC20(token).transferFrom(msg.sender, address(this), amountInMaximum);\n    uint256 deadline = block.timestamp + 15; // using 'now' for convenience, for mainnet pass deadline from frontend!\n    address tokenIn = token;\n    address tokenOut = WETH9;\n    uint24 fee = 3000;\n    address recipient = address(this);\n    uint160 sqrtPriceLimitX96 = 0;\n    IERC20(token).approve(address(uniswapRouter), amountInMaximum);\n    \n    ISwapRouter.ExactOutputSingleParams memory params = ISwapRouter.ExactOutputSingleParams(\n        tokenIn,\n        tokenOut,\n        fee,\n        recipient,\n        deadline,\n        amountOut,\n        amountInMaximum,\n        sqrtPriceLimitX96\n    );\n    \n    uint256 amountOfTokenUsed = uniswapRouter.exactOutputSingle(params);\n    uint256 remainderOfTokens = amountInMaximum-amountOfTokenUsed;\n    // refund leftover Tokens to user\n    (bool success) = IERC20(token).transfer(msg.sender, remainderOfTokens);\n    require(success, \"refund failed\");\n    \n    return amountOfTokenUsed;\n  }\n  \n  function convertTokenToExactToken(address tokenIn, address tokenOut, uint amountOut, uint amountInMaximum) internal returns (uint256) {\n    uint256 allowance = IERC20(tokenIn).allowance(msg.sender, address(this));\n    require(allowance >= amountInMaximum, \"Check the token allowance\");\n    IERC20(tokenIn).transferFrom(msg.sender, address(this), amountInMaximum);\n    uint256 deadline = block.timestamp + 15; // using 'now' for convenience, for mainnet pass deadline from frontend!\n    uint24 fee = 3000;\n    address recipient = address(this);\n    uint160 sqrtPriceLimitX96 = 0;\n    IERC20(tokenIn).approve(address(uniswapRouter), amountInMaximum);\n    \n    ISwapRouter.ExactOutputSingleParams memory params = ISwapRouter.ExactOutputSingleParams(\n        tokenIn,\n        tokenOut,\n        fee,\n        recipient,\n        deadline,\n        amountOut,\n        amountInMaximum,\n        sqrtPriceLimitX96\n    );\n    \n    uint256 amountOfTokenUsed = uniswapRouter.exactOutputSingle(params);\n    uint256 remainderOfTokens = amountInMaximum-amountOfTokenUsed;\n    \n    // refund leftover Tokens to user\n    (bool success) = IERC20(tokenIn).transfer(msg.sender, remainderOfTokens);\n    require(success, \"refund failed\");\n    \n    return amountOfTokenUsed;\n  }\n  \n  // do not used on-chain, gas inefficient!\n  function getEstimatedETHforDAI(uint daiAmount) internal returns (uint256) {\n    address tokenIn = WETH9;\n    address tokenOut = multiDaiKovan;\n    uint24 fee = 3000;\n    uint160 sqrtPriceLimitX96 = 0;\n\n    return quoter.quoteExactOutputSingle(\n        tokenIn,\n        tokenOut,\n        fee,\n        daiAmount,\n        sqrtPriceLimitX96\n    );\n  }\n  \n  // important to receive ETH\n  receive() payable external {}\n  \n    event DonationMade (\n        uint campaignId,\n        uint donationAmount,\n        string notifyEmail,\n        address token\n    );\n\n    event CampaignCreated (\n        uint campaignId\n    );\n\n    event CampaignFinished (\n        uint campaignId,\n        uint currentAmount,\n        string[] notifyEmails\n    );\n    \n    uint campaignIndex;\n    uint count;\n    \n    struct Campaign {\n        uint id;\n        string name; \n        string description;\n        string creatorEmail; \n        string image; \n        uint targetCurrency; \n        uint targetAmount;\n        uint currentAmount;\n        address payable beneficiaryAddress;\n        address creatorAddress;\n        bool active;\n        uint endTimestamp;\n    }\n    \n    Campaign[] campaigns;\n    \n    mapping(uint => string[]) campaignDonationsEmails;\n    mapping(address => uint[]) campaignDonors;\n    \n    modifier campaignCreator(uint _campaignId) {\n        require(campaigns[_campaignId].creatorAddress == tx.origin, \"you must be campaign creator to do this\");\n        _;\n    }\n    \n    modifier notCampaignCreator(uint _campaignId) {\n        require(campaigns[_campaignId].creatorAddress != tx.origin, \"you can't be campaign creator to do this\");\n        _;\n    }\n\n    modifier ethCampaign(uint _campaignId) {\n        require(campaigns[_campaignId].targetCurrency == 0, \"This is not ETH campaign\");\n        _;\n    }\n\n    modifier notCampaignBenefactor(uint _campaignId) {\n        require(campaigns[_campaignId].beneficiaryAddress != tx.origin, \"you can't be campaign benefactor to do this\");\n        _;\n    }\n\n    modifier campaignActive(uint _campaignId) {\n        require(campaigns[_campaignId].active == true, \"campaing has finished\");\n        _;\n    }\n\n    function createCampaign(string memory _name, string memory _description, string memory _creatorEmail, string memory _image, uint _endTimestamp, uint _targetCurrency, uint _targetAmount, address payable _beneficiaryAddress) public {\n        require(_targetAmount > 0, \"campaign target amount must be larger than 0\");\n        require(_endTimestamp > block.timestamp, \"Campaign must end in the future\");\n        // TODO: save keccak256(bytes(\"ETH\") as variable to reduce gas fee's\n        require(_targetCurrency == 1 || _targetCurrency == 0, \"campaing target currency must be ETH or DAI\");\n        campaigns.push(Campaign({\n            id: count,\n            name: _name,\n            description: _description,\n            creatorEmail: _creatorEmail,\n            image: _image,\n            targetAmount: _targetAmount,\n            targetCurrency: _targetCurrency,\n            currentAmount: 0,\n            beneficiaryAddress: _beneficiaryAddress,\n            creatorAddress: tx.origin,\n            active: true,\n            endTimestamp: _endTimestamp \n        }));\n\n        emit CampaignCreated(count);\n        \n        count++;\n    }\n\n    function endCampaign(uint _campaignId) public campaignActive(_campaignId) campaignCreator(_campaignId) {\n        if (campaigns[_campaignId].currentAmount > 0) {\n            finishCampaign(_campaignId);\n        } else {\n            emit CampaignFinished(_campaignId, 0, campaignDonationsEmails[_campaignId]);\n            campaigns[_campaignId].active = false;\n        }\n    }\n\n    function editCampaign(uint _campaignId, string memory _name, string memory _description, string memory _creatorEmail, string memory _image) public campaignActive(_campaignId) campaignCreator(_campaignId) {\n        campaigns[_campaignId].name = _name;\n        campaigns[_campaignId].description = _description;\n        campaigns[_campaignId].creatorEmail = _creatorEmail;\n        campaigns[_campaignId].image = _image;\n    }\n\n    function finishCampaign(uint _campaignId) private {\n        emit CampaignFinished(_campaignId, campaigns[_campaignId].currentAmount, campaignDonationsEmails[_campaignId]);\n        // Send ETH to the address of the child\n        campaigns[_campaignId].beneficiaryAddress.transfer(campaigns[_campaignId].currentAmount);\n        campaigns[_campaignId].active = false;\n    }\n\n\n    // ETH to ETH\n    function donateEthToEthCampaign(uint _campaignId, string memory _donorEmail) payable public campaignActive(_campaignId) notCampaignCreator(_campaignId) notCampaignBenefactor(_campaignId) ethCampaign(_campaignId) {\n        require(msg.value > 0, \"donation must be larger than 0\");\n        require(campaigns[_campaignId].endTimestamp > block.timestamp, \"Campaign already finished\");\n\n        // curentamount must be fetched from frontend\n        require((campaigns[_campaignId].currentAmount  + msg.value) * 10 < 11 * campaigns[_campaignId].targetAmount, \"Target amount exceded\");\n        campaignDonationsEmails[_campaignId].push(_donorEmail);\n        campaignDonors[tx.origin].push(_campaignId);\n        campaigns[_campaignId].currentAmount = campaigns[_campaignId].currentAmount  + msg.value;\n\n        emit DonationMade(_campaignId, msg.value, campaigns[_campaignId].creatorEmail, address(this));\n\n        if (campaigns[_campaignId].currentAmount >= campaigns[_campaignId].targetAmount) {\n            finishCampaign(_campaignId);\n        }\n    }\n\n    // Token to ETH\n    function donateTokenToETHCampaign(uint _campaignId, string memory _donorEmail, address token, uint amountOut, uint amountInMax) public {\n        (uint256 tokensSpent) = convertTokenToExactEth(token, amountOut, amountInMax);\n        campaignDonationsEmails[_campaignId].push(_donorEmail);\n        campaignDonors[tx.origin].push(_campaignId);\n        campaigns[_campaignId].currentAmount = campaigns[_campaignId].currentAmount + amountOut;\n        emit DonationMade(_campaignId, tokensSpent, campaigns[_campaignId].creatorEmail, token);\n\n        if (campaigns[_campaignId].currentAmount >= campaigns[_campaignId].targetAmount) {\n            finishCampaign(_campaignId);\n        }\n    }\n    // Token to Token\n    function donateTokenToTokenCampaign(uint _campaignId, string memory _donorEmail, address tokenIn, address tokenOut, uint amountOut, uint amountInMax) public {\n        (uint256 tokensSpent) = convertTokenToExactToken(tokenIn, tokenOut, amountOut, amountInMax);\n        campaignDonationsEmails[_campaignId].push(_donorEmail);\n        campaignDonors[tx.origin].push(_campaignId);\n        campaigns[_campaignId].currentAmount = campaigns[_campaignId].currentAmount + amountOut;\n        emit DonationMade(_campaignId, tokensSpent, campaigns[_campaignId].creatorEmail, tokenIn);\n\n        if (campaigns[_campaignId].currentAmount >= campaigns[_campaignId].targetAmount) {\n            finishCampaign(_campaignId);\n        }\n    }\n    \n    function getDonorEmails(uint _campaignId) view public returns (string[] memory) {\n        return campaignDonationsEmails[_campaignId];\n    }\n    \n    function getDonorsCampaingsList(address _donor) view public returns (uint[] memory) {\n        return campaignDonors[_donor];\n    }\n    \n    function getCampaigns() public view returns (Campaign[] memory) {\n        return campaigns;\n    }\n\n    function getCampaignAmount(uint _campaignId) public view returns (uint) {\n        return campaigns[_campaignId].currentAmount;\n    }\n}",
  "sourcePath": "/home/zarko/learn/ethereum/support-children/contracts/SupportChildren.sol",
  "compiler": {
    "name": "solc",
    "version": "0.8.6+commit.11564f7e.Emscripten.clang"
  },
  "schemaVersion": "3.4.1",
  "updatedAt": "2021-08-09T07:33:02.506Z",
  "networkType": "ethereum",
  "devdoc": {
    "kind": "dev",
    "methods": {},
    "version": 1
  },
  "userdoc": {
    "kind": "user",
    "methods": {},
    "version": 1
  }
}