{
  "contractName": "SupportChildren",
  "abi": [
    {
      "anonymous": false,
      "inputs": [
        {
          "indexed": false,
          "internalType": "uint256",
          "name": "campaignId",
          "type": "uint256"
        }
      ],
      "name": "CampaignCreated",
      "type": "event"
    },
    {
      "anonymous": false,
      "inputs": [
        {
          "indexed": false,
          "internalType": "uint256",
          "name": "campaignId",
          "type": "uint256"
        },
        {
          "indexed": false,
          "internalType": "uint256",
          "name": "currentAmount",
          "type": "uint256"
        },
        {
          "indexed": false,
          "internalType": "string[]",
          "name": "notifyEmails",
          "type": "string[]"
        }
      ],
      "name": "CampaignFinished",
      "type": "event"
    },
    {
      "anonymous": false,
      "inputs": [
        {
          "indexed": false,
          "internalType": "uint256",
          "name": "campaignId",
          "type": "uint256"
        },
        {
          "indexed": false,
          "internalType": "string",
          "name": "campaignImage",
          "type": "string"
        },
        {
          "indexed": false,
          "internalType": "uint256",
          "name": "nftType",
          "type": "uint256"
        }
      ],
      "name": "CreateNFT",
      "type": "event"
    },
    {
      "anonymous": false,
      "inputs": [
        {
          "indexed": false,
          "internalType": "uint256",
          "name": "campaignId",
          "type": "uint256"
        },
        {
          "indexed": false,
          "internalType": "uint256",
          "name": "donationAmount",
          "type": "uint256"
        },
        {
          "indexed": false,
          "internalType": "string",
          "name": "notifyEmail",
          "type": "string"
        },
        {
          "indexed": false,
          "internalType": "address",
          "name": "token",
          "type": "address"
        }
      ],
      "name": "DonationMade",
      "type": "event"
    },
    {
      "inputs": [],
      "name": "nft",
      "outputs": [
        {
          "internalType": "contract SupportChildrenCollectable",
          "name": "",
          "type": "address"
        }
      ],
      "stateMutability": "view",
      "type": "function"
    },
    {
      "inputs": [],
      "name": "uniswapRouter",
      "outputs": [
        {
          "internalType": "contract IUniswapRouter",
          "name": "",
          "type": "address"
        }
      ],
      "stateMutability": "view",
      "type": "function"
    },
    {
      "stateMutability": "payable",
      "type": "receive"
    },
    {
      "inputs": [
        {
          "internalType": "string",
          "name": "_name",
          "type": "string"
        },
        {
          "internalType": "string",
          "name": "_description",
          "type": "string"
        },
        {
          "internalType": "string",
          "name": "_creatorEmail",
          "type": "string"
        },
        {
          "internalType": "string",
          "name": "_image",
          "type": "string"
        },
        {
          "internalType": "uint256",
          "name": "_endTimestamp",
          "type": "uint256"
        },
        {
          "internalType": "address",
          "name": "_targetCurrency",
          "type": "address"
        },
        {
          "internalType": "uint256",
          "name": "_targetAmount",
          "type": "uint256"
        },
        {
          "internalType": "address payable",
          "name": "_beneficiaryAddress",
          "type": "address"
        }
      ],
      "name": "createCampaign",
      "outputs": [],
      "stateMutability": "nonpayable",
      "type": "function"
    },
    {
      "inputs": [
        {
          "internalType": "uint256",
          "name": "_campaignId",
          "type": "uint256"
        }
      ],
      "name": "endCampaign",
      "outputs": [],
      "stateMutability": "nonpayable",
      "type": "function"
    },
    {
      "inputs": [
        {
          "internalType": "uint256",
          "name": "_campaignId",
          "type": "uint256"
        },
        {
          "internalType": "string",
          "name": "_name",
          "type": "string"
        },
        {
          "internalType": "string",
          "name": "_description",
          "type": "string"
        },
        {
          "internalType": "string",
          "name": "_creatorEmail",
          "type": "string"
        },
        {
          "internalType": "string",
          "name": "_image",
          "type": "string"
        }
      ],
      "name": "editCampaign",
      "outputs": [],
      "stateMutability": "nonpayable",
      "type": "function"
    },
    {
      "inputs": [
        {
          "internalType": "uint256",
          "name": "_campaignId",
          "type": "uint256"
        },
        {
          "internalType": "string",
          "name": "_donorEmail",
          "type": "string"
        }
      ],
      "name": "donateEthToEthCampaign",
      "outputs": [],
      "stateMutability": "payable",
      "type": "function"
    },
    {
      "inputs": [
        {
          "internalType": "uint256",
          "name": "_campaignId",
          "type": "uint256"
        },
        {
          "internalType": "string",
          "name": "_donorEmail",
          "type": "string"
        }
      ],
      "name": "donateEthToTokenCampaign",
      "outputs": [],
      "stateMutability": "payable",
      "type": "function"
    },
    {
      "inputs": [
        {
          "internalType": "uint256",
          "name": "_campaignId",
          "type": "uint256"
        },
        {
          "internalType": "string",
          "name": "_donorEmail",
          "type": "string"
        },
        {
          "internalType": "address",
          "name": "token",
          "type": "address"
        },
        {
          "internalType": "uint256",
          "name": "amountOut",
          "type": "uint256"
        },
        {
          "internalType": "uint256",
          "name": "amountInMax",
          "type": "uint256"
        }
      ],
      "name": "donateTokenToETHCampaign",
      "outputs": [],
      "stateMutability": "nonpayable",
      "type": "function"
    },
    {
      "inputs": [
        {
          "internalType": "uint256",
          "name": "_campaignId",
          "type": "uint256"
        },
        {
          "internalType": "string",
          "name": "_donorEmail",
          "type": "string"
        },
        {
          "internalType": "address",
          "name": "tokenIn",
          "type": "address"
        },
        {
          "internalType": "uint256",
          "name": "amountOut",
          "type": "uint256"
        },
        {
          "internalType": "uint256",
          "name": "amountInMax",
          "type": "uint256"
        }
      ],
      "name": "donateTokenToDifferentTokenCampaign",
      "outputs": [],
      "stateMutability": "nonpayable",
      "type": "function"
    },
    {
      "inputs": [
        {
          "internalType": "uint256",
          "name": "_campaignId",
          "type": "uint256"
        },
        {
          "internalType": "string",
          "name": "_donorEmail",
          "type": "string"
        },
        {
          "internalType": "uint256",
          "name": "amount",
          "type": "uint256"
        }
      ],
      "name": "donateTokenToSameTokenCampaign",
      "outputs": [],
      "stateMutability": "nonpayable",
      "type": "function"
    },
    {
      "inputs": [
        {
          "internalType": "uint256",
          "name": "_campaignId",
          "type": "uint256"
        }
      ],
      "name": "getDonorEmails",
      "outputs": [
        {
          "internalType": "string[]",
          "name": "",
          "type": "string[]"
        }
      ],
      "stateMutability": "view",
      "type": "function"
    },
    {
      "inputs": [
        {
          "internalType": "address",
          "name": "_donor",
          "type": "address"
        }
      ],
      "name": "getDonorsCampaingsList",
      "outputs": [
        {
          "internalType": "uint256[]",
          "name": "",
          "type": "uint256[]"
        }
      ],
      "stateMutability": "view",
      "type": "function"
    },
    {
      "inputs": [],
      "name": "getCampaigns",
      "outputs": [
        {
          "components": [
            {
              "internalType": "uint256",
              "name": "id",
              "type": "uint256"
            },
            {
              "internalType": "string",
              "name": "name",
              "type": "string"
            },
            {
              "internalType": "string",
              "name": "description",
              "type": "string"
            },
            {
              "internalType": "string",
              "name": "creatorEmail",
              "type": "string"
            },
            {
              "internalType": "string",
              "name": "image",
              "type": "string"
            },
            {
              "internalType": "address",
              "name": "targetCurrency",
              "type": "address"
            },
            {
              "internalType": "uint256",
              "name": "targetAmount",
              "type": "uint256"
            },
            {
              "internalType": "uint256",
              "name": "currentAmount",
              "type": "uint256"
            },
            {
              "internalType": "uint256",
              "name": "amountInWeth",
              "type": "uint256"
            },
            {
              "internalType": "address payable",
              "name": "beneficiaryAddress",
              "type": "address"
            },
            {
              "internalType": "address",
              "name": "creatorAddress",
              "type": "address"
            },
            {
              "internalType": "bool",
              "name": "active",
              "type": "bool"
            },
            {
              "internalType": "uint256",
              "name": "endTimestamp",
              "type": "uint256"
            }
          ],
          "internalType": "struct SupportChildren.Campaign[]",
          "name": "",
          "type": "tuple[]"
        }
      ],
      "stateMutability": "view",
      "type": "function"
    },
    {
      "inputs": [
        {
          "internalType": "uint256",
          "name": "_campaignId",
          "type": "uint256"
        }
      ],
      "name": "getCampaignAmount",
      "outputs": [
        {
          "internalType": "uint256",
          "name": "",
          "type": "uint256"
        }
      ],
      "stateMutability": "view",
      "type": "function"
    }
  ],
  "bytecode": "0x608060405234801561001057600080fd5b50615b7380620000216000396000f3fe6080604052600436106100e15760003560e01c8063909f7d661161007f578063dd0408ae11610059578063dd0408ae146102c9578063e0c6b5f9146102f2578063e981dc021461031b578063f798b2c714610337576100e8565b8063909f7d6614610238578063a6b0363314610275578063af0f42ee146102a0576100e8565b8063296c10f4116100bb578063296c10f41461017c57806347ccca02146101b95780634c6d55bb146101e4578063735de9f71461020d576100e8565b806311862ab1146100ed57806318fedf0614610116578063289b7a4714610153576100e8565b366100e857005b600080fd5b3480156100f957600080fd5b50610114600480360381019061010f91906141f0565b610353565b005b34801561012257600080fd5b5061013d60048036038101906101389190613fba565b6107d1565b60405161014a9190614d7f565b60405180910390f35b34801561015f57600080fd5b5061017a60048036038101906101759190614372565b610868565b005b34801561018857600080fd5b506101a3600480360381019061019e919061413a565b610e4e565b6040516101b091906150e9565b60405180910390f35b3480156101c557600080fd5b506101ce610e7d565b6040516101db9190614dbc565b60405180910390f35b3480156101f057600080fd5b5061020b600480360381019061020691906141f0565b610e95565b005b34801561021957600080fd5b50610222611325565b60405161022f9190614da1565b60405180910390f35b34801561024457600080fd5b5061025f600480360381019061025a919061413a565b61133d565b60405161026c9190614d3b565b60405180910390f35b34801561028157600080fd5b5061028a611429565b6040516102979190614d5d565b60405180910390f35b3480156102ac57600080fd5b506102c760048036038101906102c29190614287565b611820565b005b3480156102d557600080fd5b506102f060048036038101906102eb919061413a565b611aa6565b005b3480156102fe57600080fd5b5061031960048036038101906103149190614014565b611d09565b005b61033560048036038101906103309190614194565b612057565b005b610351600480360381019061034c9190614194565b6125f9565b005b84600115156002828154811061036c5761036b61570d565b5b90600052602060002090600c0201600a0160149054906101000a900460ff161515146103cd576040517f08c379a00000000000000000000000000000000000000000000000000000000081526004016103c490614fd1565b60405180910390fd5b42600282815481106103e2576103e161570d565b5b90600052602060002090600c0201600b015411610434576040517f08c379a000000000000000000000000000000000000000000000000000000000815260040161042b90615051565b60405180910390fd5b853073ffffffffffffffffffffffffffffffffffffffff16600282815481106104605761045f61570d565b5b90600052602060002090600c020160050160009054906101000a900473ffffffffffffffffffffffffffffffffffffffff1673ffffffffffffffffffffffffffffffffffffffff16146104e8576040517f08c379a00000000000000000000000000000000000000000000000000000000081526004016104df90614f11565b60405180910390fd5b8684600282815481106104fe576104fd61570d565b5b90600052602060002090600c020160060154600b61051c919061544c565b600a82600285815481106105335761053261570d565b5b90600052602060002090600c02016007015461054f91906153f6565b610559919061544c565b10610599576040517f08c379a000000000000000000000000000000000000000000000000000000000815260040161059090614ed1565b60405180910390fd5b85600081116105dd576040517f08c379a00000000000000000000000000000000000000000000000000000000081526004016105d490614e91565b60405180910390fd5b60006105ea898989612a7f565b9050600060028c815481106106025761060161570d565b5b90600052602060002090600c0201600701549050600360008d81526020019081526020016000208b908060018154018082558091505060019003906000526020600020016000909190919091509080519060200190610662929190613e3e565b50600460003273ffffffffffffffffffffffffffffffffffffffff1673ffffffffffffffffffffffffffffffffffffffff1681526020019081526020016000208c90806001815401808255809150506001900390600052602060002001600090919091909150558860028d815481106106de576106dd61570d565b5b90600052602060002090600c0201600801546106fa91906153f6565b60028d8154811061070e5761070d61570d565b5b90600052602060002090600c020160080181905550888161072f91906153f6565b60028d815481106107435761074261570d565b5b90600052602060002090600c0201600701819055507fe3a6b824a5dcd9cc376de3c8eddd6aef4d82cce288e42272e2b874fa54f2d51a8c8360028f8154811061078f5761078e61570d565b5b90600052602060002090600c02016003018d6040516107b1949392919061523a565b60405180910390a16107c38c82612ef5565b505050505050505050505050565b6060600460008373ffffffffffffffffffffffffffffffffffffffff1673ffffffffffffffffffffffffffffffffffffffff16815260200190815260200160002080548060200260200160405190810160405280929190818152602001828054801561085c57602002820191906000526020600020905b815481526020019060010190808311610848575b50505050509050919050565b8260011515600282815481106108815761088061570d565b5b90600052602060002090600c0201600a0160149054906101000a900460ff161515146108e2576040517f08c379a00000000000000000000000000000000000000000000000000000000081526004016108d990614fd1565b60405180910390fd5b42600282815481106108f7576108f661570d565b5b90600052602060002090600c0201600b015411610949576040517f08c379a000000000000000000000000000000000000000000000000000000000815260040161094090615051565b60405180910390fd5b833073ffffffffffffffffffffffffffffffffffffffff16600282815481106109755761097461570d565b5b90600052602060002090600c020160050160009054906101000a900473ffffffffffffffffffffffffffffffffffffffff1673ffffffffffffffffffffffffffffffffffffffff1614156109fe576040517f08c379a00000000000000000000000000000000000000000000000000000000081526004016109f590614ef1565b60405180910390fd5b848360028281548110610a1457610a1361570d565b5b90600052602060002090600c020160060154600b610a32919061544c565b600a8260028581548110610a4957610a4861570d565b5b90600052602060002090600c020160070154610a6591906153f6565b610a6f919061544c565b10610aaf576040517f08c379a0000000000000000000000000000000000000000000000000000000008152600401610aa690614ed1565b60405180910390fd5b8460008111610af3576040517f08c379a0000000000000000000000000000000000000000000000000000000008152600401610aea90614e91565b60405180910390fd5b600060028981548110610b0957610b0861570d565b5b90600052602060002090600c020160050160009054906101000a900473ffffffffffffffffffffffffffffffffffffffff16905060008173ffffffffffffffffffffffffffffffffffffffff1663dd62ed3e32306040518363ffffffff1660e01b8152600401610b7a929190614cb2565b60206040518083038186803b158015610b9257600080fd5b505afa158015610ba6573d6000803e3d6000fd5b505050506040513d601f19601f82011682018060405250810190610bca9190614167565b905087811015610c0f576040517f08c379a0000000000000000000000000000000000000000000000000000000008152600401610c0690614f71565b60405180910390fd5b8173ffffffffffffffffffffffffffffffffffffffff166323b872dd32308b6040518463ffffffff1660e01b8152600401610c4c93929190614cdb565b602060405180830381600087803b158015610c6657600080fd5b505af1158015610c7a573d6000803e3d6000fd5b505050506040513d601f19601f82011682018060405250810190610c9e9190613fe7565b50600060028b81548110610cb557610cb461570d565b5b90600052602060002090600c0201600701549050600360008c81526020019081526020016000208a908060018154018082558091505060019003906000526020600020016000909190919091509080519060200190610d15929190613e3e565b50600460003273ffffffffffffffffffffffffffffffffffffffff1673ffffffffffffffffffffffffffffffffffffffff1681526020019081526020016000208b90806001815401808255809150506001900390600052602060002001600090919091909150558860028c81548110610d9157610d9061570d565b5b90600052602060002090600c020160070154610dad91906153f6565b60028c81548110610dc157610dc061570d565b5b90600052602060002090600c0201600701819055507fe3a6b824a5dcd9cc376de3c8eddd6aef4d82cce288e42272e2b874fa54f2d51a8b8a60028e81548110610e0d57610e0c61570d565b5b90600052602060002090600c020160030186604051610e2f949392919061523a565b60405180910390a1610e418b82612ef5565b5050505050505050505050565b600060028281548110610e6457610e6361570d565b5b90600052602060002090600c0201600701549050919050565b732e48d65dd6933e8146a7d2b891d173bfa438b24481565b846001151560028281548110610eae57610ead61570d565b5b90600052602060002090600c0201600a0160149054906101000a900460ff16151514610f0f576040517f08c379a0000000000000000000000000000000000000000000000000000000008152600401610f0690614fd1565b60405180910390fd5b4260028281548110610f2457610f2361570d565b5b90600052602060002090600c0201600b015411610f76576040517f08c379a0000000000000000000000000000000000000000000000000000000008152600401610f6d90615051565b60405180910390fd5b853073ffffffffffffffffffffffffffffffffffffffff1660028281548110610fa257610fa161570d565b5b90600052602060002090600c020160050160009054906101000a900473ffffffffffffffffffffffffffffffffffffffff1673ffffffffffffffffffffffffffffffffffffffff16141561102b576040517f08c379a000000000000000000000000000000000000000000000000000000000815260040161102290614ef1565b60405180910390fd5b8684600282815481106110415761104061570d565b5b90600052602060002090600c020160060154600b61105f919061544c565b600a82600285815481106110765761107561570d565b5b90600052602060002090600c02016007015461109291906153f6565b61109c919061544c565b106110dc576040517f08c379a00000000000000000000000000000000000000000000000000000000081526004016110d390614ed1565b60405180910390fd5b8560008111611120576040517f08c379a000000000000000000000000000000000000000000000000000000000815260040161111790614e91565b60405180910390fd5b60006111738960028d8154811061113a5761113961570d565b5b90600052602060002090600c020160050160009054906101000a900473ffffffffffffffffffffffffffffffffffffffff168a8a613289565b9050600060028c8154811061118b5761118a61570d565b5b90600052602060002090600c0201600701549050600360008d81526020019081526020016000208b9080600181540180825580915050600190039060005260206000200160009091909190915090805190602001906111eb929190613e3e565b50600460003273ffffffffffffffffffffffffffffffffffffffff1673ffffffffffffffffffffffffffffffffffffffff1681526020019081526020016000208c90806001815401808255809150506001900390600052602060002001600090919091909150558860028d815481106112675761126661570d565b5b90600052602060002090600c02016007015461128391906153f6565b60028d815481106112975761129661570d565b5b90600052602060002090600c0201600701819055507fe3a6b824a5dcd9cc376de3c8eddd6aef4d82cce288e42272e2b874fa54f2d51a8c8360028f815481106112e3576112e261570d565b5b90600052602060002090600c02016003018d604051611305949392919061523a565b60405180910390a16113178c82612ef5565b505050505050505050505050565b73e592427a0aece92de3edee1f18e0157c0586156481565b606060036000838152602001908152602001600020805480602002602001604051908101604052809291908181526020016000905b8282101561141e57838290600052602060002001805461139190615603565b80601f01602080910402602001604051908101604052809291908181526020018280546113bd90615603565b801561140a5780601f106113df5761010080835404028352916020019161140a565b820191906000526020600020905b8154815290600101906020018083116113ed57829003601f168201915b505050505081526020019060010190611372565b505050509050919050565b60606002805480602002602001604051908101604052809291908181526020016000905b8282101561181757838290600052602060002090600c0201604051806101a00160405290816000820154815260200160018201805461148b90615603565b80601f01602080910402602001604051908101604052809291908181526020018280546114b790615603565b80156115045780601f106114d957610100808354040283529160200191611504565b820191906000526020600020905b8154815290600101906020018083116114e757829003601f168201915b5050505050815260200160028201805461151d90615603565b80601f016020809104026020016040519081016040528092919081815260200182805461154990615603565b80156115965780601f1061156b57610100808354040283529160200191611596565b820191906000526020600020905b81548152906001019060200180831161157957829003601f168201915b505050505081526020016003820180546115af90615603565b80601f01602080910402602001604051908101604052809291908181526020018280546115db90615603565b80156116285780601f106115fd57610100808354040283529160200191611628565b820191906000526020600020905b81548152906001019060200180831161160b57829003601f168201915b5050505050815260200160048201805461164190615603565b80601f016020809104026020016040519081016040528092919081815260200182805461166d90615603565b80156116ba5780601f1061168f576101008083540402835291602001916116ba565b820191906000526020600020905b81548152906001019060200180831161169d57829003601f168201915b505050505081526020016005820160009054906101000a900473ffffffffffffffffffffffffffffffffffffffff1673ffffffffffffffffffffffffffffffffffffffff1673ffffffffffffffffffffffffffffffffffffffff1681526020016006820154815260200160078201548152602001600882015481526020016009820160009054906101000a900473ffffffffffffffffffffffffffffffffffffffff1673ffffffffffffffffffffffffffffffffffffffff1673ffffffffffffffffffffffffffffffffffffffff168152602001600a820160009054906101000a900473ffffffffffffffffffffffffffffffffffffffff1673ffffffffffffffffffffffffffffffffffffffff1673ffffffffffffffffffffffffffffffffffffffff168152602001600a820160149054906101000a900460ff16151515158152602001600b820154815250508152602001906001019061144d565b50505050905090565b8460011515600282815481106118395761183861570d565b5b90600052602060002090600c0201600a0160149054906101000a900460ff1615151461189a576040517f08c379a000000000000000000000000000000000000000000000000000000000815260040161189190614fd1565b60405180910390fd5b42600282815481106118af576118ae61570d565b5b90600052602060002090600c0201600b015411611901576040517f08c379a00000000000000000000000000000000000000000000000000000000081526004016118f890615051565b60405180910390fd5b853273ffffffffffffffffffffffffffffffffffffffff166002828154811061192d5761192c61570d565b5b90600052602060002090600c0201600a0160009054906101000a900473ffffffffffffffffffffffffffffffffffffffff1673ffffffffffffffffffffffffffffffffffffffff16146119b5576040517f08c379a00000000000000000000000000000000000000000000000000000000081526004016119ac90615011565b60405180910390fd5b85600288815481106119ca576119c961570d565b5b90600052602060002090600c020160010190805190602001906119ee929190613e3e565b508460028881548110611a0457611a0361570d565b5b90600052602060002090600c02016002019080519060200190611a28929190613e3e565b508360028881548110611a3e57611a3d61570d565b5b90600052602060002090600c02016003019080519060200190611a62929190613e3e565b508260028881548110611a7857611a7761570d565b5b90600052602060002090600c02016004019080519060200190611a9c929190613e3e565b5050505050505050565b806001151560028281548110611abf57611abe61570d565b5b90600052602060002090600c0201600a0160149054906101000a900460ff16151514611b20576040517f08c379a0000000000000000000000000000000000000000000000000000000008152600401611b1790614fd1565b60405180910390fd5b4260028281548110611b3557611b3461570d565b5b90600052602060002090600c0201600b015411611b87576040517f08c379a0000000000000000000000000000000000000000000000000000000008152600401611b7e90615051565b60405180910390fd5b813273ffffffffffffffffffffffffffffffffffffffff1660028281548110611bb357611bb261570d565b5b90600052602060002090600c0201600a0160009054906101000a900473ffffffffffffffffffffffffffffffffffffffff1673ffffffffffffffffffffffffffffffffffffffff1614611c3b576040517f08c379a0000000000000000000000000000000000000000000000000000000008152600401611c3290615011565b60405180910390fd5b600060028481548110611c5157611c5061570d565b5b90600052602060002090600c0201600701541115611c7757611c72836136e0565b611d04565b7fbc6fdcbbc64181fa5b0a580ffa8643761277b5ab073214c08cce86c7317bf40083600060036000878152602001908152602001600020604051611cbd93929190615104565b60405180910390a1600060028481548110611cdb57611cda61570d565b5b90600052602060002090600c0201600a0160146101000a81548160ff0219169083151502179055505b505050565b60008211611d4c576040517f08c379a0000000000000000000000000000000000000000000000000000000008152600401611d4390614ff1565b60405180910390fd5b428411611d8e576040517f08c379a0000000000000000000000000000000000000000000000000000000008152600401611d8590615031565b60405180910390fd5b6002604051806101a0016040528060015481526020018a81526020018981526020018881526020018781526020018573ffffffffffffffffffffffffffffffffffffffff16815260200184815260200160008152602001600081526020018373ffffffffffffffffffffffffffffffffffffffff1681526020013273ffffffffffffffffffffffffffffffffffffffff1681526020016001151581526020018681525090806001815401808255809150506001900390600052602060002090600c0201600090919091909150600082015181600001556020820151816001019080519060200190611e80929190613e3e565b506040820151816002019080519060200190611e9d929190613e3e565b506060820151816003019080519060200190611eba929190613e3e565b506080820151816004019080519060200190611ed7929190613e3e565b5060a08201518160050160006101000a81548173ffffffffffffffffffffffffffffffffffffffff021916908373ffffffffffffffffffffffffffffffffffffffff16021790555060c0820151816006015560e0820151816007015561010082015181600801556101208201518160090160006101000a81548173ffffffffffffffffffffffffffffffffffffffff021916908373ffffffffffffffffffffffffffffffffffffffff16021790555061014082015181600a0160006101000a81548173ffffffffffffffffffffffffffffffffffffffff021916908373ffffffffffffffffffffffffffffffffffffffff16021790555061016082015181600a0160146101000a81548160ff02191690831515021790555061018082015181600b015550507fbc0a5edd152fa5b886dcae82c5c109d113708653b4b9c0224549ccdf715af94e60015460405161202d91906150e9565b60405180910390a16001600081548092919061204890615666565b91905055505050505050505050565b8160011515600282815481106120705761206f61570d565b5b90600052602060002090600c0201600a0160149054906101000a900460ff161515146120d1576040517f08c379a00000000000000000000000000000000000000000000000000000000081526004016120c890614fd1565b60405180910390fd5b42600282815481106120e6576120e561570d565b5b90600052602060002090600c0201600b015411612138576040517f08c379a000000000000000000000000000000000000000000000000000000000815260040161212f90615051565b60405180910390fd5b823273ffffffffffffffffffffffffffffffffffffffff16600282815481106121645761216361570d565b5b90600052602060002090600c0201600a0160009054906101000a900473ffffffffffffffffffffffffffffffffffffffff1673ffffffffffffffffffffffffffffffffffffffff1614156121ed576040517f08c379a00000000000000000000000000000000000000000000000000000000081526004016121e490614f51565b60405180910390fd5b833273ffffffffffffffffffffffffffffffffffffffff16600282815481106122195761221861570d565b5b90600052602060002090600c020160090160009054906101000a900473ffffffffffffffffffffffffffffffffffffffff1673ffffffffffffffffffffffffffffffffffffffff1614156122a2576040517f08c379a000000000000000000000000000000000000000000000000000000000815260040161229990614f31565b60405180910390fd5b843073ffffffffffffffffffffffffffffffffffffffff16600282815481106122ce576122cd61570d565b5b90600052602060002090600c020160050160009054906101000a900473ffffffffffffffffffffffffffffffffffffffff1673ffffffffffffffffffffffffffffffffffffffff1614612356576040517f08c379a000000000000000000000000000000000000000000000000000000000815260040161234d90614f11565b60405180910390fd5b85346002828154811061236c5761236b61570d565b5b90600052602060002090600c020160060154600b61238a919061544c565b600a82600285815481106123a1576123a061570d565b5b90600052602060002090600c0201600701546123bd91906153f6565b6123c7919061544c565b10612407576040517f08c379a00000000000000000000000000000000000000000000000000000000081526004016123fe90614ed1565b60405180910390fd5b346000811161244b576040517f08c379a000000000000000000000000000000000000000000000000000000000815260040161244290614e91565b60405180910390fd5b600060028a815481106124615761246061570d565b5b90600052602060002090600c0201600701549050600360008b8152602001908152602001600020899080600181540180825580915050600190039060005260206000200160009091909190915090805190602001906124c1929190613e3e565b50600460003273ffffffffffffffffffffffffffffffffffffffff1673ffffffffffffffffffffffffffffffffffffffff1681526020019081526020016000208a90806001815401808255809150506001900390600052602060002001600090919091909150553460028b8154811061253d5761253c61570d565b5b90600052602060002090600c02016007015461255991906153f6565b60028b8154811061256d5761256c61570d565b5b90600052602060002090600c0201600701819055507fe3a6b824a5dcd9cc376de3c8eddd6aef4d82cce288e42272e2b874fa54f2d51a8a3460028d815481106125b9576125b861570d565b5b90600052602060002090600c0201600301306040516125db949392919061523a565b60405180910390a16125ed8a82612ef5565b50505050505050505050565b8160011515600282815481106126125761261161570d565b5b90600052602060002090600c0201600a0160149054906101000a900460ff16151514612673576040517f08c379a000000000000000000000000000000000000000000000000000000000815260040161266a90614fd1565b60405180910390fd5b42600282815481106126885761268761570d565b5b90600052602060002090600c0201600b0154116126da576040517f08c379a00000000000000000000000000000000000000000000000000000000081526004016126d190615051565b60405180910390fd5b823073ffffffffffffffffffffffffffffffffffffffff16600282815481106127065761270561570d565b5b90600052602060002090600c020160050160009054906101000a900473ffffffffffffffffffffffffffffffffffffffff1673ffffffffffffffffffffffffffffffffffffffff16141561278f576040517f08c379a000000000000000000000000000000000000000000000000000000000815260040161278690614ef1565b60405180910390fd5b34600081116127d3576040517f08c379a00000000000000000000000000000000000000000000000000000000081526004016127ca90614e91565b60405180910390fd5b6000612823600287815481106127ec576127eb61570d565b5b90600052602060002090600c020160050160009054906101000a900473ffffffffffffffffffffffffffffffffffffffff16613c1f565b9050600286815481106128395761283861570d565b5b90600052602060002090600c020160060154600b612857919061544c565b600a826002898154811061286e5761286d61570d565b5b90600052602060002090600c02016007015461288a91906153f6565b612894919061544c565b106128d4576040517f08c379a00000000000000000000000000000000000000000000000000000000081526004016128cb90614ed1565b60405180910390fd5b6000600287815481106128ea576128e961570d565b5b90600052602060002090600c0201600701549050600360008881526020019081526020016000208690806001815401808255809150506001900390600052602060002001600090919091909150908051906020019061294a929190613e3e565b50600460003273ffffffffffffffffffffffffffffffffffffffff1673ffffffffffffffffffffffffffffffffffffffff16815260200190815260200160002087908060018154018082558091505060019003906000526020600020016000909190919091505581600288815481106129c6576129c561570d565b5b90600052602060002090600c0201600701546129e291906153f6565b600288815481106129f6576129f561570d565b5b90600052602060002090600c0201600701819055507fe3a6b824a5dcd9cc376de3c8eddd6aef4d82cce288e42272e2b874fa54f2d51a873460028a81548110612a4257612a4161570d565b5b90600052602060002090600c020160030130604051612a64949392919061523a565b60405180910390a1612a768782612ef5565b50505050505050565b6000808473ffffffffffffffffffffffffffffffffffffffff1663dd62ed3e33306040518363ffffffff1660e01b8152600401612abd929190614cb2565b60206040518083038186803b158015612ad557600080fd5b505afa158015612ae9573d6000803e3d6000fd5b505050506040513d601f19601f82011682018060405250810190612b0d9190614167565b905082811015612b52576040517f08c379a0000000000000000000000000000000000000000000000000000000008152600401612b4990614f71565b60405180910390fd5b8473ffffffffffffffffffffffffffffffffffffffff166323b872dd3330866040518463ffffffff1660e01b8152600401612b8f93929190614cdb565b602060405180830381600087803b158015612ba957600080fd5b505af1158015612bbd573d6000803e3d6000fd5b505050506040513d601f19601f82011682018060405250810190612be19190613fe7565b506000600f42612bf191906153f6565b90506000869050600073c02aaa39b223fe8d0a0e5c4f27ead9083c756cc290506000610bb89050600030905060008a73ffffffffffffffffffffffffffffffffffffffff1663095ea7b373e592427a0aece92de3edee1f18e0157c058615648b6040518363ffffffff1660e01b8152600401612c6e929190614d12565b602060405180830381600087803b158015612c8857600080fd5b505af1158015612c9c573d6000803e3d6000fd5b505050506040513d601f19601f82011682018060405250810190612cc09190613fe7565b5060006040518061010001604052808773ffffffffffffffffffffffffffffffffffffffff1681526020018673ffffffffffffffffffffffffffffffffffffffff1681526020018562ffffff1681526020018473ffffffffffffffffffffffffffffffffffffffff1681526020018881526020018c81526020018b81526020018373ffffffffffffffffffffffffffffffffffffffff168152509050600073e592427a0aece92de3edee1f18e0157c0586156473ffffffffffffffffffffffffffffffffffffffff1663db3e2198836040518263ffffffff1660e01b8152600401612dab91906150cd565b602060405180830381600087803b158015612dc557600080fd5b505af1158015612dd9573d6000803e3d6000fd5b505050506040513d601f19601f82011682018060405250810190612dfd9190614167565b90506000818c612e0d91906154a6565b905060008e73ffffffffffffffffffffffffffffffffffffffff1663a9059cbb33846040518363ffffffff1660e01b8152600401612e4c929190614d12565b602060405180830381600087803b158015612e6657600080fd5b505af1158015612e7a573d6000803e3d6000fd5b505050506040513d601f19601f82011682018060405250810190612e9e9190613fe7565b905080612ee0576040517f08c379a0000000000000000000000000000000000000000000000000000000008152600401612ed790615091565b60405180910390fd5b829b5050505050505050505050509392505050565b60028281548110612f0957612f0861570d565b5b90600052602060002090600c02016006015460028381548110612f2f57612f2e61570d565b5b90600052602060002090600c0201600701541061317257612f4f826136e0565b6000811461306457732e48d65dd6933e8146a7d2b891d173bfa438b24473ffffffffffffffffffffffffffffffffffffffff16637d9c80f960028481548110612f9b57612f9a61570d565b5b90600052602060002090600c02016004016001326040518463ffffffff1660e01b8152600401612fcd93929190614e15565b600060405180830381600087803b158015612fe757600080fd5b505af1158015612ffb573d6000803e3d6000fd5b505050507f3b7e7e43da4efbcdd1006b7dd791491eeeae82429c2793a71b72b08ef743eb3382600284815481106130355761303461570d565b5b90600052602060002090600c0201600401600160405161305793929190615180565b60405180910390a161316d565b732e48d65dd6933e8146a7d2b891d173bfa438b24473ffffffffffffffffffffffffffffffffffffffff16637d9c80f9600284815481106130a8576130a761570d565b5b90600052602060002090600c02016004016002326040518463ffffffff1660e01b81526004016130da93929190614e53565b600060405180830381600087803b1580156130f457600080fd5b505af1158015613108573d6000803e3d6000fd5b505050507f3b7e7e43da4efbcdd1006b7dd791491eeeae82429c2793a71b72b08ef743eb3382600284815481106131425761314161570d565b5b90600052602060002090600c02016004016002604051613164939291906151be565b60405180910390a15b613285565b600081141561328457732e48d65dd6933e8146a7d2b891d173bfa438b24473ffffffffffffffffffffffffffffffffffffffff16637d9c80f9600284815481106131bf576131be61570d565b5b90600052602060002090600c02016004016000326040518463ffffffff1660e01b81526004016131f193929190614dd7565b600060405180830381600087803b15801561320b57600080fd5b505af115801561321f573d6000803e3d6000fd5b505050507f3b7e7e43da4efbcdd1006b7dd791491eeeae82429c2793a71b72b08ef743eb3382600284815481106132595761325861570d565b5b90600052602060002090600c0201600401600060405161327b93929190615142565b60405180910390a15b5b5050565b6000808573ffffffffffffffffffffffffffffffffffffffff1663dd62ed3e33306040518363ffffffff1660e01b81526004016132c7929190614cb2565b60206040518083038186803b1580156132df57600080fd5b505afa1580156132f3573d6000803e3d6000fd5b505050506040513d601f19601f820116820180604052508101906133179190614167565b90508281101561335c576040517f08c379a000000000000000000000000000000000000000000000000000000000815260040161335390614f71565b60405180910390fd5b8573ffffffffffffffffffffffffffffffffffffffff166323b872dd3330866040518463ffffffff1660e01b815260040161339993929190614cdb565b602060405180830381600087803b1580156133b357600080fd5b505af11580156133c7573d6000803e3d6000fd5b505050506040513d601f19601f820116820180604052508101906133eb9190613fe7565b506000600f426133fb91906153f6565b90506000610bb89050600030905060008973ffffffffffffffffffffffffffffffffffffffff1663095ea7b373e592427a0aece92de3edee1f18e0157c05861564896040518363ffffffff1660e01b815260040161345a929190614d12565b602060405180830381600087803b15801561347457600080fd5b505af1158015613488573d6000803e3d6000fd5b505050506040513d601f19601f820116820180604052508101906134ac9190613fe7565b5060006040518061010001604052808c73ffffffffffffffffffffffffffffffffffffffff1681526020018b73ffffffffffffffffffffffffffffffffffffffff1681526020018562ffffff1681526020018473ffffffffffffffffffffffffffffffffffffffff1681526020018681526020018a81526020018981526020018373ffffffffffffffffffffffffffffffffffffffff168152509050600073e592427a0aece92de3edee1f18e0157c0586156473ffffffffffffffffffffffffffffffffffffffff1663db3e2198836040518263ffffffff1660e01b815260040161359791906150cd565b602060405180830381600087803b1580156135b157600080fd5b505af11580156135c5573d6000803e3d6000fd5b505050506040513d601f19601f820116820180604052508101906135e99190614167565b90506000818a6135f991906154a6565b905060008d73ffffffffffffffffffffffffffffffffffffffff1663a9059cbb33846040518363ffffffff1660e01b8152600401613638929190614d12565b602060405180830381600087803b15801561365257600080fd5b505af1158015613666573d6000803e3d6000fd5b505050506040513d601f19601f8201168201806040525081019061368a9190613fe7565b9050806136cc576040517f08c379a00000000000000000000000000000000000000000000000000000000081526004016136c390615091565b60405180910390fd5b829950505050505050505050949350505050565b7fbc6fdcbbc64181fa5b0a580ffa8643761277b5ab073214c08cce86c7317bf40081600283815481106137165761371561570d565b5b90600052602060002090600c0201600701546003600085815260200190815260200160002060405161374a939291906151fc565b60405180910390a13073ffffffffffffffffffffffffffffffffffffffff166002828154811061377d5761377c61570d565b5b90600052602060002090600c020160050160009054906101000a900473ffffffffffffffffffffffffffffffffffffffff1673ffffffffffffffffffffffffffffffffffffffff161415613aa1576000600282815481106137e1576137e061570d565b5b90600052602060002090600c02016008015411156139ea576002818154811061380d5761380c61570d565b5b90600052602060002090600c020160090160009054906101000a900473ffffffffffffffffffffffffffffffffffffffff1673ffffffffffffffffffffffffffffffffffffffff166108fc6002838154811061386c5761386b61570d565b5b90600052602060002090600c020160080154600284815481106138925761389161570d565b5b90600052602060002090600c0201600701546138ae91906154a6565b9081150290604051600060405180830381858888f193505050501580156138d9573d6000803e3d6000fd5b50600073c02aaa39b223fe8d0a0e5c4f27ead9083c756cc273ffffffffffffffffffffffffffffffffffffffff1663a9059cbb33600285815481106139215761392061570d565b5b90600052602060002090600c0201600801546040518363ffffffff1660e01b8152600401613950929190614d12565b602060405180830381600087803b15801561396a57600080fd5b505af115801561397e573d6000803e3d6000fd5b505050506040513d601f19601f820116820180604052508101906139a29190613fe7565b9050806139e4576040517f08c379a00000000000000000000000000000000000000000000000000000000081526004016139db90614fb1565b60405180910390fd5b50613a9c565b600281815481106139fe576139fd61570d565b5b90600052602060002090600c020160090160009054906101000a900473ffffffffffffffffffffffffffffffffffffffff1673ffffffffffffffffffffffffffffffffffffffff166108fc60028381548110613a5d57613a5c61570d565b5b90600052602060002090600c0201600701549081150290604051600060405180830381858888f19350505050158015613a9a573d6000803e3d6000fd5b505b613bde565b600060028281548110613ab757613ab661570d565b5b90600052602060002090600c020160050160009054906101000a900473ffffffffffffffffffffffffffffffffffffffff1673ffffffffffffffffffffffffffffffffffffffff1663a9059cbb3360028581548110613b1957613b1861570d565b5b90600052602060002090600c0201600701546040518363ffffffff1660e01b8152600401613b48929190614d12565b602060405180830381600087803b158015613b6257600080fd5b505af1158015613b76573d6000803e3d6000fd5b505050506040513d601f19601f82011682018060405250810190613b9a9190613fe7565b905080613bdc576040517f08c379a0000000000000000000000000000000000000000000000000000000008152600401613bd390614f91565b60405180910390fd5b505b600060028281548110613bf457613bf361570d565b5b90600052602060002090600c0201600a0160146101000a81548160ff02191690831515021790555050565b6000803411613c63576040517f08c379a0000000000000000000000000000000000000000000000000000000008152600401613c5a90615071565b60405180910390fd5b6000600f42613c7291906153f6565b9050600073c02aaa39b223fe8d0a0e5c4f27ead9083c756cc2905060008490506000610bb89050600030905060003490506000600190506000806040518061010001604052808973ffffffffffffffffffffffffffffffffffffffff1681526020018873ffffffffffffffffffffffffffffffffffffffff1681526020018762ffffff1681526020018673ffffffffffffffffffffffffffffffffffffffff1681526020018a81526020018581526020018481526020018373ffffffffffffffffffffffffffffffffffffffff168152509050600073e592427a0aece92de3edee1f18e0157c0586156473ffffffffffffffffffffffffffffffffffffffff1663414bf38934846040518363ffffffff1660e01b8152600401613d9591906150b1565b6020604051808303818588803b158015613dae57600080fd5b505af1158015613dc2573d6000803e3d6000fd5b50505050506040513d601f19601f82011682018060405250810190613de79190614167565b905060008111613e2c576040517f08c379a0000000000000000000000000000000000000000000000000000000008152600401613e2390614eb1565b60405180910390fd5b809a5050505050505050505050919050565b828054613e4a90615603565b90600052602060002090601f016020900481019282613e6c5760008555613eb3565b82601f10613e8557805160ff1916838001178555613eb3565b82800160010185558215613eb3579182015b82811115613eb2578251825591602001919060010190613e97565b5b509050613ec09190613ec4565b5090565b5b80821115613edd576000816000905550600101613ec5565b5090565b6000613ef4613eef846152ab565b615286565b905082815260208101848484011115613f1057613f0f615770565b5b613f1b8482856155c1565b509392505050565b600081359050613f3281615ae1565b92915050565b600081359050613f4781615af8565b92915050565b600081519050613f5c81615b0f565b92915050565b600082601f830112613f7757613f7661576b565b5b8135613f87848260208601613ee1565b91505092915050565b600081359050613f9f81615b26565b92915050565b600081519050613fb481615b26565b92915050565b600060208284031215613fd057613fcf61577a565b5b6000613fde84828501613f23565b91505092915050565b600060208284031215613ffd57613ffc61577a565b5b600061400b84828501613f4d565b91505092915050565b600080600080600080600080610100898b0312156140355761403461577a565b5b600089013567ffffffffffffffff81111561405357614052615775565b5b61405f8b828c01613f62565b985050602089013567ffffffffffffffff8111156140805761407f615775565b5b61408c8b828c01613f62565b975050604089013567ffffffffffffffff8111156140ad576140ac615775565b5b6140b98b828c01613f62565b965050606089013567ffffffffffffffff8111156140da576140d9615775565b5b6140e68b828c01613f62565b95505060806140f78b828c01613f90565b94505060a06141088b828c01613f23565b93505060c06141198b828c01613f90565b92505060e061412a8b828c01613f38565b9150509295985092959890939650565b6000602082840312156141505761414f61577a565b5b600061415e84828501613f90565b91505092915050565b60006020828403121561417d5761417c61577a565b5b600061418b84828501613fa5565b91505092915050565b600080604083850312156141ab576141aa61577a565b5b60006141b985828601613f90565b925050602083013567ffffffffffffffff8111156141da576141d9615775565b5b6141e685828601613f62565b9150509250929050565b600080600080600060a0868803121561420c5761420b61577a565b5b600061421a88828901613f90565b955050602086013567ffffffffffffffff81111561423b5761423a615775565b5b61424788828901613f62565b945050604061425888828901613f23565b935050606061426988828901613f90565b925050608061427a88828901613f90565b9150509295509295909350565b600080600080600060a086880312156142a3576142a261577a565b5b60006142b188828901613f90565b955050602086013567ffffffffffffffff8111156142d2576142d1615775565b5b6142de88828901613f62565b945050604086013567ffffffffffffffff8111156142ff576142fe615775565b5b61430b88828901613f62565b935050606086013567ffffffffffffffff81111561432c5761432b615775565b5b61433888828901613f62565b925050608086013567ffffffffffffffff81111561435957614358615775565b5b61436588828901613f62565b9150509295509295909350565b60008060006060848603121561438b5761438a61577a565b5b600061439986828701613f90565b935050602084013567ffffffffffffffff8111156143ba576143b9615775565b5b6143c686828701613f62565b92505060406143d786828701613f90565b9150509250925092565b60006143ed8383614678565b905092915050565b600061440183836146b1565b905092915050565b60006144158383614a04565b905092915050565b60006144298383614c94565b60208301905092915050565b61443e816154ec565b82525050565b61444d816154da565b82525050565b61445c816154da565b82525050565b600061446d82615336565b61447781856153a1565b935083602082028501614489856152dc565b8060005b858110156144c557848403895281516144a685826143e1565b94506144b18361536d565b925060208a0199505060018101905061448d565b50829750879550505050505092915050565b60006144e282615341565b6144ec81856153a1565b9350836020820285016144fe856152ec565b8060005b858110156145395784840389528161451a85826143f5565b94506145258361537a565b925060208a01995050600181019050614502565b50829750879550505050505092915050565b60006145568261534c565b61456081856153b2565b93508360208202850161457285615301565b8060005b858110156145ae578484038952815161458f8582614409565b945061459a83615387565b925060208a01995050600181019050614576565b50829750879550505050505092915050565b60006145cb82615357565b6145d581856153c3565b93506145e083615311565b8060005b838110156146115781516145f8888261441d565b975061460383615394565b9250506001810190506145e4565b5085935050505092915050565b614627816154fe565b82525050565b61463681615543565b82525050565b61464581615567565b82525050565b6146548161558b565b82525050565b6146638161559d565b82525050565b614672816155af565b82525050565b600061468382615362565b61468d81856153d4565b935061469d8185602086016155d0565b6146a68161577f565b840191505092915050565b600081546146be81615603565b6146c881866153d4565b945060018216600081146146e357600181146146f557614728565b60ff1983168652602086019350614728565b6146fe85615321565b60005b8381101561472057815481890152600182019150602081019050614701565b808801955050505b50505092915050565b6000815461473e81615603565b61474881866153e5565b945060018216600081146147635760018114614775576147a8565b60ff19831686526020860193506147a8565b61477e85615321565b60005b838110156147a057815481890152600182019150602081019050614781565b808801955050505b50505092915050565b60006147be601e836153e5565b91506147c982615790565b602082019050919050565b60006147e16012836153e5565b91506147ec826157b9565b602082019050919050565b60006148046015836153e5565b915061480f826157e2565b602082019050919050565b6000614827601a836153e5565b91506148328261580b565b602082019050919050565b600061484a6018836153e5565b915061485582615834565b602082019050919050565b600061486d602b836153e5565b91506148788261585d565b604082019050919050565b60006148906028836153e5565b915061489b826158ac565b604082019050919050565b60006148b36019836153e5565b91506148be826158fb565b602082019050919050565b60006148d66018836153e5565b91506148e182615924565b602082019050919050565b60006148f9601d836153e5565b91506149048261594d565b602082019050919050565b600061491c6015836153e5565b915061492782615976565b602082019050919050565b600061493f602c836153e5565b915061494a8261599f565b604082019050919050565b60006149626027836153e5565b915061496d826159ee565b604082019050919050565b6000614985601f836153e5565b915061499082615a3d565b602082019050919050565b60006149a86019836153e5565b91506149b382615a66565b602082019050919050565b60006149cb601a836153e5565b91506149d682615a8f565b602082019050919050565b60006149ee600d836153e5565b91506149f982615ab8565b602082019050919050565b60006101a083016000830151614a1d6000860182614c94565b5060208301518482036020860152614a358282614678565b91505060408301518482036040860152614a4f8282614678565b91505060608301518482036060860152614a698282614678565b91505060808301518482036080860152614a838282614678565b91505060a0830151614a9860a0860182614444565b5060c0830151614aab60c0860182614c94565b5060e0830151614abe60e0860182614c94565b50610100830151614ad3610100860182614c94565b50610120830151614ae8610120860182614435565b50610140830151614afd610140860182614444565b50610160830151614b1261016086018261461e565b50610180830151614b27610180860182614c94565b508091505092915050565b61010082016000820151614b496000850182614444565b506020820151614b5c6020850182614444565b506040820151614b6f6040850182614c85565b506060820151614b826060850182614444565b506080820151614b956080850182614c94565b5060a0820151614ba860a0850182614c94565b5060c0820151614bbb60c0850182614c94565b5060e0820151614bce60e0850182614c76565b50505050565b61010082016000820151614beb6000850182614444565b506020820151614bfe6020850182614444565b506040820151614c116040850182614c85565b506060820151614c246060850182614444565b506080820151614c376080850182614c94565b5060a0820151614c4a60a0850182614c94565b5060c0820151614c5d60c0850182614c94565b5060e0820151614c7060e0850182614c76565b50505050565b614c7f8161550a565b82525050565b614c8e8161552a565b82525050565b614c9d81615539565b82525050565b614cac81615539565b82525050565b6000604082019050614cc76000830185614453565b614cd46020830184614453565b9392505050565b6000606082019050614cf06000830186614453565b614cfd6020830185614453565b614d0a6040830184614ca3565b949350505050565b6000604082019050614d276000830185614453565b614d346020830184614ca3565b9392505050565b60006020820190508181036000830152614d558184614462565b905092915050565b60006020820190508181036000830152614d77818461454b565b905092915050565b60006020820190508181036000830152614d9981846145c0565b905092915050565b6000602082019050614db6600083018461462d565b92915050565b6000602082019050614dd1600083018461463c565b92915050565b60006060820190508181036000830152614df18186614731565b9050614e00602083018561464b565b614e0d6040830184614453565b949350505050565b60006060820190508181036000830152614e2f8186614731565b9050614e3e602083018561465a565b614e4b6040830184614453565b949350505050565b60006060820190508181036000830152614e6d8186614731565b9050614e7c6020830185614669565b614e896040830184614453565b949350505050565b60006020820190508181036000830152614eaa816147b1565b9050919050565b60006020820190508181036000830152614eca816147d4565b9050919050565b60006020820190508181036000830152614eea816147f7565b9050919050565b60006020820190508181036000830152614f0a8161481a565b9050919050565b60006020820190508181036000830152614f2a8161483d565b9050919050565b60006020820190508181036000830152614f4a81614860565b9050919050565b60006020820190508181036000830152614f6a81614883565b9050919050565b60006020820190508181036000830152614f8a816148a6565b9050919050565b60006020820190508181036000830152614faa816148c9565b9050919050565b60006020820190508181036000830152614fca816148ec565b9050919050565b60006020820190508181036000830152614fea8161490f565b9050919050565b6000602082019050818103600083015261500a81614932565b9050919050565b6000602082019050818103600083015261502a81614955565b9050919050565b6000602082019050818103600083015261504a81614978565b9050919050565b6000602082019050818103600083015261506a8161499b565b9050919050565b6000602082019050818103600083015261508a816149be565b9050919050565b600060208201905081810360008301526150aa816149e1565b9050919050565b6000610100820190506150c76000830184614b32565b92915050565b6000610100820190506150e36000830184614bd4565b92915050565b60006020820190506150fe6000830184614ca3565b92915050565b60006060820190506151196000830186614ca3565b615126602083018561464b565b818103604083015261513881846144d7565b9050949350505050565b60006060820190506151576000830186614ca3565b81810360208301526151698185614731565b9050615178604083018461464b565b949350505050565b60006060820190506151956000830186614ca3565b81810360208301526151a78185614731565b90506151b6604083018461465a565b949350505050565b60006060820190506151d36000830186614ca3565b81810360208301526151e58185614731565b90506151f46040830184614669565b949350505050565b60006060820190506152116000830186614ca3565b61521e6020830185614ca3565b818103604083015261523081846144d7565b9050949350505050565b600060808201905061524f6000830187614ca3565b61525c6020830186614ca3565b818103604083015261526e8185614731565b905061527d6060830184614453565b95945050505050565b60006152906152a1565b905061529c8282615635565b919050565b6000604051905090565b600067ffffffffffffffff8211156152c6576152c561573c565b5b6152cf8261577f565b9050602081019050919050565b6000819050602082019050919050565b60008190508160005260206000209050919050565b6000819050602082019050919050565b6000819050602082019050919050565b60008190508160005260206000209050919050565b600081519050919050565b600081549050919050565b600081519050919050565b600081519050919050565b600081519050919050565b6000602082019050919050565b6000600182019050919050565b6000602082019050919050565b6000602082019050919050565b600082825260208201905092915050565b600082825260208201905092915050565b600082825260208201905092915050565b600082825260208201905092915050565b600082825260208201905092915050565b600061540182615539565b915061540c83615539565b9250827fffffffffffffffffffffffffffffffffffffffffffffffffffffffffffffffff03821115615441576154406156af565b5b828201905092915050565b600061545782615539565b915061546283615539565b9250817fffffffffffffffffffffffffffffffffffffffffffffffffffffffffffffffff048311821515161561549b5761549a6156af565b5b828202905092915050565b60006154b182615539565b91506154bc83615539565b9250828210156154cf576154ce6156af565b5b828203905092915050565b60006154e58261550a565b9050919050565b60006154f78261550a565b9050919050565b60008115159050919050565b600073ffffffffffffffffffffffffffffffffffffffff82169050919050565b600062ffffff82169050919050565b6000819050919050565b600061554e82615555565b9050919050565b60006155608261550a565b9050919050565b600061557282615579565b9050919050565b60006155848261550a565b9050919050565b600061559682615539565b9050919050565b60006155a882615539565b9050919050565b60006155ba82615539565b9050919050565b82818337600083830152505050565b60005b838110156155ee5780820151818401526020810190506155d3565b838111156155fd576000848401525b50505050565b6000600282049050600182168061561b57607f821691505b6020821081141561562f5761562e6156de565b5b50919050565b61563e8261577f565b810181811067ffffffffffffffff8211171561565d5761565c61573c565b5b80604052505050565b600061567182615539565b91507fffffffffffffffffffffffffffffffffffffffffffffffffffffffffffffffff8214156156a4576156a36156af565b5b600182019050919050565b7f4e487b7100000000000000000000000000000000000000000000000000000000600052601160045260246000fd5b7f4e487b7100000000000000000000000000000000000000000000000000000000600052602260045260246000fd5b7f4e487b7100000000000000000000000000000000000000000000000000000000600052603260045260246000fd5b7f4e487b7100000000000000000000000000000000000000000000000000000000600052604160045260246000fd5b600080fd5b600080fd5b600080fd5b600080fd5b6000601f19601f8301169050919050565b7f646f6e6174696f6e206d757374206265206c6172676572207468616e20300000600082015250565b7f6e6f20746f6b656e732072656365697665640000000000000000000000000000600082015250565b7f54617267657420616d6f756e7420657863656465640000000000000000000000600082015250565b7f54686973206973206e6f7420546f6b656e2063616d706169676e000000000000600082015250565b7f54686973206973206e6f74204554482063616d706169676e0000000000000000600082015250565b7f796f752063616e27742062652063616d706169676e2062656e65666163746f7260008201527f20746f20646f2074686973000000000000000000000000000000000000000000602082015250565b7f796f752063616e27742062652063616d706169676e2063726561746f7220746f60008201527f20646f2074686973000000000000000000000000000000000000000000000000602082015250565b7f436865636b2074686520746f6b656e20616c6c6f77616e636500000000000000600082015250565b7f7472616e73666572206f6620546f6b656e206661696c65640000000000000000600082015250565b7f7472616e73666572206f66205765746820546f6b656e206661696c6564000000600082015250565b7f63616d7061696e67206861732066696e69736865640000000000000000000000600082015250565b7f63616d706169676e2074617267657420616d6f756e74206d757374206265206c60008201527f6172676572207468616e20300000000000000000000000000000000000000000602082015250565b7f796f75206d7573742062652063616d706169676e2063726561746f7220746f2060008201527f646f207468697300000000000000000000000000000000000000000000000000602082015250565b7f43616d706169676e206d75737420656e6420696e207468652066757475726500600082015250565b7f43616d706169676e20616c72656164792066696e697368656400000000000000600082015250565b7f4d7573742070617373206e6f6e20302045544820616d6f756e74000000000000600082015250565b7f726566756e64206661696c656400000000000000000000000000000000000000600082015250565b615aea816154da565b8114615af557600080fd5b50565b615b01816154ec565b8114615b0c57600080fd5b50565b615b18816154fe565b8114615b2357600080fd5b50565b615b2f81615539565b8114615b3a57600080fd5b5056fea2646970667358221220a278cfef5e40a806ce19a8357280c657376c9fe3254df1f50c45a02bfa25280d64736f6c63430008060033",
  "immutableReferences": {},
  "source": "// SPDX-License-Identifier: MIT\npragma solidity >=0.7.6 <0.9.0;\npragma abicoder v2;\n\n// import \"https://github.com/Uniswap/uniswap-v3-periphery/blob/main/contracts/interfaces/ISwapRouter.sol\";\nimport \"@uniswap/v3-periphery/contracts/interfaces/ISwapRouter.sol\";\nimport \"./SupportChildrenCollectable.sol\";\n\ninterface IUniswapRouter is ISwapRouter {\n    function refundETH() external payable;\n}\n\ninterface IERC20 {\n    function transferFrom(\n        address sender, \n        address recipient, \n        uint256 amount) \n        external \n        returns (bool);\n    function approve(address spender, uint tokens)  external returns (bool);\n    function totalSupply() external view returns (uint256);\n    function balanceOf(address account) external view returns (uint256);\n    function allowance(address owner, address spender) external view returns (uint256);\n\n    function transfer(address recipient, uint256 amount) external returns (bool);\n}\n\ninterface IUniswap {\n    function swapExactTokensForETH(\n        uint amountIn, \n        uint amountOutMin, \n        address[] calldata path, \n        address to, \n        uint deadline)\n        external\n        returns (uint[] memory amounts);\n    function WETH() external pure returns (address);\n}\n    \ncontract SupportChildren {\n    SupportChildrenCollectable public constant nft = SupportChildrenCollectable(0x2E48d65dD6933E8146A7D2b891d173BFa438b244);\n    IUniswapRouter public constant uniswapRouter = IUniswapRouter(0xE592427A0AEce92De3Edee1F18E0157C05861564);\n    address private constant multiDaiKovan = 0x6B175474E89094C44Da98b954EedeAC495271d0F;\n    address private constant WETH9 = 0xC02aaA39b223FE8D0A0e5C4F27eAD9083C756Cc2;\n  \n    event DonationMade (\n        uint campaignId,\n        uint donationAmount,\n        string notifyEmail,\n        address token\n    );\n\n    event CampaignCreated (\n        uint campaignId\n    );\n\n    event CampaignFinished (\n        uint campaignId,\n        uint currentAmount,\n        string[] notifyEmails\n    );\n\n    event CreateNFT (\n        uint campaignId,\n        string campaignImage,\n        uint nftType\n    );\n    \n    uint campaignIndex;\n    uint count;\n    \n    struct Campaign {\n        uint id;\n        string name; \n        string description;\n        string creatorEmail; \n        string image; \n        address targetCurrency; \n        uint targetAmount;\n        uint currentAmount;\n        uint amountInWeth;\n        address payable beneficiaryAddress;\n        address creatorAddress;\n        bool active;\n        uint endTimestamp;\n    }\n    \n    Campaign[] campaigns;\n    \n    mapping(uint => string[]) campaignDonationsEmails;\n    mapping(address => uint[]) campaignDonors;\n    \n    modifier campaignCreator(uint _campaignId) {\n        require(campaigns[_campaignId].creatorAddress == tx.origin, \"you must be campaign creator to do this\");\n        _;\n    }\n    \n    modifier notCampaignCreator(uint _campaignId) {\n        require(campaigns[_campaignId].creatorAddress != tx.origin, \"you can't be campaign creator to do this\");\n        _;\n    }\n\n    modifier mustNotExceedTarget(uint _campaignId, uint amount) {\n        require((campaigns[_campaignId].currentAmount  + amount) * 10 < 11 * campaigns[_campaignId].targetAmount, \"Target amount exceded\");\n        _;\n    }\n\n    modifier donationNonZero(uint amount) {\n        require(amount > 0, \"donation must be larger than 0\");\n        _;\n    }\n    modifier ethCampaign(uint _campaignId) {\n        require(campaigns[_campaignId].targetCurrency == address(this), \"This is not ETH campaign\");\n        _;\n    }\n    modifier tokenCampaign(uint _campaignId) {\n        require(campaigns[_campaignId].targetCurrency != address(this), \"This is not Token campaign\");\n        _;\n    }\n\n    modifier notCampaignBenefactor(uint _campaignId) {\n        require(campaigns[_campaignId].beneficiaryAddress != tx.origin, \"you can't be campaign benefactor to do this\");\n        _;\n    }\n\n    modifier campaignActive(uint _campaignId) {\n        require(campaigns[_campaignId].active == true, \"campaing has finished\");\n        require(campaigns[_campaignId].endTimestamp > block.timestamp, \"Campaign already finished\");\n        _;\n    }\n\n    function createCampaign(string memory _name, string memory _description, string memory _creatorEmail, string memory _image, uint _endTimestamp, address _targetCurrency, uint _targetAmount, address payable _beneficiaryAddress) public {\n        require(_targetAmount > 0, \"campaign target amount must be larger than 0\");\n        require(_endTimestamp > block.timestamp, \"Campaign must end in the future\");\n        campaigns.push(Campaign({\n            id: count,\n            name: _name,\n            description: _description,\n            creatorEmail: _creatorEmail,\n            image: _image,\n            targetAmount: _targetAmount,\n            targetCurrency: _targetCurrency,\n            currentAmount: 0,\n            amountInWeth: 0,\n            beneficiaryAddress: _beneficiaryAddress,\n            creatorAddress: tx.origin,\n            active: true,\n            endTimestamp: _endTimestamp \n        }));\n\n        emit CampaignCreated(count);\n        \n        count++;\n    }\n\n    function endCampaign(uint _campaignId) public campaignActive(_campaignId) campaignCreator(_campaignId) {\n        if (campaigns[_campaignId].currentAmount > 0) {\n            finishCampaign(_campaignId);\n        } else {\n            emit CampaignFinished(_campaignId, 0, campaignDonationsEmails[_campaignId]);\n            campaigns[_campaignId].active = false;\n        }\n    }\n\n    function editCampaign(uint _campaignId, string memory _name, string memory _description, string memory _creatorEmail, string memory _image) public campaignActive(_campaignId) campaignCreator(_campaignId) {\n        campaigns[_campaignId].name = _name;\n        campaigns[_campaignId].description = _description;\n        campaigns[_campaignId].creatorEmail = _creatorEmail;\n        campaigns[_campaignId].image = _image;\n    }\n\n    function finishCampaign(uint _campaignId) private {\n        emit CampaignFinished(_campaignId, campaigns[_campaignId].currentAmount, campaignDonationsEmails[_campaignId]);\n        // Send collected value to the address of the child\n        if (campaigns[_campaignId].targetCurrency == address(this)) {\n            if (campaigns[_campaignId].amountInWeth > 0) {\n                campaigns[_campaignId].beneficiaryAddress.transfer(campaigns[_campaignId].currentAmount-campaigns[_campaignId].amountInWeth);\n                \n                (bool success) = IERC20(WETH9).transfer(msg.sender, campaigns[_campaignId].amountInWeth);\n                require(success, \"transfer of Weth Token failed\");\n            } else {\n                campaigns[_campaignId].beneficiaryAddress.transfer(campaigns[_campaignId].currentAmount);\n            }\n        } else {\n            (bool success) = IERC20(campaigns[_campaignId].targetCurrency).transfer(msg.sender, campaigns[_campaignId].currentAmount);\n            require(success, \"transfer of Token failed\");\n        }\n        campaigns[_campaignId].active = false;\n    }\n\n\n    // ETH to ETH\n    function donateEthToEthCampaign(uint _campaignId, string memory _donorEmail) payable public campaignActive(_campaignId) notCampaignCreator(_campaignId) notCampaignBenefactor(_campaignId) ethCampaign(_campaignId) mustNotExceedTarget(_campaignId, msg.value) donationNonZero(msg.value) {\n        // curentamount must be fetched from frontend\n        uint initialCampaingAmount = campaigns[_campaignId].currentAmount;\n        campaignDonationsEmails[_campaignId].push(_donorEmail);\n        campaignDonors[tx.origin].push(_campaignId);\n        campaigns[_campaignId].currentAmount = campaigns[_campaignId].currentAmount  + msg.value;\n\n        emit DonationMade(_campaignId, msg.value, campaigns[_campaignId].creatorEmail, address(this));\n\n        checkForSpecialEvents(_campaignId, initialCampaingAmount);  \n    }\n\n    // ETH to Token\n    function donateEthToTokenCampaign(uint _campaignId, string memory _donorEmail) payable public campaignActive(_campaignId) tokenCampaign(_campaignId) donationNonZero(msg.value) {\n        (uint256 tokensReceived) = convertExactEthToToken(campaigns[_campaignId].targetCurrency);\n        require((campaigns[_campaignId].currentAmount  + tokensReceived) * 10 < 11 * campaigns[_campaignId].targetAmount, \"Target amount exceded\");\n        uint initialCampaingAmount = campaigns[_campaignId].currentAmount;        \n        campaignDonationsEmails[_campaignId].push(_donorEmail);\n        campaignDonors[tx.origin].push(_campaignId);\n        campaigns[_campaignId].currentAmount = campaigns[_campaignId].currentAmount  + tokensReceived;\n\n        emit DonationMade(_campaignId, msg.value, campaigns[_campaignId].creatorEmail, address(this));\n\n        checkForSpecialEvents(_campaignId, initialCampaingAmount);  \n    }\n\n    // Token to ETH\n    function donateTokenToETHCampaign(uint _campaignId, string memory _donorEmail, address token, uint amountOut, uint amountInMax) public campaignActive(_campaignId) ethCampaign(_campaignId) mustNotExceedTarget(_campaignId, amountOut) donationNonZero(amountOut) {\n        (uint256 tokensSpent) = convertTokenToExactEth(token, amountOut, amountInMax);\n        uint initialCampaingAmount = campaigns[_campaignId].currentAmount;\n        campaignDonationsEmails[_campaignId].push(_donorEmail);\n        campaignDonors[tx.origin].push(_campaignId);\n        campaigns[_campaignId].amountInWeth = campaigns[_campaignId].amountInWeth + amountOut;\n        campaigns[_campaignId].currentAmount = initialCampaingAmount + amountOut;\n        emit DonationMade(_campaignId, tokensSpent, campaigns[_campaignId].creatorEmail, token);\n\n        checkForSpecialEvents(_campaignId, initialCampaingAmount);  \n    }\n    \n    // Token to Different Token\n    function donateTokenToDifferentTokenCampaign(uint _campaignId, string memory _donorEmail, address tokenIn, uint amountOut, uint amountInMax) public campaignActive(_campaignId) tokenCampaign(_campaignId) mustNotExceedTarget(_campaignId, amountOut) donationNonZero(amountOut) {\n        (uint256 tokensSpent) = convertTokenToExactToken(tokenIn, campaigns[_campaignId].targetCurrency, amountOut, amountInMax);\n        uint initialCampaingAmount = campaigns[_campaignId].currentAmount;\n        campaignDonationsEmails[_campaignId].push(_donorEmail);\n        campaignDonors[tx.origin].push(_campaignId);\n        campaigns[_campaignId].currentAmount = campaigns[_campaignId].currentAmount + amountOut;\n        emit DonationMade(_campaignId, tokensSpent, campaigns[_campaignId].creatorEmail, tokenIn);\n\n        checkForSpecialEvents(_campaignId, initialCampaingAmount);       \n    }\n    \n    // Token to Same Token\n    function donateTokenToSameTokenCampaign(uint _campaignId, string memory _donorEmail, uint amount) public campaignActive(_campaignId) tokenCampaign(_campaignId) mustNotExceedTarget(_campaignId, amount) donationNonZero(amount) {\n        address token = campaigns[_campaignId].targetCurrency;\n        uint256 allowance = IERC20(token).allowance(tx.origin, address(this));\n        require(allowance >= amount, \"Check the token allowance\");\n        IERC20(token).transferFrom(tx.origin, address(this), amount);\n        uint initialCampaingAmount = campaigns[_campaignId].currentAmount;\n        campaignDonationsEmails[_campaignId].push(_donorEmail);\n        campaignDonors[tx.origin].push(_campaignId);\n        campaigns[_campaignId].currentAmount = campaigns[_campaignId].currentAmount + amount;\n        emit DonationMade(_campaignId, amount, campaigns[_campaignId].creatorEmail, token);\n\n        checkForSpecialEvents(_campaignId, initialCampaingAmount);       \n    }\n\n    function checkForSpecialEvents(uint _campaignId, uint initialCampaingAmount) internal {\n        if (campaigns[_campaignId].currentAmount >= campaigns[_campaignId].targetAmount) {\n            finishCampaign(_campaignId);\n            if (initialCampaingAmount != 0) {\n                // Closed a campaing NFT\n                nft.createCollectible(campaigns[_campaignId].image, 1, tx.origin);\n                emit CreateNFT(_campaignId, campaigns[_campaignId].image, 1);\n            } else {\n                // Was only donator to the campaing NFT\n                nft.createCollectible(campaigns[_campaignId].image, 2, tx.origin);\n                emit CreateNFT(_campaignId, campaigns[_campaignId].image, 2);\n            }\n\n            return;\n        }\n\n        if (initialCampaingAmount == 0) {\n            // First donation to the campaign NFT\n            nft.createCollectible(campaigns[_campaignId].image, 0, tx.origin);\n            emit CreateNFT(_campaignId, campaigns[_campaignId].image, 0);\n        }\n    }\n    \n    function getDonorEmails(uint _campaignId) view public returns (string[] memory) {\n        return campaignDonationsEmails[_campaignId];\n    }\n    \n    function getDonorsCampaingsList(address _donor) view public returns (uint[] memory) {\n        return campaignDonors[_donor];\n    }\n    \n    function getCampaigns() public view returns (Campaign[] memory) {\n        return campaigns;\n    }\n\n    function getCampaignAmount(uint _campaignId) public view returns (uint) {\n        return campaigns[_campaignId].currentAmount;\n    }\n\n    function convertExactEthToToken(address token) internal returns (uint256) {\n        require(msg.value > 0, \"Must pass non 0 ETH amount\");\n\n        uint256 deadline = block.timestamp + 15; // using 'now' for convenience, for mainnet pass deadline from frontend!\n        address tokenIn = WETH9;\n        address tokenOut = token;\n        uint24 fee = 3000;\n        address recipient = address(this);\n        uint256 amountIn = msg.value;\n        uint256 amountOutMinimum = 1;\n        uint160 sqrtPriceLimitX96 = 0;\n        \n        ISwapRouter.ExactInputSingleParams memory params = ISwapRouter.ExactInputSingleParams(\n            tokenIn,\n            tokenOut,\n            fee,\n            recipient,\n            deadline,\n            amountIn,\n            amountOutMinimum,\n            sqrtPriceLimitX96\n        );\n        \n        uint256 amountOfTokenReceived = uniswapRouter.exactInputSingle{ value: msg.value }(params);\n        require(amountOfTokenReceived > 0, \"no tokens received\");\n        return amountOfTokenReceived;\n    }\n    \n    function convertTokenToExactEth(address token, uint amountOut, uint amountInMaximum) internal returns (uint256) {\n        uint256 allowance = IERC20(token).allowance(msg.sender, address(this));\n        require(allowance >= amountInMaximum, \"Check the token allowance\");\n        IERC20(token).transferFrom(msg.sender, address(this), amountInMaximum);\n        uint256 deadline = block.timestamp + 15; // using 'now' for convenience, for mainnet pass deadline from frontend!\n        address tokenIn = token;\n        address tokenOut = WETH9;\n        uint24 fee = 3000;\n        address recipient = address(this);\n        uint160 sqrtPriceLimitX96 = 0;\n        IERC20(token).approve(address(uniswapRouter), amountInMaximum);\n        \n        ISwapRouter.ExactOutputSingleParams memory params = ISwapRouter.ExactOutputSingleParams(\n            tokenIn,\n            tokenOut,\n            fee,\n            recipient,\n            deadline,\n            amountOut,\n            amountInMaximum,\n            sqrtPriceLimitX96\n        );\n        \n        uint256 amountOfTokenUsed = uniswapRouter.exactOutputSingle(params);\n        uint256 remainderOfTokens = amountInMaximum-amountOfTokenUsed;\n        // refund leftover Tokens to user\n        (bool success) = IERC20(token).transfer(msg.sender, remainderOfTokens);\n        require(success, \"refund failed\");\n        \n        return amountOfTokenUsed;\n    }\n    \n    function convertTokenToExactToken(address tokenIn, address tokenOut, uint amountOut, uint amountInMaximum) internal returns (uint256) {\n        uint256 allowance = IERC20(tokenIn).allowance(msg.sender, address(this));\n        require(allowance >= amountInMaximum, \"Check the token allowance\");\n        IERC20(tokenIn).transferFrom(msg.sender, address(this), amountInMaximum);\n        uint256 deadline = block.timestamp + 15; // using 'now' for convenience, for mainnet pass deadline from frontend!\n        uint24 fee = 3000;\n        address recipient = address(this);\n        uint160 sqrtPriceLimitX96 = 0;\n        IERC20(tokenIn).approve(address(uniswapRouter), amountInMaximum);\n        \n        ISwapRouter.ExactOutputSingleParams memory params = ISwapRouter.ExactOutputSingleParams(\n            tokenIn,\n            tokenOut,\n            fee,\n            recipient,\n            deadline,\n            amountOut,\n            amountInMaximum,\n            sqrtPriceLimitX96\n        );\n        \n        uint256 amountOfTokenUsed = uniswapRouter.exactOutputSingle(params);\n        uint256 remainderOfTokens = amountInMaximum-amountOfTokenUsed;\n        \n        // refund leftover Tokens to user\n        (bool success) = IERC20(tokenIn).transfer(msg.sender, remainderOfTokens);\n        require(success, \"refund failed\");\n        \n        return amountOfTokenUsed;\n    }\n\n    // important to receive ETH\n    receive() payable external {}\n}",
  "sourcePath": "/home/zarko/learn/ethereum/support-children/contracts/SupportChildrenNewerButOversized.sol",
  "compiler": {
    "name": "solc",
    "version": "0.8.6+commit.11564f7e.Emscripten.clang"
  },
  "schemaVersion": "3.4.1",
  "updatedAt": "2021-08-10T10:11:19.679Z",
  "devdoc": {
    "kind": "dev",
    "methods": {},
    "version": 1
  },
  "userdoc": {
    "kind": "user",
    "methods": {},
    "version": 1
  }
}