{
  "contractName": "SupportChildrenCollectible",
  "abi": [
    {
      "inputs": [
        {
          "internalType": "address",
          "name": "_VRFCoordinator",
          "type": "address"
        },
        {
          "internalType": "address",
          "name": "_LinkToken",
          "type": "address"
        },
        {
          "internalType": "bytes32",
          "name": "_keyhash",
          "type": "bytes32"
        },
        {
          "internalType": "address",
          "name": "owner",
          "type": "address"
        }
      ],
      "stateMutability": "nonpayable",
      "type": "constructor"
    },
    {
      "anonymous": false,
      "inputs": [
        {
          "indexed": true,
          "internalType": "address",
          "name": "owner",
          "type": "address"
        },
        {
          "indexed": true,
          "internalType": "address",
          "name": "approved",
          "type": "address"
        },
        {
          "indexed": true,
          "internalType": "uint256",
          "name": "tokenId",
          "type": "uint256"
        }
      ],
      "name": "Approval",
      "type": "event"
    },
    {
      "anonymous": false,
      "inputs": [
        {
          "indexed": true,
          "internalType": "address",
          "name": "owner",
          "type": "address"
        },
        {
          "indexed": true,
          "internalType": "address",
          "name": "operator",
          "type": "address"
        },
        {
          "indexed": false,
          "internalType": "bool",
          "name": "approved",
          "type": "bool"
        }
      ],
      "name": "ApprovalForAll",
      "type": "event"
    },
    {
      "anonymous": false,
      "inputs": [
        {
          "indexed": true,
          "internalType": "address",
          "name": "from",
          "type": "address"
        },
        {
          "indexed": true,
          "internalType": "address",
          "name": "to",
          "type": "address"
        },
        {
          "indexed": true,
          "internalType": "uint256",
          "name": "tokenId",
          "type": "uint256"
        }
      ],
      "name": "Transfer",
      "type": "event"
    },
    {
      "anonymous": false,
      "inputs": [
        {
          "indexed": true,
          "internalType": "bytes32",
          "name": "requestId",
          "type": "bytes32"
        }
      ],
      "name": "requestedCollectible",
      "type": "event"
    },
    {
      "inputs": [
        {
          "internalType": "address",
          "name": "to",
          "type": "address"
        },
        {
          "internalType": "uint256",
          "name": "tokenId",
          "type": "uint256"
        }
      ],
      "name": "approve",
      "outputs": [],
      "stateMutability": "nonpayable",
      "type": "function"
    },
    {
      "inputs": [
        {
          "internalType": "address",
          "name": "owner",
          "type": "address"
        }
      ],
      "name": "balanceOf",
      "outputs": [
        {
          "internalType": "uint256",
          "name": "",
          "type": "uint256"
        }
      ],
      "stateMutability": "view",
      "type": "function"
    },
    {
      "inputs": [
        {
          "internalType": "uint256",
          "name": "tokenId",
          "type": "uint256"
        }
      ],
      "name": "getApproved",
      "outputs": [
        {
          "internalType": "address",
          "name": "",
          "type": "address"
        }
      ],
      "stateMutability": "view",
      "type": "function"
    },
    {
      "inputs": [
        {
          "internalType": "address",
          "name": "owner",
          "type": "address"
        },
        {
          "internalType": "address",
          "name": "operator",
          "type": "address"
        }
      ],
      "name": "isApprovedForAll",
      "outputs": [
        {
          "internalType": "bool",
          "name": "",
          "type": "bool"
        }
      ],
      "stateMutability": "view",
      "type": "function"
    },
    {
      "inputs": [],
      "name": "name",
      "outputs": [
        {
          "internalType": "string",
          "name": "",
          "type": "string"
        }
      ],
      "stateMutability": "view",
      "type": "function"
    },
    {
      "inputs": [
        {
          "internalType": "uint256",
          "name": "tokenId",
          "type": "uint256"
        }
      ],
      "name": "ownerOf",
      "outputs": [
        {
          "internalType": "address",
          "name": "",
          "type": "address"
        }
      ],
      "stateMutability": "view",
      "type": "function"
    },
    {
      "inputs": [
        {
          "internalType": "bytes32",
          "name": "requestId",
          "type": "bytes32"
        },
        {
          "internalType": "uint256",
          "name": "randomness",
          "type": "uint256"
        }
      ],
      "name": "rawFulfillRandomness",
      "outputs": [],
      "stateMutability": "nonpayable",
      "type": "function"
    },
    {
      "inputs": [
        {
          "internalType": "bytes32",
          "name": "",
          "type": "bytes32"
        }
      ],
      "name": "requestIdToSender",
      "outputs": [
        {
          "internalType": "address",
          "name": "",
          "type": "address"
        }
      ],
      "stateMutability": "view",
      "type": "function"
    },
    {
      "inputs": [
        {
          "internalType": "bytes32",
          "name": "",
          "type": "bytes32"
        }
      ],
      "name": "requestIdToTokenId",
      "outputs": [
        {
          "internalType": "uint256",
          "name": "",
          "type": "uint256"
        }
      ],
      "stateMutability": "view",
      "type": "function"
    },
    {
      "inputs": [
        {
          "internalType": "bytes32",
          "name": "",
          "type": "bytes32"
        }
      ],
      "name": "requestIdToTokenURI",
      "outputs": [
        {
          "internalType": "string",
          "name": "",
          "type": "string"
        }
      ],
      "stateMutability": "view",
      "type": "function"
    },
    {
      "inputs": [
        {
          "internalType": "bytes32",
          "name": "",
          "type": "bytes32"
        }
      ],
      "name": "requestIdToType",
      "outputs": [
        {
          "internalType": "enum SupportChildrenCollectible.Type",
          "name": "",
          "type": "uint8"
        }
      ],
      "stateMutability": "view",
      "type": "function"
    },
    {
      "inputs": [
        {
          "internalType": "address",
          "name": "from",
          "type": "address"
        },
        {
          "internalType": "address",
          "name": "to",
          "type": "address"
        },
        {
          "internalType": "uint256",
          "name": "tokenId",
          "type": "uint256"
        }
      ],
      "name": "safeTransferFrom",
      "outputs": [],
      "stateMutability": "nonpayable",
      "type": "function"
    },
    {
      "inputs": [
        {
          "internalType": "address",
          "name": "from",
          "type": "address"
        },
        {
          "internalType": "address",
          "name": "to",
          "type": "address"
        },
        {
          "internalType": "uint256",
          "name": "tokenId",
          "type": "uint256"
        },
        {
          "internalType": "bytes",
          "name": "_data",
          "type": "bytes"
        }
      ],
      "name": "safeTransferFrom",
      "outputs": [],
      "stateMutability": "nonpayable",
      "type": "function"
    },
    {
      "inputs": [
        {
          "internalType": "address",
          "name": "operator",
          "type": "address"
        },
        {
          "internalType": "bool",
          "name": "approved",
          "type": "bool"
        }
      ],
      "name": "setApprovalForAll",
      "outputs": [],
      "stateMutability": "nonpayable",
      "type": "function"
    },
    {
      "inputs": [
        {
          "internalType": "bytes4",
          "name": "interfaceId",
          "type": "bytes4"
        }
      ],
      "name": "supportsInterface",
      "outputs": [
        {
          "internalType": "bool",
          "name": "",
          "type": "bool"
        }
      ],
      "stateMutability": "view",
      "type": "function"
    },
    {
      "inputs": [],
      "name": "symbol",
      "outputs": [
        {
          "internalType": "string",
          "name": "",
          "type": "string"
        }
      ],
      "stateMutability": "view",
      "type": "function"
    },
    {
      "inputs": [],
      "name": "tokenCounter",
      "outputs": [
        {
          "internalType": "uint256",
          "name": "",
          "type": "uint256"
        }
      ],
      "stateMutability": "view",
      "type": "function"
    },
    {
      "inputs": [
        {
          "internalType": "uint256",
          "name": "",
          "type": "uint256"
        }
      ],
      "name": "tokenIdToTestRandomness",
      "outputs": [
        {
          "internalType": "enum SupportChildrenCollectible.TestRandomness",
          "name": "",
          "type": "uint8"
        }
      ],
      "stateMutability": "view",
      "type": "function"
    },
    {
      "inputs": [
        {
          "internalType": "uint256",
          "name": "",
          "type": "uint256"
        }
      ],
      "name": "tokenIdToType",
      "outputs": [
        {
          "internalType": "enum SupportChildrenCollectible.Type",
          "name": "",
          "type": "uint8"
        }
      ],
      "stateMutability": "view",
      "type": "function"
    },
    {
      "inputs": [
        {
          "internalType": "uint256",
          "name": "tokenId",
          "type": "uint256"
        }
      ],
      "name": "tokenURI",
      "outputs": [
        {
          "internalType": "string",
          "name": "",
          "type": "string"
        }
      ],
      "stateMutability": "view",
      "type": "function"
    },
    {
      "inputs": [
        {
          "internalType": "address",
          "name": "from",
          "type": "address"
        },
        {
          "internalType": "address",
          "name": "to",
          "type": "address"
        },
        {
          "internalType": "uint256",
          "name": "tokenId",
          "type": "uint256"
        }
      ],
      "name": "transferFrom",
      "outputs": [],
      "stateMutability": "nonpayable",
      "type": "function"
    },
    {
      "inputs": [
        {
          "internalType": "string",
          "name": "tokenURI",
          "type": "string"
        },
        {
          "internalType": "string",
          "name": "typeId",
          "type": "string"
        }
      ],
      "name": "createCollectible",
      "outputs": [
        {
          "internalType": "bytes32",
          "name": "",
          "type": "bytes32"
        }
      ],
      "stateMutability": "nonpayable",
      "type": "function"
    }
  ],
  "bytecode": "0x60c06040523480156200001157600080fd5b50604051620038543803806200385483398181016040528101906200003791906200024f565b83836040518060400160405280601a81526020017f537570706f72744368696c6472656e436f6c6c65637469626c650000000000008152506040518060400160405280600381526020017f53434300000000000000000000000000000000000000000000000000000000008152508160009080519060200190620000bd92919062000171565b508060019080519060200190620000d692919062000171565b5050508173ffffffffffffffffffffffffffffffffffffffff1660a08173ffffffffffffffffffffffffffffffffffffffff1660601b815250508073ffffffffffffffffffffffffffffffffffffffff1660808173ffffffffffffffffffffffffffffffffffffffff1660601b815250505050600060078190555081600e8190555067016345785d8a0000600f81905550505050506200039d565b8280546200017f90620002ff565b90600052602060002090601f016020900481019282620001a35760008555620001ef565b82601f10620001be57805160ff1916838001178555620001ef565b82800160010185558215620001ef579182015b82811115620001ee578251825591602001919060010190620001d1565b5b509050620001fe919062000202565b5090565b5b808211156200021d57600081600090555060010162000203565b5090565b600081519050620002328162000369565b92915050565b600081519050620002498162000383565b92915050565b600080600080608085870312156200026c576200026b62000364565b5b60006200027c8782880162000221565b94505060206200028f8782880162000221565b9350506040620002a28782880162000238565b9250506060620002b58782880162000221565b91505092959194509250565b6000620002ce82620002df565b9050919050565b6000819050919050565b600073ffffffffffffffffffffffffffffffffffffffff82169050919050565b600060028204905060018216806200031857607f821691505b602082108114156200032f576200032e62000335565b5b50919050565b7f4e487b7100000000000000000000000000000000000000000000000000000000600052602260045260246000fd5b600080fd5b6200037481620002c1565b81146200038057600080fd5b50565b6200038e81620002d5565b81146200039a57600080fd5b50565b60805160601c60a05160601c613484620003d060003960008181610ae101526118ce0152600061189201526134846000f3fe608060405234801561001057600080fd5b50600436106101425760003560e01c80636352211e116100b8578063b88d4fde1161007c578063b88d4fde146103bf578063c87b56dd146103db578063d082e3811461040b578063d2559e9914610429578063e985e9c514610459578063eadaee2a1461048957610142565b80636352211e1461030957806370a082311461033957806394985ddd1461036957806395d89b4114610385578063a22cb465146103a357610142565b806322881f881161010a57806322881f881461021157806323b872dd14610241578063356ee3351461025d57806342842e0e1461028d5780634372441a146102a95780635dd5e907146102d957610142565b806301ffc9a71461014757806306fdde0314610177578063081812fc14610195578063095ea7b3146101c5578063219c0eee146101e1575b600080fd5b610161600480360381019061015c91906122c8565b6104b9565b60405161016e91906127f4565b60405180910390f35b61017f61059b565b60405161018c91906128ce565b60405180910390f35b6101af60048036038101906101aa919061239a565b61062d565b6040516101bc919061274f565b60405180910390f35b6101df60048036038101906101da91906121ee565b6106b2565b005b6101fb60048036038101906101f6919061225b565b6107ca565b604051610208919061274f565b60405180910390f35b61022b6004803603810190610226919061225b565b6107fd565b6040516102389190612ad0565b60405180910390f35b61025b600480360381019061025691906120d8565b610815565b005b6102776004803603810190610272919061239a565b610875565b60405161028491906128b3565b60405180910390f35b6102a760048036038101906102a291906120d8565b610895565b005b6102c360048036038101906102be919061225b565b6108b5565b6040516102d091906128ce565b60405180910390f35b6102f360048036038101906102ee919061225b565b610955565b60405161030091906128b3565b60405180910390f35b610323600480360381019061031e919061239a565b610975565b604051610330919061274f565b60405180910390f35b610353600480360381019061034e919061206b565b610a27565b6040516103609190612ad0565b60405180910390f35b610383600480360381019061037e9190612288565b610adf565b005b61038d610b7b565b60405161039a91906128ce565b60405180910390f35b6103bd60048036038101906103b891906121ae565b610c0d565b005b6103d960048036038101906103d4919061212b565b610d8e565b005b6103f560048036038101906103f0919061239a565b610df0565b60405161040291906128ce565b60405180910390f35b610413610e97565b6040516104209190612ad0565b60405180910390f35b610443600480360381019061043e9190612322565b610e9d565b604051610450919061280f565b60405180910390f35b610473600480360381019061046e9190612098565b610f5e565b60405161048091906127f4565b60405180910390f35b6104a3600480360381019061049e919061239a565b610ff2565b6040516104b09190612898565b60405180910390f35b60007f80ac58cd000000000000000000000000000000000000000000000000000000007bffffffffffffffffffffffffffffffffffffffffffffffffffffffff1916827bffffffffffffffffffffffffffffffffffffffffffffffffffffffff1916148061058457507f5b5e139f000000000000000000000000000000000000000000000000000000007bffffffffffffffffffffffffffffffffffffffffffffffffffffffff1916827bffffffffffffffffffffffffffffffffffffffffffffffffffffffff1916145b80610594575061059382611012565b5b9050919050565b6060600080546105aa90612d7a565b80601f01602080910402602001604051908101604052809291908181526020018280546105d690612d7a565b80156106235780601f106105f857610100808354040283529160200191610623565b820191906000526020600020905b81548152906001019060200180831161060657829003601f168201915b5050505050905090565b60006106388261107c565b610677576040517f08c379a000000000000000000000000000000000000000000000000000000000815260040161066e90612a10565b60405180910390fd5b6004600083815260200190815260200160002060009054906101000a900473ffffffffffffffffffffffffffffffffffffffff169050919050565b60006106bd82610975565b90508073ffffffffffffffffffffffffffffffffffffffff168373ffffffffffffffffffffffffffffffffffffffff16141561072e576040517f08c379a000000000000000000000000000000000000000000000000000000000815260040161072590612a90565b60405180910390fd5b8073ffffffffffffffffffffffffffffffffffffffff1661074d6110e8565b73ffffffffffffffffffffffffffffffffffffffff16148061077c575061077b816107766110e8565b610f5e565b5b6107bb576040517f08c379a00000000000000000000000000000000000000000000000000000000081526004016107b290612990565b60405180910390fd5b6107c583836110f0565b505050565b60086020528060005260406000206000915054906101000a900473ffffffffffffffffffffffffffffffffffffffff1681565b600d6020528060005260406000206000915090505481565b6108266108206110e8565b826111a9565b610865576040517f08c379a000000000000000000000000000000000000000000000000000000000815260040161085c90612ab0565b60405180910390fd5b610870838383611287565b505050565b600b6020528060005260406000206000915054906101000a900460ff1681565b6108b083838360405180602001604052806000815250610d8e565b505050565b600a60205280600052604060002060009150905080546108d490612d7a565b80601f016020809104026020016040519081016040528092919081815260200182805461090090612d7a565b801561094d5780601f106109225761010080835404028352916020019161094d565b820191906000526020600020905b81548152906001019060200180831161093057829003601f168201915b505050505081565b60096020528060005260406000206000915054906101000a900460ff1681565b6000806002600084815260200190815260200160002060009054906101000a900473ffffffffffffffffffffffffffffffffffffffff169050600073ffffffffffffffffffffffffffffffffffffffff168173ffffffffffffffffffffffffffffffffffffffff161415610a1e576040517f08c379a0000000000000000000000000000000000000000000000000000000008152600401610a15906129d0565b60405180910390fd5b80915050919050565b60008073ffffffffffffffffffffffffffffffffffffffff168273ffffffffffffffffffffffffffffffffffffffff161415610a98576040517f08c379a0000000000000000000000000000000000000000000000000000000008152600401610a8f906129b0565b60405180910390fd5b600360008373ffffffffffffffffffffffffffffffffffffffff1673ffffffffffffffffffffffffffffffffffffffff168152602001908152602001600020549050919050565b7f000000000000000000000000000000000000000000000000000000000000000073ffffffffffffffffffffffffffffffffffffffff163373ffffffffffffffffffffffffffffffffffffffff1614610b6d576040517f08c379a0000000000000000000000000000000000000000000000000000000008152600401610b6490612a70565b60405180910390fd5b610b7782826114e3565b5050565b606060018054610b8a90612d7a565b80601f0160208091040260200160405190810160405280929190818152602001828054610bb690612d7a565b8015610c035780601f10610bd857610100808354040283529160200191610c03565b820191906000526020600020905b815481529060010190602001808311610be657829003601f168201915b5050505050905090565b610c156110e8565b73ffffffffffffffffffffffffffffffffffffffff168273ffffffffffffffffffffffffffffffffffffffff161415610c83576040517f08c379a0000000000000000000000000000000000000000000000000000000008152600401610c7a90612950565b60405180910390fd5b8060056000610c906110e8565b73ffffffffffffffffffffffffffffffffffffffff1673ffffffffffffffffffffffffffffffffffffffff16815260200190815260200160002060008473ffffffffffffffffffffffffffffffffffffffff1673ffffffffffffffffffffffffffffffffffffffff16815260200190815260200160002060006101000a81548160ff0219169083151502179055508173ffffffffffffffffffffffffffffffffffffffff16610d3d6110e8565b73ffffffffffffffffffffffffffffffffffffffff167f17307eab39ab6107e8899845ad3d59bd9653f200f220920489ca2b5937696c3183604051610d8291906127f4565b60405180910390a35050565b610d9f610d996110e8565b836111a9565b610dde576040517f08c379a0000000000000000000000000000000000000000000000000000000008152600401610dd590612ab0565b60405180910390fd5b610dea848484846116ba565b50505050565b6060610dfb8261107c565b610e3a576040517f08c379a0000000000000000000000000000000000000000000000000000000008152600401610e3190612a50565b60405180910390fd5b6000610e44611716565b90506000815111610e645760405180602001604052806000815250610e8f565b80610e6e8461172d565b604051602001610e7f92919061272b565b6040516020818303038152906040525b915050919050565b60075481565b600080610eae600e54600f5461188e565b9050336008600083815260200190815260200160002060006101000a81548173ffffffffffffffffffffffffffffffffffffffff021916908373ffffffffffffffffffffffffffffffffffffffff16021790555083600a60008381526020019081526020016000209080519060200190610f29929190611e55565b50807f1407d655ff3c024a96c54a8c62eb99076b252e94f2e0cdc30bcf86248a5f1b0360405160405180910390a25092915050565b6000600560008473ffffffffffffffffffffffffffffffffffffffff1673ffffffffffffffffffffffffffffffffffffffff16815260200190815260200160002060008373ffffffffffffffffffffffffffffffffffffffff1673ffffffffffffffffffffffffffffffffffffffff16815260200190815260200160002060009054906101000a900460ff16905092915050565b600c6020528060005260406000206000915054906101000a900460ff1681565b60007f01ffc9a7000000000000000000000000000000000000000000000000000000007bffffffffffffffffffffffffffffffffffffffffffffffffffffffff1916827bffffffffffffffffffffffffffffffffffffffffffffffffffffffff1916149050919050565b60008073ffffffffffffffffffffffffffffffffffffffff166002600084815260200190815260200160002060009054906101000a900473ffffffffffffffffffffffffffffffffffffffff1673ffffffffffffffffffffffffffffffffffffffff1614159050919050565b600033905090565b816004600083815260200190815260200160002060006101000a81548173ffffffffffffffffffffffffffffffffffffffff021916908373ffffffffffffffffffffffffffffffffffffffff160217905550808273ffffffffffffffffffffffffffffffffffffffff1661116383610975565b73ffffffffffffffffffffffffffffffffffffffff167f8c5be1e5ebec7d5bd14f71427d1e84f3dd0314c0f7b2291e5b200ac8c7c3b92560405160405180910390a45050565b60006111b48261107c565b6111f3576040517f08c379a00000000000000000000000000000000000000000000000000000000081526004016111ea90612970565b60405180910390fd5b60006111fe83610975565b90508073ffffffffffffffffffffffffffffffffffffffff168473ffffffffffffffffffffffffffffffffffffffff16148061126d57508373ffffffffffffffffffffffffffffffffffffffff166112558461062d565b73ffffffffffffffffffffffffffffffffffffffff16145b8061127e575061127d8185610f5e565b5b91505092915050565b8273ffffffffffffffffffffffffffffffffffffffff166112a782610975565b73ffffffffffffffffffffffffffffffffffffffff16146112fd576040517f08c379a00000000000000000000000000000000000000000000000000000000081526004016112f490612a30565b60405180910390fd5b600073ffffffffffffffffffffffffffffffffffffffff168273ffffffffffffffffffffffffffffffffffffffff16141561136d576040517f08c379a000000000000000000000000000000000000000000000000000000000815260040161136490612930565b60405180910390fd5b6113788383836119f0565b6113836000826110f0565b6001600360008573ffffffffffffffffffffffffffffffffffffffff1673ffffffffffffffffffffffffffffffffffffffff16815260200190815260200160002060008282546113d39190612c3c565b925050819055506001600360008473ffffffffffffffffffffffffffffffffffffffff1673ffffffffffffffffffffffffffffffffffffffff168152602001908152602001600020600082825461142a9190612bb5565b92505081905550816002600083815260200190815260200160002060006101000a81548173ffffffffffffffffffffffffffffffffffffffff021916908373ffffffffffffffffffffffffffffffffffffffff160217905550808273ffffffffffffffffffffffffffffffffffffffff168473ffffffffffffffffffffffffffffffffffffffff167fddf252ad1be2c89b69c2b068fc378daa952ba7f163c4a11628f55a4df523b3ef60405160405180910390a4505050565b60006008600084815260200190815260200160002060009054906101000a900473ffffffffffffffffffffffffffffffffffffffff1690506000600a6000858152602001908152602001600020805461153b90612d7a565b80601f016020809104026020016040519081016040528092919081815260200182805461156790612d7a565b80156115b45780601f10611589576101008083540402835291602001916115b4565b820191906000526020600020905b81548152906001019060200180831161159757829003601f168201915b50505050509050600060075490506115cc83826119f5565b60006005856115db9190612e3a565b60048111156115ed576115ec612ec9565b5b905080600c600084815260200190815260200160002060006101000a81548160ff0219169083600481111561162557611624612ec9565b5b021790555081600d6000888152602001908152602001600020819055506009600087815260200190815260200160002060009054906101000a900460ff16600b600084815260200190815260200160002060006101000a81548160ff0219169083600381111561169857611697612ec9565b5b021790555060016007546116ac9190612bb5565b600781905550505050505050565b6116c5848484611287565b6116d184848484611a13565b611710576040517f08c379a0000000000000000000000000000000000000000000000000000000008152600401611707906128f0565b60405180910390fd5b50505050565b606060405180602001604052806000815250905090565b60606000821415611775576040518060400160405280600181526020017f30000000000000000000000000000000000000000000000000000000000000008152509050611889565b600082905060005b600082146117a757808061179090612ddd565b915050600a826117a09190612c0b565b915061177d565b60008167ffffffffffffffff8111156117c3576117c2612f56565b5b6040519080825280601f01601f1916602001820160405280156117f55781602001600182028036833780820191505090505b5090505b600085146118825760018261180e9190612c3c565b9150600a8561181d9190612e3a565b60306118299190612bb5565b60f81b81838151811061183f5761183e612f27565b5b60200101907effffffffffffffffffffffffffffffffffffffffffffffffffffffffffffff1916908160001a905350600a8561187b9190612c0b565b94506117f9565b8093505050505b919050565b60007f000000000000000000000000000000000000000000000000000000000000000073ffffffffffffffffffffffffffffffffffffffff16634000aea07f00000000000000000000000000000000000000000000000000000000000000008486600060405160200161190292919061282a565b6040516020818303038152906040526040518463ffffffff1660e01b815260040161192f939291906127b6565b602060405180830381600087803b15801561194957600080fd5b505af115801561195d573d6000803e3d6000fd5b505050506040513d601f19601f82011682018060405250810190611981919061222e565b5060006119a4846000306006600089815260200190815260200160002054611baa565b9050600160066000868152602001908152602001600020546119c69190612bb5565b60066000868152602001908152602001600020819055506119e78482611be6565b91505092915050565b505050565b611a0f828260405180602001604052806000815250611c19565b5050565b6000611a348473ffffffffffffffffffffffffffffffffffffffff16611c74565b15611b9d578373ffffffffffffffffffffffffffffffffffffffff1663150b7a02611a5d6110e8565b8786866040518563ffffffff1660e01b8152600401611a7f949392919061276a565b602060405180830381600087803b158015611a9957600080fd5b505af1925050508015611aca57506040513d601f19601f82011682018060405250810190611ac791906122f5565b60015b611b4d573d8060008114611afa576040519150601f19603f3d011682016040523d82523d6000602084013e611aff565b606091505b50600081511415611b45576040517f08c379a0000000000000000000000000000000000000000000000000000000008152600401611b3c906128f0565b60405180910390fd5b805181602001fd5b63150b7a0260e01b7bffffffffffffffffffffffffffffffffffffffffffffffffffffffff1916817bffffffffffffffffffffffffffffffffffffffffffffffffffffffff191614915050611ba2565b600190505b949350505050565b600084848484604051602001611bc39493929190612853565b6040516020818303038152906040528051906020012060001c9050949350505050565b60008282604051602001611bfb9291906126ff565b60405160208183030381529060405280519060200120905092915050565b611c238383611c87565b611c306000848484611a13565b611c6f576040517f08c379a0000000000000000000000000000000000000000000000000000000008152600401611c66906128f0565b60405180910390fd5b505050565b600080823b905060008111915050919050565b600073ffffffffffffffffffffffffffffffffffffffff168273ffffffffffffffffffffffffffffffffffffffff161415611cf7576040517f08c379a0000000000000000000000000000000000000000000000000000000008152600401611cee906129f0565b60405180910390fd5b611d008161107c565b15611d40576040517f08c379a0000000000000000000000000000000000000000000000000000000008152600401611d3790612910565b60405180910390fd5b611d4c600083836119f0565b6001600360008473ffffffffffffffffffffffffffffffffffffffff1673ffffffffffffffffffffffffffffffffffffffff1681526020019081526020016000206000828254611d9c9190612bb5565b92505081905550816002600083815260200190815260200160002060006101000a81548173ffffffffffffffffffffffffffffffffffffffff021916908373ffffffffffffffffffffffffffffffffffffffff160217905550808273ffffffffffffffffffffffffffffffffffffffff16600073ffffffffffffffffffffffffffffffffffffffff167fddf252ad1be2c89b69c2b068fc378daa952ba7f163c4a11628f55a4df523b3ef60405160405180910390a45050565b828054611e6190612d7a565b90600052602060002090601f016020900481019282611e835760008555611eca565b82601f10611e9c57805160ff1916838001178555611eca565b82800160010185558215611eca579182015b82811115611ec9578251825591602001919060010190611eae565b5b509050611ed79190611edb565b5090565b5b80821115611ef4576000816000905550600101611edc565b5090565b6000611f0b611f0684612b10565b612aeb565b905082815260208101848484011115611f2757611f26612f8a565b5b611f32848285612d38565b509392505050565b6000611f4d611f4884612b41565b612aeb565b905082815260208101848484011115611f6957611f68612f8a565b5b611f74848285612d38565b509392505050565b600081359050611f8b816133db565b92915050565b600081359050611fa0816133f2565b92915050565b600081519050611fb5816133f2565b92915050565b600081359050611fca81613409565b92915050565b600081359050611fdf81613420565b92915050565b600081519050611ff481613420565b92915050565b600082601f83011261200f5761200e612f85565b5b813561201f848260208601611ef8565b91505092915050565b600082601f83011261203d5761203c612f85565b5b813561204d848260208601611f3a565b91505092915050565b60008135905061206581613437565b92915050565b60006020828403121561208157612080612f94565b5b600061208f84828501611f7c565b91505092915050565b600080604083850312156120af576120ae612f94565b5b60006120bd85828601611f7c565b92505060206120ce85828601611f7c565b9150509250929050565b6000806000606084860312156120f1576120f0612f94565b5b60006120ff86828701611f7c565b935050602061211086828701611f7c565b925050604061212186828701612056565b9150509250925092565b6000806000806080858703121561214557612144612f94565b5b600061215387828801611f7c565b945050602061216487828801611f7c565b935050604061217587828801612056565b925050606085013567ffffffffffffffff81111561219657612195612f8f565b5b6121a287828801611ffa565b91505092959194509250565b600080604083850312156121c5576121c4612f94565b5b60006121d385828601611f7c565b92505060206121e485828601611f91565b9150509250929050565b6000806040838503121561220557612204612f94565b5b600061221385828601611f7c565b925050602061222485828601612056565b9150509250929050565b60006020828403121561224457612243612f94565b5b600061225284828501611fa6565b91505092915050565b60006020828403121561227157612270612f94565b5b600061227f84828501611fbb565b91505092915050565b6000806040838503121561229f5761229e612f94565b5b60006122ad85828601611fbb565b92505060206122be85828601612056565b9150509250929050565b6000602082840312156122de576122dd612f94565b5b60006122ec84828501611fd0565b91505092915050565b60006020828403121561230b5761230a612f94565b5b600061231984828501611fe5565b91505092915050565b6000806040838503121561233957612338612f94565b5b600083013567ffffffffffffffff81111561235757612356612f8f565b5b61236385828601612028565b925050602083013567ffffffffffffffff81111561238457612383612f8f565b5b61239085828601612028565b9150509250929050565b6000602082840312156123b0576123af612f94565b5b60006123be84828501612056565b91505092915050565b6123d081612c70565b82525050565b6123df81612c82565b82525050565b6123ee81612c8e565b82525050565b61240561240082612c8e565b612e26565b82525050565b600061241682612b72565b6124208185612b88565b9350612430818560208601612d47565b61243981612f99565b840191505092915050565b61244d81612d14565b82525050565b61245c81612d26565b82525050565b600061246d82612b7d565b6124778185612b99565b9350612487818560208601612d47565b61249081612f99565b840191505092915050565b60006124a682612b7d565b6124b08185612baa565b93506124c0818560208601612d47565b80840191505092915050565b60006124d9603283612b99565b91506124e482612faa565b604082019050919050565b60006124fc601c83612b99565b915061250782612ff9565b602082019050919050565b600061251f602483612b99565b915061252a82613022565b604082019050919050565b6000612542601983612b99565b915061254d82613071565b602082019050919050565b6000612565602c83612b99565b91506125708261309a565b604082019050919050565b6000612588603883612b99565b9150612593826130e9565b604082019050919050565b60006125ab602a83612b99565b91506125b682613138565b604082019050919050565b60006125ce602983612b99565b91506125d982613187565b604082019050919050565b60006125f1602083612b99565b91506125fc826131d6565b602082019050919050565b6000612614602c83612b99565b915061261f826131ff565b604082019050919050565b6000612637602983612b99565b91506126428261324e565b604082019050919050565b600061265a602f83612b99565b91506126658261329d565b604082019050919050565b600061267d601f83612b99565b9150612688826132ec565b602082019050919050565b60006126a0602183612b99565b91506126ab82613315565b604082019050919050565b60006126c3603183612b99565b91506126ce82613364565b604082019050919050565b6126e281612d0a565b82525050565b6126f96126f482612d0a565b612e30565b82525050565b600061270b82856123f4565b60208201915061271b82846126e8565b6020820191508190509392505050565b6000612737828561249b565b9150612743828461249b565b91508190509392505050565b600060208201905061276460008301846123c7565b92915050565b600060808201905061277f60008301876123c7565b61278c60208301866123c7565b61279960408301856126d9565b81810360608301526127ab818461240b565b905095945050505050565b60006060820190506127cb60008301866123c7565b6127d860208301856126d9565b81810360408301526127ea818461240b565b9050949350505050565b600060208201905061280960008301846123d6565b92915050565b600060208201905061282460008301846123e5565b92915050565b600060408201905061283f60008301856123e5565b61284c60208301846126d9565b9392505050565b600060808201905061286860008301876123e5565b61287560208301866126d9565b61288260408301856123c7565b61288f60608301846126d9565b95945050505050565b60006020820190506128ad6000830184612444565b92915050565b60006020820190506128c86000830184612453565b92915050565b600060208201905081810360008301526128e88184612462565b905092915050565b60006020820190508181036000830152612909816124cc565b9050919050565b60006020820190508181036000830152612929816124ef565b9050919050565b6000602082019050818103600083015261294981612512565b9050919050565b6000602082019050818103600083015261296981612535565b9050919050565b6000602082019050818103600083015261298981612558565b9050919050565b600060208201905081810360008301526129a98161257b565b9050919050565b600060208201905081810360008301526129c98161259e565b9050919050565b600060208201905081810360008301526129e9816125c1565b9050919050565b60006020820190508181036000830152612a09816125e4565b9050919050565b60006020820190508181036000830152612a2981612607565b9050919050565b60006020820190508181036000830152612a498161262a565b9050919050565b60006020820190508181036000830152612a698161264d565b9050919050565b60006020820190508181036000830152612a8981612670565b9050919050565b60006020820190508181036000830152612aa981612693565b9050919050565b60006020820190508181036000830152612ac9816126b6565b9050919050565b6000602082019050612ae560008301846126d9565b92915050565b6000612af5612b06565b9050612b018282612dac565b919050565b6000604051905090565b600067ffffffffffffffff821115612b2b57612b2a612f56565b5b612b3482612f99565b9050602081019050919050565b600067ffffffffffffffff821115612b5c57612b5b612f56565b5b612b6582612f99565b9050602081019050919050565b600081519050919050565b600081519050919050565b600082825260208201905092915050565b600082825260208201905092915050565b600081905092915050565b6000612bc082612d0a565b9150612bcb83612d0a565b9250827fffffffffffffffffffffffffffffffffffffffffffffffffffffffffffffffff03821115612c0057612bff612e6b565b5b828201905092915050565b6000612c1682612d0a565b9150612c2183612d0a565b925082612c3157612c30612e9a565b5b828204905092915050565b6000612c4782612d0a565b9150612c5283612d0a565b925082821015612c6557612c64612e6b565b5b828203905092915050565b6000612c7b82612cea565b9050919050565b60008115159050919050565b6000819050919050565b60007fffffffff0000000000000000000000000000000000000000000000000000000082169050919050565b6000819050612cd2826133b3565b919050565b6000819050612ce5826133c7565b919050565b600073ffffffffffffffffffffffffffffffffffffffff82169050919050565b6000819050919050565b6000612d1f82612cc4565b9050919050565b6000612d3182612cd7565b9050919050565b82818337600083830152505050565b60005b83811015612d65578082015181840152602081019050612d4a565b83811115612d74576000848401525b50505050565b60006002820490506001821680612d9257607f821691505b60208210811415612da657612da5612ef8565b5b50919050565b612db582612f99565b810181811067ffffffffffffffff82111715612dd457612dd3612f56565b5b80604052505050565b6000612de882612d0a565b91507fffffffffffffffffffffffffffffffffffffffffffffffffffffffffffffffff821415612e1b57612e1a612e6b565b5b600182019050919050565b6000819050919050565b6000819050919050565b6000612e4582612d0a565b9150612e5083612d0a565b925082612e6057612e5f612e9a565b5b828206905092915050565b7f4e487b7100000000000000000000000000000000000000000000000000000000600052601160045260246000fd5b7f4e487b7100000000000000000000000000000000000000000000000000000000600052601260045260246000fd5b7f4e487b7100000000000000000000000000000000000000000000000000000000600052602160045260246000fd5b7f4e487b7100000000000000000000000000000000000000000000000000000000600052602260045260246000fd5b7f4e487b7100000000000000000000000000000000000000000000000000000000600052603260045260246000fd5b7f4e487b7100000000000000000000000000000000000000000000000000000000600052604160045260246000fd5b600080fd5b600080fd5b600080fd5b600080fd5b6000601f19601f8301169050919050565b7f4552433732313a207472616e7366657220746f206e6f6e20455243373231526560008201527f63656976657220696d706c656d656e7465720000000000000000000000000000602082015250565b7f4552433732313a20746f6b656e20616c7265616479206d696e74656400000000600082015250565b7f4552433732313a207472616e7366657220746f20746865207a65726f2061646460008201527f7265737300000000000000000000000000000000000000000000000000000000602082015250565b7f4552433732313a20617070726f766520746f2063616c6c657200000000000000600082015250565b7f4552433732313a206f70657261746f7220717565727920666f72206e6f6e657860008201527f697374656e7420746f6b656e0000000000000000000000000000000000000000602082015250565b7f4552433732313a20617070726f76652063616c6c6572206973206e6f74206f7760008201527f6e6572206e6f7220617070726f76656420666f7220616c6c0000000000000000602082015250565b7f4552433732313a2062616c616e636520717565727920666f7220746865207a6560008201527f726f206164647265737300000000000000000000000000000000000000000000602082015250565b7f4552433732313a206f776e657220717565727920666f72206e6f6e657869737460008201527f656e7420746f6b656e0000000000000000000000000000000000000000000000602082015250565b7f4552433732313a206d696e7420746f20746865207a65726f2061646472657373600082015250565b7f4552433732313a20617070726f76656420717565727920666f72206e6f6e657860008201527f697374656e7420746f6b656e0000000000000000000000000000000000000000602082015250565b7f4552433732313a207472616e73666572206f6620746f6b656e2074686174206960008201527f73206e6f74206f776e0000000000000000000000000000000000000000000000602082015250565b7f4552433732314d657461646174613a2055524920717565727920666f72206e6f60008201527f6e6578697374656e7420746f6b656e0000000000000000000000000000000000602082015250565b7f4f6e6c7920565246436f6f7264696e61746f722063616e2066756c66696c6c00600082015250565b7f4552433732313a20617070726f76616c20746f2063757272656e74206f776e6560008201527f7200000000000000000000000000000000000000000000000000000000000000602082015250565b7f4552433732313a207472616e736665722063616c6c6572206973206e6f74206f60008201527f776e6572206e6f7220617070726f766564000000000000000000000000000000602082015250565b600581106133c4576133c3612ec9565b5b50565b600481106133d8576133d7612ec9565b5b50565b6133e481612c70565b81146133ef57600080fd5b50565b6133fb81612c82565b811461340657600080fd5b50565b61341281612c8e565b811461341d57600080fd5b50565b61342981612c98565b811461343457600080fd5b50565b61344081612d0a565b811461344b57600080fd5b5056fea2646970667358221220d1799f6d1c3af196914c414f7ca64ceefcfa0b824f4b011545acd40eb1c229a264736f6c63430008060033",
  "immutableReferences": {
    "73": [
      {
        "length": 32,
        "start": 6290
      }
    ],
    "75": [
      {
        "length": 32,
        "start": 2785
      },
      {
        "length": 32,
        "start": 6350
      }
    ]
  },
  "source": "pragma solidity >=0.7.6 <0.9.0;\n\nimport \"@openzeppelin/contracts/token/ERC721/ERC721.sol\";\nimport \"@chainlink/contracts/src/v0.8/VRFConsumerBase.sol\";\n\ncontract SupportChildrenCollectible is ERC721, VRFConsumerBase {\n    uint256 public tokenCounter;\n    enum Type{FirstDonation, LastDonation, FullCampaingDonation, CampaignSuccessfullyFinished}\n    enum TestRandomness{First, Second, Third, Fourth, Final}\n    // add other things\n    mapping(bytes32 => address) public requestIdToSender;\n    mapping(bytes32 => Type) public requestIdToType;\n    mapping(bytes32 => string) public requestIdToTokenURI;\n    mapping(uint256 => Type) public tokenIdToType;\n    mapping(uint256 => TestRandomness) public tokenIdToTestRandomness;\n    mapping(bytes32 => uint256) public requestIdToTokenId;\n    event requestedCollectible(bytes32 indexed requestId); \n\n\n    bytes32 internal keyHash;\n    uint256 internal fee;\n    uint256 internal owner;\n\n\n    // modifier owner {\n    //     require(campaigns[_campaignId].creatorAddress == tx.origin, \"you must be campaign creator to do this\");\n    //     _;\n    // }\n    \n    constructor(address _VRFCoordinator, address _LinkToken, bytes32 _keyhash, address owner)\n    public \n    VRFConsumerBase(_VRFCoordinator, _LinkToken)\n    ERC721(\"SupportChildrenCollectible\", \"SCC\")\n    {\n        tokenCounter = 0;\n        keyHash = _keyhash;\n        fee = 0.1 * 10 ** 18;\n        owner = owner;\n    }\n\n    function createCollectible(string memory tokenURI, string memory typeId) \n        public returns (bytes32){\n            bytes32 requestId = requestRandomness(keyHash, fee);\n            requestIdToSender[requestId] = msg.sender;\n            requestIdToTokenURI[requestId] = tokenURI;\n            // requestIdToType[requestId] = Type(typeId);\n            emit requestedCollectible(requestId);\n    }\n\n    function fulfillRandomness(bytes32 requestId, uint256 randomNumber) internal override {\n        address owner = requestIdToSender[requestId];\n        string memory tokenURI = requestIdToTokenURI[requestId];\n        uint256 newItemId = tokenCounter;\n        _safeMint(owner, newItemId);\n        // _setTokenURI(newItemId, tokenURI);\n        TestRandomness random = TestRandomness(randomNumber % 5); \n        tokenIdToTestRandomness[newItemId] = random;\n        requestIdToTokenId[requestId] = newItemId;\n        tokenIdToType[newItemId] = requestIdToType[requestId];\n        tokenCounter = tokenCounter + 1;\n    }\n}",
  "sourcePath": "/home/zarko/learn/ethereum/support-children/contracts/SupportChildrenCollectable.sol",
  "compiler": {
    "name": "solc",
    "version": "0.8.6+commit.11564f7e.Emscripten.clang"
  },
  "schemaVersion": "3.4.1",
  "updatedAt": "2021-08-09T18:21:10.332Z",
  "networkType": "ethereum",
  "devdoc": {
    "kind": "dev",
    "methods": {
      "approve(address,uint256)": {
        "details": "See {IERC721-approve}."
      },
      "balanceOf(address)": {
        "details": "See {IERC721-balanceOf}."
      },
      "getApproved(uint256)": {
        "details": "See {IERC721-getApproved}."
      },
      "isApprovedForAll(address,address)": {
        "details": "See {IERC721-isApprovedForAll}."
      },
      "name()": {
        "details": "See {IERC721Metadata-name}."
      },
      "ownerOf(uint256)": {
        "details": "See {IERC721-ownerOf}."
      },
      "safeTransferFrom(address,address,uint256)": {
        "details": "See {IERC721-safeTransferFrom}."
      },
      "safeTransferFrom(address,address,uint256,bytes)": {
        "details": "See {IERC721-safeTransferFrom}."
      },
      "setApprovalForAll(address,bool)": {
        "details": "See {IERC721-setApprovalForAll}."
      },
      "supportsInterface(bytes4)": {
        "details": "See {IERC165-supportsInterface}."
      },
      "symbol()": {
        "details": "See {IERC721Metadata-symbol}."
      },
      "tokenURI(uint256)": {
        "details": "See {IERC721Metadata-tokenURI}."
      },
      "transferFrom(address,address,uint256)": {
        "details": "See {IERC721-transferFrom}."
      }
    },
    "version": 1
  },
  "userdoc": {
    "kind": "user",
    "methods": {},
    "version": 1
  }
}