{
  "contractName": "Uniswap3",
  "abi": [
    {
      "inputs": [],
      "name": "quoter",
      "outputs": [
        {
          "internalType": "contract IQuoter",
          "name": "",
          "type": "address"
        }
      ],
      "stateMutability": "view",
      "type": "function"
    },
    {
      "inputs": [],
      "name": "uniswapRouter",
      "outputs": [
        {
          "internalType": "contract IUniswapRouter",
          "name": "",
          "type": "address"
        }
      ],
      "stateMutability": "view",
      "type": "function"
    },
    {
      "stateMutability": "payable",
      "type": "receive"
    },
    {
      "inputs": [],
      "name": "convertExactEthToDai",
      "outputs": [],
      "stateMutability": "payable",
      "type": "function"
    },
    {
      "inputs": [
        {
          "internalType": "uint256",
          "name": "daiAmount",
          "type": "uint256"
        }
      ],
      "name": "convertEthToExactDai",
      "outputs": [],
      "stateMutability": "payable",
      "type": "function"
    },
    {
      "inputs": [
        {
          "internalType": "uint256",
          "name": "daiAmount",
          "type": "uint256"
        }
      ],
      "name": "getEstimatedETHforDAI",
      "outputs": [
        {
          "internalType": "uint256",
          "name": "",
          "type": "uint256"
        }
      ],
      "stateMutability": "payable",
      "type": "function"
    }
  ],
  "bytecode": "0x608060405234801561001057600080fd5b50610eb2806100206000396000f3fe60806040526004361061004e5760003560e01c806341d53ee91461005a578063735de9f7146100645780637ed3717f1461008f578063ada8b83d146100ab578063c6bbd5a7146100db57610055565b3661005557005b600080fd5b610062610106565b005b34801561007057600080fd5b5061007961040c565b6040516100869190610be0565b60405180910390f35b6100a960048036038101906100a4919061089d565b610424565b005b6100c560048036038101906100c0919061089d565b61076d565b6040516100d29190610c93565b60405180910390f35b3480156100e757600080fd5b506100f061085b565b6040516100fd9190610bc5565b60405180910390f35b60003411610149576040517f08c379a000000000000000000000000000000000000000000000000000000000815260040161014090610c1b565b60405180910390fd5b6000600f426101589190610cca565b9050600073d0a1e359811322d97991e03f863a0c30c2cf029c9050600073c3dbf84abb494ce5199d5d4d815b10ec29529ff890506000610bb89050600033905060003490506000600190506000806040518061010001604052808973ffffffffffffffffffffffffffffffffffffffff1681526020018873ffffffffffffffffffffffffffffffffffffffff1681526020018762ffffff1681526020018673ffffffffffffffffffffffffffffffffffffffff1681526020018a81526020018581526020018481526020018373ffffffffffffffffffffffffffffffffffffffff16815250905073e592427a0aece92de3edee1f18e0157c0586156473ffffffffffffffffffffffffffffffffffffffff1663414bf38934836040518363ffffffff1660e01b815260040161028d9190610c5b565b6020604051808303818588803b1580156102a657600080fd5b505af11580156102ba573d6000803e3d6000fd5b50505050506040513d601f19601f820116820180604052508101906102df91906108ca565b5073e592427a0aece92de3edee1f18e0157c0586156473ffffffffffffffffffffffffffffffffffffffff166312210e8a6040518163ffffffff1660e01b8152600401600060405180830381600087803b15801561033c57600080fd5b505af1158015610350573d6000803e3d6000fd5b5050505060003373ffffffffffffffffffffffffffffffffffffffff164760405161037a90610b5d565b60006040518083038185875af1925050503d80600081146103b7576040519150601f19603f3d011682016040523d82523d6000602084013e6103bc565b606091505b5050905080610400576040517f08c379a00000000000000000000000000000000000000000000000000000000081526004016103f790610c3b565b60405180910390fd5b50505050505050505050565b73e592427a0aece92de3edee1f18e0157c0586156481565b60008111610467576040517f08c379a000000000000000000000000000000000000000000000000000000000815260040161045e90610bfb565b60405180910390fd5b600034116104aa576040517f08c379a00000000000000000000000000000000000000000000000000000000081526004016104a190610c1b565b60405180910390fd5b6000600f426104b99190610cca565b9050600073d0a1e359811322d97991e03f863a0c30c2cf029c9050600073c3dbf84abb494ce5199d5d4d815b10ec29529ff890506000610bb890506000339050600086905060003490506000806040518061010001604052808973ffffffffffffffffffffffffffffffffffffffff1681526020018873ffffffffffffffffffffffffffffffffffffffff1681526020018762ffffff1681526020018673ffffffffffffffffffffffffffffffffffffffff1681526020018a81526020018581526020018481526020018373ffffffffffffffffffffffffffffffffffffffff16815250905073e592427a0aece92de3edee1f18e0157c0586156473ffffffffffffffffffffffffffffffffffffffff1663db3e219834836040518363ffffffff1660e01b81526004016105ed9190610c77565b6020604051808303818588803b15801561060657600080fd5b505af115801561061a573d6000803e3d6000fd5b50505050506040513d601f19601f8201168201806040525081019061063f91906108ca565b5073e592427a0aece92de3edee1f18e0157c0586156473ffffffffffffffffffffffffffffffffffffffff166312210e8a6040518163ffffffff1660e01b8152600401600060405180830381600087803b15801561069c57600080fd5b505af11580156106b0573d6000803e3d6000fd5b5050505060003373ffffffffffffffffffffffffffffffffffffffff16476040516106da90610b5d565b60006040518083038185875af1925050503d8060008114610717576040519150601f19603f3d011682016040523d82523d6000602084013e61071c565b606091505b5050905080610760576040517f08c379a000000000000000000000000000000000000000000000000000000000815260040161075790610c3b565b60405180910390fd5b5050505050505050505050565b60008073d0a1e359811322d97991e03f863a0c30c2cf029c9050600073c3dbf84abb494ce5199d5d4d815b10ec29529ff890506000610bb89050600073b27308f9f90d607463bb33ea1bebb41c27ce5ab673ffffffffffffffffffffffffffffffffffffffff166330d07f218585858a866040518663ffffffff1660e01b81526004016107fe959493929190610b72565b602060405180830381600087803b15801561081857600080fd5b505af115801561082c573d6000803e3d6000fd5b505050506040513d601f19601f8201168201806040525081019061085091906108ca565b945050505050919050565b73b27308f9f90d607463bb33ea1bebb41c27ce5ab681565b60008135905061088281610e65565b92915050565b60008151905061089781610e65565b92915050565b6000602082840312156108b3576108b2610de2565b5b60006108c184828501610873565b91505092915050565b6000602082840312156108e0576108df610de2565b5b60006108ee84828501610888565b91505092915050565b61090081610d20565b82525050565b61090f81610d20565b82525050565b61091e81610d6b565b82525050565b61092d81610d8f565b82525050565b6000610940601a83610cb9565b915061094b82610de7565b602082019050919050565b6000610963600083610cae565b915061096e82610e10565b600082019050919050565b6000610986601a83610cb9565b915061099182610e13565b602082019050919050565b60006109a9600d83610cb9565b91506109b482610e3c565b602082019050919050565b610100820160008201516109d660008501826108f7565b5060208201516109e960208501826108f7565b5060408201516109fc6040850182610b21565b506060820151610a0f60608501826108f7565b506080820151610a226080850182610b3f565b5060a0820151610a3560a0850182610b3f565b5060c0820151610a4860c0850182610b3f565b5060e0820151610a5b60e0850182610b03565b50505050565b61010082016000820151610a7860008501826108f7565b506020820151610a8b60208501826108f7565b506040820151610a9e6040850182610b21565b506060820151610ab160608501826108f7565b506080820151610ac46080850182610b3f565b5060a0820151610ad760a0850182610b3f565b5060c0820151610aea60c0850182610b3f565b5060e0820151610afd60e0850182610b03565b50505050565b610b0c81610d32565b82525050565b610b1b81610d32565b82525050565b610b2a81610d52565b82525050565b610b3981610d52565b82525050565b610b4881610d61565b82525050565b610b5781610d61565b82525050565b6000610b6882610956565b9150819050919050565b600060a082019050610b876000830188610906565b610b946020830187610906565b610ba16040830186610b30565b610bae6060830185610b4e565b610bbb6080830184610b12565b9695505050505050565b6000602082019050610bda6000830184610915565b92915050565b6000602082019050610bf56000830184610924565b92915050565b60006020820190508181036000830152610c1481610933565b9050919050565b60006020820190508181036000830152610c3481610979565b9050919050565b60006020820190508181036000830152610c548161099c565b9050919050565b600061010082019050610c7160008301846109bf565b92915050565b600061010082019050610c8d6000830184610a61565b92915050565b6000602082019050610ca86000830184610b4e565b92915050565b600081905092915050565b600082825260208201905092915050565b6000610cd582610d61565b9150610ce083610d61565b9250827fffffffffffffffffffffffffffffffffffffffffffffffffffffffffffffffff03821115610d1557610d14610db3565b5b828201905092915050565b6000610d2b82610d32565b9050919050565b600073ffffffffffffffffffffffffffffffffffffffff82169050919050565b600062ffffff82169050919050565b6000819050919050565b6000610d7682610d7d565b9050919050565b6000610d8882610d32565b9050919050565b6000610d9a82610da1565b9050919050565b6000610dac82610d32565b9050919050565b7f4e487b7100000000000000000000000000000000000000000000000000000000600052601160045260246000fd5b600080fd5b7f4d7573742070617373206e6f6e20302044414920616d6f756e74000000000000600082015250565b50565b7f4d7573742070617373206e6f6e20302045544820616d6f756e74000000000000600082015250565b7f726566756e64206661696c656400000000000000000000000000000000000000600082015250565b610e6e81610d61565b8114610e7957600080fd5b5056fea2646970667358221220e571c3d0ab91dc660d3f55729f9d4bbe69a45d7eeea662700b661307b9f98db064736f6c63430008060033",
  "immutableReferences": {},
  "source": "// SPDX-License-Identifier: MIT\npragma solidity >=0.7.6 <0.9.0;\npragma abicoder v2;\n\n// import \"https://github.com/Uniswap/uniswap-v3-periphery/blob/main/contracts/interfaces/ISwapRouter.sol\";\n// import \"https://github.com/Uniswap/uniswap-v3-periphery/blob/main/contracts/interfaces/IQuoter.sol\";\n\nimport \"@uniswap/v3-periphery/contracts/interfaces/ISwapRouter.sol\";\nimport \"@uniswap/v3-periphery/contracts/interfaces/IQuoter.sol\";\n\ninterface IUniswapRouter is ISwapRouter {\n    function refundETH() external payable;\n}\n\ncontract Uniswap3 {\n  IUniswapRouter public constant uniswapRouter = IUniswapRouter(0xE592427A0AEce92De3Edee1F18E0157C05861564);\n  IQuoter public constant quoter = IQuoter(0xb27308f9F90D607463bb33eA1BeBb41C27CE5AB6);\n  address private constant multiDaiKovan = 0xc3dbf84Abb494ce5199D5d4D815b10EC29529ff8;\n  address private constant WETH9 = 0xd0A1E359811322d97991E03f863a0C30C2cF029C;\n\n  function convertExactEthToDai() external payable {\n    require(msg.value > 0, \"Must pass non 0 ETH amount\");\n\n    uint256 deadline = block.timestamp + 15; // using 'now' for convenience, for mainnet pass deadline from frontend!\n    address tokenIn = WETH9;\n    address tokenOut = multiDaiKovan;\n    uint24 fee = 3000;\n    address recipient = msg.sender;\n    uint256 amountIn = msg.value;\n    uint256 amountOutMinimum = 1;\n    uint160 sqrtPriceLimitX96 = 0;\n    \n    ISwapRouter.ExactInputSingleParams memory params = ISwapRouter.ExactInputSingleParams(\n        tokenIn,\n        tokenOut,\n        fee,\n        recipient,\n        deadline,\n        amountIn,\n        amountOutMinimum,\n        sqrtPriceLimitX96\n    );\n    \n    uniswapRouter.exactInputSingle{ value: msg.value }(params);\n    uniswapRouter.refundETH();\n    \n    // refund leftover ETH to user\n    (bool success,) = msg.sender.call{ value: address(this).balance }(\"\");\n    require(success, \"refund failed\");\n  }\n\n//   function convertDaiToExactEth(uint daiAmount) external payable {\n//     require(daiAmount > 0, \"Must pass non 0 DAI amount\");\n\n//     uint256 deadline = block.timestamp + 15; // using 'now' for convenience, for mainnet pass deadline from frontend!\n//     address tokenIn = multiDaiKovan;\n//     address tokenOut = WETH9;\n//     uint24 fee = 3000;\n//     address recipient = msg.sender;\n//     uint256 amountIn = daiAmount;\n//     uint256 amountOutMinimum = 1;\n//     uint160 sqrtPriceLimitX96 = 0;\n    \n//     ISwapRouter.ExactInputSingleParams memory params = ISwapRouter.ExactInputSingleParams(\n//         tokenIn,\n//         tokenOut,\n//         fee,\n//         recipient,\n//         deadline,\n//         amountIn,\n//         amountOutMinimum,\n//         sqrtPriceLimitX96\n//     );\n    \n//     uniswapRouter.exactInputSingle{ value: msg.value }(params);\n//     uniswapRouter.refundETH();\n    \n//     // refund leftover ETH to user\n//     (bool success,) = msg.sender.call{ value: address(this).balance }(\"\");\n//     require(success, \"refund failed\");\n//   }\n  \n  function convertEthToExactDai(uint256 daiAmount) external payable {\n    require(daiAmount > 0, \"Must pass non 0 DAI amount\");\n    require(msg.value > 0, \"Must pass non 0 ETH amount\");\n      \n    uint256 deadline = block.timestamp + 15; // using 'now' for convenience, for mainnet pass deadline from frontend!\n    address tokenIn = WETH9;\n    address tokenOut = multiDaiKovan;\n    uint24 fee = 3000;\n    address recipient = msg.sender;\n    uint256 amountOut = daiAmount;\n    uint256 amountInMaximum = msg.value;\n    uint160 sqrtPriceLimitX96 = 0;\n\n    ISwapRouter.ExactOutputSingleParams memory params = ISwapRouter.ExactOutputSingleParams(\n        tokenIn,\n        tokenOut,\n        fee,\n        recipient,\n        deadline,\n        amountOut,\n        amountInMaximum,\n        sqrtPriceLimitX96\n    );\n\n    uniswapRouter.exactOutputSingle{ value: msg.value }(params);\n    uniswapRouter.refundETH();\n\n    // refund leftover ETH to user\n    (bool success,) = msg.sender.call{ value: address(this).balance }(\"\");\n    require(success, \"refund failed\");\n  }\n  \n  // do not used on-chain, gas inefficient!\n  function getEstimatedETHforDAI(uint daiAmount) external payable returns (uint256) {\n    address tokenIn = WETH9;\n    address tokenOut = multiDaiKovan;\n    uint24 fee = 3000;\n    uint160 sqrtPriceLimitX96 = 0;\n\n    return quoter.quoteExactOutputSingle(\n        tokenIn,\n        tokenOut,\n        fee,\n        daiAmount,\n        sqrtPriceLimitX96\n    );\n  }\n  \n  // important to receive ETH\n  receive() payable external {}\n}",
  "sourcePath": "/home/zarko/learn/ethereum/support-children/contracts/UniswapV3.sol",
  "compiler": {
    "name": "solc",
    "version": "0.8.6+commit.11564f7e.Emscripten.clang"
  },
  "schemaVersion": "3.4.1",
  "updatedAt": "2021-08-06T11:15:03.190Z",
  "devdoc": {
    "kind": "dev",
    "methods": {},
    "version": 1
  },
  "userdoc": {
    "kind": "user",
    "methods": {},
    "version": 1
  }
}