{
  "contractName": "SupportChildren",
  "abi": [
    {
      "anonymous": false,
      "inputs": [
        {
          "indexed": false,
          "internalType": "uint256",
          "name": "campaignId",
          "type": "uint256"
        }
      ],
      "name": "CampaignCreated",
      "type": "event"
    },
    {
      "anonymous": false,
      "inputs": [
        {
          "indexed": false,
          "internalType": "uint256",
          "name": "campaignId",
          "type": "uint256"
        },
        {
          "indexed": false,
          "internalType": "uint256",
          "name": "currentAmount",
          "type": "uint256"
        },
        {
          "indexed": false,
          "internalType": "string[]",
          "name": "notifyEmails",
          "type": "string[]"
        }
      ],
      "name": "CampaignFinished",
      "type": "event"
    },
    {
      "anonymous": false,
      "inputs": [
        {
          "indexed": false,
          "internalType": "uint256",
          "name": "campaignId",
          "type": "uint256"
        },
        {
          "indexed": false,
          "internalType": "string",
          "name": "campaignImage",
          "type": "string"
        },
        {
          "indexed": false,
          "internalType": "uint256",
          "name": "nftType",
          "type": "uint256"
        }
      ],
      "name": "CreateNFT",
      "type": "event"
    },
    {
      "anonymous": false,
      "inputs": [
        {
          "indexed": false,
          "internalType": "uint256",
          "name": "campaignId",
          "type": "uint256"
        },
        {
          "indexed": false,
          "internalType": "uint256",
          "name": "donationAmount",
          "type": "uint256"
        },
        {
          "indexed": false,
          "internalType": "string",
          "name": "notifyEmail",
          "type": "string"
        },
        {
          "indexed": false,
          "internalType": "address",
          "name": "token",
          "type": "address"
        }
      ],
      "name": "DonationMade",
      "type": "event"
    },
    {
      "inputs": [],
      "name": "nft",
      "outputs": [
        {
          "internalType": "contract SupportChildrenCollectable",
          "name": "",
          "type": "address"
        }
      ],
      "stateMutability": "view",
      "type": "function",
      "constant": true
    },
    {
      "inputs": [],
      "name": "quoter",
      "outputs": [
        {
          "internalType": "contract IQuoter",
          "name": "",
          "type": "address"
        }
      ],
      "stateMutability": "view",
      "type": "function",
      "constant": true
    },
    {
      "inputs": [],
      "name": "uniswapRouter",
      "outputs": [
        {
          "internalType": "contract IUniswapRouter",
          "name": "",
          "type": "address"
        }
      ],
      "stateMutability": "view",
      "type": "function",
      "constant": true
    },
    {
      "stateMutability": "payable",
      "type": "receive",
      "payable": true
    },
    {
      "inputs": [
        {
          "internalType": "string",
          "name": "_name",
          "type": "string"
        },
        {
          "internalType": "string",
          "name": "_description",
          "type": "string"
        },
        {
          "internalType": "string",
          "name": "_creatorEmail",
          "type": "string"
        },
        {
          "internalType": "string",
          "name": "_image",
          "type": "string"
        },
        {
          "internalType": "uint256",
          "name": "_endTimestamp",
          "type": "uint256"
        },
        {
          "internalType": "address",
          "name": "_targetCurrency",
          "type": "address"
        },
        {
          "internalType": "uint256",
          "name": "_targetAmount",
          "type": "uint256"
        },
        {
          "internalType": "address payable",
          "name": "_beneficiaryAddress",
          "type": "address"
        }
      ],
      "name": "createCampaign",
      "outputs": [],
      "stateMutability": "nonpayable",
      "type": "function"
    },
    {
      "inputs": [
        {
          "internalType": "uint256",
          "name": "_campaignId",
          "type": "uint256"
        }
      ],
      "name": "endCampaign",
      "outputs": [],
      "stateMutability": "nonpayable",
      "type": "function"
    },
    {
      "inputs": [
        {
          "internalType": "uint256",
          "name": "_campaignId",
          "type": "uint256"
        },
        {
          "internalType": "string",
          "name": "_name",
          "type": "string"
        },
        {
          "internalType": "string",
          "name": "_description",
          "type": "string"
        },
        {
          "internalType": "string",
          "name": "_creatorEmail",
          "type": "string"
        },
        {
          "internalType": "string",
          "name": "_image",
          "type": "string"
        }
      ],
      "name": "editCampaign",
      "outputs": [],
      "stateMutability": "nonpayable",
      "type": "function"
    },
    {
      "inputs": [
        {
          "internalType": "uint256",
          "name": "_campaignId",
          "type": "uint256"
        },
        {
          "internalType": "string",
          "name": "_donorEmail",
          "type": "string"
        }
      ],
      "name": "donateEthToEthCampaign",
      "outputs": [],
      "stateMutability": "payable",
      "type": "function",
      "payable": true
    },
    {
      "inputs": [
        {
          "internalType": "uint256",
          "name": "_campaignId",
          "type": "uint256"
        },
        {
          "internalType": "string",
          "name": "_donorEmail",
          "type": "string"
        }
      ],
      "name": "donateEthToTokenCampaign",
      "outputs": [],
      "stateMutability": "payable",
      "type": "function",
      "payable": true
    },
    {
      "inputs": [
        {
          "internalType": "uint256",
          "name": "_campaignId",
          "type": "uint256"
        },
        {
          "internalType": "string",
          "name": "_donorEmail",
          "type": "string"
        },
        {
          "internalType": "address",
          "name": "token",
          "type": "address"
        },
        {
          "internalType": "uint256",
          "name": "amountOut",
          "type": "uint256"
        },
        {
          "internalType": "uint256",
          "name": "amountInMax",
          "type": "uint256"
        }
      ],
      "name": "donateTokenToETHCampaign",
      "outputs": [],
      "stateMutability": "nonpayable",
      "type": "function"
    },
    {
      "inputs": [
        {
          "internalType": "uint256",
          "name": "_campaignId",
          "type": "uint256"
        },
        {
          "internalType": "string",
          "name": "_donorEmail",
          "type": "string"
        },
        {
          "internalType": "address",
          "name": "tokenIn",
          "type": "address"
        },
        {
          "internalType": "uint256",
          "name": "amountOut",
          "type": "uint256"
        },
        {
          "internalType": "uint256",
          "name": "amountInMax",
          "type": "uint256"
        }
      ],
      "name": "donateTokenToTokenCampaign",
      "outputs": [],
      "stateMutability": "nonpayable",
      "type": "function"
    },
    {
      "inputs": [
        {
          "internalType": "uint256",
          "name": "_campaignId",
          "type": "uint256"
        }
      ],
      "name": "getDonorEmails",
      "outputs": [
        {
          "internalType": "string[]",
          "name": "",
          "type": "string[]"
        }
      ],
      "stateMutability": "view",
      "type": "function",
      "constant": true
    },
    {
      "inputs": [
        {
          "internalType": "address",
          "name": "_donor",
          "type": "address"
        }
      ],
      "name": "getDonorsCampaingsList",
      "outputs": [
        {
          "internalType": "uint256[]",
          "name": "",
          "type": "uint256[]"
        }
      ],
      "stateMutability": "view",
      "type": "function",
      "constant": true
    },
    {
      "inputs": [],
      "name": "getCampaigns",
      "outputs": [
        {
          "components": [
            {
              "internalType": "uint256",
              "name": "id",
              "type": "uint256"
            },
            {
              "internalType": "string",
              "name": "name",
              "type": "string"
            },
            {
              "internalType": "string",
              "name": "description",
              "type": "string"
            },
            {
              "internalType": "string",
              "name": "creatorEmail",
              "type": "string"
            },
            {
              "internalType": "string",
              "name": "image",
              "type": "string"
            },
            {
              "internalType": "address",
              "name": "targetCurrency",
              "type": "address"
            },
            {
              "internalType": "uint256",
              "name": "targetAmount",
              "type": "uint256"
            },
            {
              "internalType": "uint256",
              "name": "currentAmount",
              "type": "uint256"
            },
            {
              "internalType": "uint256",
              "name": "amountInWeth",
              "type": "uint256"
            },
            {
              "internalType": "address payable",
              "name": "beneficiaryAddress",
              "type": "address"
            },
            {
              "internalType": "address",
              "name": "creatorAddress",
              "type": "address"
            },
            {
              "internalType": "bool",
              "name": "active",
              "type": "bool"
            },
            {
              "internalType": "uint256",
              "name": "endTimestamp",
              "type": "uint256"
            }
          ],
          "internalType": "struct SupportChildren.Campaign[]",
          "name": "",
          "type": "tuple[]"
        }
      ],
      "stateMutability": "view",
      "type": "function",
      "constant": true
    },
    {
      "inputs": [
        {
          "internalType": "uint256",
          "name": "_campaignId",
          "type": "uint256"
        }
      ],
      "name": "getCampaignAmount",
      "outputs": [
        {
          "internalType": "uint256",
          "name": "",
          "type": "uint256"
        }
      ],
      "stateMutability": "view",
      "type": "function",
      "constant": true
    }
  ],
  "bytecode": "0x608060405234801561001057600080fd5b50615422806100206000396000f3fe6080604052600436106100e15760003560e01c8063af0f42ee1161007f578063dd0408ae11610059578063dd0408ae146102cb578063e0c6b5f9146102f4578063e981dc021461031d578063f798b2c714610339576100e8565b8063af0f42ee1461024e578063c6bbd5a714610277578063c8d86564146102a2576100e8565b806347ccca02116100bb57806347ccca0214610190578063735de9f7146101bb578063909f7d66146101e6578063a6b0363314610223576100e8565b806311862ab1146100ed57806318fedf0614610116578063296c10f414610153576100e8565b366100e857005b600080fd5b3480156100f957600080fd5b50610114600480360381019061010f9190613a9a565b610355565b005b34801561012257600080fd5b5061013d60048036038101906101389190613864565b610780565b60405161014a91906145c9565b60405180910390f35b34801561015f57600080fd5b5061017a600480360381019061017591906139e4565b610817565b604051610187919061494e565b60405180910390f35b34801561019c57600080fd5b506101a5610846565b6040516101b29190614621565b60405180910390f35b3480156101c757600080fd5b506101d061085e565b6040516101dd9190614606565b60405180910390f35b3480156101f257600080fd5b5061020d600480360381019061020891906139e4565b610876565b60405161021a9190614585565b60405180910390f35b34801561022f57600080fd5b50610238610962565b60405161024591906145a7565b60405180910390f35b34801561025a57600080fd5b5061027560048036038101906102709190613b31565b610d59565b005b34801561028357600080fd5b5061028c610fdf565b60405161029991906145eb565b60405180910390f35b3480156102ae57600080fd5b506102c960048036038101906102c49190613a9a565b610ff7565b005b3480156102d757600080fd5b506102f260048036038101906102ed91906139e4565b61140e565b005b34801561030057600080fd5b5061031b600480360381019061031691906138be565b611671565b005b61033760048036038101906103329190613a3e565b6119bf565b005b610353600480360381019061034e9190613a3e565b611f5b565b005b84600115156002828154811061036e5761036d614f96565b5b90600052602060002090600c0201600a0160149054906101000a900460ff161515146103cf576040517f08c379a00000000000000000000000000000000000000000000000000000000081526004016103c690614836565b60405180910390fd5b42600282815481106103e4576103e3614f96565b5b90600052602060002090600c0201600b015411610436576040517f08c379a000000000000000000000000000000000000000000000000000000000815260040161042d906148b6565b60405180910390fd5b60008211610479576040517f08c379a0000000000000000000000000000000000000000000000000000000008152600401610470906147f6565b60405180910390fd5b600083116104bc576040517f08c379a00000000000000000000000000000000000000000000000000000000081526004016104b3906147f6565b60405180910390fd5b600286815481106104d0576104cf614f96565b5b90600052602060002090600c020160060154600b6104ee9190614cb1565b600a846002898154811061050557610504614f96565b5b90600052602060002090600c0201600701546105219190614c5b565b61052b9190614cb1565b1061056b576040517f08c379a000000000000000000000000000000000000000000000000000000000815260040161056290614736565b60405180910390fd5b6000610578858585612329565b90506000600288815481106105905761058f614f96565b5b90600052602060002090600c020160070154905060036000898152602001908152602001600020879080600181540180825580915050600190039060005260206000200160009091909190915090805190602001906105f09291906136e8565b50600460003273ffffffffffffffffffffffffffffffffffffffff1673ffffffffffffffffffffffffffffffffffffffff168152602001908152602001600020889080600181540180825580915050600190039060005260206000200160009091909190915055846002898154811061066c5761066b614f96565b5b90600052602060002090600c0201600801546106889190614c5b565b6002898154811061069c5761069b614f96565b5b90600052602060002090600c02016008018190555084600289815481106106c6576106c5614f96565b5b90600052602060002090600c0201600701546106e29190614c5b565b600289815481106106f6576106f5614f96565b5b90600052602060002090600c0201600701819055507fe3a6b824a5dcd9cc376de3c8eddd6aef4d82cce288e42272e2b874fa54f2d51a888360028b8154811061074257610741614f96565b5b90600052602060002090600c0201600301896040516107649493929190614a9f565b60405180910390a1610776888261279f565b5050505050505050565b6060600460008373ffffffffffffffffffffffffffffffffffffffff1673ffffffffffffffffffffffffffffffffffffffff16815260200190815260200160002080548060200260200160405190810160405280929190818152602001828054801561080b57602002820191906000526020600020905b8154815260200190600101908083116107f7575b50505050509050919050565b60006002828154811061082d5761082c614f96565b5b90600052602060002090600c0201600701549050919050565b73e52d15506f921819665d5304d95d86a6c51f895d81565b73e592427a0aece92de3edee1f18e0157c0586156481565b606060036000838152602001908152602001600020805480602002602001604051908101604052809291908181526020016000905b828210156109575783829060005260206000200180546108ca90614e8c565b80601f01602080910402602001604051908101604052809291908181526020018280546108f690614e8c565b80156109435780601f1061091857610100808354040283529160200191610943565b820191906000526020600020905b81548152906001019060200180831161092657829003601f168201915b5050505050815260200190600101906108ab565b505050509050919050565b60606002805480602002602001604051908101604052809291908181526020016000905b82821015610d5057838290600052602060002090600c0201604051806101a0016040529081600082015481526020016001820180546109c490614e8c565b80601f01602080910402602001604051908101604052809291908181526020018280546109f090614e8c565b8015610a3d5780601f10610a1257610100808354040283529160200191610a3d565b820191906000526020600020905b815481529060010190602001808311610a2057829003601f168201915b50505050508152602001600282018054610a5690614e8c565b80601f0160208091040260200160405190810160405280929190818152602001828054610a8290614e8c565b8015610acf5780601f10610aa457610100808354040283529160200191610acf565b820191906000526020600020905b815481529060010190602001808311610ab257829003601f168201915b50505050508152602001600382018054610ae890614e8c565b80601f0160208091040260200160405190810160405280929190818152602001828054610b1490614e8c565b8015610b615780601f10610b3657610100808354040283529160200191610b61565b820191906000526020600020905b815481529060010190602001808311610b4457829003601f168201915b50505050508152602001600482018054610b7a90614e8c565b80601f0160208091040260200160405190810160405280929190818152602001828054610ba690614e8c565b8015610bf35780601f10610bc857610100808354040283529160200191610bf3565b820191906000526020600020905b815481529060010190602001808311610bd657829003601f168201915b505050505081526020016005820160009054906101000a900473ffffffffffffffffffffffffffffffffffffffff1673ffffffffffffffffffffffffffffffffffffffff1673ffffffffffffffffffffffffffffffffffffffff1681526020016006820154815260200160078201548152602001600882015481526020016009820160009054906101000a900473ffffffffffffffffffffffffffffffffffffffff1673ffffffffffffffffffffffffffffffffffffffff1673ffffffffffffffffffffffffffffffffffffffff168152602001600a820160009054906101000a900473ffffffffffffffffffffffffffffffffffffffff1673ffffffffffffffffffffffffffffffffffffffff1673ffffffffffffffffffffffffffffffffffffffff168152602001600a820160149054906101000a900460ff16151515158152602001600b8201548152505081526020019060010190610986565b50505050905090565b846001151560028281548110610d7257610d71614f96565b5b90600052602060002090600c0201600a0160149054906101000a900460ff16151514610dd3576040517f08c379a0000000000000000000000000000000000000000000000000000000008152600401610dca90614836565b60405180910390fd5b4260028281548110610de857610de7614f96565b5b90600052602060002090600c0201600b015411610e3a576040517f08c379a0000000000000000000000000000000000000000000000000000000008152600401610e31906148b6565b60405180910390fd5b853273ffffffffffffffffffffffffffffffffffffffff1660028281548110610e6657610e65614f96565b5b90600052602060002090600c0201600a0160009054906101000a900473ffffffffffffffffffffffffffffffffffffffff1673ffffffffffffffffffffffffffffffffffffffff1614610eee576040517f08c379a0000000000000000000000000000000000000000000000000000000008152600401610ee590614876565b60405180910390fd5b8560028881548110610f0357610f02614f96565b5b90600052602060002090600c02016001019080519060200190610f279291906136e8565b508460028881548110610f3d57610f3c614f96565b5b90600052602060002090600c02016002019080519060200190610f619291906136e8565b508360028881548110610f7757610f76614f96565b5b90600052602060002090600c02016003019080519060200190610f9b9291906136e8565b508260028881548110610fb157610fb0614f96565b5b90600052602060002090600c02016004019080519060200190610fd59291906136e8565b5050505050505050565b73b27308f9f90d607463bb33ea1bebb41c27ce5ab681565b8460011515600282815481106110105761100f614f96565b5b90600052602060002090600c0201600a0160149054906101000a900460ff16151514611071576040517f08c379a000000000000000000000000000000000000000000000000000000000815260040161106890614836565b60405180910390fd5b426002828154811061108657611085614f96565b5b90600052602060002090600c0201600b0154116110d8576040517f08c379a00000000000000000000000000000000000000000000000000000000081526004016110cf906148b6565b60405180910390fd5b6000821161111b576040517f08c379a0000000000000000000000000000000000000000000000000000000008152600401611112906147f6565b60405180910390fd5b6000831161115e576040517f08c379a0000000000000000000000000000000000000000000000000000000008152600401611155906147f6565b60405180910390fd5b6002868154811061117257611171614f96565b5b90600052602060002090600c020160060154600b6111909190614cb1565b600a84600289815481106111a7576111a6614f96565b5b90600052602060002090600c0201600701546111c39190614c5b565b6111cd9190614cb1565b1061120d576040517f08c379a000000000000000000000000000000000000000000000000000000000815260040161120490614736565b60405180910390fd5b6000611260856002898154811061122757611226614f96565b5b90600052602060002090600c020160050160009054906101000a900473ffffffffffffffffffffffffffffffffffffffff168686612b33565b905060006002888154811061127857611277614f96565b5b90600052602060002090600c020160070154905060036000898152602001908152602001600020879080600181540180825580915050600190039060005260206000200160009091909190915090805190602001906112d89291906136e8565b50600460003273ffffffffffffffffffffffffffffffffffffffff1673ffffffffffffffffffffffffffffffffffffffff168152602001908152602001600020889080600181540180825580915050600190039060005260206000200160009091909190915055846002898154811061135457611353614f96565b5b90600052602060002090600c0201600701546113709190614c5b565b6002898154811061138457611383614f96565b5b90600052602060002090600c0201600701819055507fe3a6b824a5dcd9cc376de3c8eddd6aef4d82cce288e42272e2b874fa54f2d51a888360028b815481106113d0576113cf614f96565b5b90600052602060002090600c0201600301896040516113f29493929190614a9f565b60405180910390a1611404888261279f565b5050505050505050565b80600115156002828154811061142757611426614f96565b5b90600052602060002090600c0201600a0160149054906101000a900460ff16151514611488576040517f08c379a000000000000000000000000000000000000000000000000000000000815260040161147f90614836565b60405180910390fd5b426002828154811061149d5761149c614f96565b5b90600052602060002090600c0201600b0154116114ef576040517f08c379a00000000000000000000000000000000000000000000000000000000081526004016114e6906148b6565b60405180910390fd5b813273ffffffffffffffffffffffffffffffffffffffff166002828154811061151b5761151a614f96565b5b90600052602060002090600c0201600a0160009054906101000a900473ffffffffffffffffffffffffffffffffffffffff1673ffffffffffffffffffffffffffffffffffffffff16146115a3576040517f08c379a000000000000000000000000000000000000000000000000000000000815260040161159a90614876565b60405180910390fd5b6000600284815481106115b9576115b8614f96565b5b90600052602060002090600c02016007015411156115df576115da83612f8a565b61166c565b7fbc6fdcbbc64181fa5b0a580ffa8643761277b5ab073214c08cce86c7317bf4008360006003600087815260200190815260200160002060405161162593929190614969565b60405180910390a160006002848154811061164357611642614f96565b5b90600052602060002090600c0201600a0160146101000a81548160ff0219169083151502179055505b505050565b600082116116b4576040517f08c379a00000000000000000000000000000000000000000000000000000000081526004016116ab90614856565b60405180910390fd5b4284116116f6576040517f08c379a00000000000000000000000000000000000000000000000000000000081526004016116ed90614896565b60405180910390fd5b6002604051806101a0016040528060015481526020018a81526020018981526020018881526020018781526020018573ffffffffffffffffffffffffffffffffffffffff16815260200184815260200160008152602001600081526020018373ffffffffffffffffffffffffffffffffffffffff1681526020013273ffffffffffffffffffffffffffffffffffffffff1681526020016001151581526020018681525090806001815401808255809150506001900390600052602060002090600c02016000909190919091506000820151816000015560208201518160010190805190602001906117e89291906136e8565b5060408201518160020190805190602001906118059291906136e8565b5060608201518160030190805190602001906118229291906136e8565b50608082015181600401908051906020019061183f9291906136e8565b5060a08201518160050160006101000a81548173ffffffffffffffffffffffffffffffffffffffff021916908373ffffffffffffffffffffffffffffffffffffffff16021790555060c0820151816006015560e0820151816007015561010082015181600801556101208201518160090160006101000a81548173ffffffffffffffffffffffffffffffffffffffff021916908373ffffffffffffffffffffffffffffffffffffffff16021790555061014082015181600a0160006101000a81548173ffffffffffffffffffffffffffffffffffffffff021916908373ffffffffffffffffffffffffffffffffffffffff16021790555061016082015181600a0160146101000a81548160ff02191690831515021790555061018082015181600b015550507fbc0a5edd152fa5b886dcae82c5c109d113708653b4b9c0224549ccdf715af94e600154604051611995919061494e565b60405180910390a1600160008154809291906119b090614eef565b91905055505050505050505050565b8160011515600282815481106119d8576119d7614f96565b5b90600052602060002090600c0201600a0160149054906101000a900460ff16151514611a39576040517f08c379a0000000000000000000000000000000000000000000000000000000008152600401611a3090614836565b60405180910390fd5b4260028281548110611a4e57611a4d614f96565b5b90600052602060002090600c0201600b015411611aa0576040517f08c379a0000000000000000000000000000000000000000000000000000000008152600401611a97906148b6565b60405180910390fd5b823273ffffffffffffffffffffffffffffffffffffffff1660028281548110611acc57611acb614f96565b5b90600052602060002090600c0201600a0160009054906101000a900473ffffffffffffffffffffffffffffffffffffffff1673ffffffffffffffffffffffffffffffffffffffff161415611b55576040517f08c379a0000000000000000000000000000000000000000000000000000000008152600401611b4c90614796565b60405180910390fd5b833273ffffffffffffffffffffffffffffffffffffffff1660028281548110611b8157611b80614f96565b5b90600052602060002090600c020160090160009054906101000a900473ffffffffffffffffffffffffffffffffffffffff1673ffffffffffffffffffffffffffffffffffffffff161415611c0a576040517f08c379a0000000000000000000000000000000000000000000000000000000008152600401611c0190614776565b60405180910390fd5b843073ffffffffffffffffffffffffffffffffffffffff1660028281548110611c3657611c35614f96565b5b90600052602060002090600c020160050160009054906101000a900473ffffffffffffffffffffffffffffffffffffffff1673ffffffffffffffffffffffffffffffffffffffff1614611cbe576040517f08c379a0000000000000000000000000000000000000000000000000000000008152600401611cb590614756565b60405180910390fd5b60003411611d01576040517f08c379a0000000000000000000000000000000000000000000000000000000008152600401611cf8906146f6565b60405180910390fd5b60028681548110611d1557611d14614f96565b5b90600052602060002090600c020160060154600b611d339190614cb1565b600a3460028981548110611d4a57611d49614f96565b5b90600052602060002090600c020160070154611d669190614c5b565b611d709190614cb1565b10611db0576040517f08c379a0000000000000000000000000000000000000000000000000000000008152600401611da790614736565b60405180910390fd5b600060028781548110611dc657611dc5614f96565b5b90600052602060002090600c02016007015490506003600088815260200190815260200160002086908060018154018082558091505060019003906000526020600020016000909190919091509080519060200190611e269291906136e8565b50600460003273ffffffffffffffffffffffffffffffffffffffff1673ffffffffffffffffffffffffffffffffffffffff1681526020019081526020016000208790806001815401808255809150506001900390600052602060002001600090919091909150553460028881548110611ea257611ea1614f96565b5b90600052602060002090600c020160070154611ebe9190614c5b565b60028881548110611ed257611ed1614f96565b5b90600052602060002090600c0201600701819055507fe3a6b824a5dcd9cc376de3c8eddd6aef4d82cce288e42272e2b874fa54f2d51a873460028a81548110611f1e57611f1d614f96565b5b90600052602060002090600c020160030130604051611f409493929190614a9f565b60405180910390a1611f52878261279f565b50505050505050565b816001151560028281548110611f7457611f73614f96565b5b90600052602060002090600c0201600a0160149054906101000a900460ff16151514611fd5576040517f08c379a0000000000000000000000000000000000000000000000000000000008152600401611fcc90614836565b60405180910390fd5b4260028281548110611fea57611fe9614f96565b5b90600052602060002090600c0201600b01541161203c576040517f08c379a0000000000000000000000000000000000000000000000000000000008152600401612033906148b6565b60405180910390fd5b6000341161207f576040517f08c379a0000000000000000000000000000000000000000000000000000000008152600401612076906146f6565b60405180910390fd5b60006120cf6002858154811061209857612097614f96565b5b90600052602060002090600c020160050160009054906101000a900473ffffffffffffffffffffffffffffffffffffffff166134c9565b9050600284815481106120e5576120e4614f96565b5b90600052602060002090600c020160060154600b6121039190614cb1565b600a826002878154811061211a57612119614f96565b5b90600052602060002090600c0201600701546121369190614c5b565b6121409190614cb1565b10612180576040517f08c379a000000000000000000000000000000000000000000000000000000000815260040161217790614736565b60405180910390fd5b60006002858154811061219657612195614f96565b5b90600052602060002090600c020160070154905060036000868152602001908152602001600020849080600181540180825580915050600190039060005260206000200160009091909190915090805190602001906121f69291906136e8565b50600460003273ffffffffffffffffffffffffffffffffffffffff1673ffffffffffffffffffffffffffffffffffffffff168152602001908152602001600020859080600181540180825580915050600190039060005260206000200160009091909190915055816002868154811061227257612271614f96565b5b90600052602060002090600c02016007015461228e9190614c5b565b600286815481106122a2576122a1614f96565b5b90600052602060002090600c0201600701819055507fe3a6b824a5dcd9cc376de3c8eddd6aef4d82cce288e42272e2b874fa54f2d51a8534600288815481106122ee576122ed614f96565b5b90600052602060002090600c0201600301306040516123109493929190614a9f565b60405180910390a1612322858261279f565b5050505050565b6000808473ffffffffffffffffffffffffffffffffffffffff1663dd62ed3e33306040518363ffffffff1660e01b81526004016123679291906144fc565b60206040518083038186803b15801561237f57600080fd5b505afa158015612393573d6000803e3d6000fd5b505050506040513d601f19601f820116820180604052508101906123b79190613a11565b9050828110156123fc576040517f08c379a00000000000000000000000000000000000000000000000000000000081526004016123f3906147b6565b60405180910390fd5b8473ffffffffffffffffffffffffffffffffffffffff166323b872dd3330866040518463ffffffff1660e01b815260040161243993929190614525565b602060405180830381600087803b15801561245357600080fd5b505af1158015612467573d6000803e3d6000fd5b505050506040513d601f19601f8201168201806040525081019061248b9190613891565b506000600f4261249b9190614c5b565b90506000869050600073c02aaa39b223fe8d0a0e5c4f27ead9083c756cc290506000610bb89050600030905060008a73ffffffffffffffffffffffffffffffffffffffff1663095ea7b373e592427a0aece92de3edee1f18e0157c058615648b6040518363ffffffff1660e01b815260040161251892919061455c565b602060405180830381600087803b15801561253257600080fd5b505af1158015612546573d6000803e3d6000fd5b505050506040513d601f19601f8201168201806040525081019061256a9190613891565b5060006040518061010001604052808773ffffffffffffffffffffffffffffffffffffffff1681526020018673ffffffffffffffffffffffffffffffffffffffff1681526020018562ffffff1681526020018473ffffffffffffffffffffffffffffffffffffffff1681526020018881526020018c81526020018b81526020018373ffffffffffffffffffffffffffffffffffffffff168152509050600073e592427a0aece92de3edee1f18e0157c0586156473ffffffffffffffffffffffffffffffffffffffff1663db3e2198836040518263ffffffff1660e01b81526004016126559190614932565b602060405180830381600087803b15801561266f57600080fd5b505af1158015612683573d6000803e3d6000fd5b505050506040513d601f19601f820116820180604052508101906126a79190613a11565b90506000818c6126b79190614d0b565b905060008e73ffffffffffffffffffffffffffffffffffffffff1663a9059cbb33846040518363ffffffff1660e01b81526004016126f692919061455c565b602060405180830381600087803b15801561271057600080fd5b505af1158015612724573d6000803e3d6000fd5b505050506040513d601f19601f820116820180604052508101906127489190613891565b90508061278a576040517f08c379a0000000000000000000000000000000000000000000000000000000008152600401612781906148f6565b60405180910390fd5b829b5050505050505050505050509392505050565b600282815481106127b3576127b2614f96565b5b90600052602060002090600c020160060154600283815481106127d9576127d8614f96565b5b90600052602060002090600c02016007015410612a1c576127f982612f8a565b6000811461290e5773e52d15506f921819665d5304d95d86a6c51f895d73ffffffffffffffffffffffffffffffffffffffff16637d9c80f96002848154811061284557612844614f96565b5b90600052602060002090600c02016004016001326040518463ffffffff1660e01b81526004016128779392919061467a565b600060405180830381600087803b15801561289157600080fd5b505af11580156128a5573d6000803e3d6000fd5b505050507f3b7e7e43da4efbcdd1006b7dd791491eeeae82429c2793a71b72b08ef743eb3382600284815481106128df576128de614f96565b5b90600052602060002090600c02016004016001604051612901939291906149e5565b60405180910390a1612a17565b73e52d15506f921819665d5304d95d86a6c51f895d73ffffffffffffffffffffffffffffffffffffffff16637d9c80f96002848154811061295257612951614f96565b5b90600052602060002090600c02016004016002326040518463ffffffff1660e01b8152600401612984939291906146b8565b600060405180830381600087803b15801561299e57600080fd5b505af11580156129b2573d6000803e3d6000fd5b505050507f3b7e7e43da4efbcdd1006b7dd791491eeeae82429c2793a71b72b08ef743eb3382600284815481106129ec576129eb614f96565b5b90600052602060002090600c02016004016002604051612a0e93929190614a23565b60405180910390a15b612b2f565b6000811415612b2e5773e52d15506f921819665d5304d95d86a6c51f895d73ffffffffffffffffffffffffffffffffffffffff16637d9c80f960028481548110612a6957612a68614f96565b5b90600052602060002090600c02016004016000326040518463ffffffff1660e01b8152600401612a9b9392919061463c565b600060405180830381600087803b158015612ab557600080fd5b505af1158015612ac9573d6000803e3d6000fd5b505050507f3b7e7e43da4efbcdd1006b7dd791491eeeae82429c2793a71b72b08ef743eb338260028481548110612b0357612b02614f96565b5b90600052602060002090600c02016004016000604051612b25939291906149a7565b60405180910390a15b5b5050565b6000808573ffffffffffffffffffffffffffffffffffffffff1663dd62ed3e33306040518363ffffffff1660e01b8152600401612b719291906144fc565b60206040518083038186803b158015612b8957600080fd5b505afa158015612b9d573d6000803e3d6000fd5b505050506040513d601f19601f82011682018060405250810190612bc19190613a11565b905082811015612c06576040517f08c379a0000000000000000000000000000000000000000000000000000000008152600401612bfd906147b6565b60405180910390fd5b8573ffffffffffffffffffffffffffffffffffffffff166323b872dd3330866040518463ffffffff1660e01b8152600401612c4393929190614525565b602060405180830381600087803b158015612c5d57600080fd5b505af1158015612c71573d6000803e3d6000fd5b505050506040513d601f19601f82011682018060405250810190612c959190613891565b506000600f42612ca59190614c5b565b90506000610bb89050600030905060008973ffffffffffffffffffffffffffffffffffffffff1663095ea7b373e592427a0aece92de3edee1f18e0157c05861564896040518363ffffffff1660e01b8152600401612d0492919061455c565b602060405180830381600087803b158015612d1e57600080fd5b505af1158015612d32573d6000803e3d6000fd5b505050506040513d601f19601f82011682018060405250810190612d569190613891565b5060006040518061010001604052808c73ffffffffffffffffffffffffffffffffffffffff1681526020018b73ffffffffffffffffffffffffffffffffffffffff1681526020018562ffffff1681526020018473ffffffffffffffffffffffffffffffffffffffff1681526020018681526020018a81526020018981526020018373ffffffffffffffffffffffffffffffffffffffff168152509050600073e592427a0aece92de3edee1f18e0157c0586156473ffffffffffffffffffffffffffffffffffffffff1663db3e2198836040518263ffffffff1660e01b8152600401612e419190614932565b602060405180830381600087803b158015612e5b57600080fd5b505af1158015612e6f573d6000803e3d6000fd5b505050506040513d601f19601f82011682018060405250810190612e939190613a11565b90506000818a612ea39190614d0b565b905060008d73ffffffffffffffffffffffffffffffffffffffff1663a9059cbb33846040518363ffffffff1660e01b8152600401612ee292919061455c565b602060405180830381600087803b158015612efc57600080fd5b505af1158015612f10573d6000803e3d6000fd5b505050506040513d601f19601f82011682018060405250810190612f349190613891565b905080612f76576040517f08c379a0000000000000000000000000000000000000000000000000000000008152600401612f6d906148f6565b60405180910390fd5b829950505050505050505050949350505050565b7fbc6fdcbbc64181fa5b0a580ffa8643761277b5ab073214c08cce86c7317bf4008160028381548110612fc057612fbf614f96565b5b90600052602060002090600c02016007015460036000858152602001908152602001600020604051612ff493929190614a61565b60405180910390a13073ffffffffffffffffffffffffffffffffffffffff166002828154811061302757613026614f96565b5b90600052602060002090600c020160050160009054906101000a900473ffffffffffffffffffffffffffffffffffffffff1673ffffffffffffffffffffffffffffffffffffffff16141561334b5760006002828154811061308b5761308a614f96565b5b90600052602060002090600c020160080154111561329457600281815481106130b7576130b6614f96565b5b90600052602060002090600c020160090160009054906101000a900473ffffffffffffffffffffffffffffffffffffffff1673ffffffffffffffffffffffffffffffffffffffff166108fc6002838154811061311657613115614f96565b5b90600052602060002090600c0201600801546002848154811061313c5761313b614f96565b5b90600052602060002090600c0201600701546131589190614d0b565b9081150290604051600060405180830381858888f19350505050158015613183573d6000803e3d6000fd5b50600073c02aaa39b223fe8d0a0e5c4f27ead9083c756cc273ffffffffffffffffffffffffffffffffffffffff1663a9059cbb33600285815481106131cb576131ca614f96565b5b90600052602060002090600c0201600801546040518363ffffffff1660e01b81526004016131fa92919061455c565b602060405180830381600087803b15801561321457600080fd5b505af1158015613228573d6000803e3d6000fd5b505050506040513d601f19601f8201168201806040525081019061324c9190613891565b90508061328e576040517f08c379a000000000000000000000000000000000000000000000000000000000815260040161328590614816565b60405180910390fd5b50613346565b600281815481106132a8576132a7614f96565b5b90600052602060002090600c020160090160009054906101000a900473ffffffffffffffffffffffffffffffffffffffff1673ffffffffffffffffffffffffffffffffffffffff166108fc6002838154811061330757613306614f96565b5b90600052602060002090600c0201600701549081150290604051600060405180830381858888f19350505050158015613344573d6000803e3d6000fd5b505b613488565b60006002828154811061336157613360614f96565b5b90600052602060002090600c020160050160009054906101000a900473ffffffffffffffffffffffffffffffffffffffff1673ffffffffffffffffffffffffffffffffffffffff1663a9059cbb33600285815481106133c3576133c2614f96565b5b90600052602060002090600c0201600701546040518363ffffffff1660e01b81526004016133f292919061455c565b602060405180830381600087803b15801561340c57600080fd5b505af1158015613420573d6000803e3d6000fd5b505050506040513d601f19601f820116820180604052508101906134449190613891565b905080613486576040517f08c379a000000000000000000000000000000000000000000000000000000000815260040161347d906147d6565b60405180910390fd5b505b60006002828154811061349e5761349d614f96565b5b90600052602060002090600c0201600a0160146101000a81548160ff02191690831515021790555050565b600080341161350d576040517f08c379a0000000000000000000000000000000000000000000000000000000008152600401613504906148d6565b60405180910390fd5b6000600f4261351c9190614c5b565b9050600073c02aaa39b223fe8d0a0e5c4f27ead9083c756cc2905060008490506000610bb89050600030905060003490506000600190506000806040518061010001604052808973ffffffffffffffffffffffffffffffffffffffff1681526020018873ffffffffffffffffffffffffffffffffffffffff1681526020018762ffffff1681526020018673ffffffffffffffffffffffffffffffffffffffff1681526020018a81526020018581526020018481526020018373ffffffffffffffffffffffffffffffffffffffff168152509050600073e592427a0aece92de3edee1f18e0157c0586156473ffffffffffffffffffffffffffffffffffffffff1663414bf38934846040518363ffffffff1660e01b815260040161363f9190614916565b6020604051808303818588803b15801561365857600080fd5b505af115801561366c573d6000803e3d6000fd5b50505050506040513d601f19601f820116820180604052508101906136919190613a11565b9050600081116136d6576040517f08c379a00000000000000000000000000000000000000000000000000000000081526004016136cd90614716565b60405180910390fd5b809a5050505050505050505050919050565b8280546136f490614e8c565b90600052602060002090601f016020900481019282613716576000855561375d565b82601f1061372f57805160ff191683800117855561375d565b8280016001018555821561375d579182015b8281111561375c578251825591602001919060010190613741565b5b50905061376a919061376e565b5090565b5b8082111561378757600081600090555060010161376f565b5090565b600061379e61379984614b10565b614aeb565b9050828152602081018484840111156137ba576137b9614ff9565b5b6137c5848285614e4a565b509392505050565b6000813590506137dc81615390565b92915050565b6000813590506137f1816153a7565b92915050565b600081519050613806816153be565b92915050565b600082601f83011261382157613820614ff4565b5b813561383184826020860161378b565b91505092915050565b600081359050613849816153d5565b92915050565b60008151905061385e816153d5565b92915050565b60006020828403121561387a57613879615003565b5b6000613888848285016137cd565b91505092915050565b6000602082840312156138a7576138a6615003565b5b60006138b5848285016137f7565b91505092915050565b600080600080600080600080610100898b0312156138df576138de615003565b5b600089013567ffffffffffffffff8111156138fd576138fc614ffe565b5b6139098b828c0161380c565b985050602089013567ffffffffffffffff81111561392a57613929614ffe565b5b6139368b828c0161380c565b975050604089013567ffffffffffffffff81111561395757613956614ffe565b5b6139638b828c0161380c565b965050606089013567ffffffffffffffff81111561398457613983614ffe565b5b6139908b828c0161380c565b95505060806139a18b828c0161383a565b94505060a06139b28b828c016137cd565b93505060c06139c38b828c0161383a565b92505060e06139d48b828c016137e2565b9150509295985092959890939650565b6000602082840312156139fa576139f9615003565b5b6000613a088482850161383a565b91505092915050565b600060208284031215613a2757613a26615003565b5b6000613a358482850161384f565b91505092915050565b60008060408385031215613a5557613a54615003565b5b6000613a638582860161383a565b925050602083013567ffffffffffffffff811115613a8457613a83614ffe565b5b613a908582860161380c565b9150509250929050565b600080600080600060a08688031215613ab657613ab5615003565b5b6000613ac48882890161383a565b955050602086013567ffffffffffffffff811115613ae557613ae4614ffe565b5b613af18882890161380c565b9450506040613b02888289016137cd565b9350506060613b138882890161383a565b9250506080613b248882890161383a565b9150509295509295909350565b600080600080600060a08688031215613b4d57613b4c615003565b5b6000613b5b8882890161383a565b955050602086013567ffffffffffffffff811115613b7c57613b7b614ffe565b5b613b888882890161380c565b945050604086013567ffffffffffffffff811115613ba957613ba8614ffe565b5b613bb58882890161380c565b935050606086013567ffffffffffffffff811115613bd657613bd5614ffe565b5b613be28882890161380c565b925050608086013567ffffffffffffffff811115613c0357613c02614ffe565b5b613c0f8882890161380c565b9150509295509295909350565b6000613c288383613ec2565b905092915050565b6000613c3c8383613efb565b905092915050565b6000613c50838361424e565b905092915050565b6000613c6483836144de565b60208301905092915050565b613c7981614d51565b82525050565b613c8881614d3f565b82525050565b613c9781614d3f565b82525050565b6000613ca882614b9b565b613cb28185614c06565b935083602082028501613cc485614b41565b8060005b85811015613d005784840389528151613ce18582613c1c565b9450613cec83614bd2565b925060208a01995050600181019050613cc8565b50829750879550505050505092915050565b6000613d1d82614ba6565b613d278185614c06565b935083602082028501613d3985614b51565b8060005b85811015613d7457848403895281613d558582613c30565b9450613d6083614bdf565b925060208a01995050600181019050613d3d565b50829750879550505050505092915050565b6000613d9182614bb1565b613d9b8185614c17565b935083602082028501613dad85614b66565b8060005b85811015613de95784840389528151613dca8582613c44565b9450613dd583614bec565b925060208a01995050600181019050613db1565b50829750879550505050505092915050565b6000613e0682614bbc565b613e108185614c28565b9350613e1b83614b76565b8060005b83811015613e4c578151613e338882613c58565b9750613e3e83614bf9565b925050600181019050613e1f565b5085935050505092915050565b613e6281614d63565b82525050565b613e7181614da8565b82525050565b613e8081614dcc565b82525050565b613e8f81614df0565b82525050565b613e9e81614e14565b82525050565b613ead81614e26565b82525050565b613ebc81614e38565b82525050565b6000613ecd82614bc7565b613ed78185614c39565b9350613ee7818560208601614e59565b613ef081615008565b840191505092915050565b60008154613f0881614e8c565b613f128186614c39565b94506001821660008114613f2d5760018114613f3f57613f72565b60ff1983168652602086019350613f72565b613f4885614b86565b60005b83811015613f6a57815481890152600182019150602081019050613f4b565b808801955050505b50505092915050565b60008154613f8881614e8c565b613f928186614c4a565b94506001821660008114613fad5760018114613fbf57613ff2565b60ff1983168652602086019350613ff2565b613fc885614b86565b60005b83811015613fea57815481890152600182019150602081019050613fcb565b808801955050505b50505092915050565b6000614008601e83614c4a565b915061401382615019565b602082019050919050565b600061402b601283614c4a565b915061403682615042565b602082019050919050565b600061404e601583614c4a565b91506140598261506b565b602082019050919050565b6000614071601883614c4a565b915061407c82615094565b602082019050919050565b6000614094602b83614c4a565b915061409f826150bd565b604082019050919050565b60006140b7602883614c4a565b91506140c28261510c565b604082019050919050565b60006140da601983614c4a565b91506140e58261515b565b602082019050919050565b60006140fd601883614c4a565b915061410882615184565b602082019050919050565b6000614120602483614c4a565b915061412b826151ad565b604082019050919050565b6000614143601d83614c4a565b915061414e826151fc565b602082019050919050565b6000614166601583614c4a565b915061417182615225565b602082019050919050565b6000614189602c83614c4a565b91506141948261524e565b604082019050919050565b60006141ac602783614c4a565b91506141b78261529d565b604082019050919050565b60006141cf601f83614c4a565b91506141da826152ec565b602082019050919050565b60006141f2601983614c4a565b91506141fd82615315565b602082019050919050565b6000614215601a83614c4a565b91506142208261533e565b602082019050919050565b6000614238600d83614c4a565b915061424382615367565b602082019050919050565b60006101a08301600083015161426760008601826144de565b506020830151848203602086015261427f8282613ec2565b915050604083015184820360408601526142998282613ec2565b915050606083015184820360608601526142b38282613ec2565b915050608083015184820360808601526142cd8282613ec2565b91505060a08301516142e260a0860182613c7f565b5060c08301516142f560c08601826144de565b5060e083015161430860e08601826144de565b5061010083015161431d6101008601826144de565b50610120830151614332610120860182613c70565b50610140830151614347610140860182613c7f565b5061016083015161435c610160860182613e59565b506101808301516143716101808601826144de565b508091505092915050565b610100820160008201516143936000850182613c7f565b5060208201516143a66020850182613c7f565b5060408201516143b960408501826144cf565b5060608201516143cc6060850182613c7f565b5060808201516143df60808501826144de565b5060a08201516143f260a08501826144de565b5060c082015161440560c08501826144de565b5060e082015161441860e08501826144c0565b50505050565b610100820160008201516144356000850182613c7f565b5060208201516144486020850182613c7f565b50604082015161445b60408501826144cf565b50606082015161446e6060850182613c7f565b50608082015161448160808501826144de565b5060a082015161449460a08501826144de565b5060c08201516144a760c08501826144de565b5060e08201516144ba60e08501826144c0565b50505050565b6144c981614d6f565b82525050565b6144d881614d8f565b82525050565b6144e781614d9e565b82525050565b6144f681614d9e565b82525050565b60006040820190506145116000830185613c8e565b61451e6020830184613c8e565b9392505050565b600060608201905061453a6000830186613c8e565b6145476020830185613c8e565b61455460408301846144ed565b949350505050565b60006040820190506145716000830185613c8e565b61457e60208301846144ed565b9392505050565b6000602082019050818103600083015261459f8184613c9d565b905092915050565b600060208201905081810360008301526145c18184613d86565b905092915050565b600060208201905081810360008301526145e38184613dfb565b905092915050565b60006020820190506146006000830184613e68565b92915050565b600060208201905061461b6000830184613e77565b92915050565b60006020820190506146366000830184613e86565b92915050565b600060608201905081810360008301526146568186613f7b565b90506146656020830185613e95565b6146726040830184613c8e565b949350505050565b600060608201905081810360008301526146948186613f7b565b90506146a36020830185613ea4565b6146b06040830184613c8e565b949350505050565b600060608201905081810360008301526146d28186613f7b565b90506146e16020830185613eb3565b6146ee6040830184613c8e565b949350505050565b6000602082019050818103600083015261470f81613ffb565b9050919050565b6000602082019050818103600083015261472f8161401e565b9050919050565b6000602082019050818103600083015261474f81614041565b9050919050565b6000602082019050818103600083015261476f81614064565b9050919050565b6000602082019050818103600083015261478f81614087565b9050919050565b600060208201905081810360008301526147af816140aa565b9050919050565b600060208201905081810360008301526147cf816140cd565b9050919050565b600060208201905081810360008301526147ef816140f0565b9050919050565b6000602082019050818103600083015261480f81614113565b9050919050565b6000602082019050818103600083015261482f81614136565b9050919050565b6000602082019050818103600083015261484f81614159565b9050919050565b6000602082019050818103600083015261486f8161417c565b9050919050565b6000602082019050818103600083015261488f8161419f565b9050919050565b600060208201905081810360008301526148af816141c2565b9050919050565b600060208201905081810360008301526148cf816141e5565b9050919050565b600060208201905081810360008301526148ef81614208565b9050919050565b6000602082019050818103600083015261490f8161422b565b9050919050565b60006101008201905061492c600083018461437c565b92915050565b600061010082019050614948600083018461441e565b92915050565b600060208201905061496360008301846144ed565b92915050565b600060608201905061497e60008301866144ed565b61498b6020830185613e95565b818103604083015261499d8184613d12565b9050949350505050565b60006060820190506149bc60008301866144ed565b81810360208301526149ce8185613f7b565b90506149dd6040830184613e95565b949350505050565b60006060820190506149fa60008301866144ed565b8181036020830152614a0c8185613f7b565b9050614a1b6040830184613ea4565b949350505050565b6000606082019050614a3860008301866144ed565b8181036020830152614a4a8185613f7b565b9050614a596040830184613eb3565b949350505050565b6000606082019050614a7660008301866144ed565b614a8360208301856144ed565b8181036040830152614a958184613d12565b9050949350505050565b6000608082019050614ab460008301876144ed565b614ac160208301866144ed565b8181036040830152614ad38185613f7b565b9050614ae26060830184613c8e565b95945050505050565b6000614af5614b06565b9050614b018282614ebe565b919050565b6000604051905090565b600067ffffffffffffffff821115614b2b57614b2a614fc5565b5b614b3482615008565b9050602081019050919050565b6000819050602082019050919050565b60008190508160005260206000209050919050565b6000819050602082019050919050565b6000819050602082019050919050565b60008190508160005260206000209050919050565b600081519050919050565b600081549050919050565b600081519050919050565b600081519050919050565b600081519050919050565b6000602082019050919050565b6000600182019050919050565b6000602082019050919050565b6000602082019050919050565b600082825260208201905092915050565b600082825260208201905092915050565b600082825260208201905092915050565b600082825260208201905092915050565b600082825260208201905092915050565b6000614c6682614d9e565b9150614c7183614d9e565b9250827fffffffffffffffffffffffffffffffffffffffffffffffffffffffffffffffff03821115614ca657614ca5614f38565b5b828201905092915050565b6000614cbc82614d9e565b9150614cc783614d9e565b9250817fffffffffffffffffffffffffffffffffffffffffffffffffffffffffffffffff0483118215151615614d0057614cff614f38565b5b828202905092915050565b6000614d1682614d9e565b9150614d2183614d9e565b925082821015614d3457614d33614f38565b5b828203905092915050565b6000614d4a82614d6f565b9050919050565b6000614d5c82614d6f565b9050919050565b60008115159050919050565b600073ffffffffffffffffffffffffffffffffffffffff82169050919050565b600062ffffff82169050919050565b6000819050919050565b6000614db382614dba565b9050919050565b6000614dc582614d6f565b9050919050565b6000614dd782614dde565b9050919050565b6000614de982614d6f565b9050919050565b6000614dfb82614e02565b9050919050565b6000614e0d82614d6f565b9050919050565b6000614e1f82614d9e565b9050919050565b6000614e3182614d9e565b9050919050565b6000614e4382614d9e565b9050919050565b82818337600083830152505050565b60005b83811015614e77578082015181840152602081019050614e5c565b83811115614e86576000848401525b50505050565b60006002820490506001821680614ea457607f821691505b60208210811415614eb857614eb7614f67565b5b50919050565b614ec782615008565b810181811067ffffffffffffffff82111715614ee657614ee5614fc5565b5b80604052505050565b6000614efa82614d9e565b91507fffffffffffffffffffffffffffffffffffffffffffffffffffffffffffffffff821415614f2d57614f2c614f38565b5b600182019050919050565b7f4e487b7100000000000000000000000000000000000000000000000000000000600052601160045260246000fd5b7f4e487b7100000000000000000000000000000000000000000000000000000000600052602260045260246000fd5b7f4e487b7100000000000000000000000000000000000000000000000000000000600052603260045260246000fd5b7f4e487b7100000000000000000000000000000000000000000000000000000000600052604160045260246000fd5b600080fd5b600080fd5b600080fd5b600080fd5b6000601f19601f8301169050919050565b7f646f6e6174696f6e206d757374206265206c6172676572207468616e20300000600082015250565b7f6e6f20746f6b656e732072656365697665640000000000000000000000000000600082015250565b7f54617267657420616d6f756e7420657863656465640000000000000000000000600082015250565b7f54686973206973206e6f74204554482063616d706169676e0000000000000000600082015250565b7f796f752063616e27742062652063616d706169676e2062656e65666163746f7260008201527f20746f20646f2074686973000000000000000000000000000000000000000000602082015250565b7f796f752063616e27742062652063616d706169676e2063726561746f7220746f60008201527f20646f2074686973000000000000000000000000000000000000000000000000602082015250565b7f436865636b2074686520746f6b656e20616c6c6f77616e636500000000000000600082015250565b7f7472616e73666572206f6620546f6b656e206661696c65640000000000000000600082015250565b7f746f6b656e20646f6e6174696f6e206d757374206265206c617267657220746860008201527f616e203000000000000000000000000000000000000000000000000000000000602082015250565b7f7472616e73666572206f66205765746820546f6b656e206661696c6564000000600082015250565b7f63616d7061696e67206861732066696e69736865640000000000000000000000600082015250565b7f63616d706169676e2074617267657420616d6f756e74206d757374206265206c60008201527f6172676572207468616e20300000000000000000000000000000000000000000602082015250565b7f796f75206d7573742062652063616d706169676e2063726561746f7220746f2060008201527f646f207468697300000000000000000000000000000000000000000000000000602082015250565b7f43616d706169676e206d75737420656e6420696e207468652066757475726500600082015250565b7f43616d706169676e20616c72656164792066696e697368656400000000000000600082015250565b7f4d7573742070617373206e6f6e20302045544820616d6f756e74000000000000600082015250565b7f726566756e64206661696c656400000000000000000000000000000000000000600082015250565b61539981614d3f565b81146153a457600080fd5b50565b6153b081614d51565b81146153bb57600080fd5b50565b6153c781614d63565b81146153d257600080fd5b50565b6153de81614d9e565b81146153e957600080fd5b5056fea2646970667358221220b7443bf12482382f2afe1ed1d8bf8b929dff541226842b5afd41b4ec519d8e2f64736f6c63430008060033",
  "immutableReferences": {},
  "source": "// SPDX-License-Identifier: MIT\npragma solidity >=0.7.6 <0.9.0;\npragma abicoder v2;\n\n// import \"https://github.com/Uniswap/uniswap-v3-periphery/blob/main/contracts/interfaces/ISwapRouter.sol\";\n// import \"https://github.com/Uniswap/uniswap-v3-periphery/blob/main/contracts/interfaces/IQuoter.sol\";\nimport \"@uniswap/v3-periphery/contracts/interfaces/ISwapRouter.sol\";\nimport \"@uniswap/v3-periphery/contracts/interfaces/IQuoter.sol\";\nimport \"./SupportChildrenCollectable.sol\";\n\ninterface IUniswapRouter is ISwapRouter {\n    function refundETH() external payable;\n}\n\ninterface IERC20 {\n    function transferFrom(\n        address sender, \n        address recipient, \n        uint256 amount) \n        external \n        returns (bool);\n    function approve(address spender, uint tokens)  external returns (bool);\n    function totalSupply() external view returns (uint256);\n    function balanceOf(address account) external view returns (uint256);\n    function allowance(address owner, address spender) external view returns (uint256);\n\n    function transfer(address recipient, uint256 amount) external returns (bool);\n}\n\ninterface IUniswap {\n    function swapExactTokensForETH(\n        uint amountIn, \n        uint amountOutMin, \n        address[] calldata path, \n        address to, \n        uint deadline)\n        external\n        returns (uint[] memory amounts);\n    function WETH() external pure returns (address);\n}\n    \ncontract SupportChildren {\n    SupportChildrenCollectable public constant nft = SupportChildrenCollectable(0xE52d15506f921819665D5304d95D86A6C51F895D);\n    IUniswapRouter public constant uniswapRouter = IUniswapRouter(0xE592427A0AEce92De3Edee1F18E0157C05861564);\n    IQuoter public constant quoter = IQuoter(0xb27308f9F90D607463bb33eA1BeBb41C27CE5AB6);\n    address private constant multiDaiKovan = 0x6B175474E89094C44Da98b954EedeAC495271d0F;\n    address private constant WETH9 = 0xC02aaA39b223FE8D0A0e5C4F27eAD9083C756Cc2;\n  \n    event DonationMade (\n        uint campaignId,\n        uint donationAmount,\n        string notifyEmail,\n        address token\n    );\n\n    event CampaignCreated (\n        uint campaignId\n    );\n\n    event CampaignFinished (\n        uint campaignId,\n        uint currentAmount,\n        string[] notifyEmails\n    );\n\n    event CreateNFT (\n        uint campaignId,\n        string campaignImage,\n        uint nftType\n    );\n    \n    uint campaignIndex;\n    uint count;\n    \n    struct Campaign {\n        uint id;\n        string name; \n        string description;\n        string creatorEmail; \n        string image; \n        address targetCurrency; \n        uint targetAmount;\n        uint currentAmount;\n        uint amountInWeth;\n        address payable beneficiaryAddress;\n        address creatorAddress;\n        bool active;\n        uint endTimestamp;\n    }\n    \n    Campaign[] campaigns;\n    \n    mapping(uint => string[]) campaignDonationsEmails;\n    mapping(address => uint[]) campaignDonors;\n    \n    modifier campaignCreator(uint _campaignId) {\n        require(campaigns[_campaignId].creatorAddress == tx.origin, \"you must be campaign creator to do this\");\n        _;\n    }\n    \n    modifier notCampaignCreator(uint _campaignId) {\n        require(campaigns[_campaignId].creatorAddress != tx.origin, \"you can't be campaign creator to do this\");\n        _;\n    }\n\n    modifier ethCampaign(uint _campaignId) {\n        require(campaigns[_campaignId].targetCurrency == address(this), \"This is not ETH campaign\");\n        _;\n    }\n\n    modifier notCampaignBenefactor(uint _campaignId) {\n        require(campaigns[_campaignId].beneficiaryAddress != tx.origin, \"you can't be campaign benefactor to do this\");\n        _;\n    }\n\n    modifier campaignActive(uint _campaignId) {\n        require(campaigns[_campaignId].active == true, \"campaing has finished\");\n        require(campaigns[_campaignId].endTimestamp > block.timestamp, \"Campaign already finished\");\n        _;\n    }\n\n    function createCampaign(string memory _name, string memory _description, string memory _creatorEmail, string memory _image, uint _endTimestamp, address _targetCurrency, uint _targetAmount, address payable _beneficiaryAddress) public {\n        require(_targetAmount > 0, \"campaign target amount must be larger than 0\");\n        require(_endTimestamp > block.timestamp, \"Campaign must end in the future\");\n        campaigns.push(Campaign({\n            id: count,\n            name: _name,\n            description: _description,\n            creatorEmail: _creatorEmail,\n            image: _image,\n            targetAmount: _targetAmount,\n            targetCurrency: _targetCurrency,\n            currentAmount: 0,\n            amountInWeth: 0,\n            beneficiaryAddress: _beneficiaryAddress,\n            creatorAddress: tx.origin,\n            active: true,\n            endTimestamp: _endTimestamp \n        }));\n\n        emit CampaignCreated(count);\n        \n        count++;\n    }\n\n    function endCampaign(uint _campaignId) public campaignActive(_campaignId) campaignCreator(_campaignId) {\n        if (campaigns[_campaignId].currentAmount > 0) {\n            finishCampaign(_campaignId);\n        } else {\n            emit CampaignFinished(_campaignId, 0, campaignDonationsEmails[_campaignId]);\n            campaigns[_campaignId].active = false;\n        }\n    }\n\n    function editCampaign(uint _campaignId, string memory _name, string memory _description, string memory _creatorEmail, string memory _image) public campaignActive(_campaignId) campaignCreator(_campaignId) {\n        campaigns[_campaignId].name = _name;\n        campaigns[_campaignId].description = _description;\n        campaigns[_campaignId].creatorEmail = _creatorEmail;\n        campaigns[_campaignId].image = _image;\n    }\n\n    function finishCampaign(uint _campaignId) private {\n        emit CampaignFinished(_campaignId, campaigns[_campaignId].currentAmount, campaignDonationsEmails[_campaignId]);\n        // Send collected value to the address of the child\n        if (campaigns[_campaignId].targetCurrency == address(this)) {\n            if (campaigns[_campaignId].amountInWeth > 0) {\n                campaigns[_campaignId].beneficiaryAddress.transfer(campaigns[_campaignId].currentAmount-campaigns[_campaignId].amountInWeth);\n                \n                (bool success) = IERC20(WETH9).transfer(msg.sender, campaigns[_campaignId].amountInWeth);\n                require(success, \"transfer of Weth Token failed\");\n            } else {\n                campaigns[_campaignId].beneficiaryAddress.transfer(campaigns[_campaignId].currentAmount);\n            }\n        } else {\n            (bool success) = IERC20(campaigns[_campaignId].targetCurrency).transfer(msg.sender, campaigns[_campaignId].currentAmount);\n            require(success, \"transfer of Token failed\");\n        }\n        campaigns[_campaignId].active = false;\n    }\n\n\n    // ETH to ETH\n    function donateEthToEthCampaign(uint _campaignId, string memory _donorEmail) payable public campaignActive(_campaignId) notCampaignCreator(_campaignId) notCampaignBenefactor(_campaignId) ethCampaign(_campaignId) {\n        require(msg.value > 0, \"donation must be larger than 0\");\n        // curentamount must be fetched from frontend\n        require((campaigns[_campaignId].currentAmount  + msg.value) * 10 < 11 * campaigns[_campaignId].targetAmount, \"Target amount exceded\");\n        uint initialCampaingAmount = campaigns[_campaignId].currentAmount;\n        campaignDonationsEmails[_campaignId].push(_donorEmail);\n        campaignDonors[tx.origin].push(_campaignId);\n        campaigns[_campaignId].currentAmount = campaigns[_campaignId].currentAmount  + msg.value;\n\n        emit DonationMade(_campaignId, msg.value, campaigns[_campaignId].creatorEmail, address(this));\n\n        checkForSpecialEvents(_campaignId, initialCampaingAmount);  \n    }\n\n    // ETH to Token\n    function donateEthToTokenCampaign(uint _campaignId, string memory _donorEmail) payable public campaignActive(_campaignId) {\n        require(msg.value > 0, \"donation must be larger than 0\");\n\n        (uint256 tokensReceived) = convertExactEthToToken(campaigns[_campaignId].targetCurrency);\n        require((campaigns[_campaignId].currentAmount  + tokensReceived) * 10 < 11 * campaigns[_campaignId].targetAmount, \"Target amount exceded\");\n        uint initialCampaingAmount = campaigns[_campaignId].currentAmount;        \n        campaignDonationsEmails[_campaignId].push(_donorEmail);\n        campaignDonors[tx.origin].push(_campaignId);\n        campaigns[_campaignId].currentAmount = campaigns[_campaignId].currentAmount  + tokensReceived;\n\n        emit DonationMade(_campaignId, msg.value, campaigns[_campaignId].creatorEmail, address(this));\n\n        checkForSpecialEvents(_campaignId, initialCampaingAmount);  \n    }\n\n    // Token to ETH\n    function donateTokenToETHCampaign(uint _campaignId, string memory _donorEmail, address token, uint amountOut, uint amountInMax) public campaignActive(_campaignId) {\n        require(amountInMax > 0, \"token donation must be larger than 0\");\n        require(amountOut > 0, \"token donation must be larger than 0\");\n        require((campaigns[_campaignId].currentAmount  + amountOut) * 10 < 11 * campaigns[_campaignId].targetAmount, \"Target amount exceded\");\n        \n        (uint256 tokensSpent) = convertTokenToExactEth(token, amountOut, amountInMax);\n        uint initialCampaingAmount = campaigns[_campaignId].currentAmount;\n        campaignDonationsEmails[_campaignId].push(_donorEmail);\n        campaignDonors[tx.origin].push(_campaignId);\n        campaigns[_campaignId].amountInWeth = campaigns[_campaignId].amountInWeth + amountOut;\n        campaigns[_campaignId].currentAmount = campaigns[_campaignId].currentAmount + amountOut;\n        emit DonationMade(_campaignId, tokensSpent, campaigns[_campaignId].creatorEmail, token);\n\n        checkForSpecialEvents(_campaignId, initialCampaingAmount);  \n    }\n    \n    // Token to Token\n    function donateTokenToTokenCampaign(uint _campaignId, string memory _donorEmail, address tokenIn, uint amountOut, uint amountInMax) public campaignActive(_campaignId) {\n        require(amountInMax > 0, \"token donation must be larger than 0\");\n        require(amountOut > 0, \"token donation must be larger than 0\");\n        require((campaigns[_campaignId].currentAmount  + amountOut) * 10 < 11 * campaigns[_campaignId].targetAmount, \"Target amount exceded\");\n        (uint256 tokensSpent) = convertTokenToExactToken(tokenIn, campaigns[_campaignId].targetCurrency, amountOut, amountInMax);\n        uint initialCampaingAmount = campaigns[_campaignId].currentAmount;\n        campaignDonationsEmails[_campaignId].push(_donorEmail);\n        campaignDonors[tx.origin].push(_campaignId);\n        campaigns[_campaignId].currentAmount = campaigns[_campaignId].currentAmount + amountOut;\n        emit DonationMade(_campaignId, tokensSpent, campaigns[_campaignId].creatorEmail, tokenIn);\n\n        checkForSpecialEvents(_campaignId, initialCampaingAmount);       \n    }\n\n    function checkForSpecialEvents(uint _campaignId, uint initialCampaingAmount) internal {\n        if (campaigns[_campaignId].currentAmount >= campaigns[_campaignId].targetAmount) {\n            finishCampaign(_campaignId);\n            if (initialCampaingAmount != 0) {\n                // Closed a campaing NFT\n                nft.createCollectible(campaigns[_campaignId].image, 1, tx.origin);\n                emit CreateNFT(_campaignId, campaigns[_campaignId].image, 1);\n            } else {\n                // Was only donator to the campaing NFT\n                nft.createCollectible(campaigns[_campaignId].image, 2, tx.origin);\n                emit CreateNFT(_campaignId, campaigns[_campaignId].image, 2);\n            }\n\n            return;\n        }\n\n        if (initialCampaingAmount == 0) {\n            // First donation to the campaign NFT\n            nft.createCollectible(campaigns[_campaignId].image, 0, tx.origin);\n            emit CreateNFT(_campaignId, campaigns[_campaignId].image, 0);\n        }\n    }\n    \n    function getDonorEmails(uint _campaignId) view public returns (string[] memory) {\n        return campaignDonationsEmails[_campaignId];\n    }\n    \n    function getDonorsCampaingsList(address _donor) view public returns (uint[] memory) {\n        return campaignDonors[_donor];\n    }\n    \n    function getCampaigns() public view returns (Campaign[] memory) {\n        return campaigns;\n    }\n\n    function getCampaignAmount(uint _campaignId) public view returns (uint) {\n        return campaigns[_campaignId].currentAmount;\n    }\n\n    function convertExactEthToToken(address token) internal returns (uint256) {\n        require(msg.value > 0, \"Must pass non 0 ETH amount\");\n\n        uint256 deadline = block.timestamp + 15; // using 'now' for convenience, for mainnet pass deadline from frontend!\n        address tokenIn = WETH9;\n        address tokenOut = token;\n        uint24 fee = 3000;\n        address recipient = address(this);\n        uint256 amountIn = msg.value;\n        uint256 amountOutMinimum = 1;\n        uint160 sqrtPriceLimitX96 = 0;\n        \n        ISwapRouter.ExactInputSingleParams memory params = ISwapRouter.ExactInputSingleParams(\n            tokenIn,\n            tokenOut,\n            fee,\n            recipient,\n            deadline,\n            amountIn,\n            amountOutMinimum,\n            sqrtPriceLimitX96\n        );\n        \n        uint256 amountOfTokenReceived = uniswapRouter.exactInputSingle{ value: msg.value }(params);\n        require(amountOfTokenReceived > 0, \"no tokens received\");\n        return amountOfTokenReceived;\n    }\n    \n    function convertTokenToExactEth(address token, uint amountOut, uint amountInMaximum) internal returns (uint256) {\n        uint256 allowance = IERC20(token).allowance(msg.sender, address(this));\n        require(allowance >= amountInMaximum, \"Check the token allowance\");\n        IERC20(token).transferFrom(msg.sender, address(this), amountInMaximum);\n        uint256 deadline = block.timestamp + 15; // using 'now' for convenience, for mainnet pass deadline from frontend!\n        address tokenIn = token;\n        address tokenOut = WETH9;\n        uint24 fee = 3000;\n        address recipient = address(this);\n        uint160 sqrtPriceLimitX96 = 0;\n        IERC20(token).approve(address(uniswapRouter), amountInMaximum);\n        \n        ISwapRouter.ExactOutputSingleParams memory params = ISwapRouter.ExactOutputSingleParams(\n            tokenIn,\n            tokenOut,\n            fee,\n            recipient,\n            deadline,\n            amountOut,\n            amountInMaximum,\n            sqrtPriceLimitX96\n        );\n        \n        uint256 amountOfTokenUsed = uniswapRouter.exactOutputSingle(params);\n        uint256 remainderOfTokens = amountInMaximum-amountOfTokenUsed;\n        // refund leftover Tokens to user\n        (bool success) = IERC20(token).transfer(msg.sender, remainderOfTokens);\n        require(success, \"refund failed\");\n        \n        return amountOfTokenUsed;\n    }\n    \n    function convertTokenToExactToken(address tokenIn, address tokenOut, uint amountOut, uint amountInMaximum) internal returns (uint256) {\n        uint256 allowance = IERC20(tokenIn).allowance(msg.sender, address(this));\n        require(allowance >= amountInMaximum, \"Check the token allowance\");\n        IERC20(tokenIn).transferFrom(msg.sender, address(this), amountInMaximum);\n        uint256 deadline = block.timestamp + 15; // using 'now' for convenience, for mainnet pass deadline from frontend!\n        uint24 fee = 3000;\n        address recipient = address(this);\n        uint160 sqrtPriceLimitX96 = 0;\n        IERC20(tokenIn).approve(address(uniswapRouter), amountInMaximum);\n        \n        ISwapRouter.ExactOutputSingleParams memory params = ISwapRouter.ExactOutputSingleParams(\n            tokenIn,\n            tokenOut,\n            fee,\n            recipient,\n            deadline,\n            amountOut,\n            amountInMaximum,\n            sqrtPriceLimitX96\n        );\n        \n        uint256 amountOfTokenUsed = uniswapRouter.exactOutputSingle(params);\n        uint256 remainderOfTokens = amountInMaximum-amountOfTokenUsed;\n        \n        // refund leftover Tokens to user\n        (bool success) = IERC20(tokenIn).transfer(msg.sender, remainderOfTokens);\n        require(success, \"refund failed\");\n        \n        return amountOfTokenUsed;\n    }\n    \n    // do not used on-chain, gas inefficient!\n    function getEstimatedETHforDAI(uint daiAmount) internal returns (uint256) {\n        address tokenIn = WETH9;\n        address tokenOut = multiDaiKovan;\n        uint24 fee = 3000;\n        uint160 sqrtPriceLimitX96 = 0;\n\n        return quoter.quoteExactOutputSingle(\n            tokenIn,\n            tokenOut,\n            fee,\n            daiAmount,\n            sqrtPriceLimitX96\n        );\n    }\n\n    // important to receive ETH\n    receive() payable external {}\n}",
  "sourcePath": "/home/appmodule/Crypto/support-children/contracts/SupportChildren.sol",
  "compiler": {
    "name": "solc",
    "version": "0.8.6+commit.11564f7e.Emscripten.clang"
  },
  "schemaVersion": "3.4.2",
  "updatedAt": "2021-08-09T23:42:28.635Z",
  "networkType": "ethereum",
  "devdoc": {
    "kind": "dev",
    "methods": {},
    "version": 1
  },
  "userdoc": {
    "kind": "user",
    "methods": {},
    "version": 1
  }
}