{
  "contractName": "SupportChildrenArr",
  "abi": [
    {
      "inputs": [
        {
          "internalType": "string",
          "name": "_name",
          "type": "string"
        },
        {
          "internalType": "string",
          "name": "_description",
          "type": "string"
        },
        {
          "internalType": "string",
          "name": "_creatorEmail",
          "type": "string"
        },
        {
          "internalType": "uint32",
          "name": "_targetAmount",
          "type": "uint32"
        },
        {
          "internalType": "address",
          "name": "_targetAccount",
          "type": "address"
        }
      ],
      "name": "createCampaign",
      "outputs": [],
      "stateMutability": "nonpayable",
      "type": "function"
    },
    {
      "inputs": [
        {
          "internalType": "uint256",
          "name": "_campaignId",
          "type": "uint256"
        },
        {
          "internalType": "string",
          "name": "_donorEmail",
          "type": "string"
        },
        {
          "internalType": "uint256",
          "name": "_amount",
          "type": "uint256"
        }
      ],
      "name": "donateTest",
      "outputs": [],
      "stateMutability": "nonpayable",
      "type": "function"
    },
    {
      "inputs": [
        {
          "internalType": "uint256",
          "name": "_campaignId",
          "type": "uint256"
        },
        {
          "internalType": "string",
          "name": "_donorEmail",
          "type": "string"
        }
      ],
      "name": "donate",
      "outputs": [],
      "stateMutability": "payable",
      "type": "function"
    },
    {
      "inputs": [
        {
          "internalType": "uint256",
          "name": "_campaignId",
          "type": "uint256"
        }
      ],
      "name": "getDonatorEmails",
      "outputs": [
        {
          "internalType": "string[]",
          "name": "",
          "type": "string[]"
        }
      ],
      "stateMutability": "view",
      "type": "function"
    },
    {
      "inputs": [],
      "name": "getCampaigns",
      "outputs": [
        {
          "components": [
            {
              "internalType": "uint256",
              "name": "id",
              "type": "uint256"
            },
            {
              "internalType": "string",
              "name": "name",
              "type": "string"
            },
            {
              "internalType": "string",
              "name": "description",
              "type": "string"
            },
            {
              "internalType": "string",
              "name": "creatorEmail",
              "type": "string"
            },
            {
              "internalType": "uint256",
              "name": "targetAmount",
              "type": "uint256"
            },
            {
              "internalType": "uint256",
              "name": "currentAmount",
              "type": "uint256"
            },
            {
              "internalType": "address",
              "name": "targetAccount",
              "type": "address"
            }
          ],
          "internalType": "struct SupportChildrenArr.Campaign[]",
          "name": "",
          "type": "tuple[]"
        }
      ],
      "stateMutability": "view",
      "type": "function"
    },
    {
      "inputs": [
        {
          "internalType": "uint256",
          "name": "_campaignId",
          "type": "uint256"
        }
      ],
      "name": "getCampaignAmount",
      "outputs": [
        {
          "internalType": "uint256",
          "name": "",
          "type": "uint256"
        }
      ],
      "stateMutability": "view",
      "type": "function"
    }
  ],
  "bytecode": "0x608060405234801561001057600080fd5b5061112c806100206000396000f3fe6080604052600436106100555760003560e01c8063105df6961461005a578063296c10f4146100975780636c4689e0146100d45780638d59d1f1146100fd578063a6b0363314610119578063ac006c9614610144575b600080fd5b34801561006657600080fd5b50610081600480360381019061007c91906109e3565b61016d565b60405161008e9190610cfd565b60405180910390f35b3480156100a357600080fd5b506100be60048036038101906100b991906109e3565b610259565b6040516100cb9190610d41565b60405180910390f35b3480156100e057600080fd5b506100fb60048036038101906100f69190610a6c565b610288565b005b61011760048036038101906101129190610a10565b610334565b005b34801561012557600080fd5b5061012e6103df565b60405161013b9190610d1f565b60405180910390f35b34801561015057600080fd5b5061016b60048036038101906101669190610914565b610668565b005b606060036000838152602001908152602001600020805480602002602001604051908101604052809291908181526020016000905b8282101561024e5783829060005260206000200180546101c190610f24565b80601f01602080910402602001604051908101604052809291908181526020018280546101ed90610f24565b801561023a5780601f1061020f5761010080835404028352916020019161023a565b820191906000526020600020905b81548152906001019060200180831161021d57829003601f168201915b5050505050815260200190600101906101a2565b505050509050919050565b60006002828154811061026f5761026e61102e565b5b9060005260206000209060070201600501549050919050565b60036000848152602001908152602001600020829080600181540180825580915050600190039060005260206000200160009091909190915090805190602001906102d49291906107c2565b5080600284815481106102ea576102e961102e565b5b9060005260206000209060070201600501546103069190610e40565b6002848154811061031a5761031961102e565b5b906000526020600020906007020160040181905550505050565b60036000838152602001908152602001600020819080600181540180825580915050600190039060005260206000200160009091909190915090805190602001906103809291906107c2565b5034600283815481106103965761039561102e565b5b9060005260206000209060070201600501546103b29190610e40565b600283815481106103c6576103c561102e565b5b9060005260206000209060070201600401819055505050565b60606002805480602002602001604051908101604052809291908181526020016000905b8282101561065f57838290600052602060002090600702016040518060e00160405290816000820154815260200160018201805461044090610f24565b80601f016020809104026020016040519081016040528092919081815260200182805461046c90610f24565b80156104b95780601f1061048e576101008083540402835291602001916104b9565b820191906000526020600020905b81548152906001019060200180831161049c57829003601f168201915b505050505081526020016002820180546104d290610f24565b80601f01602080910402602001604051908101604052809291908181526020018280546104fe90610f24565b801561054b5780601f106105205761010080835404028352916020019161054b565b820191906000526020600020905b81548152906001019060200180831161052e57829003601f168201915b5050505050815260200160038201805461056490610f24565b80601f016020809104026020016040519081016040528092919081815260200182805461059090610f24565b80156105dd5780601f106105b2576101008083540402835291602001916105dd565b820191906000526020600020905b8154815290600101906020018083116105c057829003601f168201915b5050505050815260200160048201548152602001600582015481526020016006820160009054906101000a900473ffffffffffffffffffffffffffffffffffffffff1673ffffffffffffffffffffffffffffffffffffffff1673ffffffffffffffffffffffffffffffffffffffff168152505081526020019060010190610403565b50505050905090565b60026040518060e0016040528060015481526020018781526020018681526020018581526020018463ffffffff168152602001600081526020018373ffffffffffffffffffffffffffffffffffffffff16815250908060018154018082558091505060019003906000526020600020906007020160009091909190915060008201518160000155602082015181600101908051906020019061070b9291906107c2565b5060408201518160020190805190602001906107289291906107c2565b5060608201518160030190805190602001906107459291906107c2565b506080820151816004015560a0820151816005015560c08201518160060160006101000a81548173ffffffffffffffffffffffffffffffffffffffff021916908373ffffffffffffffffffffffffffffffffffffffff1602179055505050600160008154809291906107b690610f87565b91905055505050505050565b8280546107ce90610f24565b90600052602060002090601f0160209004810192826107f05760008555610837565b82601f1061080957805160ff1916838001178555610837565b82800160010185558215610837579182015b8281111561083657825182559160200191906001019061081b565b5b5090506108449190610848565b5090565b5b80821115610861576000816000905550600101610849565b5090565b600061087861087384610d81565b610d5c565b90508281526020810184848401111561089457610893611091565b5b61089f848285610ee2565b509392505050565b6000813590506108b6816110b1565b92915050565b600082601f8301126108d1576108d061108c565b5b81356108e1848260208601610865565b91505092915050565b6000813590506108f9816110c8565b92915050565b60008135905061090e816110df565b92915050565b600080600080600060a086880312156109305761092f61109b565b5b600086013567ffffffffffffffff81111561094e5761094d611096565b5b61095a888289016108bc565b955050602086013567ffffffffffffffff81111561097b5761097a611096565b5b610987888289016108bc565b945050604086013567ffffffffffffffff8111156109a8576109a7611096565b5b6109b4888289016108bc565b93505060606109c5888289016108ff565b92505060806109d6888289016108a7565b9150509295509295909350565b6000602082840312156109f9576109f861109b565b5b6000610a07848285016108ea565b91505092915050565b60008060408385031215610a2757610a2661109b565b5b6000610a35858286016108ea565b925050602083013567ffffffffffffffff811115610a5657610a55611096565b5b610a62858286016108bc565b9150509250929050565b600080600060608486031215610a8557610a8461109b565b5b6000610a93868287016108ea565b935050602084013567ffffffffffffffff811115610ab457610ab3611096565b5b610ac0868287016108bc565b9250506040610ad1868287016108ea565b9150509250925092565b6000610ae78383610bfc565b905092915050565b6000610afb8383610c35565b905092915050565b610b0c81610e96565b82525050565b6000610b1d82610dd2565b610b278185610e0d565b935083602082028501610b3985610db2565b8060005b85811015610b755784840389528151610b568582610adb565b9450610b6183610df3565b925060208a01995050600181019050610b3d565b50829750879550505050505092915050565b6000610b9282610ddd565b610b9c8185610e1e565b935083602082028501610bae85610dc2565b8060005b85811015610bea5784840389528151610bcb8582610aef565b9450610bd683610e00565b925060208a01995050600181019050610bb2565b50829750879550505050505092915050565b6000610c0782610de8565b610c118185610e2f565b9350610c21818560208601610ef1565b610c2a816110a0565b840191505092915050565b600060e083016000830151610c4d6000860182610cdf565b5060208301518482036020860152610c658282610bfc565b91505060408301518482036040860152610c7f8282610bfc565b91505060608301518482036060860152610c998282610bfc565b9150506080830151610cae6080860182610cdf565b5060a0830151610cc160a0860182610cdf565b5060c0830151610cd460c0860182610b03565b508091505092915050565b610ce881610ec8565b82525050565b610cf781610ec8565b82525050565b60006020820190508181036000830152610d178184610b12565b905092915050565b60006020820190508181036000830152610d398184610b87565b905092915050565b6000602082019050610d566000830184610cee565b92915050565b6000610d66610d77565b9050610d728282610f56565b919050565b6000604051905090565b600067ffffffffffffffff821115610d9c57610d9b61105d565b5b610da5826110a0565b9050602081019050919050565b6000819050602082019050919050565b6000819050602082019050919050565b600081519050919050565b600081519050919050565b600081519050919050565b6000602082019050919050565b6000602082019050919050565b600082825260208201905092915050565b600082825260208201905092915050565b600082825260208201905092915050565b6000610e4b82610ec8565b9150610e5683610ec8565b9250827fffffffffffffffffffffffffffffffffffffffffffffffffffffffffffffffff03821115610e8b57610e8a610fd0565b5b828201905092915050565b6000610ea182610ea8565b9050919050565b600073ffffffffffffffffffffffffffffffffffffffff82169050919050565b6000819050919050565b600063ffffffff82169050919050565b82818337600083830152505050565b60005b83811015610f0f578082015181840152602081019050610ef4565b83811115610f1e576000848401525b50505050565b60006002820490506001821680610f3c57607f821691505b60208210811415610f5057610f4f610fff565b5b50919050565b610f5f826110a0565b810181811067ffffffffffffffff82111715610f7e57610f7d61105d565b5b80604052505050565b6000610f9282610ec8565b91507fffffffffffffffffffffffffffffffffffffffffffffffffffffffffffffffff821415610fc557610fc4610fd0565b5b600182019050919050565b7f4e487b7100000000000000000000000000000000000000000000000000000000600052601160045260246000fd5b7f4e487b7100000000000000000000000000000000000000000000000000000000600052602260045260246000fd5b7f4e487b7100000000000000000000000000000000000000000000000000000000600052603260045260246000fd5b7f4e487b7100000000000000000000000000000000000000000000000000000000600052604160045260246000fd5b600080fd5b600080fd5b600080fd5b600080fd5b6000601f19601f8301169050919050565b6110ba81610e96565b81146110c557600080fd5b50565b6110d181610ec8565b81146110dc57600080fd5b50565b6110e881610ed2565b81146110f357600080fd5b5056fea26469706673582212203d28110b0899df89dcefc90bd41f64145f1bee29f8010f83d09de9fc44f690c964736f6c63430008060033",
  "immutableReferences": {},
  "source": "// SPDX-License-Identifier: MIT\npragma solidity >=0.7.0 <0.9.0;\n\ncontract SupportChildrenArr {\n    \n    uint campaignIndex;\n    uint count;\n    \n    struct Campaign {\n        uint id;\n        string name; \n        string description;\n        string creatorEmail; \n        uint targetAmount;\n        uint currentAmount;\n        address targetAccount;\n    }\n    \n    Campaign[] campaigns;\n    \n    mapping(uint => string[]) campaignDonationsEmails;\n    \n    function createCampaign(string memory _name, string memory _description, string memory _creatorEmail, uint32 _targetAmount, address _targetAccount) public {\n         campaigns.push(Campaign({\n            id: count,\n            name: _name,\n            description: _description,\n            creatorEmail: _creatorEmail,\n            targetAmount: _targetAmount,\n            currentAmount: 0,\n            targetAccount: _targetAccount\n        }));\n        \n        count++;\n    }\n    \n    // Fiktivno slanje para za test samo\n    function donateTest(uint _campaignId, string memory _donorEmail, uint _amount) public {\n        campaignDonationsEmails[_campaignId].push(_donorEmail);\n        \n        campaigns[_campaignId].targetAmount = campaigns[_campaignId].currentAmount + _amount;\n    }\n\n    // Stvarno slanje ETH\n    function donate(uint _campaignId, string memory _donorEmail) payable public {\n        campaignDonationsEmails[_campaignId].push(_donorEmail);\n        campaigns[_campaignId].targetAmount = campaigns[_campaignId].currentAmount  + msg.value;\n    }\n    \n    function getDonatorEmails(uint _campaignId) view public returns (string[] memory) {\n        return campaignDonationsEmails[_campaignId];\n    }\n    \n    function getCampaigns() public view returns (Campaign[] memory) {\n        return campaigns;\n    }\n\n    function getCampaignAmount(uint _campaignId) public view returns (uint) {\n        return campaigns[_campaignId].currentAmount;\n    }\n    \n}",
  "sourcePath": "/home/zarko/learn/ethereum/support-children/contracts/SupportChildrenArr.sol",
  "compiler": {
    "name": "solc",
    "version": "0.8.6+commit.11564f7e.Emscripten.clang"
  },
  "schemaVersion": "3.4.1",
  "updatedAt": "2021-07-20T18:27:20.331Z",
  "devdoc": {
    "kind": "dev",
    "methods": {},
    "version": 1
  },
  "userdoc": {
    "kind": "user",
    "methods": {},
    "version": 1
  }
}