{
  "contractName": "SupportChildren",
  "abi": [
    {
      "anonymous": false,
      "inputs": [
        {
          "indexed": false,
          "internalType": "uint256",
          "name": "campaignId",
          "type": "uint256"
        }
      ],
      "name": "CampaignCreated",
      "type": "event"
    },
    {
      "anonymous": false,
      "inputs": [
        {
          "indexed": false,
          "internalType": "uint256",
          "name": "campaignId",
          "type": "uint256"
        },
        {
          "indexed": false,
          "internalType": "uint256",
          "name": "currentAmount",
          "type": "uint256"
        },
        {
          "indexed": false,
          "internalType": "string[]",
          "name": "notifyEmails",
          "type": "string[]"
        }
      ],
      "name": "CampaignFinished",
      "type": "event"
    },
    {
      "anonymous": false,
      "inputs": [
        {
          "indexed": false,
          "internalType": "uint256",
          "name": "campaignId",
          "type": "uint256"
        },
        {
          "indexed": false,
          "internalType": "string",
          "name": "campaignImage",
          "type": "string"
        },
        {
          "indexed": false,
          "internalType": "uint256",
          "name": "nftType",
          "type": "uint256"
        }
      ],
      "name": "CreateNFT",
      "type": "event"
    },
    {
      "anonymous": false,
      "inputs": [
        {
          "indexed": false,
          "internalType": "uint256",
          "name": "campaignId",
          "type": "uint256"
        },
        {
          "indexed": false,
          "internalType": "uint256",
          "name": "donationAmount",
          "type": "uint256"
        },
        {
          "indexed": false,
          "internalType": "string",
          "name": "notifyEmail",
          "type": "string"
        },
        {
          "indexed": false,
          "internalType": "address",
          "name": "token",
          "type": "address"
        }
      ],
      "name": "DonationMade",
      "type": "event"
    },
    {
      "inputs": [],
      "name": "quoter",
      "outputs": [
        {
          "internalType": "contract IQuoter",
          "name": "",
          "type": "address"
        }
      ],
      "stateMutability": "view",
      "type": "function",
      "constant": true
    },
    {
      "inputs": [],
      "name": "uniswapRouter",
      "outputs": [
        {
          "internalType": "contract IUniswapRouter",
          "name": "",
          "type": "address"
        }
      ],
      "stateMutability": "view",
      "type": "function",
      "constant": true
    },
    {
      "stateMutability": "payable",
      "type": "receive",
      "payable": true
    },
    {
      "inputs": [
        {
          "internalType": "string",
          "name": "_name",
          "type": "string"
        },
        {
          "internalType": "string",
          "name": "_description",
          "type": "string"
        },
        {
          "internalType": "string",
          "name": "_creatorEmail",
          "type": "string"
        },
        {
          "internalType": "string",
          "name": "_image",
          "type": "string"
        },
        {
          "internalType": "uint256",
          "name": "_endTimestamp",
          "type": "uint256"
        },
        {
          "internalType": "address",
          "name": "_targetCurrency",
          "type": "address"
        },
        {
          "internalType": "uint256",
          "name": "_targetAmount",
          "type": "uint256"
        },
        {
          "internalType": "address payable",
          "name": "_beneficiaryAddress",
          "type": "address"
        }
      ],
      "name": "createCampaign",
      "outputs": [],
      "stateMutability": "nonpayable",
      "type": "function"
    },
    {
      "inputs": [
        {
          "internalType": "uint256",
          "name": "_campaignId",
          "type": "uint256"
        }
      ],
      "name": "endCampaign",
      "outputs": [],
      "stateMutability": "nonpayable",
      "type": "function"
    },
    {
      "inputs": [
        {
          "internalType": "uint256",
          "name": "_campaignId",
          "type": "uint256"
        },
        {
          "internalType": "string",
          "name": "_name",
          "type": "string"
        },
        {
          "internalType": "string",
          "name": "_description",
          "type": "string"
        },
        {
          "internalType": "string",
          "name": "_creatorEmail",
          "type": "string"
        },
        {
          "internalType": "string",
          "name": "_image",
          "type": "string"
        }
      ],
      "name": "editCampaign",
      "outputs": [],
      "stateMutability": "nonpayable",
      "type": "function"
    },
    {
      "inputs": [
        {
          "internalType": "uint256",
          "name": "_campaignId",
          "type": "uint256"
        },
        {
          "internalType": "string",
          "name": "_donorEmail",
          "type": "string"
        }
      ],
      "name": "donateEthToEthCampaign",
      "outputs": [],
      "stateMutability": "payable",
      "type": "function",
      "payable": true
    },
    {
      "inputs": [
        {
          "internalType": "uint256",
          "name": "_campaignId",
          "type": "uint256"
        },
        {
          "internalType": "string",
          "name": "_donorEmail",
          "type": "string"
        }
      ],
      "name": "donateEthToTokenCampaign",
      "outputs": [],
      "stateMutability": "payable",
      "type": "function",
      "payable": true
    },
    {
      "inputs": [
        {
          "internalType": "uint256",
          "name": "_campaignId",
          "type": "uint256"
        },
        {
          "internalType": "string",
          "name": "_donorEmail",
          "type": "string"
        },
        {
          "internalType": "address",
          "name": "token",
          "type": "address"
        },
        {
          "internalType": "uint256",
          "name": "amountOut",
          "type": "uint256"
        },
        {
          "internalType": "uint256",
          "name": "amountInMax",
          "type": "uint256"
        }
      ],
      "name": "donateTokenToETHCampaign",
      "outputs": [],
      "stateMutability": "nonpayable",
      "type": "function"
    },
    {
      "inputs": [
        {
          "internalType": "uint256",
          "name": "_campaignId",
          "type": "uint256"
        },
        {
          "internalType": "string",
          "name": "_donorEmail",
          "type": "string"
        },
        {
          "internalType": "address",
          "name": "tokenIn",
          "type": "address"
        },
        {
          "internalType": "uint256",
          "name": "amountOut",
          "type": "uint256"
        },
        {
          "internalType": "uint256",
          "name": "amountInMax",
          "type": "uint256"
        }
      ],
      "name": "donateTokenToTokenCampaign",
      "outputs": [],
      "stateMutability": "nonpayable",
      "type": "function"
    },
    {
      "inputs": [
        {
          "internalType": "uint256",
          "name": "_campaignId",
          "type": "uint256"
        }
      ],
      "name": "getDonorEmails",
      "outputs": [
        {
          "internalType": "string[]",
          "name": "",
          "type": "string[]"
        }
      ],
      "stateMutability": "view",
      "type": "function",
      "constant": true
    },
    {
      "inputs": [
        {
          "internalType": "address",
          "name": "_donor",
          "type": "address"
        }
      ],
      "name": "getDonorsCampaingsList",
      "outputs": [
        {
          "internalType": "uint256[]",
          "name": "",
          "type": "uint256[]"
        }
      ],
      "stateMutability": "view",
      "type": "function",
      "constant": true
    },
    {
      "inputs": [],
      "name": "getCampaigns",
      "outputs": [
        {
          "components": [
            {
              "internalType": "uint256",
              "name": "id",
              "type": "uint256"
            },
            {
              "internalType": "string",
              "name": "name",
              "type": "string"
            },
            {
              "internalType": "string",
              "name": "description",
              "type": "string"
            },
            {
              "internalType": "string",
              "name": "creatorEmail",
              "type": "string"
            },
            {
              "internalType": "string",
              "name": "image",
              "type": "string"
            },
            {
              "internalType": "address",
              "name": "targetCurrency",
              "type": "address"
            },
            {
              "internalType": "uint256",
              "name": "targetAmount",
              "type": "uint256"
            },
            {
              "internalType": "uint256",
              "name": "currentAmount",
              "type": "uint256"
            },
            {
              "internalType": "uint256",
              "name": "amountInWeth",
              "type": "uint256"
            },
            {
              "internalType": "address payable",
              "name": "beneficiaryAddress",
              "type": "address"
            },
            {
              "internalType": "address",
              "name": "creatorAddress",
              "type": "address"
            },
            {
              "internalType": "bool",
              "name": "active",
              "type": "bool"
            },
            {
              "internalType": "uint256",
              "name": "endTimestamp",
              "type": "uint256"
            }
          ],
          "internalType": "struct SupportChildren.Campaign[]",
          "name": "",
          "type": "tuple[]"
        }
      ],
      "stateMutability": "view",
      "type": "function",
      "constant": true
    },
    {
      "inputs": [
        {
          "internalType": "uint256",
          "name": "_campaignId",
          "type": "uint256"
        }
      ],
      "name": "getCampaignAmount",
      "outputs": [
        {
          "internalType": "uint256",
          "name": "",
          "type": "uint256"
        }
      ],
      "stateMutability": "view",
      "type": "function",
      "constant": true
    }
  ],
  "bytecode": "0x608060405234801561001057600080fd5b50615170806100206000396000f3fe6080604052600436106100c65760003560e01c8063af0f42ee1161007f578063dd0408ae11610059578063dd0408ae14610285578063e0c6b5f9146102ae578063e981dc02146102d7578063f798b2c7146102f3576100cd565b8063af0f42ee14610208578063c6bbd5a714610231578063c8d865641461025c576100cd565b806311862ab1146100d257806318fedf06146100fb578063296c10f414610138578063735de9f714610175578063909f7d66146101a0578063a6b03633146101dd576100cd565b366100cd57005b600080fd5b3480156100de57600080fd5b506100f960048036038101906100f491906138f0565b61030f565b005b34801561010757600080fd5b50610122600480360381019061011d91906136ba565b610760565b60405161012f9190614410565b60405180910390f35b34801561014457600080fd5b5061015f600480360381019061015a919061383a565b6107f7565b60405161016c91906146c0565b60405180910390f35b34801561018157600080fd5b5061018a610826565b604051610197919061444d565b60405180910390f35b3480156101ac57600080fd5b506101c760048036038101906101c2919061383a565b61083e565b6040516101d491906143cc565b60405180910390f35b3480156101e957600080fd5b506101f261092a565b6040516101ff91906143ee565b60405180910390f35b34801561021457600080fd5b5061022f600480360381019061022a9190613987565b610d21565b005b34801561023d57600080fd5b50610246610fa7565b6040516102539190614432565b60405180910390f35b34801561026857600080fd5b50610283600480360381019061027e91906138f0565b610fbf565b005b34801561029157600080fd5b506102ac60048036038101906102a7919061383a565b6113fc565b005b3480156102ba57600080fd5b506102d560048036038101906102d09190613714565b61165f565b005b6102f160048036038101906102ec9190613894565b6119ad565b005b61030d60048036038101906103089190613894565b61211f565b005b84600115156002828154811061032857610327614ce4565b5b90600052602060002090600c0201600a0160149054906101000a900460ff16151514610389576040517f08c379a0000000000000000000000000000000000000000000000000000000008152600401610380906145a8565b60405180910390fd5b426002828154811061039e5761039d614ce4565b5b90600052602060002090600c0201600b0154116103f0576040517f08c379a00000000000000000000000000000000000000000000000000000000081526004016103e790614628565b60405180910390fd5b60008211610433576040517f08c379a000000000000000000000000000000000000000000000000000000000815260040161042a90614568565b60405180910390fd5b60008311610476576040517f08c379a000000000000000000000000000000000000000000000000000000000815260040161046d90614568565b60405180910390fd5b6002868154811061048a57610489614ce4565b5b90600052602060002090600c020160060154600b6104a89190614a23565b600a84600289815481106104bf576104be614ce4565b5b90600052602060002090600c0201600701546104db91906149cd565b6104e59190614a23565b10610525576040517f08c379a000000000000000000000000000000000000000000000000000000000815260040161051c906144a8565b60405180910390fd5b6000610532858585612513565b9050600360008881526020019081526020016000208690806001815401808255809150506001900390600052602060002001600090919091909150908051906020019061058092919061353e565b50600460003273ffffffffffffffffffffffffffffffffffffffff1673ffffffffffffffffffffffffffffffffffffffff16815260200190815260200160002087908060018154018082558091505060019003906000526020600020016000909190919091505583600288815481106105fc576105fb614ce4565b5b90600052602060002090600c02016008015461061891906149cd565b6002888154811061062c5761062b614ce4565b5b90600052602060002090600c020160080181905550836002888154811061065657610655614ce4565b5b90600052602060002090600c02016007015461067291906149cd565b6002888154811061068657610685614ce4565b5b90600052602060002090600c0201600701819055507fe3a6b824a5dcd9cc376de3c8eddd6aef4d82cce288e42272e2b874fa54f2d51a878260028a815481106106d2576106d1614ce4565b5b90600052602060002090600c0201600301886040516106f49493929190614811565b60405180910390a1600287815481106107105761070f614ce4565b5b90600052602060002090600c0201600601546002888154811061073657610735614ce4565b5b90600052602060002090600c020160070154106107575761075687612989565b5b50505050505050565b6060600460008373ffffffffffffffffffffffffffffffffffffffff1673ffffffffffffffffffffffffffffffffffffffff1681526020019081526020016000208054806020026020016040519081016040528092919081815260200182805480156107eb57602002820191906000526020600020905b8154815260200190600101908083116107d7575b50505050509050919050565b60006002828154811061080d5761080c614ce4565b5b90600052602060002090600c0201600701549050919050565b73e592427a0aece92de3edee1f18e0157c0586156481565b606060036000838152602001908152602001600020805480602002602001604051908101604052809291908181526020016000905b8282101561091f57838290600052602060002001805461089290614bda565b80601f01602080910402602001604051908101604052809291908181526020018280546108be90614bda565b801561090b5780601f106108e05761010080835404028352916020019161090b565b820191906000526020600020905b8154815290600101906020018083116108ee57829003601f168201915b505050505081526020019060010190610873565b505050509050919050565b60606002805480602002602001604051908101604052809291908181526020016000905b82821015610d1857838290600052602060002090600c0201604051806101a00160405290816000820154815260200160018201805461098c90614bda565b80601f01602080910402602001604051908101604052809291908181526020018280546109b890614bda565b8015610a055780601f106109da57610100808354040283529160200191610a05565b820191906000526020600020905b8154815290600101906020018083116109e857829003601f168201915b50505050508152602001600282018054610a1e90614bda565b80601f0160208091040260200160405190810160405280929190818152602001828054610a4a90614bda565b8015610a975780601f10610a6c57610100808354040283529160200191610a97565b820191906000526020600020905b815481529060010190602001808311610a7a57829003601f168201915b50505050508152602001600382018054610ab090614bda565b80601f0160208091040260200160405190810160405280929190818152602001828054610adc90614bda565b8015610b295780601f10610afe57610100808354040283529160200191610b29565b820191906000526020600020905b815481529060010190602001808311610b0c57829003601f168201915b50505050508152602001600482018054610b4290614bda565b80601f0160208091040260200160405190810160405280929190818152602001828054610b6e90614bda565b8015610bbb5780601f10610b9057610100808354040283529160200191610bbb565b820191906000526020600020905b815481529060010190602001808311610b9e57829003601f168201915b505050505081526020016005820160009054906101000a900473ffffffffffffffffffffffffffffffffffffffff1673ffffffffffffffffffffffffffffffffffffffff1673ffffffffffffffffffffffffffffffffffffffff1681526020016006820154815260200160078201548152602001600882015481526020016009820160009054906101000a900473ffffffffffffffffffffffffffffffffffffffff1673ffffffffffffffffffffffffffffffffffffffff1673ffffffffffffffffffffffffffffffffffffffff168152602001600a820160009054906101000a900473ffffffffffffffffffffffffffffffffffffffff1673ffffffffffffffffffffffffffffffffffffffff1673ffffffffffffffffffffffffffffffffffffffff168152602001600a820160149054906101000a900460ff16151515158152602001600b820154815250508152602001906001019061094e565b50505050905090565b846001151560028281548110610d3a57610d39614ce4565b5b90600052602060002090600c0201600a0160149054906101000a900460ff16151514610d9b576040517f08c379a0000000000000000000000000000000000000000000000000000000008152600401610d92906145a8565b60405180910390fd5b4260028281548110610db057610daf614ce4565b5b90600052602060002090600c0201600b015411610e02576040517f08c379a0000000000000000000000000000000000000000000000000000000008152600401610df990614628565b60405180910390fd5b853273ffffffffffffffffffffffffffffffffffffffff1660028281548110610e2e57610e2d614ce4565b5b90600052602060002090600c0201600a0160009054906101000a900473ffffffffffffffffffffffffffffffffffffffff1673ffffffffffffffffffffffffffffffffffffffff1614610eb6576040517f08c379a0000000000000000000000000000000000000000000000000000000008152600401610ead906145e8565b60405180910390fd5b8560028881548110610ecb57610eca614ce4565b5b90600052602060002090600c02016001019080519060200190610eef92919061353e565b508460028881548110610f0557610f04614ce4565b5b90600052602060002090600c02016002019080519060200190610f2992919061353e565b508360028881548110610f3f57610f3e614ce4565b5b90600052602060002090600c02016003019080519060200190610f6392919061353e565b508260028881548110610f7957610f78614ce4565b5b90600052602060002090600c02016004019080519060200190610f9d92919061353e565b5050505050505050565b73b27308f9f90d607463bb33ea1bebb41c27ce5ab681565b846001151560028281548110610fd857610fd7614ce4565b5b90600052602060002090600c0201600a0160149054906101000a900460ff16151514611039576040517f08c379a0000000000000000000000000000000000000000000000000000000008152600401611030906145a8565b60405180910390fd5b426002828154811061104e5761104d614ce4565b5b90600052602060002090600c0201600b0154116110a0576040517f08c379a000000000000000000000000000000000000000000000000000000000815260040161109790614628565b60405180910390fd5b600082116110e3576040517f08c379a00000000000000000000000000000000000000000000000000000000081526004016110da90614568565b60405180910390fd5b60008311611126576040517f08c379a000000000000000000000000000000000000000000000000000000000815260040161111d90614568565b60405180910390fd5b6002868154811061113a57611139614ce4565b5b90600052602060002090600c020160060154600b6111589190614a23565b600a846002898154811061116f5761116e614ce4565b5b90600052602060002090600c02016007015461118b91906149cd565b6111959190614a23565b106111d5576040517f08c379a00000000000000000000000000000000000000000000000000000000081526004016111cc906144a8565b60405180910390fd5b600061122885600289815481106111ef576111ee614ce4565b5b90600052602060002090600c020160050160009054906101000a900473ffffffffffffffffffffffffffffffffffffffff168686612ec8565b9050600360008881526020019081526020016000208690806001815401808255809150506001900390600052602060002001600090919091909150908051906020019061127692919061353e565b50600460003273ffffffffffffffffffffffffffffffffffffffff1673ffffffffffffffffffffffffffffffffffffffff16815260200190815260200160002087908060018154018082558091505060019003906000526020600020016000909190919091505583600288815481106112f2576112f1614ce4565b5b90600052602060002090600c02016007015461130e91906149cd565b6002888154811061132257611321614ce4565b5b90600052602060002090600c0201600701819055507fe3a6b824a5dcd9cc376de3c8eddd6aef4d82cce288e42272e2b874fa54f2d51a878260028a8154811061136e5761136d614ce4565b5b90600052602060002090600c0201600301886040516113909493929190614811565b60405180910390a1600287815481106113ac576113ab614ce4565b5b90600052602060002090600c020160060154600288815481106113d2576113d1614ce4565b5b90600052602060002090600c020160070154106113f3576113f287612989565b5b50505050505050565b80600115156002828154811061141557611414614ce4565b5b90600052602060002090600c0201600a0160149054906101000a900460ff16151514611476576040517f08c379a000000000000000000000000000000000000000000000000000000000815260040161146d906145a8565b60405180910390fd5b426002828154811061148b5761148a614ce4565b5b90600052602060002090600c0201600b0154116114dd576040517f08c379a00000000000000000000000000000000000000000000000000000000081526004016114d490614628565b60405180910390fd5b813273ffffffffffffffffffffffffffffffffffffffff166002828154811061150957611508614ce4565b5b90600052602060002090600c0201600a0160009054906101000a900473ffffffffffffffffffffffffffffffffffffffff1673ffffffffffffffffffffffffffffffffffffffff1614611591576040517f08c379a0000000000000000000000000000000000000000000000000000000008152600401611588906145e8565b60405180910390fd5b6000600284815481106115a7576115a6614ce4565b5b90600052602060002090600c02016007015411156115cd576115c883612989565b61165a565b7fbc6fdcbbc64181fa5b0a580ffa8643761277b5ab073214c08cce86c7317bf40083600060036000878152602001908152602001600020604051611613939291906146db565b60405180910390a160006002848154811061163157611630614ce4565b5b90600052602060002090600c0201600a0160146101000a81548160ff0219169083151502179055505b505050565b600082116116a2576040517f08c379a0000000000000000000000000000000000000000000000000000000008152600401611699906145c8565b60405180910390fd5b4284116116e4576040517f08c379a00000000000000000000000000000000000000000000000000000000081526004016116db90614608565b60405180910390fd5b6002604051806101a0016040528060015481526020018a81526020018981526020018881526020018781526020018573ffffffffffffffffffffffffffffffffffffffff16815260200184815260200160008152602001600081526020018373ffffffffffffffffffffffffffffffffffffffff1681526020013273ffffffffffffffffffffffffffffffffffffffff1681526020016001151581526020018681525090806001815401808255809150506001900390600052602060002090600c02016000909190919091506000820151816000015560208201518160010190805190602001906117d692919061353e565b5060408201518160020190805190602001906117f392919061353e565b50606082015181600301908051906020019061181092919061353e565b50608082015181600401908051906020019061182d92919061353e565b5060a08201518160050160006101000a81548173ffffffffffffffffffffffffffffffffffffffff021916908373ffffffffffffffffffffffffffffffffffffffff16021790555060c0820151816006015560e0820151816007015561010082015181600801556101208201518160090160006101000a81548173ffffffffffffffffffffffffffffffffffffffff021916908373ffffffffffffffffffffffffffffffffffffffff16021790555061014082015181600a0160006101000a81548173ffffffffffffffffffffffffffffffffffffffff021916908373ffffffffffffffffffffffffffffffffffffffff16021790555061016082015181600a0160146101000a81548160ff02191690831515021790555061018082015181600b015550507fbc0a5edd152fa5b886dcae82c5c109d113708653b4b9c0224549ccdf715af94e60015460405161198391906146c0565b60405180910390a16001600081548092919061199e90614c3d565b91905055505050505050505050565b8160011515600282815481106119c6576119c5614ce4565b5b90600052602060002090600c0201600a0160149054906101000a900460ff16151514611a27576040517f08c379a0000000000000000000000000000000000000000000000000000000008152600401611a1e906145a8565b60405180910390fd5b4260028281548110611a3c57611a3b614ce4565b5b90600052602060002090600c0201600b015411611a8e576040517f08c379a0000000000000000000000000000000000000000000000000000000008152600401611a8590614628565b60405180910390fd5b823273ffffffffffffffffffffffffffffffffffffffff1660028281548110611aba57611ab9614ce4565b5b90600052602060002090600c0201600a0160009054906101000a900473ffffffffffffffffffffffffffffffffffffffff1673ffffffffffffffffffffffffffffffffffffffff161415611b43576040517f08c379a0000000000000000000000000000000000000000000000000000000008152600401611b3a90614508565b60405180910390fd5b833273ffffffffffffffffffffffffffffffffffffffff1660028281548110611b6f57611b6e614ce4565b5b90600052602060002090600c020160090160009054906101000a900473ffffffffffffffffffffffffffffffffffffffff1673ffffffffffffffffffffffffffffffffffffffff161415611bf8576040517f08c379a0000000000000000000000000000000000000000000000000000000008152600401611bef906144e8565b60405180910390fd5b843073ffffffffffffffffffffffffffffffffffffffff1660028281548110611c2457611c23614ce4565b5b90600052602060002090600c020160050160009054906101000a900473ffffffffffffffffffffffffffffffffffffffff1673ffffffffffffffffffffffffffffffffffffffff1614611cac576040517f08c379a0000000000000000000000000000000000000000000000000000000008152600401611ca3906144c8565b60405180910390fd5b60003411611cef576040517f08c379a0000000000000000000000000000000000000000000000000000000008152600401611ce690614468565b60405180910390fd5b60028681548110611d0357611d02614ce4565b5b90600052602060002090600c020160060154600b611d219190614a23565b600a3460028981548110611d3857611d37614ce4565b5b90600052602060002090600c020160070154611d5491906149cd565b611d5e9190614a23565b10611d9e576040517f08c379a0000000000000000000000000000000000000000000000000000000008152600401611d95906144a8565b60405180910390fd5b600060028781548110611db457611db3614ce4565b5b90600052602060002090600c02016007015490506003600088815260200190815260200160002086908060018154018082558091505060019003906000526020600020016000909190919091509080519060200190611e1492919061353e565b50600460003273ffffffffffffffffffffffffffffffffffffffff1673ffffffffffffffffffffffffffffffffffffffff1681526020019081526020016000208790806001815401808255809150506001900390600052602060002001600090919091909150553460028881548110611e9057611e8f614ce4565b5b90600052602060002090600c020160070154611eac91906149cd565b60028881548110611ec057611ebf614ce4565b5b90600052602060002090600c0201600701819055507fe3a6b824a5dcd9cc376de3c8eddd6aef4d82cce288e42272e2b874fa54f2d51a873460028a81548110611f0c57611f0b614ce4565b5b90600052602060002090600c020160030130604051611f2e9493929190614811565b60405180910390a160008114156120525760028781548110611f5357611f52614ce4565b5b90600052602060002090600c02016006015460028881548110611f7957611f78614ce4565b5b90600052602060002090600c02016007015410611ff1577f3b7e7e43da4efbcdd1006b7dd791491eeeae82429c2793a71b72b08ef743eb338760028981548110611fc657611fc5614ce4565b5b90600052602060002090600c02016004016002604051611fe893929190614795565b60405180910390a15b7f3b7e7e43da4efbcdd1006b7dd791491eeeae82429c2793a71b72b08ef743eb33876002898154811061202757612026614ce4565b5b90600052602060002090600c0201600401600060405161204993929190614719565b60405180910390a15b6002878154811061206657612065614ce4565b5b90600052602060002090600c0201600601546002888154811061208c5761208b614ce4565b5b90600052602060002090600c02016007015410612116576120ac87612989565b60008114612115577f3b7e7e43da4efbcdd1006b7dd791491eeeae82429c2793a71b72b08ef743eb3387600289815481106120ea576120e9614ce4565b5b90600052602060002090600c0201600401600160405161210c93929190614757565b60405180910390a15b5b50505050505050565b81600115156002828154811061213857612137614ce4565b5b90600052602060002090600c0201600a0160149054906101000a900460ff16151514612199576040517f08c379a0000000000000000000000000000000000000000000000000000000008152600401612190906145a8565b60405180910390fd5b42600282815481106121ae576121ad614ce4565b5b90600052602060002090600c0201600b015411612200576040517f08c379a00000000000000000000000000000000000000000000000000000000081526004016121f790614628565b60405180910390fd5b60003411612243576040517f08c379a000000000000000000000000000000000000000000000000000000000815260040161223a90614468565b60405180910390fd5b60006122936002858154811061225c5761225b614ce4565b5b90600052602060002090600c020160050160009054906101000a900473ffffffffffffffffffffffffffffffffffffffff1661331f565b9050600284815481106122a9576122a8614ce4565b5b90600052602060002090600c020160060154600b6122c79190614a23565b600a82600287815481106122de576122dd614ce4565b5b90600052602060002090600c0201600701546122fa91906149cd565b6123049190614a23565b10612344576040517f08c379a000000000000000000000000000000000000000000000000000000000815260040161233b906144a8565b60405180910390fd5b600360008581526020019081526020016000208390806001815401808255809150506001900390600052602060002001600090919091909150908051906020019061239092919061353e565b50600460003273ffffffffffffffffffffffffffffffffffffffff1673ffffffffffffffffffffffffffffffffffffffff168152602001908152602001600020849080600181540180825580915050600190039060005260206000200160009091909190915055806002858154811061240c5761240b614ce4565b5b90600052602060002090600c02016007015461242891906149cd565b6002858154811061243c5761243b614ce4565b5b90600052602060002090600c0201600701819055507fe3a6b824a5dcd9cc376de3c8eddd6aef4d82cce288e42272e2b874fa54f2d51a84346002878154811061248857612487614ce4565b5b90600052602060002090600c0201600301306040516124aa9493929190614811565b60405180910390a1600284815481106124c6576124c5614ce4565b5b90600052602060002090600c020160060154600285815481106124ec576124eb614ce4565b5b90600052602060002090600c0201600701541061250d5761250c84612989565b5b50505050565b6000808473ffffffffffffffffffffffffffffffffffffffff1663dd62ed3e33306040518363ffffffff1660e01b8152600401612551929190614343565b60206040518083038186803b15801561256957600080fd5b505afa15801561257d573d6000803e3d6000fd5b505050506040513d601f19601f820116820180604052508101906125a19190613867565b9050828110156125e6576040517f08c379a00000000000000000000000000000000000000000000000000000000081526004016125dd90614528565b60405180910390fd5b8473ffffffffffffffffffffffffffffffffffffffff166323b872dd3330866040518463ffffffff1660e01b81526004016126239392919061436c565b602060405180830381600087803b15801561263d57600080fd5b505af1158015612651573d6000803e3d6000fd5b505050506040513d601f19601f8201168201806040525081019061267591906136e7565b506000600f4261268591906149cd565b90506000869050600073c02aaa39b223fe8d0a0e5c4f27ead9083c756cc290506000610bb89050600030905060008a73ffffffffffffffffffffffffffffffffffffffff1663095ea7b373e592427a0aece92de3edee1f18e0157c058615648b6040518363ffffffff1660e01b81526004016127029291906143a3565b602060405180830381600087803b15801561271c57600080fd5b505af1158015612730573d6000803e3d6000fd5b505050506040513d601f19601f8201168201806040525081019061275491906136e7565b5060006040518061010001604052808773ffffffffffffffffffffffffffffffffffffffff1681526020018673ffffffffffffffffffffffffffffffffffffffff1681526020018562ffffff1681526020018473ffffffffffffffffffffffffffffffffffffffff1681526020018881526020018c81526020018b81526020018373ffffffffffffffffffffffffffffffffffffffff168152509050600073e592427a0aece92de3edee1f18e0157c0586156473ffffffffffffffffffffffffffffffffffffffff1663db3e2198836040518263ffffffff1660e01b815260040161283f91906146a4565b602060405180830381600087803b15801561285957600080fd5b505af115801561286d573d6000803e3d6000fd5b505050506040513d601f19601f820116820180604052508101906128919190613867565b90506000818c6128a19190614a7d565b905060008e73ffffffffffffffffffffffffffffffffffffffff1663a9059cbb33846040518363ffffffff1660e01b81526004016128e09291906143a3565b602060405180830381600087803b1580156128fa57600080fd5b505af115801561290e573d6000803e3d6000fd5b505050506040513d601f19601f8201168201806040525081019061293291906136e7565b905080612974576040517f08c379a000000000000000000000000000000000000000000000000000000000815260040161296b90614668565b60405180910390fd5b829b5050505050505050505050509392505050565b7fbc6fdcbbc64181fa5b0a580ffa8643761277b5ab073214c08cce86c7317bf40081600283815481106129bf576129be614ce4565b5b90600052602060002090600c020160070154600360008581526020019081526020016000206040516129f3939291906147d3565b60405180910390a13073ffffffffffffffffffffffffffffffffffffffff1660028281548110612a2657612a25614ce4565b5b90600052602060002090600c020160050160009054906101000a900473ffffffffffffffffffffffffffffffffffffffff1673ffffffffffffffffffffffffffffffffffffffff161415612d4a57600060028281548110612a8a57612a89614ce4565b5b90600052602060002090600c0201600801541115612c935760028181548110612ab657612ab5614ce4565b5b90600052602060002090600c020160090160009054906101000a900473ffffffffffffffffffffffffffffffffffffffff1673ffffffffffffffffffffffffffffffffffffffff166108fc60028381548110612b1557612b14614ce4565b5b90600052602060002090600c02016008015460028481548110612b3b57612b3a614ce4565b5b90600052602060002090600c020160070154612b579190614a7d565b9081150290604051600060405180830381858888f19350505050158015612b82573d6000803e3d6000fd5b50600073c02aaa39b223fe8d0a0e5c4f27ead9083c756cc273ffffffffffffffffffffffffffffffffffffffff1663a9059cbb3360028581548110612bca57612bc9614ce4565b5b90600052602060002090600c0201600801546040518363ffffffff1660e01b8152600401612bf99291906143a3565b602060405180830381600087803b158015612c1357600080fd5b505af1158015612c27573d6000803e3d6000fd5b505050506040513d601f19601f82011682018060405250810190612c4b91906136e7565b905080612c8d576040517f08c379a0000000000000000000000000000000000000000000000000000000008152600401612c8490614588565b60405180910390fd5b50612d45565b60028181548110612ca757612ca6614ce4565b5b90600052602060002090600c020160090160009054906101000a900473ffffffffffffffffffffffffffffffffffffffff1673ffffffffffffffffffffffffffffffffffffffff166108fc60028381548110612d0657612d05614ce4565b5b90600052602060002090600c0201600701549081150290604051600060405180830381858888f19350505050158015612d43573d6000803e3d6000fd5b505b612e87565b600060028281548110612d6057612d5f614ce4565b5b90600052602060002090600c020160050160009054906101000a900473ffffffffffffffffffffffffffffffffffffffff1673ffffffffffffffffffffffffffffffffffffffff1663a9059cbb3360028581548110612dc257612dc1614ce4565b5b90600052602060002090600c0201600701546040518363ffffffff1660e01b8152600401612df19291906143a3565b602060405180830381600087803b158015612e0b57600080fd5b505af1158015612e1f573d6000803e3d6000fd5b505050506040513d601f19601f82011682018060405250810190612e4391906136e7565b905080612e85576040517f08c379a0000000000000000000000000000000000000000000000000000000008152600401612e7c90614548565b60405180910390fd5b505b600060028281548110612e9d57612e9c614ce4565b5b90600052602060002090600c0201600a0160146101000a81548160ff02191690831515021790555050565b6000808573ffffffffffffffffffffffffffffffffffffffff1663dd62ed3e33306040518363ffffffff1660e01b8152600401612f06929190614343565b60206040518083038186803b158015612f1e57600080fd5b505afa158015612f32573d6000803e3d6000fd5b505050506040513d601f19601f82011682018060405250810190612f569190613867565b905082811015612f9b576040517f08c379a0000000000000000000000000000000000000000000000000000000008152600401612f9290614528565b60405180910390fd5b8573ffffffffffffffffffffffffffffffffffffffff166323b872dd3330866040518463ffffffff1660e01b8152600401612fd89392919061436c565b602060405180830381600087803b158015612ff257600080fd5b505af1158015613006573d6000803e3d6000fd5b505050506040513d601f19601f8201168201806040525081019061302a91906136e7565b506000600f4261303a91906149cd565b90506000610bb89050600030905060008973ffffffffffffffffffffffffffffffffffffffff1663095ea7b373e592427a0aece92de3edee1f18e0157c05861564896040518363ffffffff1660e01b81526004016130999291906143a3565b602060405180830381600087803b1580156130b357600080fd5b505af11580156130c7573d6000803e3d6000fd5b505050506040513d601f19601f820116820180604052508101906130eb91906136e7565b5060006040518061010001604052808c73ffffffffffffffffffffffffffffffffffffffff1681526020018b73ffffffffffffffffffffffffffffffffffffffff1681526020018562ffffff1681526020018473ffffffffffffffffffffffffffffffffffffffff1681526020018681526020018a81526020018981526020018373ffffffffffffffffffffffffffffffffffffffff168152509050600073e592427a0aece92de3edee1f18e0157c0586156473ffffffffffffffffffffffffffffffffffffffff1663db3e2198836040518263ffffffff1660e01b81526004016131d691906146a4565b602060405180830381600087803b1580156131f057600080fd5b505af1158015613204573d6000803e3d6000fd5b505050506040513d601f19601f820116820180604052508101906132289190613867565b90506000818a6132389190614a7d565b905060008d73ffffffffffffffffffffffffffffffffffffffff1663a9059cbb33846040518363ffffffff1660e01b81526004016132779291906143a3565b602060405180830381600087803b15801561329157600080fd5b505af11580156132a5573d6000803e3d6000fd5b505050506040513d601f19601f820116820180604052508101906132c991906136e7565b90508061330b576040517f08c379a000000000000000000000000000000000000000000000000000000000815260040161330290614668565b60405180910390fd5b829950505050505050505050949350505050565b6000803411613363576040517f08c379a000000000000000000000000000000000000000000000000000000000815260040161335a90614648565b60405180910390fd5b6000600f4261337291906149cd565b9050600073c02aaa39b223fe8d0a0e5c4f27ead9083c756cc2905060008490506000610bb89050600030905060003490506000600190506000806040518061010001604052808973ffffffffffffffffffffffffffffffffffffffff1681526020018873ffffffffffffffffffffffffffffffffffffffff1681526020018762ffffff1681526020018673ffffffffffffffffffffffffffffffffffffffff1681526020018a81526020018581526020018481526020018373ffffffffffffffffffffffffffffffffffffffff168152509050600073e592427a0aece92de3edee1f18e0157c0586156473ffffffffffffffffffffffffffffffffffffffff1663414bf38934846040518363ffffffff1660e01b81526004016134959190614688565b6020604051808303818588803b1580156134ae57600080fd5b505af11580156134c2573d6000803e3d6000fd5b50505050506040513d601f19601f820116820180604052508101906134e79190613867565b90506000811161352c576040517f08c379a000000000000000000000000000000000000000000000000000000000815260040161352390614488565b60405180910390fd5b809a5050505050505050505050919050565b82805461354a90614bda565b90600052602060002090601f01602090048101928261356c57600085556135b3565b82601f1061358557805160ff19168380011785556135b3565b828001600101855582156135b3579182015b828111156135b2578251825591602001919060010190613597565b5b5090506135c091906135c4565b5090565b5b808211156135dd5760008160009055506001016135c5565b5090565b60006135f46135ef84614882565b61485d565b9050828152602081018484840111156136105761360f614d47565b5b61361b848285614b98565b509392505050565b600081359050613632816150de565b92915050565b600081359050613647816150f5565b92915050565b60008151905061365c8161510c565b92915050565b600082601f83011261367757613676614d42565b5b81356136878482602086016135e1565b91505092915050565b60008135905061369f81615123565b92915050565b6000815190506136b481615123565b92915050565b6000602082840312156136d0576136cf614d51565b5b60006136de84828501613623565b91505092915050565b6000602082840312156136fd576136fc614d51565b5b600061370b8482850161364d565b91505092915050565b600080600080600080600080610100898b03121561373557613734614d51565b5b600089013567ffffffffffffffff81111561375357613752614d4c565b5b61375f8b828c01613662565b985050602089013567ffffffffffffffff8111156137805761377f614d4c565b5b61378c8b828c01613662565b975050604089013567ffffffffffffffff8111156137ad576137ac614d4c565b5b6137b98b828c01613662565b965050606089013567ffffffffffffffff8111156137da576137d9614d4c565b5b6137e68b828c01613662565b95505060806137f78b828c01613690565b94505060a06138088b828c01613623565b93505060c06138198b828c01613690565b92505060e061382a8b828c01613638565b9150509295985092959890939650565b6000602082840312156138505761384f614d51565b5b600061385e84828501613690565b91505092915050565b60006020828403121561387d5761387c614d51565b5b600061388b848285016136a5565b91505092915050565b600080604083850312156138ab576138aa614d51565b5b60006138b985828601613690565b925050602083013567ffffffffffffffff8111156138da576138d9614d4c565b5b6138e685828601613662565b9150509250929050565b600080600080600060a0868803121561390c5761390b614d51565b5b600061391a88828901613690565b955050602086013567ffffffffffffffff81111561393b5761393a614d4c565b5b61394788828901613662565b945050604061395888828901613623565b935050606061396988828901613690565b925050608061397a88828901613690565b9150509295509295909350565b600080600080600060a086880312156139a3576139a2614d51565b5b60006139b188828901613690565b955050602086013567ffffffffffffffff8111156139d2576139d1614d4c565b5b6139de88828901613662565b945050604086013567ffffffffffffffff8111156139ff576139fe614d4c565b5b613a0b88828901613662565b935050606086013567ffffffffffffffff811115613a2c57613a2b614d4c565b5b613a3888828901613662565b925050608086013567ffffffffffffffff811115613a5957613a58614d4c565b5b613a6588828901613662565b9150509295509295909350565b6000613a7e8383613d09565b905092915050565b6000613a928383613d42565b905092915050565b6000613aa68383614095565b905092915050565b6000613aba8383614325565b60208301905092915050565b613acf81614ac3565b82525050565b613ade81614ab1565b82525050565b613aed81614ab1565b82525050565b6000613afe8261490d565b613b088185614978565b935083602082028501613b1a856148b3565b8060005b85811015613b565784840389528151613b378582613a72565b9450613b4283614944565b925060208a01995050600181019050613b1e565b50829750879550505050505092915050565b6000613b7382614918565b613b7d8185614978565b935083602082028501613b8f856148c3565b8060005b85811015613bca57848403895281613bab8582613a86565b9450613bb683614951565b925060208a01995050600181019050613b93565b50829750879550505050505092915050565b6000613be782614923565b613bf18185614989565b935083602082028501613c03856148d8565b8060005b85811015613c3f5784840389528151613c208582613a9a565b9450613c2b8361495e565b925060208a01995050600181019050613c07565b50829750879550505050505092915050565b6000613c5c8261492e565b613c66818561499a565b9350613c71836148e8565b8060005b83811015613ca2578151613c898882613aae565b9750613c948361496b565b925050600181019050613c75565b5085935050505092915050565b613cb881614ad5565b82525050565b613cc781614b1a565b82525050565b613cd681614b3e565b82525050565b613ce581614b62565b82525050565b613cf481614b74565b82525050565b613d0381614b86565b82525050565b6000613d1482614939565b613d1e81856149ab565b9350613d2e818560208601614ba7565b613d3781614d56565b840191505092915050565b60008154613d4f81614bda565b613d5981866149ab565b94506001821660008114613d745760018114613d8657613db9565b60ff1983168652602086019350613db9565b613d8f856148f8565b60005b83811015613db157815481890152600182019150602081019050613d92565b808801955050505b50505092915050565b60008154613dcf81614bda565b613dd981866149bc565b94506001821660008114613df45760018114613e0657613e39565b60ff1983168652602086019350613e39565b613e0f856148f8565b60005b83811015613e3157815481890152600182019150602081019050613e12565b808801955050505b50505092915050565b6000613e4f601e836149bc565b9150613e5a82614d67565b602082019050919050565b6000613e726012836149bc565b9150613e7d82614d90565b602082019050919050565b6000613e956015836149bc565b9150613ea082614db9565b602082019050919050565b6000613eb86018836149bc565b9150613ec382614de2565b602082019050919050565b6000613edb602b836149bc565b9150613ee682614e0b565b604082019050919050565b6000613efe6028836149bc565b9150613f0982614e5a565b604082019050919050565b6000613f216019836149bc565b9150613f2c82614ea9565b602082019050919050565b6000613f446018836149bc565b9150613f4f82614ed2565b602082019050919050565b6000613f676024836149bc565b9150613f7282614efb565b604082019050919050565b6000613f8a601d836149bc565b9150613f9582614f4a565b602082019050919050565b6000613fad6015836149bc565b9150613fb882614f73565b602082019050919050565b6000613fd0602c836149bc565b9150613fdb82614f9c565b604082019050919050565b6000613ff36027836149bc565b9150613ffe82614feb565b604082019050919050565b6000614016601f836149bc565b91506140218261503a565b602082019050919050565b60006140396019836149bc565b915061404482615063565b602082019050919050565b600061405c601a836149bc565b91506140678261508c565b602082019050919050565b600061407f600d836149bc565b915061408a826150b5565b602082019050919050565b60006101a0830160008301516140ae6000860182614325565b50602083015184820360208601526140c68282613d09565b915050604083015184820360408601526140e08282613d09565b915050606083015184820360608601526140fa8282613d09565b915050608083015184820360808601526141148282613d09565b91505060a083015161412960a0860182613ad5565b5060c083015161413c60c0860182614325565b5060e083015161414f60e0860182614325565b50610100830151614164610100860182614325565b50610120830151614179610120860182613ac6565b5061014083015161418e610140860182613ad5565b506101608301516141a3610160860182613caf565b506101808301516141b8610180860182614325565b508091505092915050565b610100820160008201516141da6000850182613ad5565b5060208201516141ed6020850182613ad5565b5060408201516142006040850182614316565b5060608201516142136060850182613ad5565b5060808201516142266080850182614325565b5060a082015161423960a0850182614325565b5060c082015161424c60c0850182614325565b5060e082015161425f60e0850182614307565b50505050565b6101008201600082015161427c6000850182613ad5565b50602082015161428f6020850182613ad5565b5060408201516142a26040850182614316565b5060608201516142b56060850182613ad5565b5060808201516142c86080850182614325565b5060a08201516142db60a0850182614325565b5060c08201516142ee60c0850182614325565b5060e082015161430160e0850182614307565b50505050565b61431081614ae1565b82525050565b61431f81614b01565b82525050565b61432e81614b10565b82525050565b61433d81614b10565b82525050565b60006040820190506143586000830185613ae4565b6143656020830184613ae4565b9392505050565b60006060820190506143816000830186613ae4565b61438e6020830185613ae4565b61439b6040830184614334565b949350505050565b60006040820190506143b86000830185613ae4565b6143c56020830184614334565b9392505050565b600060208201905081810360008301526143e68184613af3565b905092915050565b600060208201905081810360008301526144088184613bdc565b905092915050565b6000602082019050818103600083015261442a8184613c51565b905092915050565b60006020820190506144476000830184613cbe565b92915050565b60006020820190506144626000830184613ccd565b92915050565b6000602082019050818103600083015261448181613e42565b9050919050565b600060208201905081810360008301526144a181613e65565b9050919050565b600060208201905081810360008301526144c181613e88565b9050919050565b600060208201905081810360008301526144e181613eab565b9050919050565b6000602082019050818103600083015261450181613ece565b9050919050565b6000602082019050818103600083015261452181613ef1565b9050919050565b6000602082019050818103600083015261454181613f14565b9050919050565b6000602082019050818103600083015261456181613f37565b9050919050565b6000602082019050818103600083015261458181613f5a565b9050919050565b600060208201905081810360008301526145a181613f7d565b9050919050565b600060208201905081810360008301526145c181613fa0565b9050919050565b600060208201905081810360008301526145e181613fc3565b9050919050565b6000602082019050818103600083015261460181613fe6565b9050919050565b6000602082019050818103600083015261462181614009565b9050919050565b600060208201905081810360008301526146418161402c565b9050919050565b600060208201905081810360008301526146618161404f565b9050919050565b6000602082019050818103600083015261468181614072565b9050919050565b60006101008201905061469e60008301846141c3565b92915050565b6000610100820190506146ba6000830184614265565b92915050565b60006020820190506146d56000830184614334565b92915050565b60006060820190506146f06000830186614334565b6146fd6020830185613cdc565b818103604083015261470f8184613b68565b9050949350505050565b600060608201905061472e6000830186614334565b81810360208301526147408185613dc2565b905061474f6040830184613cdc565b949350505050565b600060608201905061476c6000830186614334565b818103602083015261477e8185613dc2565b905061478d6040830184613ceb565b949350505050565b60006060820190506147aa6000830186614334565b81810360208301526147bc8185613dc2565b90506147cb6040830184613cfa565b949350505050565b60006060820190506147e86000830186614334565b6147f56020830185614334565b81810360408301526148078184613b68565b9050949350505050565b60006080820190506148266000830187614334565b6148336020830186614334565b81810360408301526148458185613dc2565b90506148546060830184613ae4565b95945050505050565b6000614867614878565b90506148738282614c0c565b919050565b6000604051905090565b600067ffffffffffffffff82111561489d5761489c614d13565b5b6148a682614d56565b9050602081019050919050565b6000819050602082019050919050565b60008190508160005260206000209050919050565b6000819050602082019050919050565b6000819050602082019050919050565b60008190508160005260206000209050919050565b600081519050919050565b600081549050919050565b600081519050919050565b600081519050919050565b600081519050919050565b6000602082019050919050565b6000600182019050919050565b6000602082019050919050565b6000602082019050919050565b600082825260208201905092915050565b600082825260208201905092915050565b600082825260208201905092915050565b600082825260208201905092915050565b600082825260208201905092915050565b60006149d882614b10565b91506149e383614b10565b9250827fffffffffffffffffffffffffffffffffffffffffffffffffffffffffffffffff03821115614a1857614a17614c86565b5b828201905092915050565b6000614a2e82614b10565b9150614a3983614b10565b9250817fffffffffffffffffffffffffffffffffffffffffffffffffffffffffffffffff0483118215151615614a7257614a71614c86565b5b828202905092915050565b6000614a8882614b10565b9150614a9383614b10565b925082821015614aa657614aa5614c86565b5b828203905092915050565b6000614abc82614ae1565b9050919050565b6000614ace82614ae1565b9050919050565b60008115159050919050565b600073ffffffffffffffffffffffffffffffffffffffff82169050919050565b600062ffffff82169050919050565b6000819050919050565b6000614b2582614b2c565b9050919050565b6000614b3782614ae1565b9050919050565b6000614b4982614b50565b9050919050565b6000614b5b82614ae1565b9050919050565b6000614b6d82614b10565b9050919050565b6000614b7f82614b10565b9050919050565b6000614b9182614b10565b9050919050565b82818337600083830152505050565b60005b83811015614bc5578082015181840152602081019050614baa565b83811115614bd4576000848401525b50505050565b60006002820490506001821680614bf257607f821691505b60208210811415614c0657614c05614cb5565b5b50919050565b614c1582614d56565b810181811067ffffffffffffffff82111715614c3457614c33614d13565b5b80604052505050565b6000614c4882614b10565b91507fffffffffffffffffffffffffffffffffffffffffffffffffffffffffffffffff821415614c7b57614c7a614c86565b5b600182019050919050565b7f4e487b7100000000000000000000000000000000000000000000000000000000600052601160045260246000fd5b7f4e487b7100000000000000000000000000000000000000000000000000000000600052602260045260246000fd5b7f4e487b7100000000000000000000000000000000000000000000000000000000600052603260045260246000fd5b7f4e487b7100000000000000000000000000000000000000000000000000000000600052604160045260246000fd5b600080fd5b600080fd5b600080fd5b600080fd5b6000601f19601f8301169050919050565b7f646f6e6174696f6e206d757374206265206c6172676572207468616e20300000600082015250565b7f6e6f20746f6b656e732072656365697665640000000000000000000000000000600082015250565b7f54617267657420616d6f756e7420657863656465640000000000000000000000600082015250565b7f54686973206973206e6f74204554482063616d706169676e0000000000000000600082015250565b7f796f752063616e27742062652063616d706169676e2062656e65666163746f7260008201527f20746f20646f2074686973000000000000000000000000000000000000000000602082015250565b7f796f752063616e27742062652063616d706169676e2063726561746f7220746f60008201527f20646f2074686973000000000000000000000000000000000000000000000000602082015250565b7f436865636b2074686520746f6b656e20616c6c6f77616e636500000000000000600082015250565b7f7472616e73666572206f6620546f6b656e206661696c65640000000000000000600082015250565b7f746f6b656e20646f6e6174696f6e206d757374206265206c617267657220746860008201527f616e203000000000000000000000000000000000000000000000000000000000602082015250565b7f7472616e73666572206f66205765746820546f6b656e206661696c6564000000600082015250565b7f63616d7061696e67206861732066696e69736865640000000000000000000000600082015250565b7f63616d706169676e2074617267657420616d6f756e74206d757374206265206c60008201527f6172676572207468616e20300000000000000000000000000000000000000000602082015250565b7f796f75206d7573742062652063616d706169676e2063726561746f7220746f2060008201527f646f207468697300000000000000000000000000000000000000000000000000602082015250565b7f43616d706169676e206d75737420656e6420696e207468652066757475726500600082015250565b7f43616d706169676e20616c72656164792066696e697368656400000000000000600082015250565b7f4d7573742070617373206e6f6e20302045544820616d6f756e74000000000000600082015250565b7f726566756e64206661696c656400000000000000000000000000000000000000600082015250565b6150e781614ab1565b81146150f257600080fd5b50565b6150fe81614ac3565b811461510957600080fd5b50565b61511581614ad5565b811461512057600080fd5b50565b61512c81614b10565b811461513757600080fd5b5056fea2646970667358221220e994e761affd8bc9503961996f16c15d24af676d70c5b23e6f09189ae235530a64736f6c63430008060033",
  "immutableReferences": {},
  "source": "// SPDX-License-Identifier: MIT\npragma solidity >=0.7.6 <0.9.0;\npragma abicoder v2;\n\n// import \"https://github.com/Uniswap/uniswap-v3-periphery/blob/main/contracts/interfaces/ISwapRouter.sol\";\n// import \"https://github.com/Uniswap/uniswap-v3-periphery/blob/main/contracts/interfaces/IQuoter.sol\";\nimport \"@uniswap/v3-periphery/contracts/interfaces/ISwapRouter.sol\";\nimport \"@uniswap/v3-periphery/contracts/interfaces/IQuoter.sol\";\n\ninterface IUniswapRouter is ISwapRouter {\n    function refundETH() external payable;\n}\n\ninterface IERC20 {\n    function transferFrom(\n        address sender, \n        address recipient, \n        uint256 amount) \n        external \n        returns (bool);\n    function approve(address spender, uint tokens)  external returns (bool);\n    function totalSupply() external view returns (uint256);\n    function balanceOf(address account) external view returns (uint256);\n    function allowance(address owner, address spender) external view returns (uint256);\n\n    function transfer(address recipient, uint256 amount) external returns (bool);\n}\n\ninterface IUniswap {\n    function swapExactTokensForETH(\n        uint amountIn, \n        uint amountOutMin, \n        address[] calldata path, \n        address to, \n        uint deadline)\n        external\n        returns (uint[] memory amounts);\n    function WETH() external pure returns (address);\n}\n    \ncontract SupportChildren {\n    IUniswapRouter public constant uniswapRouter = IUniswapRouter(0xE592427A0AEce92De3Edee1F18E0157C05861564);\n    IQuoter public constant quoter = IQuoter(0xb27308f9F90D607463bb33eA1BeBb41C27CE5AB6);\n    address private constant multiDaiKovan = 0x6B175474E89094C44Da98b954EedeAC495271d0F;\n    address private constant WETH9 = 0xC02aaA39b223FE8D0A0e5C4F27eAD9083C756Cc2;\n  \n    event DonationMade (\n        uint campaignId,\n        uint donationAmount,\n        string notifyEmail,\n        address token\n    );\n\n    event CampaignCreated (\n        uint campaignId\n    );\n\n    event CampaignFinished (\n        uint campaignId,\n        uint currentAmount,\n        string[] notifyEmails\n    );\n\n    event CreateNFT (\n        uint campaignId,\n        string campaignImage,\n        uint nftType\n    );\n    \n    uint campaignIndex;\n    uint count;\n    \n    struct Campaign {\n        uint id;\n        string name; \n        string description;\n        string creatorEmail; \n        string image; \n        address targetCurrency; \n        uint targetAmount;\n        uint currentAmount;\n        uint amountInWeth;\n        address payable beneficiaryAddress;\n        address creatorAddress;\n        bool active;\n        uint endTimestamp;\n    }\n    \n    Campaign[] campaigns;\n    \n    mapping(uint => string[]) campaignDonationsEmails;\n    mapping(address => uint[]) campaignDonors;\n    \n    modifier campaignCreator(uint _campaignId) {\n        require(campaigns[_campaignId].creatorAddress == tx.origin, \"you must be campaign creator to do this\");\n        _;\n    }\n    \n    modifier notCampaignCreator(uint _campaignId) {\n        require(campaigns[_campaignId].creatorAddress != tx.origin, \"you can't be campaign creator to do this\");\n        _;\n    }\n\n    modifier ethCampaign(uint _campaignId) {\n        require(campaigns[_campaignId].targetCurrency == address(this), \"This is not ETH campaign\");\n        _;\n    }\n\n    modifier notCampaignBenefactor(uint _campaignId) {\n        require(campaigns[_campaignId].beneficiaryAddress != tx.origin, \"you can't be campaign benefactor to do this\");\n        _;\n    }\n\n    modifier campaignActive(uint _campaignId) {\n        require(campaigns[_campaignId].active == true, \"campaing has finished\");\n        require(campaigns[_campaignId].endTimestamp > block.timestamp, \"Campaign already finished\");\n        _;\n    }\n\n    function createCampaign(string memory _name, string memory _description, string memory _creatorEmail, string memory _image, uint _endTimestamp, address _targetCurrency, uint _targetAmount, address payable _beneficiaryAddress) public {\n        require(_targetAmount > 0, \"campaign target amount must be larger than 0\");\n        require(_endTimestamp > block.timestamp, \"Campaign must end in the future\");\n        campaigns.push(Campaign({\n            id: count,\n            name: _name,\n            description: _description,\n            creatorEmail: _creatorEmail,\n            image: _image,\n            targetAmount: _targetAmount,\n            targetCurrency: _targetCurrency,\n            currentAmount: 0,\n            amountInWeth: 0,\n            beneficiaryAddress: _beneficiaryAddress,\n            creatorAddress: tx.origin,\n            active: true,\n            endTimestamp: _endTimestamp \n        }));\n\n        emit CampaignCreated(count);\n        \n        count++;\n    }\n\n    function endCampaign(uint _campaignId) public campaignActive(_campaignId) campaignCreator(_campaignId) {\n        if (campaigns[_campaignId].currentAmount > 0) {\n            finishCampaign(_campaignId);\n        } else {\n            emit CampaignFinished(_campaignId, 0, campaignDonationsEmails[_campaignId]);\n            campaigns[_campaignId].active = false;\n        }\n    }\n\n    function editCampaign(uint _campaignId, string memory _name, string memory _description, string memory _creatorEmail, string memory _image) public campaignActive(_campaignId) campaignCreator(_campaignId) {\n        campaigns[_campaignId].name = _name;\n        campaigns[_campaignId].description = _description;\n        campaigns[_campaignId].creatorEmail = _creatorEmail;\n        campaigns[_campaignId].image = _image;\n    }\n\n    function finishCampaign(uint _campaignId) private {\n        emit CampaignFinished(_campaignId, campaigns[_campaignId].currentAmount, campaignDonationsEmails[_campaignId]);\n        // Send collected value to the address of the child\n        if (campaigns[_campaignId].targetCurrency == address(this)) {\n            if (campaigns[_campaignId].amountInWeth > 0) {\n                campaigns[_campaignId].beneficiaryAddress.transfer(campaigns[_campaignId].currentAmount-campaigns[_campaignId].amountInWeth);\n                \n                (bool success) = IERC20(WETH9).transfer(msg.sender, campaigns[_campaignId].amountInWeth);\n                require(success, \"transfer of Weth Token failed\");\n            } else {\n                campaigns[_campaignId].beneficiaryAddress.transfer(campaigns[_campaignId].currentAmount);\n            }\n        } else {\n            (bool success) = IERC20(campaigns[_campaignId].targetCurrency).transfer(msg.sender, campaigns[_campaignId].currentAmount);\n            require(success, \"transfer of Token failed\");\n        }\n        campaigns[_campaignId].active = false;\n    }\n\n\n    // ETH to ETH\n    function donateEthToEthCampaign(uint _campaignId, string memory _donorEmail) payable public campaignActive(_campaignId) notCampaignCreator(_campaignId) notCampaignBenefactor(_campaignId) ethCampaign(_campaignId) {\n        require(msg.value > 0, \"donation must be larger than 0\");\n        // curentamount must be fetched from frontend\n        require((campaigns[_campaignId].currentAmount  + msg.value) * 10 < 11 * campaigns[_campaignId].targetAmount, \"Target amount exceded\");\n        uint initialCampaingAmount = campaigns[_campaignId].currentAmount;\n        campaignDonationsEmails[_campaignId].push(_donorEmail);\n        campaignDonors[tx.origin].push(_campaignId);\n        campaigns[_campaignId].currentAmount = campaigns[_campaignId].currentAmount  + msg.value;\n\n        emit DonationMade(_campaignId, msg.value, campaigns[_campaignId].creatorEmail, address(this));\n\n        if (initialCampaingAmount == 0) {\n            if (campaigns[_campaignId].currentAmount >= campaigns[_campaignId].targetAmount) {\n                emit CreateNFT(_campaignId, campaigns[_campaignId].image, 2);\n            }\n            emit CreateNFT(_campaignId, campaigns[_campaignId].image, 0);\n        }\n\n        if (campaigns[_campaignId].currentAmount >= campaigns[_campaignId].targetAmount) {\n            finishCampaign(_campaignId);\n            if (initialCampaingAmount != 0) {\n                emit CreateNFT(_campaignId, campaigns[_campaignId].image, 1);\n            }\n        }\n    }\n\n    // ETH to Token\n    function donateEthToTokenCampaign(uint _campaignId, string memory _donorEmail) payable public campaignActive(_campaignId) {\n        require(msg.value > 0, \"donation must be larger than 0\");\n\n        (uint256 tokensReceived) = convertExactEthToToken(campaigns[_campaignId].targetCurrency);\n        require((campaigns[_campaignId].currentAmount  + tokensReceived) * 10 < 11 * campaigns[_campaignId].targetAmount, \"Target amount exceded\");\n        \n        campaignDonationsEmails[_campaignId].push(_donorEmail);\n        campaignDonors[tx.origin].push(_campaignId);\n        campaigns[_campaignId].currentAmount = campaigns[_campaignId].currentAmount  + tokensReceived;\n\n        emit DonationMade(_campaignId, msg.value, campaigns[_campaignId].creatorEmail, address(this));\n\n        if (campaigns[_campaignId].currentAmount >= campaigns[_campaignId].targetAmount) {\n            finishCampaign(_campaignId);\n        }\n    }\n\n    // Token to ETH\n    function donateTokenToETHCampaign(uint _campaignId, string memory _donorEmail, address token, uint amountOut, uint amountInMax) public campaignActive(_campaignId) {\n        require(amountInMax > 0, \"token donation must be larger than 0\");\n        require(amountOut > 0, \"token donation must be larger than 0\");\n        require((campaigns[_campaignId].currentAmount  + amountOut) * 10 < 11 * campaigns[_campaignId].targetAmount, \"Target amount exceded\");\n        \n        (uint256 tokensSpent) = convertTokenToExactEth(token, amountOut, amountInMax);\n        campaignDonationsEmails[_campaignId].push(_donorEmail);\n        campaignDonors[tx.origin].push(_campaignId);\n        campaigns[_campaignId].amountInWeth = campaigns[_campaignId].amountInWeth + amountOut;\n        campaigns[_campaignId].currentAmount = campaigns[_campaignId].currentAmount + amountOut;\n        emit DonationMade(_campaignId, tokensSpent, campaigns[_campaignId].creatorEmail, token);\n\n        if (campaigns[_campaignId].currentAmount >= campaigns[_campaignId].targetAmount) {\n            finishCampaign(_campaignId);\n        }\n    }\n    \n    // Token to Token\n    function donateTokenToTokenCampaign(uint _campaignId, string memory _donorEmail, address tokenIn, uint amountOut, uint amountInMax) public campaignActive(_campaignId) {\n        require(amountInMax > 0, \"token donation must be larger than 0\");\n        require(amountOut > 0, \"token donation must be larger than 0\");\n        require((campaigns[_campaignId].currentAmount  + amountOut) * 10 < 11 * campaigns[_campaignId].targetAmount, \"Target amount exceded\");\n        (uint256 tokensSpent) = convertTokenToExactToken(tokenIn, campaigns[_campaignId].targetCurrency, amountOut, amountInMax);\n        campaignDonationsEmails[_campaignId].push(_donorEmail);\n        campaignDonors[tx.origin].push(_campaignId);\n        campaigns[_campaignId].currentAmount = campaigns[_campaignId].currentAmount + amountOut;\n        emit DonationMade(_campaignId, tokensSpent, campaigns[_campaignId].creatorEmail, tokenIn);\n\n        if (campaigns[_campaignId].currentAmount >= campaigns[_campaignId].targetAmount) {\n            finishCampaign(_campaignId);\n        }\n    }\n    \n    function getDonorEmails(uint _campaignId) view public returns (string[] memory) {\n        return campaignDonationsEmails[_campaignId];\n    }\n    \n    function getDonorsCampaingsList(address _donor) view public returns (uint[] memory) {\n        return campaignDonors[_donor];\n    }\n    \n    function getCampaigns() public view returns (Campaign[] memory) {\n        return campaigns;\n    }\n\n    function getCampaignAmount(uint _campaignId) public view returns (uint) {\n        return campaigns[_campaignId].currentAmount;\n    }\n\n    function convertExactEthToToken(address token) internal returns (uint256) {\n        require(msg.value > 0, \"Must pass non 0 ETH amount\");\n\n        uint256 deadline = block.timestamp + 15; // using 'now' for convenience, for mainnet pass deadline from frontend!\n        address tokenIn = WETH9;\n        address tokenOut = token;\n        uint24 fee = 3000;\n        address recipient = address(this);\n        uint256 amountIn = msg.value;\n        uint256 amountOutMinimum = 1;\n        uint160 sqrtPriceLimitX96 = 0;\n        \n        ISwapRouter.ExactInputSingleParams memory params = ISwapRouter.ExactInputSingleParams(\n            tokenIn,\n            tokenOut,\n            fee,\n            recipient,\n            deadline,\n            amountIn,\n            amountOutMinimum,\n            sqrtPriceLimitX96\n        );\n        \n        uint256 amountOfTokenReceived = uniswapRouter.exactInputSingle{ value: msg.value }(params);\n        require(amountOfTokenReceived > 0, \"no tokens received\");\n        return amountOfTokenReceived;\n    }\n    \n    function convertTokenToExactEth(address token, uint amountOut, uint amountInMaximum) internal returns (uint256) {\n        uint256 allowance = IERC20(token).allowance(msg.sender, address(this));\n        require(allowance >= amountInMaximum, \"Check the token allowance\");\n        IERC20(token).transferFrom(msg.sender, address(this), amountInMaximum);\n        uint256 deadline = block.timestamp + 15; // using 'now' for convenience, for mainnet pass deadline from frontend!\n        address tokenIn = token;\n        address tokenOut = WETH9;\n        uint24 fee = 3000;\n        address recipient = address(this);\n        uint160 sqrtPriceLimitX96 = 0;\n        IERC20(token).approve(address(uniswapRouter), amountInMaximum);\n        \n        ISwapRouter.ExactOutputSingleParams memory params = ISwapRouter.ExactOutputSingleParams(\n            tokenIn,\n            tokenOut,\n            fee,\n            recipient,\n            deadline,\n            amountOut,\n            amountInMaximum,\n            sqrtPriceLimitX96\n        );\n        \n        uint256 amountOfTokenUsed = uniswapRouter.exactOutputSingle(params);\n        uint256 remainderOfTokens = amountInMaximum-amountOfTokenUsed;\n        // refund leftover Tokens to user\n        (bool success) = IERC20(token).transfer(msg.sender, remainderOfTokens);\n        require(success, \"refund failed\");\n        \n        return amountOfTokenUsed;\n    }\n    \n    function convertTokenToExactToken(address tokenIn, address tokenOut, uint amountOut, uint amountInMaximum) internal returns (uint256) {\n        uint256 allowance = IERC20(tokenIn).allowance(msg.sender, address(this));\n        require(allowance >= amountInMaximum, \"Check the token allowance\");\n        IERC20(tokenIn).transferFrom(msg.sender, address(this), amountInMaximum);\n        uint256 deadline = block.timestamp + 15; // using 'now' for convenience, for mainnet pass deadline from frontend!\n        uint24 fee = 3000;\n        address recipient = address(this);\n        uint160 sqrtPriceLimitX96 = 0;\n        IERC20(tokenIn).approve(address(uniswapRouter), amountInMaximum);\n        \n        ISwapRouter.ExactOutputSingleParams memory params = ISwapRouter.ExactOutputSingleParams(\n            tokenIn,\n            tokenOut,\n            fee,\n            recipient,\n            deadline,\n            amountOut,\n            amountInMaximum,\n            sqrtPriceLimitX96\n        );\n        \n        uint256 amountOfTokenUsed = uniswapRouter.exactOutputSingle(params);\n        uint256 remainderOfTokens = amountInMaximum-amountOfTokenUsed;\n        \n        // refund leftover Tokens to user\n        (bool success) = IERC20(tokenIn).transfer(msg.sender, remainderOfTokens);\n        require(success, \"refund failed\");\n        \n        return amountOfTokenUsed;\n    }\n    \n    // do not used on-chain, gas inefficient!\n    function getEstimatedETHforDAI(uint daiAmount) internal returns (uint256) {\n        address tokenIn = WETH9;\n        address tokenOut = multiDaiKovan;\n        uint24 fee = 3000;\n        uint160 sqrtPriceLimitX96 = 0;\n\n        return quoter.quoteExactOutputSingle(\n            tokenIn,\n            tokenOut,\n            fee,\n            daiAmount,\n            sqrtPriceLimitX96\n        );\n    }\n\n    // important to receive ETH\n    receive() payable external {}\n}",
  "sourcePath": "/home/zarko/learn/ethereum/support-children/contracts/SupportChildren.sol",
  "compiler": {
    "name": "solc",
    "version": "0.8.6+commit.11564f7e.Emscripten.clang"
  },
  "schemaVersion": "3.4.1",
  "updatedAt": "2021-08-09T18:21:10.363Z",
  "networkType": "ethereum",
  "devdoc": {
    "kind": "dev",
    "methods": {},
    "version": 1
  },
  "userdoc": {
    "kind": "user",
    "methods": {},
    "version": 1
  }
}