{
  "contractName": "SupportChildren",
  "abi": [
    {
      "anonymous": false,
      "inputs": [
        {
          "indexed": false,
          "internalType": "uint256",
          "name": "campaignId",
          "type": "uint256"
        }
      ],
      "name": "CampaignCreated",
      "type": "event"
    },
    {
      "anonymous": false,
      "inputs": [
        {
          "indexed": false,
          "internalType": "uint256",
          "name": "campaignId",
          "type": "uint256"
        },
        {
          "indexed": false,
          "internalType": "uint256",
          "name": "currentAmount",
          "type": "uint256"
        },
        {
          "indexed": false,
          "internalType": "string[]",
          "name": "notifyEmails",
          "type": "string[]"
        }
      ],
      "name": "CampaignFinished",
      "type": "event"
    },
    {
      "anonymous": false,
      "inputs": [
        {
          "indexed": false,
          "internalType": "uint256",
          "name": "campaignId",
          "type": "uint256"
        },
        {
          "indexed": false,
          "internalType": "string",
          "name": "campaignImage",
          "type": "string"
        },
        {
          "indexed": false,
          "internalType": "uint256",
          "name": "nftType",
          "type": "uint256"
        }
      ],
      "name": "CreateNFT",
      "type": "event"
    },
    {
      "anonymous": false,
      "inputs": [
        {
          "indexed": false,
          "internalType": "uint256",
          "name": "campaignId",
          "type": "uint256"
        },
        {
          "indexed": false,
          "internalType": "uint256",
          "name": "donationAmount",
          "type": "uint256"
        },
        {
          "indexed": false,
          "internalType": "string",
          "name": "notifyEmail",
          "type": "string"
        },
        {
          "indexed": false,
          "internalType": "address",
          "name": "token",
          "type": "address"
        }
      ],
      "name": "DonationMade",
      "type": "event"
    },
    {
      "inputs": [],
      "name": "nft",
      "outputs": [
        {
          "internalType": "contract SupportChildrenCollectable",
          "name": "",
          "type": "address"
        }
      ],
      "stateMutability": "view",
      "type": "function",
      "constant": true
    },
    {
      "inputs": [],
      "name": "quoter",
      "outputs": [
        {
          "internalType": "contract IQuoter",
          "name": "",
          "type": "address"
        }
      ],
      "stateMutability": "view",
      "type": "function",
      "constant": true
    },
    {
      "inputs": [],
      "name": "uniswapRouter",
      "outputs": [
        {
          "internalType": "contract IUniswapRouter",
          "name": "",
          "type": "address"
        }
      ],
      "stateMutability": "view",
      "type": "function",
      "constant": true
    },
    {
      "stateMutability": "payable",
      "type": "receive",
      "payable": true
    },
    {
      "inputs": [
        {
          "internalType": "string",
          "name": "_name",
          "type": "string"
        },
        {
          "internalType": "string",
          "name": "_description",
          "type": "string"
        },
        {
          "internalType": "string",
          "name": "_creatorEmail",
          "type": "string"
        },
        {
          "internalType": "string",
          "name": "_image",
          "type": "string"
        },
        {
          "internalType": "uint256",
          "name": "_endTimestamp",
          "type": "uint256"
        },
        {
          "internalType": "address",
          "name": "_targetCurrency",
          "type": "address"
        },
        {
          "internalType": "uint256",
          "name": "_targetAmount",
          "type": "uint256"
        },
        {
          "internalType": "address payable",
          "name": "_beneficiaryAddress",
          "type": "address"
        }
      ],
      "name": "createCampaign",
      "outputs": [],
      "stateMutability": "nonpayable",
      "type": "function"
    },
    {
      "inputs": [
        {
          "internalType": "uint256",
          "name": "_campaignId",
          "type": "uint256"
        }
      ],
      "name": "endCampaign",
      "outputs": [],
      "stateMutability": "nonpayable",
      "type": "function"
    },
    {
      "inputs": [
        {
          "internalType": "uint256",
          "name": "_campaignId",
          "type": "uint256"
        },
        {
          "internalType": "string",
          "name": "_name",
          "type": "string"
        },
        {
          "internalType": "string",
          "name": "_description",
          "type": "string"
        },
        {
          "internalType": "string",
          "name": "_creatorEmail",
          "type": "string"
        },
        {
          "internalType": "string",
          "name": "_image",
          "type": "string"
        }
      ],
      "name": "editCampaign",
      "outputs": [],
      "stateMutability": "nonpayable",
      "type": "function"
    },
    {
      "inputs": [
        {
          "internalType": "uint256",
          "name": "_campaignId",
          "type": "uint256"
        },
        {
          "internalType": "string",
          "name": "_donorEmail",
          "type": "string"
        }
      ],
      "name": "donateEthToEthCampaign",
      "outputs": [],
      "stateMutability": "payable",
      "type": "function",
      "payable": true
    },
    {
      "inputs": [
        {
          "internalType": "uint256",
          "name": "_campaignId",
          "type": "uint256"
        },
        {
          "internalType": "string",
          "name": "_donorEmail",
          "type": "string"
        }
      ],
      "name": "donateEthToTokenCampaign",
      "outputs": [],
      "stateMutability": "payable",
      "type": "function",
      "payable": true
    },
    {
      "inputs": [
        {
          "internalType": "uint256",
          "name": "_campaignId",
          "type": "uint256"
        },
        {
          "internalType": "string",
          "name": "_donorEmail",
          "type": "string"
        },
        {
          "internalType": "address",
          "name": "token",
          "type": "address"
        },
        {
          "internalType": "uint256",
          "name": "amountOut",
          "type": "uint256"
        },
        {
          "internalType": "uint256",
          "name": "amountInMax",
          "type": "uint256"
        }
      ],
      "name": "donateTokenToETHCampaign",
      "outputs": [],
      "stateMutability": "nonpayable",
      "type": "function"
    },
    {
      "inputs": [
        {
          "internalType": "uint256",
          "name": "_campaignId",
          "type": "uint256"
        },
        {
          "internalType": "string",
          "name": "_donorEmail",
          "type": "string"
        },
        {
          "internalType": "address",
          "name": "tokenIn",
          "type": "address"
        },
        {
          "internalType": "uint256",
          "name": "amountOut",
          "type": "uint256"
        },
        {
          "internalType": "uint256",
          "name": "amountInMax",
          "type": "uint256"
        }
      ],
      "name": "donateTokenToTokenCampaign",
      "outputs": [],
      "stateMutability": "nonpayable",
      "type": "function"
    },
    {
      "inputs": [
        {
          "internalType": "uint256",
          "name": "_campaignId",
          "type": "uint256"
        }
      ],
      "name": "getDonorEmails",
      "outputs": [
        {
          "internalType": "string[]",
          "name": "",
          "type": "string[]"
        }
      ],
      "stateMutability": "view",
      "type": "function",
      "constant": true
    },
    {
      "inputs": [
        {
          "internalType": "address",
          "name": "_donor",
          "type": "address"
        }
      ],
      "name": "getDonorsCampaingsList",
      "outputs": [
        {
          "internalType": "uint256[]",
          "name": "",
          "type": "uint256[]"
        }
      ],
      "stateMutability": "view",
      "type": "function",
      "constant": true
    },
    {
      "inputs": [],
      "name": "getCampaigns",
      "outputs": [
        {
          "components": [
            {
              "internalType": "uint256",
              "name": "id",
              "type": "uint256"
            },
            {
              "internalType": "string",
              "name": "name",
              "type": "string"
            },
            {
              "internalType": "string",
              "name": "description",
              "type": "string"
            },
            {
              "internalType": "string",
              "name": "creatorEmail",
              "type": "string"
            },
            {
              "internalType": "string",
              "name": "image",
              "type": "string"
            },
            {
              "internalType": "address",
              "name": "targetCurrency",
              "type": "address"
            },
            {
              "internalType": "uint256",
              "name": "targetAmount",
              "type": "uint256"
            },
            {
              "internalType": "uint256",
              "name": "currentAmount",
              "type": "uint256"
            },
            {
              "internalType": "uint256",
              "name": "amountInWeth",
              "type": "uint256"
            },
            {
              "internalType": "address payable",
              "name": "beneficiaryAddress",
              "type": "address"
            },
            {
              "internalType": "address",
              "name": "creatorAddress",
              "type": "address"
            },
            {
              "internalType": "bool",
              "name": "active",
              "type": "bool"
            },
            {
              "internalType": "uint256",
              "name": "endTimestamp",
              "type": "uint256"
            }
          ],
          "internalType": "struct SupportChildren.Campaign[]",
          "name": "",
          "type": "tuple[]"
        }
      ],
      "stateMutability": "view",
      "type": "function",
      "constant": true
    },
    {
      "inputs": [
        {
          "internalType": "uint256",
          "name": "_campaignId",
          "type": "uint256"
        }
      ],
      "name": "getCampaignAmount",
      "outputs": [
        {
          "internalType": "uint256",
          "name": "",
          "type": "uint256"
        }
      ],
      "stateMutability": "view",
      "type": "function",
      "constant": true
    }
  ],
  "bytecode": "0x608060405234801561001057600080fd5b506152da806100206000396000f3fe6080604052600436106100e15760003560e01c8063af0f42ee1161007f578063dd0408ae11610059578063dd0408ae146102cb578063e0c6b5f9146102f4578063e981dc021461031d578063f798b2c714610339576100e8565b8063af0f42ee1461024e578063c6bbd5a714610277578063c8d86564146102a2576100e8565b806347ccca02116100bb57806347ccca0214610190578063735de9f7146101bb578063909f7d66146101e6578063a6b0363314610223576100e8565b806311862ab1146100ed57806318fedf0614610116578063296c10f414610153576100e8565b366100e857005b600080fd5b3480156100f957600080fd5b50610114600480360381019061010f91906139e4565b610355565b005b34801561012257600080fd5b5061013d600480360381019061013891906137ae565b610780565b60405161014a91906144f0565b60405180910390f35b34801561015f57600080fd5b5061017a6004803603810190610175919061392e565b610817565b6040516101879190614855565b60405180910390f35b34801561019c57600080fd5b506101a5610846565b6040516101b29190614548565b60405180910390f35b3480156101c757600080fd5b506101d061085e565b6040516101dd919061452d565b60405180910390f35b3480156101f257600080fd5b5061020d6004803603810190610208919061392e565b610876565b60405161021a91906144ac565b60405180910390f35b34801561022f57600080fd5b50610238610962565b60405161024591906144ce565b60405180910390f35b34801561025a57600080fd5b5061027560048036038101906102709190613a7b565b610d59565b005b34801561028357600080fd5b5061028c610fdf565b6040516102999190614512565b60405180910390f35b3480156102ae57600080fd5b506102c960048036038101906102c491906139e4565b610ff7565b005b3480156102d757600080fd5b506102f260048036038101906102ed919061392e565b61140e565b005b34801561030057600080fd5b5061031b60048036038101906103169190613808565b611671565b005b61033760048036038101906103329190613988565b6119bf565b005b610353600480360381019061034e9190613988565b611ea5565b005b84600115156002828154811061036e5761036d614e9d565b5b90600052602060002090600c0201600a0160149054906101000a900460ff161515146103cf576040517f08c379a00000000000000000000000000000000000000000000000000000000081526004016103c69061473d565b60405180910390fd5b42600282815481106103e4576103e3614e9d565b5b90600052602060002090600c0201600b015411610436576040517f08c379a000000000000000000000000000000000000000000000000000000000815260040161042d906147bd565b60405180910390fd5b60008211610479576040517f08c379a0000000000000000000000000000000000000000000000000000000008152600401610470906146fd565b60405180910390fd5b600083116104bc576040517f08c379a00000000000000000000000000000000000000000000000000000000081526004016104b3906146fd565b60405180910390fd5b600286815481106104d0576104cf614e9d565b5b90600052602060002090600c020160060154600b6104ee9190614bb8565b600a846002898154811061050557610504614e9d565b5b90600052602060002090600c0201600701546105219190614b62565b61052b9190614bb8565b1061056b576040517f08c379a00000000000000000000000000000000000000000000000000000000081526004016105629061465d565b60405180910390fd5b6000610578858585612273565b90506000600288815481106105905761058f614e9d565b5b90600052602060002090600c020160070154905060036000898152602001908152602001600020879080600181540180825580915050600190039060005260206000200160009091909190915090805190602001906105f0929190613632565b50600460003273ffffffffffffffffffffffffffffffffffffffff1673ffffffffffffffffffffffffffffffffffffffff168152602001908152602001600020889080600181540180825580915050600190039060005260206000200160009091909190915055846002898154811061066c5761066b614e9d565b5b90600052602060002090600c0201600801546106889190614b62565b6002898154811061069c5761069b614e9d565b5b90600052602060002090600c02016008018190555084600289815481106106c6576106c5614e9d565b5b90600052602060002090600c0201600701546106e29190614b62565b600289815481106106f6576106f5614e9d565b5b90600052602060002090600c0201600701819055507fe3a6b824a5dcd9cc376de3c8eddd6aef4d82cce288e42272e2b874fa54f2d51a888360028b8154811061074257610741614e9d565b5b90600052602060002090600c02016003018960405161076494939291906149a6565b60405180910390a161077688826126e9565b5050505050505050565b6060600460008373ffffffffffffffffffffffffffffffffffffffff1673ffffffffffffffffffffffffffffffffffffffff16815260200190815260200160002080548060200260200160405190810160405280929190818152602001828054801561080b57602002820191906000526020600020905b8154815260200190600101908083116107f7575b50505050509050919050565b60006002828154811061082d5761082c614e9d565b5b90600052602060002090600c0201600701549050919050565b732e48d65dd6933e8146a7d2b891d173bfa438b24481565b73e592427a0aece92de3edee1f18e0157c0586156481565b606060036000838152602001908152602001600020805480602002602001604051908101604052809291908181526020016000905b828210156109575783829060005260206000200180546108ca90614d93565b80601f01602080910402602001604051908101604052809291908181526020018280546108f690614d93565b80156109435780601f1061091857610100808354040283529160200191610943565b820191906000526020600020905b81548152906001019060200180831161092657829003601f168201915b5050505050815260200190600101906108ab565b505050509050919050565b60606002805480602002602001604051908101604052809291908181526020016000905b82821015610d5057838290600052602060002090600c0201604051806101a0016040529081600082015481526020016001820180546109c490614d93565b80601f01602080910402602001604051908101604052809291908181526020018280546109f090614d93565b8015610a3d5780601f10610a1257610100808354040283529160200191610a3d565b820191906000526020600020905b815481529060010190602001808311610a2057829003601f168201915b50505050508152602001600282018054610a5690614d93565b80601f0160208091040260200160405190810160405280929190818152602001828054610a8290614d93565b8015610acf5780601f10610aa457610100808354040283529160200191610acf565b820191906000526020600020905b815481529060010190602001808311610ab257829003601f168201915b50505050508152602001600382018054610ae890614d93565b80601f0160208091040260200160405190810160405280929190818152602001828054610b1490614d93565b8015610b615780601f10610b3657610100808354040283529160200191610b61565b820191906000526020600020905b815481529060010190602001808311610b4457829003601f168201915b50505050508152602001600482018054610b7a90614d93565b80601f0160208091040260200160405190810160405280929190818152602001828054610ba690614d93565b8015610bf35780601f10610bc857610100808354040283529160200191610bf3565b820191906000526020600020905b815481529060010190602001808311610bd657829003601f168201915b505050505081526020016005820160009054906101000a900473ffffffffffffffffffffffffffffffffffffffff1673ffffffffffffffffffffffffffffffffffffffff1673ffffffffffffffffffffffffffffffffffffffff1681526020016006820154815260200160078201548152602001600882015481526020016009820160009054906101000a900473ffffffffffffffffffffffffffffffffffffffff1673ffffffffffffffffffffffffffffffffffffffff1673ffffffffffffffffffffffffffffffffffffffff168152602001600a820160009054906101000a900473ffffffffffffffffffffffffffffffffffffffff1673ffffffffffffffffffffffffffffffffffffffff1673ffffffffffffffffffffffffffffffffffffffff168152602001600a820160149054906101000a900460ff16151515158152602001600b8201548152505081526020019060010190610986565b50505050905090565b846001151560028281548110610d7257610d71614e9d565b5b90600052602060002090600c0201600a0160149054906101000a900460ff16151514610dd3576040517f08c379a0000000000000000000000000000000000000000000000000000000008152600401610dca9061473d565b60405180910390fd5b4260028281548110610de857610de7614e9d565b5b90600052602060002090600c0201600b015411610e3a576040517f08c379a0000000000000000000000000000000000000000000000000000000008152600401610e31906147bd565b60405180910390fd5b853273ffffffffffffffffffffffffffffffffffffffff1660028281548110610e6657610e65614e9d565b5b90600052602060002090600c0201600a0160009054906101000a900473ffffffffffffffffffffffffffffffffffffffff1673ffffffffffffffffffffffffffffffffffffffff1614610eee576040517f08c379a0000000000000000000000000000000000000000000000000000000008152600401610ee59061477d565b60405180910390fd5b8560028881548110610f0357610f02614e9d565b5b90600052602060002090600c02016001019080519060200190610f27929190613632565b508460028881548110610f3d57610f3c614e9d565b5b90600052602060002090600c02016002019080519060200190610f61929190613632565b508360028881548110610f7757610f76614e9d565b5b90600052602060002090600c02016003019080519060200190610f9b929190613632565b508260028881548110610fb157610fb0614e9d565b5b90600052602060002090600c02016004019080519060200190610fd5929190613632565b5050505050505050565b73b27308f9f90d607463bb33ea1bebb41c27ce5ab681565b8460011515600282815481106110105761100f614e9d565b5b90600052602060002090600c0201600a0160149054906101000a900460ff16151514611071576040517f08c379a00000000000000000000000000000000000000000000000000000000081526004016110689061473d565b60405180910390fd5b426002828154811061108657611085614e9d565b5b90600052602060002090600c0201600b0154116110d8576040517f08c379a00000000000000000000000000000000000000000000000000000000081526004016110cf906147bd565b60405180910390fd5b6000821161111b576040517f08c379a0000000000000000000000000000000000000000000000000000000008152600401611112906146fd565b60405180910390fd5b6000831161115e576040517f08c379a0000000000000000000000000000000000000000000000000000000008152600401611155906146fd565b60405180910390fd5b6002868154811061117257611171614e9d565b5b90600052602060002090600c020160060154600b6111909190614bb8565b600a84600289815481106111a7576111a6614e9d565b5b90600052602060002090600c0201600701546111c39190614b62565b6111cd9190614bb8565b1061120d576040517f08c379a00000000000000000000000000000000000000000000000000000000081526004016112049061465d565b60405180910390fd5b6000611260856002898154811061122757611226614e9d565b5b90600052602060002090600c020160050160009054906101000a900473ffffffffffffffffffffffffffffffffffffffff168686612a7d565b905060006002888154811061127857611277614e9d565b5b90600052602060002090600c020160070154905060036000898152602001908152602001600020879080600181540180825580915050600190039060005260206000200160009091909190915090805190602001906112d8929190613632565b50600460003273ffffffffffffffffffffffffffffffffffffffff1673ffffffffffffffffffffffffffffffffffffffff168152602001908152602001600020889080600181540180825580915050600190039060005260206000200160009091909190915055846002898154811061135457611353614e9d565b5b90600052602060002090600c0201600701546113709190614b62565b6002898154811061138457611383614e9d565b5b90600052602060002090600c0201600701819055507fe3a6b824a5dcd9cc376de3c8eddd6aef4d82cce288e42272e2b874fa54f2d51a888360028b815481106113d0576113cf614e9d565b5b90600052602060002090600c0201600301896040516113f294939291906149a6565b60405180910390a161140488826126e9565b5050505050505050565b80600115156002828154811061142757611426614e9d565b5b90600052602060002090600c0201600a0160149054906101000a900460ff16151514611488576040517f08c379a000000000000000000000000000000000000000000000000000000000815260040161147f9061473d565b60405180910390fd5b426002828154811061149d5761149c614e9d565b5b90600052602060002090600c0201600b0154116114ef576040517f08c379a00000000000000000000000000000000000000000000000000000000081526004016114e6906147bd565b60405180910390fd5b813273ffffffffffffffffffffffffffffffffffffffff166002828154811061151b5761151a614e9d565b5b90600052602060002090600c0201600a0160009054906101000a900473ffffffffffffffffffffffffffffffffffffffff1673ffffffffffffffffffffffffffffffffffffffff16146115a3576040517f08c379a000000000000000000000000000000000000000000000000000000000815260040161159a9061477d565b60405180910390fd5b6000600284815481106115b9576115b8614e9d565b5b90600052602060002090600c02016007015411156115df576115da83612ed4565b61166c565b7fbc6fdcbbc64181fa5b0a580ffa8643761277b5ab073214c08cce86c7317bf4008360006003600087815260200190815260200160002060405161162593929190614870565b60405180910390a160006002848154811061164357611642614e9d565b5b90600052602060002090600c0201600a0160146101000a81548160ff0219169083151502179055505b505050565b600082116116b4576040517f08c379a00000000000000000000000000000000000000000000000000000000081526004016116ab9061475d565b60405180910390fd5b4284116116f6576040517f08c379a00000000000000000000000000000000000000000000000000000000081526004016116ed9061479d565b60405180910390fd5b6002604051806101a0016040528060015481526020018a81526020018981526020018881526020018781526020018573ffffffffffffffffffffffffffffffffffffffff16815260200184815260200160008152602001600081526020018373ffffffffffffffffffffffffffffffffffffffff1681526020013273ffffffffffffffffffffffffffffffffffffffff1681526020016001151581526020018681525090806001815401808255809150506001900390600052602060002090600c02016000909190919091506000820151816000015560208201518160010190805190602001906117e8929190613632565b506040820151816002019080519060200190611805929190613632565b506060820151816003019080519060200190611822929190613632565b50608082015181600401908051906020019061183f929190613632565b5060a08201518160050160006101000a81548173ffffffffffffffffffffffffffffffffffffffff021916908373ffffffffffffffffffffffffffffffffffffffff16021790555060c0820151816006015560e0820151816007015561010082015181600801556101208201518160090160006101000a81548173ffffffffffffffffffffffffffffffffffffffff021916908373ffffffffffffffffffffffffffffffffffffffff16021790555061014082015181600a0160006101000a81548173ffffffffffffffffffffffffffffffffffffffff021916908373ffffffffffffffffffffffffffffffffffffffff16021790555061016082015181600a0160146101000a81548160ff02191690831515021790555061018082015181600b015550507fbc0a5edd152fa5b886dcae82c5c109d113708653b4b9c0224549ccdf715af94e6001546040516119959190614855565b60405180910390a1600160008154809291906119b090614df6565b91905055505050505050505050565b8160011515600282815481106119d8576119d7614e9d565b5b90600052602060002090600c0201600a0160149054906101000a900460ff16151514611a39576040517f08c379a0000000000000000000000000000000000000000000000000000000008152600401611a309061473d565b60405180910390fd5b4260028281548110611a4e57611a4d614e9d565b5b90600052602060002090600c0201600b015411611aa0576040517f08c379a0000000000000000000000000000000000000000000000000000000008152600401611a97906147bd565b60405180910390fd5b823273ffffffffffffffffffffffffffffffffffffffff1660028281548110611acc57611acb614e9d565b5b90600052602060002090600c020160090160009054906101000a900473ffffffffffffffffffffffffffffffffffffffff1673ffffffffffffffffffffffffffffffffffffffff161415611b55576040517f08c379a0000000000000000000000000000000000000000000000000000000008152600401611b4c9061469d565b60405180910390fd5b833073ffffffffffffffffffffffffffffffffffffffff1660028281548110611b8157611b80614e9d565b5b90600052602060002090600c020160050160009054906101000a900473ffffffffffffffffffffffffffffffffffffffff1673ffffffffffffffffffffffffffffffffffffffff1614611c09576040517f08c379a0000000000000000000000000000000000000000000000000000000008152600401611c009061467d565b60405180910390fd5b60003411611c4c576040517f08c379a0000000000000000000000000000000000000000000000000000000008152600401611c439061461d565b60405180910390fd5b60028581548110611c6057611c5f614e9d565b5b90600052602060002090600c020160060154600b611c7e9190614bb8565b600a3460028881548110611c9557611c94614e9d565b5b90600052602060002090600c020160070154611cb19190614b62565b611cbb9190614bb8565b10611cfb576040517f08c379a0000000000000000000000000000000000000000000000000000000008152600401611cf29061465d565b60405180910390fd5b600060028681548110611d1157611d10614e9d565b5b90600052602060002090600c02016007015490506003600087815260200190815260200160002085908060018154018082558091505060019003906000526020600020016000909190919091509080519060200190611d71929190613632565b50600460003273ffffffffffffffffffffffffffffffffffffffff1673ffffffffffffffffffffffffffffffffffffffff1681526020019081526020016000208690806001815401808255809150506001900390600052602060002001600090919091909150553460028781548110611ded57611dec614e9d565b5b90600052602060002090600c020160070154611e099190614b62565b60028781548110611e1d57611e1c614e9d565b5b90600052602060002090600c0201600701819055507fe3a6b824a5dcd9cc376de3c8eddd6aef4d82cce288e42272e2b874fa54f2d51a863460028981548110611e6957611e68614e9d565b5b90600052602060002090600c020160030130604051611e8b94939291906149a6565b60405180910390a1611e9d86826126e9565b505050505050565b816001151560028281548110611ebe57611ebd614e9d565b5b90600052602060002090600c0201600a0160149054906101000a900460ff16151514611f1f576040517f08c379a0000000000000000000000000000000000000000000000000000000008152600401611f169061473d565b60405180910390fd5b4260028281548110611f3457611f33614e9d565b5b90600052602060002090600c0201600b015411611f86576040517f08c379a0000000000000000000000000000000000000000000000000000000008152600401611f7d906147bd565b60405180910390fd5b60003411611fc9576040517f08c379a0000000000000000000000000000000000000000000000000000000008152600401611fc09061461d565b60405180910390fd5b600061201960028581548110611fe257611fe1614e9d565b5b90600052602060002090600c020160050160009054906101000a900473ffffffffffffffffffffffffffffffffffffffff16613413565b90506002848154811061202f5761202e614e9d565b5b90600052602060002090600c020160060154600b61204d9190614bb8565b600a826002878154811061206457612063614e9d565b5b90600052602060002090600c0201600701546120809190614b62565b61208a9190614bb8565b106120ca576040517f08c379a00000000000000000000000000000000000000000000000000000000081526004016120c19061465d565b60405180910390fd5b6000600285815481106120e0576120df614e9d565b5b90600052602060002090600c02016007015490506003600086815260200190815260200160002084908060018154018082558091505060019003906000526020600020016000909190919091509080519060200190612140929190613632565b50600460003273ffffffffffffffffffffffffffffffffffffffff1673ffffffffffffffffffffffffffffffffffffffff16815260200190815260200160002085908060018154018082558091505060019003906000526020600020016000909190919091505581600286815481106121bc576121bb614e9d565b5b90600052602060002090600c0201600701546121d89190614b62565b600286815481106121ec576121eb614e9d565b5b90600052602060002090600c0201600701819055507fe3a6b824a5dcd9cc376de3c8eddd6aef4d82cce288e42272e2b874fa54f2d51a85346002888154811061223857612237614e9d565b5b90600052602060002090600c02016003013060405161225a94939291906149a6565b60405180910390a161226c85826126e9565b5050505050565b6000808473ffffffffffffffffffffffffffffffffffffffff1663dd62ed3e33306040518363ffffffff1660e01b81526004016122b1929190614423565b60206040518083038186803b1580156122c957600080fd5b505afa1580156122dd573d6000803e3d6000fd5b505050506040513d601f19601f82011682018060405250810190612301919061395b565b905082811015612346576040517f08c379a000000000000000000000000000000000000000000000000000000000815260040161233d906146bd565b60405180910390fd5b8473ffffffffffffffffffffffffffffffffffffffff166323b872dd3330866040518463ffffffff1660e01b81526004016123839392919061444c565b602060405180830381600087803b15801561239d57600080fd5b505af11580156123b1573d6000803e3d6000fd5b505050506040513d601f19601f820116820180604052508101906123d591906137db565b506000600f426123e59190614b62565b90506000869050600073c02aaa39b223fe8d0a0e5c4f27ead9083c756cc290506000610bb89050600030905060008a73ffffffffffffffffffffffffffffffffffffffff1663095ea7b373e592427a0aece92de3edee1f18e0157c058615648b6040518363ffffffff1660e01b8152600401612462929190614483565b602060405180830381600087803b15801561247c57600080fd5b505af1158015612490573d6000803e3d6000fd5b505050506040513d601f19601f820116820180604052508101906124b491906137db565b5060006040518061010001604052808773ffffffffffffffffffffffffffffffffffffffff1681526020018673ffffffffffffffffffffffffffffffffffffffff1681526020018562ffffff1681526020018473ffffffffffffffffffffffffffffffffffffffff1681526020018881526020018c81526020018b81526020018373ffffffffffffffffffffffffffffffffffffffff168152509050600073e592427a0aece92de3edee1f18e0157c0586156473ffffffffffffffffffffffffffffffffffffffff1663db3e2198836040518263ffffffff1660e01b815260040161259f9190614839565b602060405180830381600087803b1580156125b957600080fd5b505af11580156125cd573d6000803e3d6000fd5b505050506040513d601f19601f820116820180604052508101906125f1919061395b565b90506000818c6126019190614c12565b905060008e73ffffffffffffffffffffffffffffffffffffffff1663a9059cbb33846040518363ffffffff1660e01b8152600401612640929190614483565b602060405180830381600087803b15801561265a57600080fd5b505af115801561266e573d6000803e3d6000fd5b505050506040513d601f19601f8201168201806040525081019061269291906137db565b9050806126d4576040517f08c379a00000000000000000000000000000000000000000000000000000000081526004016126cb906147fd565b60405180910390fd5b829b5050505050505050505050509392505050565b600282815481106126fd576126fc614e9d565b5b90600052602060002090600c0201600601546002838154811061272357612722614e9d565b5b90600052602060002090600c020160070154106129665761274382612ed4565b6000811461285857732e48d65dd6933e8146a7d2b891d173bfa438b24473ffffffffffffffffffffffffffffffffffffffff16637d9c80f96002848154811061278f5761278e614e9d565b5b90600052602060002090600c02016004016001326040518463ffffffff1660e01b81526004016127c1939291906145a1565b600060405180830381600087803b1580156127db57600080fd5b505af11580156127ef573d6000803e3d6000fd5b505050507f3b7e7e43da4efbcdd1006b7dd791491eeeae82429c2793a71b72b08ef743eb33826002848154811061282957612828614e9d565b5b90600052602060002090600c0201600401600160405161284b939291906148ec565b60405180910390a1612961565b732e48d65dd6933e8146a7d2b891d173bfa438b24473ffffffffffffffffffffffffffffffffffffffff16637d9c80f96002848154811061289c5761289b614e9d565b5b90600052602060002090600c02016004016002326040518463ffffffff1660e01b81526004016128ce939291906145df565b600060405180830381600087803b1580156128e857600080fd5b505af11580156128fc573d6000803e3d6000fd5b505050507f3b7e7e43da4efbcdd1006b7dd791491eeeae82429c2793a71b72b08ef743eb33826002848154811061293657612935614e9d565b5b90600052602060002090600c020160040160026040516129589392919061492a565b60405180910390a15b612a79565b6000811415612a7857732e48d65dd6933e8146a7d2b891d173bfa438b24473ffffffffffffffffffffffffffffffffffffffff16637d9c80f9600284815481106129b3576129b2614e9d565b5b90600052602060002090600c02016004016000326040518463ffffffff1660e01b81526004016129e593929190614563565b600060405180830381600087803b1580156129ff57600080fd5b505af1158015612a13573d6000803e3d6000fd5b505050507f3b7e7e43da4efbcdd1006b7dd791491eeeae82429c2793a71b72b08ef743eb338260028481548110612a4d57612a4c614e9d565b5b90600052602060002090600c02016004016000604051612a6f939291906148ae565b60405180910390a15b5b5050565b6000808573ffffffffffffffffffffffffffffffffffffffff1663dd62ed3e33306040518363ffffffff1660e01b8152600401612abb929190614423565b60206040518083038186803b158015612ad357600080fd5b505afa158015612ae7573d6000803e3d6000fd5b505050506040513d601f19601f82011682018060405250810190612b0b919061395b565b905082811015612b50576040517f08c379a0000000000000000000000000000000000000000000000000000000008152600401612b47906146bd565b60405180910390fd5b8573ffffffffffffffffffffffffffffffffffffffff166323b872dd3330866040518463ffffffff1660e01b8152600401612b8d9392919061444c565b602060405180830381600087803b158015612ba757600080fd5b505af1158015612bbb573d6000803e3d6000fd5b505050506040513d601f19601f82011682018060405250810190612bdf91906137db565b506000600f42612bef9190614b62565b90506000610bb89050600030905060008973ffffffffffffffffffffffffffffffffffffffff1663095ea7b373e592427a0aece92de3edee1f18e0157c05861564896040518363ffffffff1660e01b8152600401612c4e929190614483565b602060405180830381600087803b158015612c6857600080fd5b505af1158015612c7c573d6000803e3d6000fd5b505050506040513d601f19601f82011682018060405250810190612ca091906137db565b5060006040518061010001604052808c73ffffffffffffffffffffffffffffffffffffffff1681526020018b73ffffffffffffffffffffffffffffffffffffffff1681526020018562ffffff1681526020018473ffffffffffffffffffffffffffffffffffffffff1681526020018681526020018a81526020018981526020018373ffffffffffffffffffffffffffffffffffffffff168152509050600073e592427a0aece92de3edee1f18e0157c0586156473ffffffffffffffffffffffffffffffffffffffff1663db3e2198836040518263ffffffff1660e01b8152600401612d8b9190614839565b602060405180830381600087803b158015612da557600080fd5b505af1158015612db9573d6000803e3d6000fd5b505050506040513d601f19601f82011682018060405250810190612ddd919061395b565b90506000818a612ded9190614c12565b905060008d73ffffffffffffffffffffffffffffffffffffffff1663a9059cbb33846040518363ffffffff1660e01b8152600401612e2c929190614483565b602060405180830381600087803b158015612e4657600080fd5b505af1158015612e5a573d6000803e3d6000fd5b505050506040513d601f19601f82011682018060405250810190612e7e91906137db565b905080612ec0576040517f08c379a0000000000000000000000000000000000000000000000000000000008152600401612eb7906147fd565b60405180910390fd5b829950505050505050505050949350505050565b7fbc6fdcbbc64181fa5b0a580ffa8643761277b5ab073214c08cce86c7317bf4008160028381548110612f0a57612f09614e9d565b5b90600052602060002090600c02016007015460036000858152602001908152602001600020604051612f3e93929190614968565b60405180910390a13073ffffffffffffffffffffffffffffffffffffffff1660028281548110612f7157612f70614e9d565b5b90600052602060002090600c020160050160009054906101000a900473ffffffffffffffffffffffffffffffffffffffff1673ffffffffffffffffffffffffffffffffffffffff16141561329557600060028281548110612fd557612fd4614e9d565b5b90600052602060002090600c02016008015411156131de576002818154811061300157613000614e9d565b5b90600052602060002090600c020160090160009054906101000a900473ffffffffffffffffffffffffffffffffffffffff1673ffffffffffffffffffffffffffffffffffffffff166108fc600283815481106130605761305f614e9d565b5b90600052602060002090600c0201600801546002848154811061308657613085614e9d565b5b90600052602060002090600c0201600701546130a29190614c12565b9081150290604051600060405180830381858888f193505050501580156130cd573d6000803e3d6000fd5b50600073c02aaa39b223fe8d0a0e5c4f27ead9083c756cc273ffffffffffffffffffffffffffffffffffffffff1663a9059cbb336002858154811061311557613114614e9d565b5b90600052602060002090600c0201600801546040518363ffffffff1660e01b8152600401613144929190614483565b602060405180830381600087803b15801561315e57600080fd5b505af1158015613172573d6000803e3d6000fd5b505050506040513d601f19601f8201168201806040525081019061319691906137db565b9050806131d8576040517f08c379a00000000000000000000000000000000000000000000000000000000081526004016131cf9061471d565b60405180910390fd5b50613290565b600281815481106131f2576131f1614e9d565b5b90600052602060002090600c020160090160009054906101000a900473ffffffffffffffffffffffffffffffffffffffff1673ffffffffffffffffffffffffffffffffffffffff166108fc6002838154811061325157613250614e9d565b5b90600052602060002090600c0201600701549081150290604051600060405180830381858888f1935050505015801561328e573d6000803e3d6000fd5b505b6133d2565b6000600282815481106132ab576132aa614e9d565b5b90600052602060002090600c020160050160009054906101000a900473ffffffffffffffffffffffffffffffffffffffff1673ffffffffffffffffffffffffffffffffffffffff1663a9059cbb336002858154811061330d5761330c614e9d565b5b90600052602060002090600c0201600701546040518363ffffffff1660e01b815260040161333c929190614483565b602060405180830381600087803b15801561335657600080fd5b505af115801561336a573d6000803e3d6000fd5b505050506040513d601f19601f8201168201806040525081019061338e91906137db565b9050806133d0576040517f08c379a00000000000000000000000000000000000000000000000000000000081526004016133c7906146dd565b60405180910390fd5b505b6000600282815481106133e8576133e7614e9d565b5b90600052602060002090600c0201600a0160146101000a81548160ff02191690831515021790555050565b6000803411613457576040517f08c379a000000000000000000000000000000000000000000000000000000000815260040161344e906147dd565b60405180910390fd5b6000600f426134669190614b62565b9050600073c02aaa39b223fe8d0a0e5c4f27ead9083c756cc2905060008490506000610bb89050600030905060003490506000600190506000806040518061010001604052808973ffffffffffffffffffffffffffffffffffffffff1681526020018873ffffffffffffffffffffffffffffffffffffffff1681526020018762ffffff1681526020018673ffffffffffffffffffffffffffffffffffffffff1681526020018a81526020018581526020018481526020018373ffffffffffffffffffffffffffffffffffffffff168152509050600073e592427a0aece92de3edee1f18e0157c0586156473ffffffffffffffffffffffffffffffffffffffff1663414bf38934846040518363ffffffff1660e01b8152600401613589919061481d565b6020604051808303818588803b1580156135a257600080fd5b505af11580156135b6573d6000803e3d6000fd5b50505050506040513d601f19601f820116820180604052508101906135db919061395b565b905060008111613620576040517f08c379a00000000000000000000000000000000000000000000000000000000081526004016136179061463d565b60405180910390fd5b809a5050505050505050505050919050565b82805461363e90614d93565b90600052602060002090601f01602090048101928261366057600085556136a7565b82601f1061367957805160ff19168380011785556136a7565b828001600101855582156136a7579182015b828111156136a657825182559160200191906001019061368b565b5b5090506136b491906136b8565b5090565b5b808211156136d15760008160009055506001016136b9565b5090565b60006136e86136e384614a17565b6149f2565b90508281526020810184848401111561370457613703614f00565b5b61370f848285614d51565b509392505050565b60008135905061372681615248565b92915050565b60008135905061373b8161525f565b92915050565b60008151905061375081615276565b92915050565b600082601f83011261376b5761376a614efb565b5b813561377b8482602086016136d5565b91505092915050565b6000813590506137938161528d565b92915050565b6000815190506137a88161528d565b92915050565b6000602082840312156137c4576137c3614f0a565b5b60006137d284828501613717565b91505092915050565b6000602082840312156137f1576137f0614f0a565b5b60006137ff84828501613741565b91505092915050565b600080600080600080600080610100898b03121561382957613828614f0a565b5b600089013567ffffffffffffffff81111561384757613846614f05565b5b6138538b828c01613756565b985050602089013567ffffffffffffffff81111561387457613873614f05565b5b6138808b828c01613756565b975050604089013567ffffffffffffffff8111156138a1576138a0614f05565b5b6138ad8b828c01613756565b965050606089013567ffffffffffffffff8111156138ce576138cd614f05565b5b6138da8b828c01613756565b95505060806138eb8b828c01613784565b94505060a06138fc8b828c01613717565b93505060c061390d8b828c01613784565b92505060e061391e8b828c0161372c565b9150509295985092959890939650565b60006020828403121561394457613943614f0a565b5b600061395284828501613784565b91505092915050565b60006020828403121561397157613970614f0a565b5b600061397f84828501613799565b91505092915050565b6000806040838503121561399f5761399e614f0a565b5b60006139ad85828601613784565b925050602083013567ffffffffffffffff8111156139ce576139cd614f05565b5b6139da85828601613756565b9150509250929050565b600080600080600060a08688031215613a00576139ff614f0a565b5b6000613a0e88828901613784565b955050602086013567ffffffffffffffff811115613a2f57613a2e614f05565b5b613a3b88828901613756565b9450506040613a4c88828901613717565b9350506060613a5d88828901613784565b9250506080613a6e88828901613784565b9150509295509295909350565b600080600080600060a08688031215613a9757613a96614f0a565b5b6000613aa588828901613784565b955050602086013567ffffffffffffffff811115613ac657613ac5614f05565b5b613ad288828901613756565b945050604086013567ffffffffffffffff811115613af357613af2614f05565b5b613aff88828901613756565b935050606086013567ffffffffffffffff811115613b2057613b1f614f05565b5b613b2c88828901613756565b925050608086013567ffffffffffffffff811115613b4d57613b4c614f05565b5b613b5988828901613756565b9150509295509295909350565b6000613b728383613e0c565b905092915050565b6000613b868383613e45565b905092915050565b6000613b9a8383614175565b905092915050565b6000613bae8383614405565b60208301905092915050565b613bc381614c58565b82525050565b613bd281614c46565b82525050565b613be181614c46565b82525050565b6000613bf282614aa2565b613bfc8185614b0d565b935083602082028501613c0e85614a48565b8060005b85811015613c4a5784840389528151613c2b8582613b66565b9450613c3683614ad9565b925060208a01995050600181019050613c12565b50829750879550505050505092915050565b6000613c6782614aad565b613c718185614b0d565b935083602082028501613c8385614a58565b8060005b85811015613cbe57848403895281613c9f8582613b7a565b9450613caa83614ae6565b925060208a01995050600181019050613c87565b50829750879550505050505092915050565b6000613cdb82614ab8565b613ce58185614b1e565b935083602082028501613cf785614a6d565b8060005b85811015613d335784840389528151613d148582613b8e565b9450613d1f83614af3565b925060208a01995050600181019050613cfb565b50829750879550505050505092915050565b6000613d5082614ac3565b613d5a8185614b2f565b9350613d6583614a7d565b8060005b83811015613d96578151613d7d8882613ba2565b9750613d8883614b00565b925050600181019050613d69565b5085935050505092915050565b613dac81614c6a565b82525050565b613dbb81614caf565b82525050565b613dca81614cd3565b82525050565b613dd981614cf7565b82525050565b613de881614d1b565b82525050565b613df781614d2d565b82525050565b613e0681614d3f565b82525050565b6000613e1782614ace565b613e218185614b40565b9350613e31818560208601614d60565b613e3a81614f0f565b840191505092915050565b60008154613e5281614d93565b613e5c8186614b40565b94506001821660008114613e775760018114613e8957613ebc565b60ff1983168652602086019350613ebc565b613e9285614a8d565b60005b83811015613eb457815481890152600182019150602081019050613e95565b808801955050505b50505092915050565b60008154613ed281614d93565b613edc8186614b51565b94506001821660008114613ef75760018114613f0957613f3c565b60ff1983168652602086019350613f3c565b613f1285614a8d565b60005b83811015613f3457815481890152600182019150602081019050613f15565b808801955050505b50505092915050565b6000613f52601e83614b51565b9150613f5d82614f20565b602082019050919050565b6000613f75601283614b51565b9150613f8082614f49565b602082019050919050565b6000613f98601583614b51565b9150613fa382614f72565b602082019050919050565b6000613fbb601883614b51565b9150613fc682614f9b565b602082019050919050565b6000613fde602b83614b51565b9150613fe982614fc4565b604082019050919050565b6000614001601983614b51565b915061400c82615013565b602082019050919050565b6000614024601883614b51565b915061402f8261503c565b602082019050919050565b6000614047602483614b51565b915061405282615065565b604082019050919050565b600061406a601d83614b51565b9150614075826150b4565b602082019050919050565b600061408d601583614b51565b9150614098826150dd565b602082019050919050565b60006140b0602c83614b51565b91506140bb82615106565b604082019050919050565b60006140d3602783614b51565b91506140de82615155565b604082019050919050565b60006140f6601f83614b51565b9150614101826151a4565b602082019050919050565b6000614119601983614b51565b9150614124826151cd565b602082019050919050565b600061413c601a83614b51565b9150614147826151f6565b602082019050919050565b600061415f600d83614b51565b915061416a8261521f565b602082019050919050565b60006101a08301600083015161418e6000860182614405565b50602083015184820360208601526141a68282613e0c565b915050604083015184820360408601526141c08282613e0c565b915050606083015184820360608601526141da8282613e0c565b915050608083015184820360808601526141f48282613e0c565b91505060a083015161420960a0860182613bc9565b5060c083015161421c60c0860182614405565b5060e083015161422f60e0860182614405565b50610100830151614244610100860182614405565b50610120830151614259610120860182613bba565b5061014083015161426e610140860182613bc9565b50610160830151614283610160860182613da3565b50610180830151614298610180860182614405565b508091505092915050565b610100820160008201516142ba6000850182613bc9565b5060208201516142cd6020850182613bc9565b5060408201516142e060408501826143f6565b5060608201516142f36060850182613bc9565b5060808201516143066080850182614405565b5060a082015161431960a0850182614405565b5060c082015161432c60c0850182614405565b5060e082015161433f60e08501826143e7565b50505050565b6101008201600082015161435c6000850182613bc9565b50602082015161436f6020850182613bc9565b50604082015161438260408501826143f6565b5060608201516143956060850182613bc9565b5060808201516143a86080850182614405565b5060a08201516143bb60a0850182614405565b5060c08201516143ce60c0850182614405565b5060e08201516143e160e08501826143e7565b50505050565b6143f081614c76565b82525050565b6143ff81614c96565b82525050565b61440e81614ca5565b82525050565b61441d81614ca5565b82525050565b60006040820190506144386000830185613bd8565b6144456020830184613bd8565b9392505050565b60006060820190506144616000830186613bd8565b61446e6020830185613bd8565b61447b6040830184614414565b949350505050565b60006040820190506144986000830185613bd8565b6144a56020830184614414565b9392505050565b600060208201905081810360008301526144c68184613be7565b905092915050565b600060208201905081810360008301526144e88184613cd0565b905092915050565b6000602082019050818103600083015261450a8184613d45565b905092915050565b60006020820190506145276000830184613db2565b92915050565b60006020820190506145426000830184613dc1565b92915050565b600060208201905061455d6000830184613dd0565b92915050565b6000606082019050818103600083015261457d8186613ec5565b905061458c6020830185613ddf565b6145996040830184613bd8565b949350505050565b600060608201905081810360008301526145bb8186613ec5565b90506145ca6020830185613dee565b6145d76040830184613bd8565b949350505050565b600060608201905081810360008301526145f98186613ec5565b90506146086020830185613dfd565b6146156040830184613bd8565b949350505050565b6000602082019050818103600083015261463681613f45565b9050919050565b6000602082019050818103600083015261465681613f68565b9050919050565b6000602082019050818103600083015261467681613f8b565b9050919050565b6000602082019050818103600083015261469681613fae565b9050919050565b600060208201905081810360008301526146b681613fd1565b9050919050565b600060208201905081810360008301526146d681613ff4565b9050919050565b600060208201905081810360008301526146f681614017565b9050919050565b600060208201905081810360008301526147168161403a565b9050919050565b600060208201905081810360008301526147368161405d565b9050919050565b6000602082019050818103600083015261475681614080565b9050919050565b60006020820190508181036000830152614776816140a3565b9050919050565b60006020820190508181036000830152614796816140c6565b9050919050565b600060208201905081810360008301526147b6816140e9565b9050919050565b600060208201905081810360008301526147d68161410c565b9050919050565b600060208201905081810360008301526147f68161412f565b9050919050565b6000602082019050818103600083015261481681614152565b9050919050565b60006101008201905061483360008301846142a3565b92915050565b60006101008201905061484f6000830184614345565b92915050565b600060208201905061486a6000830184614414565b92915050565b60006060820190506148856000830186614414565b6148926020830185613ddf565b81810360408301526148a48184613c5c565b9050949350505050565b60006060820190506148c36000830186614414565b81810360208301526148d58185613ec5565b90506148e46040830184613ddf565b949350505050565b60006060820190506149016000830186614414565b81810360208301526149138185613ec5565b90506149226040830184613dee565b949350505050565b600060608201905061493f6000830186614414565b81810360208301526149518185613ec5565b90506149606040830184613dfd565b949350505050565b600060608201905061497d6000830186614414565b61498a6020830185614414565b818103604083015261499c8184613c5c565b9050949350505050565b60006080820190506149bb6000830187614414565b6149c86020830186614414565b81810360408301526149da8185613ec5565b90506149e96060830184613bd8565b95945050505050565b60006149fc614a0d565b9050614a088282614dc5565b919050565b6000604051905090565b600067ffffffffffffffff821115614a3257614a31614ecc565b5b614a3b82614f0f565b9050602081019050919050565b6000819050602082019050919050565b60008190508160005260206000209050919050565b6000819050602082019050919050565b6000819050602082019050919050565b60008190508160005260206000209050919050565b600081519050919050565b600081549050919050565b600081519050919050565b600081519050919050565b600081519050919050565b6000602082019050919050565b6000600182019050919050565b6000602082019050919050565b6000602082019050919050565b600082825260208201905092915050565b600082825260208201905092915050565b600082825260208201905092915050565b600082825260208201905092915050565b600082825260208201905092915050565b6000614b6d82614ca5565b9150614b7883614ca5565b9250827fffffffffffffffffffffffffffffffffffffffffffffffffffffffffffffffff03821115614bad57614bac614e3f565b5b828201905092915050565b6000614bc382614ca5565b9150614bce83614ca5565b9250817fffffffffffffffffffffffffffffffffffffffffffffffffffffffffffffffff0483118215151615614c0757614c06614e3f565b5b828202905092915050565b6000614c1d82614ca5565b9150614c2883614ca5565b925082821015614c3b57614c3a614e3f565b5b828203905092915050565b6000614c5182614c76565b9050919050565b6000614c6382614c76565b9050919050565b60008115159050919050565b600073ffffffffffffffffffffffffffffffffffffffff82169050919050565b600062ffffff82169050919050565b6000819050919050565b6000614cba82614cc1565b9050919050565b6000614ccc82614c76565b9050919050565b6000614cde82614ce5565b9050919050565b6000614cf082614c76565b9050919050565b6000614d0282614d09565b9050919050565b6000614d1482614c76565b9050919050565b6000614d2682614ca5565b9050919050565b6000614d3882614ca5565b9050919050565b6000614d4a82614ca5565b9050919050565b82818337600083830152505050565b60005b83811015614d7e578082015181840152602081019050614d63565b83811115614d8d576000848401525b50505050565b60006002820490506001821680614dab57607f821691505b60208210811415614dbf57614dbe614e6e565b5b50919050565b614dce82614f0f565b810181811067ffffffffffffffff82111715614ded57614dec614ecc565b5b80604052505050565b6000614e0182614ca5565b91507fffffffffffffffffffffffffffffffffffffffffffffffffffffffffffffffff821415614e3457614e33614e3f565b5b600182019050919050565b7f4e487b7100000000000000000000000000000000000000000000000000000000600052601160045260246000fd5b7f4e487b7100000000000000000000000000000000000000000000000000000000600052602260045260246000fd5b7f4e487b7100000000000000000000000000000000000000000000000000000000600052603260045260246000fd5b7f4e487b7100000000000000000000000000000000000000000000000000000000600052604160045260246000fd5b600080fd5b600080fd5b600080fd5b600080fd5b6000601f19601f8301169050919050565b7f646f6e6174696f6e206d757374206265206c6172676572207468616e20300000600082015250565b7f6e6f20746f6b656e732072656365697665640000000000000000000000000000600082015250565b7f54617267657420616d6f756e7420657863656465640000000000000000000000600082015250565b7f54686973206973206e6f74204554482063616d706169676e0000000000000000600082015250565b7f796f752063616e27742062652063616d706169676e2062656e65666163746f7260008201527f20746f20646f2074686973000000000000000000000000000000000000000000602082015250565b7f436865636b2074686520746f6b656e20616c6c6f77616e636500000000000000600082015250565b7f7472616e73666572206f6620546f6b656e206661696c65640000000000000000600082015250565b7f746f6b656e20646f6e6174696f6e206d757374206265206c617267657220746860008201527f616e203000000000000000000000000000000000000000000000000000000000602082015250565b7f7472616e73666572206f66205765746820546f6b656e206661696c6564000000600082015250565b7f63616d7061696e67206861732066696e69736865640000000000000000000000600082015250565b7f63616d706169676e2074617267657420616d6f756e74206d757374206265206c60008201527f6172676572207468616e20300000000000000000000000000000000000000000602082015250565b7f796f75206d7573742062652063616d706169676e2063726561746f7220746f2060008201527f646f207468697300000000000000000000000000000000000000000000000000602082015250565b7f43616d706169676e206d75737420656e6420696e207468652066757475726500600082015250565b7f43616d706169676e20616c72656164792066696e697368656400000000000000600082015250565b7f4d7573742070617373206e6f6e20302045544820616d6f756e74000000000000600082015250565b7f726566756e64206661696c656400000000000000000000000000000000000000600082015250565b61525181614c46565b811461525c57600080fd5b50565b61526881614c58565b811461527357600080fd5b50565b61527f81614c6a565b811461528a57600080fd5b50565b61529681614ca5565b81146152a157600080fd5b5056fea26469706673582212200dca3f4f0d5398ca74985397a5238c46bc016e66e88b692f012568fb561b016f64736f6c63430008060033",
  "immutableReferences": {},
  "source": "// SPDX-License-Identifier: MIT\npragma solidity >=0.7.6 <0.9.0;\npragma abicoder v2;\n\n// import \"https://github.com/Uniswap/uniswap-v3-periphery/blob/main/contracts/interfaces/ISwapRouter.sol\";\n// import \"https://github.com/Uniswap/uniswap-v3-periphery/blob/main/contracts/interfaces/IQuoter.sol\";\nimport \"@uniswap/v3-periphery/contracts/interfaces/ISwapRouter.sol\";\nimport \"@uniswap/v3-periphery/contracts/interfaces/IQuoter.sol\";\nimport \"./SupportChildrenCollectable.sol\";\n\ninterface IUniswapRouter is ISwapRouter {\n    function refundETH() external payable;\n}\n\ninterface IERC20 {\n    function transferFrom(\n        address sender, \n        address recipient, \n        uint256 amount) \n        external \n        returns (bool);\n    function approve(address spender, uint tokens)  external returns (bool);\n    function totalSupply() external view returns (uint256);\n    function balanceOf(address account) external view returns (uint256);\n    function allowance(address owner, address spender) external view returns (uint256);\n\n    function transfer(address recipient, uint256 amount) external returns (bool);\n}\n\ninterface IUniswap {\n    function swapExactTokensForETH(\n        uint amountIn, \n        uint amountOutMin, \n        address[] calldata path, \n        address to, \n        uint deadline)\n        external\n        returns (uint[] memory amounts);\n    function WETH() external pure returns (address);\n}\n    \ncontract SupportChildren {\n    SupportChildrenCollectable public constant nft = SupportChildrenCollectable(0x2E48d65dD6933E8146A7D2b891d173BFa438b244);\n    IUniswapRouter public constant uniswapRouter = IUniswapRouter(0xE592427A0AEce92De3Edee1F18E0157C05861564);\n    IQuoter public constant quoter = IQuoter(0xb27308f9F90D607463bb33eA1BeBb41C27CE5AB6);\n    address private constant multiDaiKovan = 0x6B175474E89094C44Da98b954EedeAC495271d0F;\n    address private constant WETH9 = 0xC02aaA39b223FE8D0A0e5C4F27eAD9083C756Cc2;\n  \n    event DonationMade (\n        uint campaignId,\n        uint donationAmount,\n        string notifyEmail,\n        address token\n    );\n\n    event CampaignCreated (\n        uint campaignId\n    );\n\n    event CampaignFinished (\n        uint campaignId,\n        uint currentAmount,\n        string[] notifyEmails\n    );\n\n    event CreateNFT (\n        uint campaignId,\n        string campaignImage,\n        uint nftType\n    );\n    \n    uint campaignIndex;\n    uint count;\n    \n    struct Campaign {\n        uint id;\n        string name; \n        string description;\n        string creatorEmail; \n        string image; \n        address targetCurrency; \n        uint targetAmount;\n        uint currentAmount;\n        uint amountInWeth;\n        address payable beneficiaryAddress;\n        address creatorAddress;\n        bool active;\n        uint endTimestamp;\n    }\n    \n    Campaign[] campaigns;\n    \n    mapping(uint => string[]) campaignDonationsEmails;\n    mapping(address => uint[]) campaignDonors;\n    \n    modifier campaignCreator(uint _campaignId) {\n        require(campaigns[_campaignId].creatorAddress == tx.origin, \"you must be campaign creator to do this\");\n        _;\n    }\n    \n    modifier notCampaignCreator(uint _campaignId) {\n        require(campaigns[_campaignId].creatorAddress != tx.origin, \"you can't be campaign creator to do this\");\n        _;\n    }\n\n    modifier ethCampaign(uint _campaignId) {\n        require(campaigns[_campaignId].targetCurrency == address(this), \"This is not ETH campaign\");\n        _;\n    }\n\n    modifier notCampaignBenefactor(uint _campaignId) {\n        require(campaigns[_campaignId].beneficiaryAddress != tx.origin, \"you can't be campaign benefactor to do this\");\n        _;\n    }\n\n    modifier campaignActive(uint _campaignId) {\n        require(campaigns[_campaignId].active == true, \"campaing has finished\");\n        require(campaigns[_campaignId].endTimestamp > block.timestamp, \"Campaign already finished\");\n        _;\n    }\n\n    function createCampaign(string memory _name, string memory _description, string memory _creatorEmail, string memory _image, uint _endTimestamp, address _targetCurrency, uint _targetAmount, address payable _beneficiaryAddress) public {\n        require(_targetAmount > 0, \"campaign target amount must be larger than 0\");\n        require(_endTimestamp > block.timestamp, \"Campaign must end in the future\");\n        campaigns.push(Campaign({\n            id: count,\n            name: _name,\n            description: _description,\n            creatorEmail: _creatorEmail,\n            image: _image,\n            targetAmount: _targetAmount,\n            targetCurrency: _targetCurrency,\n            currentAmount: 0,\n            amountInWeth: 0,\n            beneficiaryAddress: _beneficiaryAddress,\n            creatorAddress: tx.origin,\n            active: true,\n            endTimestamp: _endTimestamp \n        }));\n\n        emit CampaignCreated(count);\n        \n        count++;\n    }\n\n    function endCampaign(uint _campaignId) public campaignActive(_campaignId) campaignCreator(_campaignId) {\n        if (campaigns[_campaignId].currentAmount > 0) {\n            finishCampaign(_campaignId);\n        } else {\n            emit CampaignFinished(_campaignId, 0, campaignDonationsEmails[_campaignId]);\n            campaigns[_campaignId].active = false;\n        }\n    }\n\n    function editCampaign(uint _campaignId, string memory _name, string memory _description, string memory _creatorEmail, string memory _image) public campaignActive(_campaignId) campaignCreator(_campaignId) {\n        campaigns[_campaignId].name = _name;\n        campaigns[_campaignId].description = _description;\n        campaigns[_campaignId].creatorEmail = _creatorEmail;\n        campaigns[_campaignId].image = _image;\n    }\n\n    function finishCampaign(uint _campaignId) private {\n        emit CampaignFinished(_campaignId, campaigns[_campaignId].currentAmount, campaignDonationsEmails[_campaignId]);\n        // Send collected value to the address of the child\n        if (campaigns[_campaignId].targetCurrency == address(this)) {\n            if (campaigns[_campaignId].amountInWeth > 0) {\n                campaigns[_campaignId].beneficiaryAddress.transfer(campaigns[_campaignId].currentAmount-campaigns[_campaignId].amountInWeth);\n                \n                (bool success) = IERC20(WETH9).transfer(msg.sender, campaigns[_campaignId].amountInWeth);\n                require(success, \"transfer of Weth Token failed\");\n            } else {\n                campaigns[_campaignId].beneficiaryAddress.transfer(campaigns[_campaignId].currentAmount);\n            }\n        } else {\n            (bool success) = IERC20(campaigns[_campaignId].targetCurrency).transfer(msg.sender, campaigns[_campaignId].currentAmount);\n            require(success, \"transfer of Token failed\");\n        }\n        campaigns[_campaignId].active = false;\n    }\n\n\n    // ETH to ETH\n    function donateEthToEthCampaign(uint _campaignId, string memory _donorEmail) payable public campaignActive(_campaignId) notCampaignBenefactor(_campaignId) ethCampaign(_campaignId) {\n        require(msg.value > 0, \"donation must be larger than 0\");\n        // curentamount must be fetched from frontend\n        require((campaigns[_campaignId].currentAmount  + msg.value) * 10 < 11 * campaigns[_campaignId].targetAmount, \"Target amount exceded\");\n        uint initialCampaingAmount = campaigns[_campaignId].currentAmount;\n        campaignDonationsEmails[_campaignId].push(_donorEmail);\n        campaignDonors[tx.origin].push(_campaignId);\n        campaigns[_campaignId].currentAmount = campaigns[_campaignId].currentAmount  + msg.value;\n\n        emit DonationMade(_campaignId, msg.value, campaigns[_campaignId].creatorEmail, address(this));\n\n        checkForSpecialEvents(_campaignId, initialCampaingAmount);  \n    }\n\n    // ETH to Token\n    function donateEthToTokenCampaign(uint _campaignId, string memory _donorEmail) payable public campaignActive(_campaignId) {\n        require(msg.value > 0, \"donation must be larger than 0\");\n\n        (uint256 tokensReceived) = convertExactEthToToken(campaigns[_campaignId].targetCurrency);\n        require((campaigns[_campaignId].currentAmount  + tokensReceived) * 10 < 11 * campaigns[_campaignId].targetAmount, \"Target amount exceded\");\n        uint initialCampaingAmount = campaigns[_campaignId].currentAmount;        \n        campaignDonationsEmails[_campaignId].push(_donorEmail);\n        campaignDonors[tx.origin].push(_campaignId);\n        campaigns[_campaignId].currentAmount = campaigns[_campaignId].currentAmount  + tokensReceived;\n\n        emit DonationMade(_campaignId, msg.value, campaigns[_campaignId].creatorEmail, address(this));\n\n        checkForSpecialEvents(_campaignId, initialCampaingAmount);  \n    }\n\n    // Token to ETH\n    function donateTokenToETHCampaign(uint _campaignId, string memory _donorEmail, address token, uint amountOut, uint amountInMax) public campaignActive(_campaignId) {\n        require(amountInMax > 0, \"token donation must be larger than 0\");\n        require(amountOut > 0, \"token donation must be larger than 0\");\n        require((campaigns[_campaignId].currentAmount  + amountOut) * 10 < 11 * campaigns[_campaignId].targetAmount, \"Target amount exceded\");\n        \n        (uint256 tokensSpent) = convertTokenToExactEth(token, amountOut, amountInMax);\n        uint initialCampaingAmount = campaigns[_campaignId].currentAmount;\n        campaignDonationsEmails[_campaignId].push(_donorEmail);\n        campaignDonors[tx.origin].push(_campaignId);\n        campaigns[_campaignId].amountInWeth = campaigns[_campaignId].amountInWeth + amountOut;\n        campaigns[_campaignId].currentAmount = campaigns[_campaignId].currentAmount + amountOut;\n        emit DonationMade(_campaignId, tokensSpent, campaigns[_campaignId].creatorEmail, token);\n\n        checkForSpecialEvents(_campaignId, initialCampaingAmount);  \n    }\n    \n    // Token to Token\n    function donateTokenToTokenCampaign(uint _campaignId, string memory _donorEmail, address tokenIn, uint amountOut, uint amountInMax) public campaignActive(_campaignId) {\n        require(amountInMax > 0, \"token donation must be larger than 0\");\n        require(amountOut > 0, \"token donation must be larger than 0\");\n        require((campaigns[_campaignId].currentAmount  + amountOut) * 10 < 11 * campaigns[_campaignId].targetAmount, \"Target amount exceded\");\n        (uint256 tokensSpent) = convertTokenToExactToken(tokenIn, campaigns[_campaignId].targetCurrency, amountOut, amountInMax);\n        uint initialCampaingAmount = campaigns[_campaignId].currentAmount;\n        campaignDonationsEmails[_campaignId].push(_donorEmail);\n        campaignDonors[tx.origin].push(_campaignId);\n        campaigns[_campaignId].currentAmount = campaigns[_campaignId].currentAmount + amountOut;\n        emit DonationMade(_campaignId, tokensSpent, campaigns[_campaignId].creatorEmail, tokenIn);\n\n        checkForSpecialEvents(_campaignId, initialCampaingAmount);       \n    }\n\n    function checkForSpecialEvents(uint _campaignId, uint initialCampaingAmount) internal {\n        if (campaigns[_campaignId].currentAmount >= campaigns[_campaignId].targetAmount) {\n            finishCampaign(_campaignId);\n            if (initialCampaingAmount != 0) {\n                // Closed a campaing NFT\n                nft.createCollectible(campaigns[_campaignId].image, 1, tx.origin);\n                emit CreateNFT(_campaignId, campaigns[_campaignId].image, 1);\n            } else {\n                // Was only donator to the campaing NFT\n                nft.createCollectible(campaigns[_campaignId].image, 2, tx.origin);\n                emit CreateNFT(_campaignId, campaigns[_campaignId].image, 2);\n            }\n\n            return;\n        }\n\n        if (initialCampaingAmount == 0) {\n            // First donation to the campaign NFT\n            nft.createCollectible(campaigns[_campaignId].image, 0, tx.origin);\n            emit CreateNFT(_campaignId, campaigns[_campaignId].image, 0);\n        }\n    }\n    \n    function getDonorEmails(uint _campaignId) view public returns (string[] memory) {\n        return campaignDonationsEmails[_campaignId];\n    }\n    \n    function getDonorsCampaingsList(address _donor) view public returns (uint[] memory) {\n        return campaignDonors[_donor];\n    }\n    \n    function getCampaigns() public view returns (Campaign[] memory) {\n        return campaigns;\n    }\n\n    function getCampaignAmount(uint _campaignId) public view returns (uint) {\n        return campaigns[_campaignId].currentAmount;\n    }\n\n    function convertExactEthToToken(address token) internal returns (uint256) {\n        require(msg.value > 0, \"Must pass non 0 ETH amount\");\n\n        uint256 deadline = block.timestamp + 15; // using 'now' for convenience, for mainnet pass deadline from frontend!\n        address tokenIn = WETH9;\n        address tokenOut = token;\n        uint24 fee = 3000;\n        address recipient = address(this);\n        uint256 amountIn = msg.value;\n        uint256 amountOutMinimum = 1;\n        uint160 sqrtPriceLimitX96 = 0;\n        \n        ISwapRouter.ExactInputSingleParams memory params = ISwapRouter.ExactInputSingleParams(\n            tokenIn,\n            tokenOut,\n            fee,\n            recipient,\n            deadline,\n            amountIn,\n            amountOutMinimum,\n            sqrtPriceLimitX96\n        );\n        \n        uint256 amountOfTokenReceived = uniswapRouter.exactInputSingle{ value: msg.value }(params);\n        require(amountOfTokenReceived > 0, \"no tokens received\");\n        return amountOfTokenReceived;\n    }\n    \n    function convertTokenToExactEth(address token, uint amountOut, uint amountInMaximum) internal returns (uint256) {\n        uint256 allowance = IERC20(token).allowance(msg.sender, address(this));\n        require(allowance >= amountInMaximum, \"Check the token allowance\");\n        IERC20(token).transferFrom(msg.sender, address(this), amountInMaximum);\n        uint256 deadline = block.timestamp + 15; // using 'now' for convenience, for mainnet pass deadline from frontend!\n        address tokenIn = token;\n        address tokenOut = WETH9;\n        uint24 fee = 3000;\n        address recipient = address(this);\n        uint160 sqrtPriceLimitX96 = 0;\n        IERC20(token).approve(address(uniswapRouter), amountInMaximum);\n        \n        ISwapRouter.ExactOutputSingleParams memory params = ISwapRouter.ExactOutputSingleParams(\n            tokenIn,\n            tokenOut,\n            fee,\n            recipient,\n            deadline,\n            amountOut,\n            amountInMaximum,\n            sqrtPriceLimitX96\n        );\n        \n        uint256 amountOfTokenUsed = uniswapRouter.exactOutputSingle(params);\n        uint256 remainderOfTokens = amountInMaximum-amountOfTokenUsed;\n        // refund leftover Tokens to user\n        (bool success) = IERC20(token).transfer(msg.sender, remainderOfTokens);\n        require(success, \"refund failed\");\n        \n        return amountOfTokenUsed;\n    }\n    \n    function convertTokenToExactToken(address tokenIn, address tokenOut, uint amountOut, uint amountInMaximum) internal returns (uint256) {\n        uint256 allowance = IERC20(tokenIn).allowance(msg.sender, address(this));\n        require(allowance >= amountInMaximum, \"Check the token allowance\");\n        IERC20(tokenIn).transferFrom(msg.sender, address(this), amountInMaximum);\n        uint256 deadline = block.timestamp + 15; // using 'now' for convenience, for mainnet pass deadline from frontend!\n        uint24 fee = 3000;\n        address recipient = address(this);\n        uint160 sqrtPriceLimitX96 = 0;\n        IERC20(tokenIn).approve(address(uniswapRouter), amountInMaximum);\n        \n        ISwapRouter.ExactOutputSingleParams memory params = ISwapRouter.ExactOutputSingleParams(\n            tokenIn,\n            tokenOut,\n            fee,\n            recipient,\n            deadline,\n            amountOut,\n            amountInMaximum,\n            sqrtPriceLimitX96\n        );\n        \n        uint256 amountOfTokenUsed = uniswapRouter.exactOutputSingle(params);\n        uint256 remainderOfTokens = amountInMaximum-amountOfTokenUsed;\n        \n        // refund leftover Tokens to user\n        (bool success) = IERC20(tokenIn).transfer(msg.sender, remainderOfTokens);\n        require(success, \"refund failed\");\n        \n        return amountOfTokenUsed;\n    }\n    \n    // do not used on-chain, gas inefficient!\n    function getEstimatedETHforDAI(uint daiAmount) internal returns (uint256) {\n        address tokenIn = WETH9;\n        address tokenOut = multiDaiKovan;\n        uint24 fee = 3000;\n        uint160 sqrtPriceLimitX96 = 0;\n\n        return quoter.quoteExactOutputSingle(\n            tokenIn,\n            tokenOut,\n            fee,\n            daiAmount,\n            sqrtPriceLimitX96\n        );\n    }\n\n    // important to receive ETH\n    receive() payable external {}\n}",
  "sourcePath": "/home/zarko/learn/ethereum/support-children/contracts/SupportChildren.sol",
  "compiler": {
    "name": "solc",
    "version": "0.8.6+commit.11564f7e.Emscripten.clang"
  },
  "schemaVersion": "3.4.1",
  "updatedAt": "2021-08-10T06:48:18.612Z",
  "networkType": "ethereum",
  "devdoc": {
    "kind": "dev",
    "methods": {},
    "version": 1
  },
  "userdoc": {
    "kind": "user",
    "methods": {},
    "version": 1
  }
}