{
  "contractName": "SupportChildren",
  "abi": [
    {
      "anonymous": false,
      "inputs": [
        {
          "indexed": false,
          "internalType": "uint256",
          "name": "campaignId",
          "type": "uint256"
        },
        {
          "indexed": false,
          "internalType": "uint256",
          "name": "currentAmount",
          "type": "uint256"
        },
        {
          "indexed": false,
          "internalType": "string[]",
          "name": "notifyEmails",
          "type": "string[]"
        }
      ],
      "name": "CampaignFinished",
      "type": "event"
    },
    {
      "anonymous": false,
      "inputs": [
        {
          "indexed": false,
          "internalType": "uint256",
          "name": "campaignId",
          "type": "uint256"
        },
        {
          "indexed": false,
          "internalType": "uint256",
          "name": "donationAmount",
          "type": "uint256"
        },
        {
          "indexed": false,
          "internalType": "string",
          "name": "notifyEmail",
          "type": "string"
        }
      ],
      "name": "DonationMade",
      "type": "event"
    },
    {
      "inputs": [
        {
          "internalType": "string",
          "name": "_name",
          "type": "string"
        },
        {
          "internalType": "string",
          "name": "_description",
          "type": "string"
        },
        {
          "internalType": "string",
          "name": "_creatorEmail",
          "type": "string"
        },
        {
          "internalType": "string",
          "name": "_image",
          "type": "string"
        },
        {
          "internalType": "uint256",
          "name": "_targetAmount",
          "type": "uint256"
        },
        {
          "internalType": "address payable",
          "name": "_beneficiaryAddress",
          "type": "address"
        }
      ],
      "name": "createCampaign",
      "outputs": [],
      "stateMutability": "nonpayable",
      "type": "function"
    },
    {
      "inputs": [
        {
          "internalType": "uint256",
          "name": "_campaignId",
          "type": "uint256"
        }
      ],
      "name": "endCampaign",
      "outputs": [],
      "stateMutability": "nonpayable",
      "type": "function"
    },
    {
      "inputs": [
        {
          "internalType": "uint256",
          "name": "_campaignId",
          "type": "uint256"
        },
        {
          "internalType": "string",
          "name": "_donorEmail",
          "type": "string"
        }
      ],
      "name": "donate",
      "outputs": [],
      "stateMutability": "payable",
      "type": "function",
      "payable": true
    },
    {
      "inputs": [
        {
          "internalType": "uint256",
          "name": "_campaignId",
          "type": "uint256"
        }
      ],
      "name": "getDonorEmails",
      "outputs": [
        {
          "internalType": "string[]",
          "name": "",
          "type": "string[]"
        }
      ],
      "stateMutability": "view",
      "type": "function",
      "constant": true
    },
    {
      "inputs": [
        {
          "internalType": "address",
          "name": "_donor",
          "type": "address"
        }
      ],
      "name": "getDonorsCampaingsList",
      "outputs": [
        {
          "internalType": "uint256[]",
          "name": "",
          "type": "uint256[]"
        }
      ],
      "stateMutability": "view",
      "type": "function",
      "constant": true
    },
    {
      "inputs": [],
      "name": "getCampaigns",
      "outputs": [
        {
          "components": [
            {
              "internalType": "uint256",
              "name": "id",
              "type": "uint256"
            },
            {
              "internalType": "string",
              "name": "name",
              "type": "string"
            },
            {
              "internalType": "string",
              "name": "description",
              "type": "string"
            },
            {
              "internalType": "string",
              "name": "creatorEmail",
              "type": "string"
            },
            {
              "internalType": "string",
              "name": "image",
              "type": "string"
            },
            {
              "internalType": "uint256",
              "name": "targetAmount",
              "type": "uint256"
            },
            {
              "internalType": "uint256",
              "name": "currentAmount",
              "type": "uint256"
            },
            {
              "internalType": "address payable",
              "name": "beneficiaryAddress",
              "type": "address"
            },
            {
              "internalType": "address",
              "name": "creatorAddress",
              "type": "address"
            },
            {
              "internalType": "bool",
              "name": "active",
              "type": "bool"
            }
          ],
          "internalType": "struct SupportChildren.Campaign[]",
          "name": "",
          "type": "tuple[]"
        }
      ],
      "stateMutability": "view",
      "type": "function",
      "constant": true
    },
    {
      "inputs": [
        {
          "internalType": "uint256",
          "name": "_campaignId",
          "type": "uint256"
        }
      ],
      "name": "getCampaignAmount",
      "outputs": [
        {
          "internalType": "uint256",
          "name": "",
          "type": "uint256"
        }
      ],
      "stateMutability": "view",
      "type": "function",
      "constant": true
    }
  ],
  "bytecode": "0x608060405234801561001057600080fd5b50611c07806100206000396000f3fe6080604052600436106100705760003560e01c8063909f7d661161004e578063909f7d661461010b578063a6b0363314610148578063b168530614610173578063dd0408ae1461019c57610070565b806318fedf0614610075578063296c10f4146100b25780638d59d1f1146100ef575b600080fd5b34801561008157600080fd5b5061009c60048036038101906100979190610f00565b6101c5565b6040516100a991906115e3565b60405180910390f35b3480156100be57600080fd5b506100d960048036038101906100d4919061102a565b61025c565b6040516100e69190611665565b60405180910390f35b61010960048036038101906101049190611057565b61028b565b005b34801561011757600080fd5b50610132600480360381019061012d919061102a565b61050b565b60405161013f919061159f565b60405180910390f35b34801561015457600080fd5b5061015d6105f7565b60405161016a91906115c1565b60405180910390f35b34801561017f57600080fd5b5061019a60048036038101906101959190610f2d565b610984565b005b3480156101a857600080fd5b506101c360048036038101906101be919061102a565b610b8b565b005b6060600460008373ffffffffffffffffffffffffffffffffffffffff1673ffffffffffffffffffffffffffffffffffffffff16815260200190815260200160002080548060200260200160405190810160405280929190818152602001828054801561025057602002820191906000526020600020905b81548152602001906001019080831161023c575b50505050509050919050565b60006002828154811061027257610271611a68565b5b9060005260206000209060090201600601549050919050565b6002828154811061029f5761029e611a68565b5b906000526020600020906009020160080160149054906101000a900460ff166102fd576040517f08c379a00000000000000000000000000000000000000000000000000000000081526004016102f490611625565b60405180910390fd5b60003411610340576040517f08c379a000000000000000000000000000000000000000000000000000000000815260040161033790611605565b60405180910390fd5b600360008381526020019081526020016000208190806001815401808255809150506001900390600052602060002001600090919091909150908051906020019061038c929190610dae565b50600460003273ffffffffffffffffffffffffffffffffffffffff1673ffffffffffffffffffffffffffffffffffffffff168152602001908152602001600020829080600181540180825580915050600190039060005260206000200160009091909190915055346002838154811061040857610407611a68565b5b906000526020600020906009020160060154610424919061186c565b6002838154811061043857610437611a68565b5b9060005260206000209060090201600601819055507ffddcfe672c89a3cee8466dfebd67c1f7c83adc2f524e714dd458e5c38e53fe2782346002858154811061048457610483611a68565b5b90600052602060002090600902016003016040516104a4939291906116be565b60405180910390a1600282815481106104c0576104bf611a68565b5b906000526020600020906009020160050154600283815481106104e6576104e5611a68565b5b906000526020600020906009020160060154106105075761050682610c4a565b5b5050565b606060036000838152602001908152602001600020805480602002602001604051908101604052809291908181526020016000905b828210156105ec57838290600052602060002001805461055f9061195e565b80601f016020809104026020016040519081016040528092919081815260200182805461058b9061195e565b80156105d85780601f106105ad576101008083540402835291602001916105d8565b820191906000526020600020905b8154815290600101906020018083116105bb57829003601f168201915b505050505081526020019060010190610540565b505050509050919050565b60606002805480602002602001604051908101604052809291908181526020016000905b8282101561097b578382906000526020600020906009020160405180610140016040529081600082015481526020016001820180546106599061195e565b80601f01602080910402602001604051908101604052809291908181526020018280546106859061195e565b80156106d25780601f106106a7576101008083540402835291602001916106d2565b820191906000526020600020905b8154815290600101906020018083116106b557829003601f168201915b505050505081526020016002820180546106eb9061195e565b80601f01602080910402602001604051908101604052809291908181526020018280546107179061195e565b80156107645780601f1061073957610100808354040283529160200191610764565b820191906000526020600020905b81548152906001019060200180831161074757829003601f168201915b5050505050815260200160038201805461077d9061195e565b80601f01602080910402602001604051908101604052809291908181526020018280546107a99061195e565b80156107f65780601f106107cb576101008083540402835291602001916107f6565b820191906000526020600020905b8154815290600101906020018083116107d957829003601f168201915b5050505050815260200160048201805461080f9061195e565b80601f016020809104026020016040519081016040528092919081815260200182805461083b9061195e565b80156108885780601f1061085d57610100808354040283529160200191610888565b820191906000526020600020905b81548152906001019060200180831161086b57829003601f168201915b5050505050815260200160058201548152602001600682015481526020016007820160009054906101000a900473ffffffffffffffffffffffffffffffffffffffff1673ffffffffffffffffffffffffffffffffffffffff1673ffffffffffffffffffffffffffffffffffffffff1681526020016008820160009054906101000a900473ffffffffffffffffffffffffffffffffffffffff1673ffffffffffffffffffffffffffffffffffffffff1673ffffffffffffffffffffffffffffffffffffffff1681526020016008820160149054906101000a900460ff1615151515815250508152602001906001019061061b565b50505050905090565b60026040518061014001604052806001548152602001888152602001878152602001868152602001858152602001848152602001600081526020018373ffffffffffffffffffffffffffffffffffffffff1681526020013273ffffffffffffffffffffffffffffffffffffffff168152602001600115158152509080600181540180825580915050600190039060005260206000209060090201600090919091909150600082015181600001556020820151816001019080519060200190610a4d929190610dae565b506040820151816002019080519060200190610a6a929190610dae565b506060820151816003019080519060200190610a87929190610dae565b506080820151816004019080519060200190610aa4929190610dae565b5060a0820151816005015560c0820151816006015560e08201518160070160006101000a81548173ffffffffffffffffffffffffffffffffffffffff021916908373ffffffffffffffffffffffffffffffffffffffff1602179055506101008201518160080160006101000a81548173ffffffffffffffffffffffffffffffffffffffff021916908373ffffffffffffffffffffffffffffffffffffffff1602179055506101208201518160080160146101000a81548160ff021916908315150217905550505060016000815480929190610b7e906119c1565b9190505550505050505050565b3273ffffffffffffffffffffffffffffffffffffffff1660028281548110610bb657610bb5611a68565b5b906000526020600020906009020160080160009054906101000a900473ffffffffffffffffffffffffffffffffffffffff1673ffffffffffffffffffffffffffffffffffffffff1614610c3e576040517f08c379a0000000000000000000000000000000000000000000000000000000008152600401610c3590611645565b60405180910390fd5b610c4781610c4a565b50565b7fbc6fdcbbc64181fa5b0a580ffa8643761277b5ab073214c08cce86c7317bf4008160028381548110610c8057610c7f611a68565b5b90600052602060002090600902016006015460036000858152602001908152602001600020604051610cb493929190611680565b60405180910390a160028181548110610cd057610ccf611a68565b5b906000526020600020906009020160070160009054906101000a900473ffffffffffffffffffffffffffffffffffffffff1673ffffffffffffffffffffffffffffffffffffffff166108fc60028381548110610d2f57610d2e611a68565b5b9060005260206000209060090201600601549081150290604051600060405180830381858888f19350505050158015610d6c573d6000803e3d6000fd5b50600060028281548110610d8357610d82611a68565b5b906000526020600020906009020160080160146101000a81548160ff02191690831515021790555050565b828054610dba9061195e565b90600052602060002090601f016020900481019282610ddc5760008555610e23565b82601f10610df557805160ff1916838001178555610e23565b82800160010185558215610e23579182015b82811115610e22578251825591602001919060010190610e07565b5b509050610e309190610e34565b5090565b5b80821115610e4d576000816000905550600101610e35565b5090565b6000610e64610e5f84611721565b6116fc565b905082815260208101848484011115610e8057610e7f611acb565b5b610e8b84828561191c565b509392505050565b600081359050610ea281611b8c565b92915050565b600081359050610eb781611ba3565b92915050565b600082601f830112610ed257610ed1611ac6565b5b8135610ee2848260208601610e51565b91505092915050565b600081359050610efa81611bba565b92915050565b600060208284031215610f1657610f15611ad5565b5b6000610f2484828501610e93565b91505092915050565b60008060008060008060c08789031215610f4a57610f49611ad5565b5b600087013567ffffffffffffffff811115610f6857610f67611ad0565b5b610f7489828a01610ebd565b965050602087013567ffffffffffffffff811115610f9557610f94611ad0565b5b610fa189828a01610ebd565b955050604087013567ffffffffffffffff811115610fc257610fc1611ad0565b5b610fce89828a01610ebd565b945050606087013567ffffffffffffffff811115610fef57610fee611ad0565b5b610ffb89828a01610ebd565b935050608061100c89828a01610eeb565b92505060a061101d89828a01610ea8565b9150509295509295509295565b6000602082840312156110405761103f611ad5565b5b600061104e84828501610eeb565b91505092915050565b6000806040838503121561106e5761106d611ad5565b5b600061107c85828601610eeb565b925050602083013567ffffffffffffffff81111561109d5761109c611ad0565b5b6110a985828601610ebd565b9150509250929050565b60006110bf83836112f0565b905092915050565b60006110d38383611329565b905092915050565b60006110e78383611492565b905092915050565b60006110fb8383611581565b60208301905092915050565b611110816118d4565b82525050565b61111f816118c2565b82525050565b6000611130826117ac565b61113a8185611817565b93508360208202850161114c85611752565b8060005b85811015611188578484038952815161116985826110b3565b9450611174836117e3565b925060208a01995050600181019050611150565b50829750879550505050505092915050565b60006111a5826117b7565b6111af8185611817565b9350836020820285016111c185611762565b8060005b858110156111fc578484038952816111dd85826110c7565b94506111e8836117f0565b925060208a019950506001810190506111c5565b50829750879550505050505092915050565b6000611219826117c2565b6112238185611828565b93508360208202850161123585611777565b8060005b85811015611271578484038952815161125285826110db565b945061125d836117fd565b925060208a01995050600181019050611239565b50829750879550505050505092915050565b600061128e826117cd565b6112988185611839565b93506112a383611787565b8060005b838110156112d45781516112bb88826110ef565b97506112c68361180a565b9250506001810190506112a7565b5085935050505092915050565b6112ea816118e6565b82525050565b60006112fb826117d8565b611305818561184a565b935061131581856020860161192b565b61131e81611ada565b840191505092915050565b600081546113368161195e565b611340818661184a565b9450600182166000811461135b576001811461136d576113a0565b60ff19831686526020860193506113a0565b61137685611797565b60005b8381101561139857815481890152600182019150602081019050611379565b808801955050505b50505092915050565b600081546113b68161195e565b6113c0818661185b565b945060018216600081146113db57600181146113ed57611420565b60ff1983168652602086019350611420565b6113f685611797565b60005b83811015611418578154818901526001820191506020810190506113f9565b808801955050505b50505092915050565b6000611436601e8361185b565b915061144182611aeb565b602082019050919050565b600061145960168361185b565b915061146482611b14565b602082019050919050565b600061147c602b8361185b565b915061148782611b3d565b604082019050919050565b6000610140830160008301516114ab6000860182611581565b50602083015184820360208601526114c382826112f0565b915050604083015184820360408601526114dd82826112f0565b915050606083015184820360608601526114f782826112f0565b9150506080830151848203608086015261151182826112f0565b91505060a083015161152660a0860182611581565b5060c083015161153960c0860182611581565b5060e083015161154c60e0860182611107565b50610100830151611561610100860182611116565b506101208301516115766101208601826112e1565b508091505092915050565b61158a81611912565b82525050565b61159981611912565b82525050565b600060208201905081810360008301526115b98184611125565b905092915050565b600060208201905081810360008301526115db818461120e565b905092915050565b600060208201905081810360008301526115fd8184611283565b905092915050565b6000602082019050818103600083015261161e81611429565b9050919050565b6000602082019050818103600083015261163e8161144c565b9050919050565b6000602082019050818103600083015261165e8161146f565b9050919050565b600060208201905061167a6000830184611590565b92915050565b60006060820190506116956000830186611590565b6116a26020830185611590565b81810360408301526116b4818461119a565b9050949350505050565b60006060820190506116d36000830186611590565b6116e06020830185611590565b81810360408301526116f281846113a9565b9050949350505050565b6000611706611717565b90506117128282611990565b919050565b6000604051905090565b600067ffffffffffffffff82111561173c5761173b611a97565b5b61174582611ada565b9050602081019050919050565b6000819050602082019050919050565b60008190508160005260206000209050919050565b6000819050602082019050919050565b6000819050602082019050919050565b60008190508160005260206000209050919050565b600081519050919050565b600081549050919050565b600081519050919050565b600081519050919050565b600081519050919050565b6000602082019050919050565b6000600182019050919050565b6000602082019050919050565b6000602082019050919050565b600082825260208201905092915050565b600082825260208201905092915050565b600082825260208201905092915050565b600082825260208201905092915050565b600082825260208201905092915050565b600061187782611912565b915061188283611912565b9250827fffffffffffffffffffffffffffffffffffffffffffffffffffffffffffffffff038211156118b7576118b6611a0a565b5b828201905092915050565b60006118cd826118f2565b9050919050565b60006118df826118f2565b9050919050565b60008115159050919050565b600073ffffffffffffffffffffffffffffffffffffffff82169050919050565b6000819050919050565b82818337600083830152505050565b60005b8381101561194957808201518184015260208101905061192e565b83811115611958576000848401525b50505050565b6000600282049050600182168061197657607f821691505b6020821081141561198a57611989611a39565b5b50919050565b61199982611ada565b810181811067ffffffffffffffff821117156119b8576119b7611a97565b5b80604052505050565b60006119cc82611912565b91507fffffffffffffffffffffffffffffffffffffffffffffffffffffffffffffffff8214156119ff576119fe611a0a565b5b600182019050919050565b7f4e487b7100000000000000000000000000000000000000000000000000000000600052601160045260246000fd5b7f4e487b7100000000000000000000000000000000000000000000000000000000600052602260045260246000fd5b7f4e487b7100000000000000000000000000000000000000000000000000000000600052603260045260246000fd5b7f4e487b7100000000000000000000000000000000000000000000000000000000600052604160045260246000fd5b600080fd5b600080fd5b600080fd5b600080fd5b6000601f19601f8301169050919050565b7f646f6e6174696f6e206d757374206265206c6172676572207468616e20300000600082015250565b7f63616d706169676e206973206e6f742061637469766500000000000000000000600082015250565b7f796f75206d7573742062652063726561746f72206f662063616d706169676e2060008201527f746f20636c6f7365206974000000000000000000000000000000000000000000602082015250565b611b95816118c2565b8114611ba057600080fd5b50565b611bac816118d4565b8114611bb757600080fd5b50565b611bc381611912565b8114611bce57600080fd5b5056fea264697066735822122085d84f627742f6315d646a5ac2cc118ea3e2e05ee8bf2c444d4582fad370041364736f6c63430008060033",
  "immutableReferences": {},
  "source": "// SPDX-License-Identifier: MIT\npragma solidity >=0.7.0 <0.9.0;\n\ncontract SupportChildren {\n\n    event DonationMade (\n        uint campaignId,\n        uint donationAmount,\n        string notifyEmail\n    );\n\n    event CampaignFinished (\n        uint campaignId,\n        uint currentAmount,\n        string[] notifyEmails\n    );\n    \n    uint campaignIndex;\n    uint count;\n    \n    struct Campaign {\n        uint id;\n        string name; \n        string description;\n        string creatorEmail; \n        string image; \n        uint targetAmount;\n        uint currentAmount;\n        address payable beneficiaryAddress;\n        address creatorAddress;\n        bool active;\n    }\n    \n    Campaign[] campaigns;\n    \n    mapping(uint => string[]) campaignDonationsEmails;\n    mapping(address => uint[]) campaignDonors;\n    \n    function createCampaign(string memory _name, string memory _description, string memory _creatorEmail, string memory _image, uint _targetAmount, address payable _beneficiaryAddress) public {\n         campaigns.push(Campaign({\n            id: count,\n            name: _name,\n            description: _description,\n            creatorEmail: _creatorEmail,\n            image: _image,\n            targetAmount: _targetAmount,\n            currentAmount: 0,\n            beneficiaryAddress: _beneficiaryAddress,\n            creatorAddress: tx.origin,\n            active: true\n        }));\n        \n        count++;\n    }\n    \n    function endCampaign(uint _campaignId) public {\n        require(campaigns[_campaignId].creatorAddress == tx.origin, \"you must be creator of campaign to close it\");\n        finishCampaign(_campaignId);\n    }\n\n    function finishCampaign(uint _campaignId) private {\n        emit CampaignFinished(_campaignId, campaigns[_campaignId].currentAmount, campaignDonationsEmails[_campaignId]);\n        // Send ETH to the address of the child\n        campaigns[_campaignId].beneficiaryAddress.transfer(campaigns[_campaignId].currentAmount);\n        campaigns[_campaignId].active = false;\n    }\n\n    // Real ETH donation\n    function donate(uint _campaignId, string memory _donorEmail) payable public {\n        require(campaigns[_campaignId].active, \"campaign is not active\");\n        require(msg.value > 0, \"donation must be larger than 0\");\n        campaignDonationsEmails[_campaignId].push(_donorEmail);\n        campaignDonors[tx.origin].push(_campaignId);\n        campaigns[_campaignId].currentAmount = campaigns[_campaignId].currentAmount  + msg.value;\n\n        emit DonationMade(_campaignId, msg.value, campaigns[_campaignId].creatorEmail);\n\n        if (campaigns[_campaignId].currentAmount >= campaigns[_campaignId].targetAmount) {\n            finishCampaign(_campaignId);\n        }\n    }\n    \n    function getDonorEmails(uint _campaignId) view public returns (string[] memory) {\n        return campaignDonationsEmails[_campaignId];\n    }\n    \n    function getDonorsCampaingsList(address _donor) view public returns (uint[] memory) {\n        return campaignDonors[_donor];\n    }\n    \n    function getCampaigns() public view returns (Campaign[] memory) {\n        return campaigns;\n    }\n\n    function getCampaignAmount(uint _campaignId) public view returns (uint) {\n        return campaigns[_campaignId].currentAmount;\n    }\n    \n}",
  "sourcePath": "/home/zarko/learn/ethereum/support-children/contracts/SupportChildren.sol",
  "compiler": {
    "name": "solc",
    "version": "0.8.6+commit.11564f7e.Emscripten.clang"
  },
  "schemaVersion": "3.4.1",
  "updatedAt": "2021-07-25T20:56:33.974Z",
  "networkType": "ethereum",
  "devdoc": {
    "kind": "dev",
    "methods": {},
    "version": 1
  },
  "userdoc": {
    "kind": "user",
    "methods": {},
    "version": 1
  }
}