{
  "contractName": "SupportChildren",
  "abi": [
    {
      "anonymous": false,
      "inputs": [
        {
          "indexed": false,
          "internalType": "uint256",
          "name": "campaignId",
          "type": "uint256"
        }
      ],
      "name": "CampaignCreated",
      "type": "event"
    },
    {
      "anonymous": false,
      "inputs": [
        {
          "indexed": false,
          "internalType": "uint256",
          "name": "campaignId",
          "type": "uint256"
        },
        {
          "indexed": false,
          "internalType": "uint256",
          "name": "currentAmount",
          "type": "uint256"
        },
        {
          "indexed": false,
          "internalType": "string[]",
          "name": "notifyEmails",
          "type": "string[]"
        }
      ],
      "name": "CampaignFinished",
      "type": "event"
    },
    {
      "anonymous": false,
      "inputs": [
        {
          "indexed": false,
          "internalType": "uint256",
          "name": "campaignId",
          "type": "uint256"
        },
        {
          "indexed": false,
          "internalType": "uint256",
          "name": "donationAmount",
          "type": "uint256"
        },
        {
          "indexed": false,
          "internalType": "string",
          "name": "notifyEmail",
          "type": "string"
        },
        {
          "indexed": false,
          "internalType": "string",
          "name": "currency",
          "type": "string"
        }
      ],
      "name": "DonationMade",
      "type": "event"
    },
    {
      "inputs": [],
      "name": "uniswap",
      "outputs": [
        {
          "internalType": "contract IUniswap",
          "name": "",
          "type": "address"
        }
      ],
      "stateMutability": "view",
      "type": "function"
    },
    {
      "inputs": [
        {
          "internalType": "string",
          "name": "_name",
          "type": "string"
        },
        {
          "internalType": "string",
          "name": "_description",
          "type": "string"
        },
        {
          "internalType": "string",
          "name": "_creatorEmail",
          "type": "string"
        },
        {
          "internalType": "string",
          "name": "_image",
          "type": "string"
        },
        {
          "internalType": "uint256",
          "name": "_targetCurrency",
          "type": "uint256"
        },
        {
          "internalType": "uint256",
          "name": "_targetAmount",
          "type": "uint256"
        },
        {
          "internalType": "address payable",
          "name": "_beneficiaryAddress",
          "type": "address"
        }
      ],
      "name": "createCampaign",
      "outputs": [],
      "stateMutability": "nonpayable",
      "type": "function"
    },
    {
      "inputs": [
        {
          "internalType": "uint256",
          "name": "_campaignId",
          "type": "uint256"
        }
      ],
      "name": "endCampaign",
      "outputs": [],
      "stateMutability": "nonpayable",
      "type": "function"
    },
    {
      "inputs": [
        {
          "internalType": "uint256",
          "name": "_campaignId",
          "type": "uint256"
        },
        {
          "internalType": "string",
          "name": "_name",
          "type": "string"
        },
        {
          "internalType": "string",
          "name": "_description",
          "type": "string"
        },
        {
          "internalType": "string",
          "name": "_creatorEmail",
          "type": "string"
        },
        {
          "internalType": "string",
          "name": "_image",
          "type": "string"
        }
      ],
      "name": "editCampaign",
      "outputs": [],
      "stateMutability": "nonpayable",
      "type": "function"
    },
    {
      "inputs": [
        {
          "internalType": "uint256",
          "name": "_campaignId",
          "type": "uint256"
        },
        {
          "internalType": "string",
          "name": "_donorEmail",
          "type": "string"
        }
      ],
      "name": "donateEthToEthCampaign",
      "outputs": [],
      "stateMutability": "payable",
      "type": "function"
    },
    {
      "inputs": [
        {
          "internalType": "uint256",
          "name": "_campaignId",
          "type": "uint256"
        },
        {
          "internalType": "string",
          "name": "_donorEmail",
          "type": "string"
        },
        {
          "internalType": "address",
          "name": "token",
          "type": "address"
        },
        {
          "internalType": "uint256",
          "name": "amountIn",
          "type": "uint256"
        },
        {
          "internalType": "uint256",
          "name": "amountOutMin",
          "type": "uint256"
        },
        {
          "internalType": "uint256",
          "name": "deadline",
          "type": "uint256"
        }
      ],
      "name": "donateTokenToETHCampaign",
      "outputs": [],
      "stateMutability": "nonpayable",
      "type": "function"
    },
    {
      "inputs": [
        {
          "internalType": "uint256",
          "name": "_campaignId",
          "type": "uint256"
        }
      ],
      "name": "getDonorEmails",
      "outputs": [
        {
          "internalType": "string[]",
          "name": "",
          "type": "string[]"
        }
      ],
      "stateMutability": "view",
      "type": "function"
    },
    {
      "inputs": [
        {
          "internalType": "address",
          "name": "_donor",
          "type": "address"
        }
      ],
      "name": "getDonorsCampaingsList",
      "outputs": [
        {
          "internalType": "uint256[]",
          "name": "",
          "type": "uint256[]"
        }
      ],
      "stateMutability": "view",
      "type": "function"
    },
    {
      "inputs": [],
      "name": "getCampaigns",
      "outputs": [
        {
          "components": [
            {
              "internalType": "uint256",
              "name": "id",
              "type": "uint256"
            },
            {
              "internalType": "string",
              "name": "name",
              "type": "string"
            },
            {
              "internalType": "string",
              "name": "description",
              "type": "string"
            },
            {
              "internalType": "string",
              "name": "creatorEmail",
              "type": "string"
            },
            {
              "internalType": "string",
              "name": "image",
              "type": "string"
            },
            {
              "internalType": "uint256",
              "name": "targetCurrency",
              "type": "uint256"
            },
            {
              "internalType": "uint256",
              "name": "targetAmount",
              "type": "uint256"
            },
            {
              "internalType": "uint256",
              "name": "currentAmount",
              "type": "uint256"
            },
            {
              "internalType": "address payable",
              "name": "beneficiaryAddress",
              "type": "address"
            },
            {
              "internalType": "address",
              "name": "creatorAddress",
              "type": "address"
            },
            {
              "internalType": "bool",
              "name": "active",
              "type": "bool"
            }
          ],
          "internalType": "struct SupportChildren.Campaign[]",
          "name": "",
          "type": "tuple[]"
        }
      ],
      "stateMutability": "view",
      "type": "function"
    },
    {
      "inputs": [
        {
          "internalType": "uint256",
          "name": "_campaignId",
          "type": "uint256"
        }
      ],
      "name": "getCampaignAmount",
      "outputs": [
        {
          "internalType": "uint256",
          "name": "",
          "type": "uint256"
        }
      ],
      "stateMutability": "view",
      "type": "function"
    }
  ],
  "bytecode": "0x608060405234801561001057600080fd5b506132c9806100206000396000f3fe6080604052600436106100915760003560e01c8063a8f649e111610059578063a8f649e1146101a3578063af0f42ee146101cc578063b25ba4bb146101f5578063dd0408ae1461021e578063e981dc021461024757610091565b806318fedf06146100965780632681f7e4146100d3578063296c10f4146100fe578063909f7d661461013b578063a6b0363314610178575b600080fd5b3480156100a257600080fd5b506100bd60048036038101906100b89190611cb5565b610263565b6040516100ca91906127dd565b60405180910390f35b3480156100df57600080fd5b506100e86102fa565b6040516100f591906127ff565b60405180910390f35b34801561010a57600080fd5b5061012560048036038101906101209190611e97565b610312565b604051610132919061293a565b60405180910390f35b34801561014757600080fd5b50610162600480360381019061015d9190611e97565b610341565b60405161016f9190612799565b60405180910390f35b34801561018457600080fd5b5061018d61042d565b60405161019a91906127bb565b60405180910390f35b3480156101af57600080fd5b506101ca60048036038101906101c59190611d85565b6107c4565b005b3480156101d857600080fd5b506101f360048036038101906101ee9190611fc9565b610aa7565b005b34801561020157600080fd5b5061021c60048036038101906102179190611f20565b610cc6565b005b34801561022a57600080fd5b5061024560048036038101906102409190611e97565b611218565b005b610261600480360381019061025c9190611ec4565b611414565b005b6060600460008373ffffffffffffffffffffffffffffffffffffffff1673ffffffffffffffffffffffffffffffffffffffff1681526020019081526020016000208054806020026020016040519081016040528092919081815260200182805480156102ee57602002820191906000526020600020905b8154815260200190600101908083116102da575b50505050509050919050565b73e592427a0aece92de3edee1f18e0157c0586156481565b60006002828154811061032857610327612f2e565b5b90600052602060002090600a0201600701549050919050565b606060036000838152602001908152602001600020805480602002602001604051908101604052809291908181526020016000905b8282101561042257838290600052602060002001805461039590612e24565b80601f01602080910402602001604051908101604052809291908181526020018280546103c190612e24565b801561040e5780601f106103e35761010080835404028352916020019161040e565b820191906000526020600020905b8154815290600101906020018083116103f157829003601f168201915b505050505081526020019060010190610376565b505050509050919050565b60606002805480602002602001604051908101604052809291908181526020016000905b828210156107bb57838290600052602060002090600a0201604051806101600160405290816000820154815260200160018201805461048f90612e24565b80601f01602080910402602001604051908101604052809291908181526020018280546104bb90612e24565b80156105085780601f106104dd57610100808354040283529160200191610508565b820191906000526020600020905b8154815290600101906020018083116104eb57829003601f168201915b5050505050815260200160028201805461052190612e24565b80601f016020809104026020016040519081016040528092919081815260200182805461054d90612e24565b801561059a5780601f1061056f5761010080835404028352916020019161059a565b820191906000526020600020905b81548152906001019060200180831161057d57829003601f168201915b505050505081526020016003820180546105b390612e24565b80601f01602080910402602001604051908101604052809291908181526020018280546105df90612e24565b801561062c5780601f106106015761010080835404028352916020019161062c565b820191906000526020600020905b81548152906001019060200180831161060f57829003601f168201915b5050505050815260200160048201805461064590612e24565b80601f016020809104026020016040519081016040528092919081815260200182805461067190612e24565b80156106be5780601f10610693576101008083540402835291602001916106be565b820191906000526020600020905b8154815290600101906020018083116106a157829003601f168201915b505050505081526020016005820154815260200160068201548152602001600782015481526020016008820160009054906101000a900473ffffffffffffffffffffffffffffffffffffffff1673ffffffffffffffffffffffffffffffffffffffff1673ffffffffffffffffffffffffffffffffffffffff1681526020016009820160009054906101000a900473ffffffffffffffffffffffffffffffffffffffff1673ffffffffffffffffffffffffffffffffffffffff1673ffffffffffffffffffffffffffffffffffffffff1681526020016009820160149054906101000a900460ff16151515158152505081526020019060010190610451565b50505050905090565b60008211610807576040517f08c379a00000000000000000000000000000000000000000000000000000000081526004016107fe906128fa565b60405180910390fd5b60018314806108165750600083145b610855576040517f08c379a000000000000000000000000000000000000000000000000000000000815260040161084c906128ba565b60405180910390fd5b60026040518061016001604052806001548152602001898152602001888152602001878152602001868152602001858152602001848152602001600081526020018373ffffffffffffffffffffffffffffffffffffffff1681526020013273ffffffffffffffffffffffffffffffffffffffff1681526020016001151581525090806001815401808255809150506001900390600052602060002090600a0201600090919091909150600082015181600001556020820151816001019080519060200190610924929190611a86565b506040820151816002019080519060200190610941929190611a86565b50606082015181600301908051906020019061095e929190611a86565b50608082015181600401908051906020019061097b929190611a86565b5060a0820151816005015560c0820151816006015560e082015181600701556101008201518160080160006101000a81548173ffffffffffffffffffffffffffffffffffffffff021916908373ffffffffffffffffffffffffffffffffffffffff1602179055506101208201518160090160006101000a81548173ffffffffffffffffffffffffffffffffffffffff021916908373ffffffffffffffffffffffffffffffffffffffff1602179055506101408201518160090160146101000a81548160ff02191690831515021790555050507fbc0a5edd152fa5b886dcae82c5c109d113708653b4b9c0224549ccdf715af94e600154604051610a7e919061293a565b60405180910390a160016000815480929190610a9990612e87565b919050555050505050505050565b846001151560028281548110610ac057610abf612f2e565b5b90600052602060002090600a020160090160149054906101000a900460ff16151514610b21576040517f08c379a0000000000000000000000000000000000000000000000000000000008152600401610b18906128da565b60405180910390fd5b853273ffffffffffffffffffffffffffffffffffffffff1660028281548110610b4d57610b4c612f2e565b5b90600052602060002090600a020160090160009054906101000a900473ffffffffffffffffffffffffffffffffffffffff1673ffffffffffffffffffffffffffffffffffffffff1614610bd5576040517f08c379a0000000000000000000000000000000000000000000000000000000008152600401610bcc9061291a565b60405180910390fd5b8560028881548110610bea57610be9612f2e565b5b90600052602060002090600a02016001019080519060200190610c0e929190611a86565b508460028881548110610c2457610c23612f2e565b5b90600052602060002090600a02016002019080519060200190610c48929190611a86565b508360028881548110610c5e57610c5d612f2e565b5b90600052602060002090600a02016003019080519060200190610c82929190611a86565b508260028881548110610c9857610c97612f2e565b5b90600052602060002090600a02016004019080519060200190610cbc929190611a86565b5050505050505050565b8373ffffffffffffffffffffffffffffffffffffffff1663095ea7b373e592427a0aece92de3edee1f18e0157c05861564856040518363ffffffff1660e01b8152600401610d15929190612770565b602060405180830381600087803b158015610d2f57600080fd5b505af1158015610d43573d6000803e3d6000fd5b505050506040513d601f19601f82011682018060405250810190610d679190611d58565b506000600267ffffffffffffffff811115610d8557610d84612f5d565b5b604051908082528060200260200182016040528015610db35781602001602082028036833780820191505090505b509050736b175474e89094c44da98b954eedeac495271d0f81600081518110610ddf57610dde612f2e565b5b602002602001019073ffffffffffffffffffffffffffffffffffffffff16908173ffffffffffffffffffffffffffffffffffffffff168152505073e592427a0aece92de3edee1f18e0157c0586156473ffffffffffffffffffffffffffffffffffffffff1663ad5c46486040518163ffffffff1660e01b815260040160206040518083038186803b158015610e7357600080fd5b505afa158015610e87573d6000803e3d6000fd5b505050506040513d601f19601f82011682018060405250810190610eab9190611ce2565b81600181518110610ebf57610ebe612f2e565b5b602002602001019073ffffffffffffffffffffffffffffffffffffffff16908173ffffffffffffffffffffffffffffffffffffffff16815250508473ffffffffffffffffffffffffffffffffffffffff1663095ea7b373e592427a0aece92de3edee1f18e0157c05861564866040518363ffffffff1660e01b8152600401610f48929190612770565b602060405180830381600087803b158015610f6257600080fd5b505af1158015610f76573d6000803e3d6000fd5b505050506040513d601f19601f82011682018060405250810190610f9a9190611d58565b5073e592427a0aece92de3edee1f18e0157c0586156473ffffffffffffffffffffffffffffffffffffffff166318cbafe585858430876040518663ffffffff1660e01b8152600401610ff0959493929190612993565b600060405180830381600087803b15801561100a57600080fd5b505af115801561101e573d6000803e3d6000fd5b505050506040513d6000823e3d601f19601f820116820180604052508101906110479190611d0f565b506003600088815260200190815260200160002086908060018154018082558091505060019003906000526020600020016000909190919091509080519060200190611094929190611a86565b50600460003273ffffffffffffffffffffffffffffffffffffffff1673ffffffffffffffffffffffffffffffffffffffff16815260200190815260200160002087908060018154018082558091505060019003906000526020600020016000909190919091505582600288815481106111105761110f612f2e565b5b90600052602060002090600a02016007015461112c9190612ca2565b600288815481106111405761113f612f2e565b5b90600052602060002090600a0201600701819055507f49bd9057431411616605ca919509a8df6a79bfde2f2fd58e8a376272b34c40f7878560028a8154811061118c5761118b612f2e565b5b90600052602060002090600a02016003016040516111ac93929190612a2b565b60405180910390a1600287815481106111c8576111c7612f2e565b5b90600052602060002090600a020160060154600288815481106111ee576111ed612f2e565b5b90600052602060002090600a0201600701541061120f5761120e87611922565b5b50505050505050565b80600115156002828154811061123157611230612f2e565b5b90600052602060002090600a020160090160149054906101000a900460ff16151514611292576040517f08c379a0000000000000000000000000000000000000000000000000000000008152600401611289906128da565b60405180910390fd5b813273ffffffffffffffffffffffffffffffffffffffff16600282815481106112be576112bd612f2e565b5b90600052602060002090600a020160090160009054906101000a900473ffffffffffffffffffffffffffffffffffffffff1673ffffffffffffffffffffffffffffffffffffffff1614611346576040517f08c379a000000000000000000000000000000000000000000000000000000000815260040161133d9061291a565b60405180910390fd5b60006002848154811061135c5761135b612f2e565b5b90600052602060002090600a02016007015411156113825761137d83611922565b61140f565b7fbc6fdcbbc64181fa5b0a580ffa8643761277b5ab073214c08cce86c7317bf400836000600360008781526020019081526020016000206040516113c893929190612955565b60405180910390a16000600284815481106113e6576113e5612f2e565b5b90600052602060002090600a020160090160146101000a81548160ff0219169083151502179055505b505050565b81600115156002828154811061142d5761142c612f2e565b5b90600052602060002090600a020160090160149054906101000a900460ff1615151461148e576040517f08c379a0000000000000000000000000000000000000000000000000000000008152600401611485906128da565b60405180910390fd5b823273ffffffffffffffffffffffffffffffffffffffff16600282815481106114ba576114b9612f2e565b5b90600052602060002090600a020160090160009054906101000a900473ffffffffffffffffffffffffffffffffffffffff1673ffffffffffffffffffffffffffffffffffffffff161415611543576040517f08c379a000000000000000000000000000000000000000000000000000000000815260040161153a9061289a565b60405180910390fd5b833273ffffffffffffffffffffffffffffffffffffffff166002828154811061156f5761156e612f2e565b5b90600052602060002090600a020160080160009054906101000a900473ffffffffffffffffffffffffffffffffffffffff1673ffffffffffffffffffffffffffffffffffffffff1614156115f8576040517f08c379a00000000000000000000000000000000000000000000000000000000081526004016115ef9061287a565b60405180910390fd5b8460006002828154811061160f5761160e612f2e565b5b90600052602060002090600a02016005015414611661576040517f08c379a00000000000000000000000000000000000000000000000000000000081526004016116589061285a565b60405180910390fd5b600034116116a4576040517f08c379a000000000000000000000000000000000000000000000000000000000815260040161169b9061281a565b60405180910390fd5b600286815481106116b8576116b7612f2e565b5b90600052602060002090600a020160060154600b6116d69190612cf8565b600a34600289815481106116ed576116ec612f2e565b5b90600052602060002090600a0201600701546117099190612ca2565b6117139190612cf8565b10611753576040517f08c379a000000000000000000000000000000000000000000000000000000000815260040161174a9061283a565b60405180910390fd5b600360008781526020019081526020016000208590806001815401808255809150506001900390600052602060002001600090919091909150908051906020019061179f929190611a86565b50600460003273ffffffffffffffffffffffffffffffffffffffff1673ffffffffffffffffffffffffffffffffffffffff168152602001908152602001600020869080600181540180825580915050600190039060005260206000200160009091909190915055346002878154811061181b5761181a612f2e565b5b90600052602060002090600a0201600701546118379190612ca2565b6002878154811061184b5761184a612f2e565b5b90600052602060002090600a0201600701819055507f49bd9057431411616605ca919509a8df6a79bfde2f2fd58e8a376272b34c40f786346002898154811061189757611896612f2e565b5b90600052602060002090600a02016003016040516118b793929190612a7c565b60405180910390a1600286815481106118d3576118d2612f2e565b5b90600052602060002090600a020160060154600287815481106118f9576118f8612f2e565b5b90600052602060002090600a0201600701541061191a5761191986611922565b5b505050505050565b7fbc6fdcbbc64181fa5b0a580ffa8643761277b5ab073214c08cce86c7317bf400816002838154811061195857611957612f2e565b5b90600052602060002090600a0201600701546003600085815260200190815260200160002060405161198c939291906129ed565b60405180910390a1600281815481106119a8576119a7612f2e565b5b90600052602060002090600a020160080160009054906101000a900473ffffffffffffffffffffffffffffffffffffffff1673ffffffffffffffffffffffffffffffffffffffff166108fc60028381548110611a0757611a06612f2e565b5b90600052602060002090600a0201600701549081150290604051600060405180830381858888f19350505050158015611a44573d6000803e3d6000fd5b50600060028281548110611a5b57611a5a612f2e565b5b90600052602060002090600a020160090160146101000a81548160ff02191690831515021790555050565b828054611a9290612e24565b90600052602060002090601f016020900481019282611ab45760008555611afb565b82601f10611acd57805160ff1916838001178555611afb565b82800160010185558215611afb579182015b82811115611afa578251825591602001919060010190611adf565b5b509050611b089190611b0c565b5090565b5b80821115611b25576000816000905550600101611b0d565b5090565b6000611b3c611b3784612af2565b612acd565b90508083825260208201905082856020860282011115611b5f57611b5e612f91565b5b60005b85811015611b8f5781611b758882611ca0565b845260208401935060208301925050600181019050611b62565b5050509392505050565b6000611bac611ba784612b1e565b612acd565b905082815260208101848484011115611bc857611bc7612f96565b5b611bd3848285612de2565b509392505050565b600081359050611bea81613237565b92915050565b600081519050611bff81613237565b92915050565b600081359050611c148161324e565b92915050565b600082601f830112611c2f57611c2e612f8c565b5b8151611c3f848260208601611b29565b91505092915050565b600081519050611c5781613265565b92915050565b600082601f830112611c7257611c71612f8c565b5b8135611c82848260208601611b99565b91505092915050565b600081359050611c9a8161327c565b92915050565b600081519050611caf8161327c565b92915050565b600060208284031215611ccb57611cca612fa0565b5b6000611cd984828501611bdb565b91505092915050565b600060208284031215611cf857611cf7612fa0565b5b6000611d0684828501611bf0565b91505092915050565b600060208284031215611d2557611d24612fa0565b5b600082015167ffffffffffffffff811115611d4357611d42612f9b565b5b611d4f84828501611c1a565b91505092915050565b600060208284031215611d6e57611d6d612fa0565b5b6000611d7c84828501611c48565b91505092915050565b600080600080600080600060e0888a031215611da457611da3612fa0565b5b600088013567ffffffffffffffff811115611dc257611dc1612f9b565b5b611dce8a828b01611c5d565b975050602088013567ffffffffffffffff811115611def57611dee612f9b565b5b611dfb8a828b01611c5d565b965050604088013567ffffffffffffffff811115611e1c57611e1b612f9b565b5b611e288a828b01611c5d565b955050606088013567ffffffffffffffff811115611e4957611e48612f9b565b5b611e558a828b01611c5d565b9450506080611e668a828b01611c8b565b93505060a0611e778a828b01611c8b565b92505060c0611e888a828b01611c05565b91505092959891949750929550565b600060208284031215611ead57611eac612fa0565b5b6000611ebb84828501611c8b565b91505092915050565b60008060408385031215611edb57611eda612fa0565b5b6000611ee985828601611c8b565b925050602083013567ffffffffffffffff811115611f0a57611f09612f9b565b5b611f1685828601611c5d565b9150509250929050565b60008060008060008060c08789031215611f3d57611f3c612fa0565b5b6000611f4b89828a01611c8b565b965050602087013567ffffffffffffffff811115611f6c57611f6b612f9b565b5b611f7889828a01611c5d565b9550506040611f8989828a01611bdb565b9450506060611f9a89828a01611c8b565b9350506080611fab89828a01611c8b565b92505060a0611fbc89828a01611c8b565b9150509295509295509295565b600080600080600060a08688031215611fe557611fe4612fa0565b5b6000611ff388828901611c8b565b955050602086013567ffffffffffffffff81111561201457612013612f9b565b5b61202088828901611c5d565b945050604086013567ffffffffffffffff81111561204157612040612f9b565b5b61204d88828901611c5d565b935050606086013567ffffffffffffffff81111561206e5761206d612f9b565b5b61207a88828901611c5d565b925050608086013567ffffffffffffffff81111561209b5761209a612f9b565b5b6120a788828901611c5d565b9150509295509295909350565b60006120c0838361212f565b60208301905092915050565b60006120d88383612394565b905092915050565b60006120ec83836123cd565b905092915050565b6000612100838361264e565b905092915050565b60006121148383612752565b60208301905092915050565b61212981612d64565b82525050565b61213881612d52565b82525050565b61214781612d52565b82525050565b600061215882612bb9565b6121628185612c3c565b935061216d83612b4f565b8060005b8381101561219e57815161218588826120b4565b975061219083612bfb565b925050600181019050612171565b5085935050505092915050565b60006121b682612bc4565b6121c08185612c4d565b9350836020820285016121d285612b5f565b8060005b8581101561220e57848403895281516121ef85826120cc565b94506121fa83612c08565b925060208a019950506001810190506121d6565b50829750879550505050505092915050565b600061222b82612bcf565b6122358185612c4d565b93508360208202850161224785612b6f565b8060005b858110156122825784840389528161226385826120e0565b945061226e83612c15565b925060208a0199505060018101905061224b565b50829750879550505050505092915050565b600061229f82612bda565b6122a98185612c5e565b9350836020820285016122bb85612b84565b8060005b858110156122f757848403895281516122d885826120f4565b94506122e383612c22565b925060208a019950506001810190506122bf565b50829750879550505050505092915050565b600061231482612be5565b61231e8185612c6f565b935061232983612b94565b8060005b8381101561235a5781516123418882612108565b975061234c83612c2f565b92505060018101905061232d565b5085935050505092915050565b61237081612d76565b82525050565b61237f81612dac565b82525050565b61238e81612dd0565b82525050565b600061239f82612bf0565b6123a98185612c80565b93506123b9818560208601612df1565b6123c281612fa5565b840191505092915050565b600081546123da81612e24565b6123e48186612c80565b945060018216600081146123ff576001811461241157612444565b60ff1983168652602086019350612444565b61241a85612ba4565b60005b8381101561243c5781548189015260018201915060208101905061241d565b808801955050505b50505092915050565b6000815461245a81612e24565b6124648186612c91565b9450600182166000811461247f5760018114612491576124c4565b60ff19831686526020860193506124c4565b61249a85612ba4565b60005b838110156124bc5781548189015260018201915060208101905061249d565b808801955050505b50505092915050565b60006124da601e83612c91565b91506124e582612fb6565b602082019050919050565b60006124fd601583612c91565b915061250882612fdf565b602082019050919050565b6000612520601883612c91565b915061252b82613008565b602082019050919050565b6000612543602b83612c91565b915061254e82613031565b604082019050919050565b6000612566602883612c91565b915061257182613080565b604082019050919050565b6000612589602b83612c91565b9150612594826130cf565b604082019050919050565b60006125ac600383612c91565b91506125b78261311e565b602082019050919050565b60006125cf600383612c91565b91506125da82613147565b602082019050919050565b60006125f2601583612c91565b91506125fd82613170565b602082019050919050565b6000612615602c83612c91565b915061262082613199565b604082019050919050565b6000612638602783612c91565b9150612643826131e8565b604082019050919050565b6000610160830160008301516126676000860182612752565b506020830151848203602086015261267f8282612394565b915050604083015184820360408601526126998282612394565b915050606083015184820360608601526126b38282612394565b915050608083015184820360808601526126cd8282612394565b91505060a08301516126e260a0860182612752565b5060c08301516126f560c0860182612752565b5060e083015161270860e0860182612752565b5061010083015161271d610100860182612120565b5061012083015161273261012086018261212f565b50610140830151612747610140860182612367565b508091505092915050565b61275b81612da2565b82525050565b61276a81612da2565b82525050565b6000604082019050612785600083018561213e565b6127926020830184612761565b9392505050565b600060208201905081810360008301526127b381846121ab565b905092915050565b600060208201905081810360008301526127d58184612294565b905092915050565b600060208201905081810360008301526127f78184612309565b905092915050565b60006020820190506128146000830184612376565b92915050565b60006020820190508181036000830152612833816124cd565b9050919050565b60006020820190508181036000830152612853816124f0565b9050919050565b6000602082019050818103600083015261287381612513565b9050919050565b6000602082019050818103600083015261289381612536565b9050919050565b600060208201905081810360008301526128b381612559565b9050919050565b600060208201905081810360008301526128d38161257c565b9050919050565b600060208201905081810360008301526128f3816125e5565b9050919050565b6000602082019050818103600083015261291381612608565b9050919050565b600060208201905081810360008301526129338161262b565b9050919050565b600060208201905061294f6000830184612761565b92915050565b600060608201905061296a6000830186612761565b6129776020830185612385565b81810360408301526129898184612220565b9050949350505050565b600060a0820190506129a86000830188612761565b6129b56020830187612761565b81810360408301526129c7818661214d565b90506129d6606083018561213e565b6129e36080830184612761565b9695505050505050565b6000606082019050612a026000830186612761565b612a0f6020830185612761565b8181036040830152612a218184612220565b9050949350505050565b6000608082019050612a406000830186612761565b612a4d6020830185612761565b8181036040830152612a5f818461244d565b90508181036060830152612a728161259f565b9050949350505050565b6000608082019050612a916000830186612761565b612a9e6020830185612761565b8181036040830152612ab0818461244d565b90508181036060830152612ac3816125c2565b9050949350505050565b6000612ad7612ae8565b9050612ae38282612e56565b919050565b6000604051905090565b600067ffffffffffffffff821115612b0d57612b0c612f5d565b5b602082029050602081019050919050565b600067ffffffffffffffff821115612b3957612b38612f5d565b5b612b4282612fa5565b9050602081019050919050565b6000819050602082019050919050565b6000819050602082019050919050565b60008190508160005260206000209050919050565b6000819050602082019050919050565b6000819050602082019050919050565b60008190508160005260206000209050919050565b600081519050919050565b600081519050919050565b600081549050919050565b600081519050919050565b600081519050919050565b600081519050919050565b6000602082019050919050565b6000602082019050919050565b6000600182019050919050565b6000602082019050919050565b6000602082019050919050565b600082825260208201905092915050565b600082825260208201905092915050565b600082825260208201905092915050565b600082825260208201905092915050565b600082825260208201905092915050565b600082825260208201905092915050565b6000612cad82612da2565b9150612cb883612da2565b9250827fffffffffffffffffffffffffffffffffffffffffffffffffffffffffffffffff03821115612ced57612cec612ed0565b5b828201905092915050565b6000612d0382612da2565b9150612d0e83612da2565b9250817fffffffffffffffffffffffffffffffffffffffffffffffffffffffffffffffff0483118215151615612d4757612d46612ed0565b5b828202905092915050565b6000612d5d82612d82565b9050919050565b6000612d6f82612d82565b9050919050565b60008115159050919050565b600073ffffffffffffffffffffffffffffffffffffffff82169050919050565b6000819050919050565b6000612db782612dbe565b9050919050565b6000612dc982612d82565b9050919050565b6000612ddb82612da2565b9050919050565b82818337600083830152505050565b60005b83811015612e0f578082015181840152602081019050612df4565b83811115612e1e576000848401525b50505050565b60006002820490506001821680612e3c57607f821691505b60208210811415612e5057612e4f612eff565b5b50919050565b612e5f82612fa5565b810181811067ffffffffffffffff82111715612e7e57612e7d612f5d565b5b80604052505050565b6000612e9282612da2565b91507fffffffffffffffffffffffffffffffffffffffffffffffffffffffffffffffff821415612ec557612ec4612ed0565b5b600182019050919050565b7f4e487b7100000000000000000000000000000000000000000000000000000000600052601160045260246000fd5b7f4e487b7100000000000000000000000000000000000000000000000000000000600052602260045260246000fd5b7f4e487b7100000000000000000000000000000000000000000000000000000000600052603260045260246000fd5b7f4e487b7100000000000000000000000000000000000000000000000000000000600052604160045260246000fd5b600080fd5b600080fd5b600080fd5b600080fd5b600080fd5b6000601f19601f8301169050919050565b7f646f6e6174696f6e206d757374206265206c6172676572207468616e20300000600082015250565b7f54617267657420616d6f756e7420657863656465640000000000000000000000600082015250565b7f54686973206973206e6f74204554482063616d706169676e0000000000000000600082015250565b7f796f752063616e27742062652063616d706169676e2062656e65666163746f7260008201527f20746f20646f2074686973000000000000000000000000000000000000000000602082015250565b7f796f752063616e27742062652063616d706169676e2063726561746f7220746f60008201527f20646f2074686973000000000000000000000000000000000000000000000000602082015250565b7f63616d7061696e67207461726765742063757272656e6379206d75737420626560008201527f20455448206f7220444149000000000000000000000000000000000000000000602082015250565b7f4441490000000000000000000000000000000000000000000000000000000000600082015250565b7f4554480000000000000000000000000000000000000000000000000000000000600082015250565b7f63616d7061696e67206861732066696e69736865640000000000000000000000600082015250565b7f63616d706169676e2074617267657420616d6f756e74206d757374206265206c60008201527f6172676572207468616e20300000000000000000000000000000000000000000602082015250565b7f796f75206d7573742062652063616d706169676e2063726561746f7220746f2060008201527f646f207468697300000000000000000000000000000000000000000000000000602082015250565b61324081612d52565b811461324b57600080fd5b50565b61325781612d64565b811461326257600080fd5b50565b61326e81612d76565b811461327957600080fd5b50565b61328581612da2565b811461329057600080fd5b5056fea26469706673582212208c7730b39a59b2ac3d666fb3a22e9f1917deb6561c8bd25c9bcbc3541714ab9464736f6c63430008060033",
  "immutableReferences": {},
  "source": "// SPDX-License-Identifier: MIT\npragma solidity >=0.7.0 <0.9.0;\n\ninterface IUniswap {\n    function swapExactTokensForETH(\n        uint amountIn, \n        uint amountOutMin, \n        address[] calldata path, \n        address to, \n        uint deadline)\n        external\n        returns (uint[] memory amounts);\n    function WETH() external pure returns (address);\n}\n\ninterface IERC20 {\n    function transferFrom(\n        address sender, \n        address recipient, \n        uint256 amount) \n        external \n        returns (bool);\n    function approve(address spender, uint tokens)  external returns (bool);\n}\n    \ncontract SupportChildren {\n\n    IUniswap public constant uniswap = IUniswap(0xE592427A0AEce92De3Edee1F18E0157C05861564);\n    \n    event DonationMade (\n        uint campaignId,\n        uint donationAmount,\n        string notifyEmail,\n        string currency\n    );\n\n    event CampaignCreated (\n        uint campaignId\n    );\n\n    event CampaignFinished (\n        uint campaignId,\n        uint currentAmount,\n        string[] notifyEmails\n    );\n    \n    uint campaignIndex;\n    uint count;\n    \n    struct Campaign {\n        uint id;\n        string name; \n        string description;\n        string creatorEmail; \n        string image; \n        uint targetCurrency; \n        uint targetAmount;\n        uint currentAmount;\n        address payable beneficiaryAddress;\n        address creatorAddress;\n        bool active;\n    }\n    \n    Campaign[] campaigns;\n    \n    mapping(uint => string[]) campaignDonationsEmails;\n    mapping(address => uint[]) campaignDonors;\n    \n    modifier campaignCreator(uint _campaignId) {\n        require(campaigns[_campaignId].creatorAddress == tx.origin, \"you must be campaign creator to do this\");\n        _;\n    }\n    \n    modifier notCampaignCreator(uint _campaignId) {\n        require(campaigns[_campaignId].creatorAddress != tx.origin, \"you can't be campaign creator to do this\");\n        _;\n    }\n\n    modifier ethCampaign(uint _campaignId) {\n        require(campaigns[_campaignId].targetCurrency == 0, \"This is not ETH campaign\");\n        _;\n    }\n\n    modifier daiCampaign(uint _campaignId) {\n        require(campaigns[_campaignId].targetCurrency == 1, \"This is not DAI campaign\");\n        _;\n    }\n\n    modifier notCampaignBenefactor(uint _campaignId) {\n        require(campaigns[_campaignId].beneficiaryAddress != tx.origin, \"you can't be campaign benefactor to do this\");\n        _;\n    }\n\n    modifier campaignActive(uint _campaignId) {\n        require(campaigns[_campaignId].active == true, \"campaing has finished\");\n        _;\n    }\n\n    function createCampaign(string memory _name, string memory _description, string memory _creatorEmail, string memory _image, uint _targetCurrency, uint _targetAmount, address payable _beneficiaryAddress) public {\n        require(_targetAmount > 0, \"campaign target amount must be larger than 0\");\n        // TODO: save keccak256(bytes(\"ETH\") as variable to reduce gas fee's\n        require(_targetCurrency == 1 || _targetCurrency == 0, \"campaing target currency must be ETH or DAI\");\n        campaigns.push(Campaign({\n            id: count,\n            name: _name,\n            description: _description,\n            creatorEmail: _creatorEmail,\n            image: _image,\n            targetAmount: _targetAmount,\n            targetCurrency: _targetCurrency,\n            currentAmount: 0,\n            beneficiaryAddress: _beneficiaryAddress,\n            creatorAddress: tx.origin,\n            active: true\n        }));\n\n        emit CampaignCreated(count);\n        \n        count++;\n    }\n\n    function endCampaign(uint _campaignId) public campaignActive(_campaignId) campaignCreator(_campaignId) {\n        if (campaigns[_campaignId].currentAmount > 0) {\n            finishCampaign(_campaignId);\n        } else {\n            emit CampaignFinished(_campaignId, 0, campaignDonationsEmails[_campaignId]);\n            campaigns[_campaignId].active = false;\n        }\n    }\n\n    function editCampaign(uint _campaignId, string memory _name, string memory _description, string memory _creatorEmail, string memory _image) public campaignActive(_campaignId) campaignCreator(_campaignId) {\n        campaigns[_campaignId].name = _name;\n        campaigns[_campaignId].description = _description;\n        campaigns[_campaignId].creatorEmail = _creatorEmail;\n        campaigns[_campaignId].image = _image;\n    }\n\n    function finishCampaign(uint _campaignId) private {\n        emit CampaignFinished(_campaignId, campaigns[_campaignId].currentAmount, campaignDonationsEmails[_campaignId]);\n        // Send ETH to the address of the child\n        campaigns[_campaignId].beneficiaryAddress.transfer(campaigns[_campaignId].currentAmount);\n        campaigns[_campaignId].active = false;\n    }\n\n\n    // ETH to ETH\n    function donateEthToEthCampaign(uint _campaignId, string memory _donorEmail) payable public campaignActive(_campaignId) notCampaignCreator(_campaignId) notCampaignBenefactor(_campaignId) ethCampaign(_campaignId) {\n        require(msg.value > 0, \"donation must be larger than 0\");\n        // curentamount must be fetched from frontend\n        require((campaigns[_campaignId].currentAmount  + msg.value) * 10 < 11 * campaigns[_campaignId].targetAmount, \"Target amount exceded\");\n        campaignDonationsEmails[_campaignId].push(_donorEmail);\n        campaignDonors[tx.origin].push(_campaignId);\n        campaigns[_campaignId].currentAmount = campaigns[_campaignId].currentAmount  + msg.value;\n\n        emit DonationMade(_campaignId, msg.value, campaigns[_campaignId].creatorEmail, \"ETH\");\n\n        if (campaigns[_campaignId].currentAmount >= campaigns[_campaignId].targetAmount) {\n            finishCampaign(_campaignId);\n        }\n    }\n\n    // Token to ETH\n    function donateTokenToETHCampaign(uint _campaignId, string memory _donorEmail, address token, uint amountIn, uint amountOutMin, uint deadline) public {\n        IERC20(token).approve(address(uniswap), amountIn);\n        address[] memory path = new address[](2);\n        path[0] = address(0x6B175474E89094C44Da98b954EedeAC495271d0F);\n        path[1] = uniswap.WETH();\n        IERC20(token).approve(address(uniswap), amountIn);\n        uniswap.swapExactTokensForETH(\n            amountIn, \n            amountOutMin, \n            path, \n            address(this), \n            deadline\n        );\n\n        campaignDonationsEmails[_campaignId].push(_donorEmail);\n        campaignDonors[tx.origin].push(_campaignId);\n        campaigns[_campaignId].currentAmount = campaigns[_campaignId].currentAmount + amountOutMin;\n        emit DonationMade(_campaignId, amountIn, campaigns[_campaignId].creatorEmail, \"DAI\");\n\n        if (campaigns[_campaignId].currentAmount >= campaigns[_campaignId].targetAmount) {\n            finishCampaign(_campaignId);\n        }\n    }\n    \n    function getDonorEmails(uint _campaignId) view public returns (string[] memory) {\n        return campaignDonationsEmails[_campaignId];\n    }\n    \n    function getDonorsCampaingsList(address _donor) view public returns (uint[] memory) {\n        return campaignDonors[_donor];\n    }\n    \n    function getCampaigns() public view returns (Campaign[] memory) {\n        return campaigns;\n    }\n\n    function getCampaignAmount(uint _campaignId) public view returns (uint) {\n        return campaigns[_campaignId].currentAmount;\n    }\n}",
  "sourcePath": "/home/zarko/learn/ethereum/support-children/contracts/SupportChildren.sol",
  "compiler": {
    "name": "solc",
    "version": "0.8.6+commit.11564f7e.Emscripten.clang"
  },
  "schemaVersion": "3.4.1",
  "updatedAt": "2021-08-06T11:15:03.122Z",
  "devdoc": {
    "kind": "dev",
    "methods": {},
    "version": 1
  },
  "userdoc": {
    "kind": "user",
    "methods": {},
    "version": 1
  }
}