{
  "contractName": "SupportChildren",
  "abi": [
    {
      "anonymous": false,
      "inputs": [
        {
          "indexed": false,
          "internalType": "uint256",
          "name": "campaignId",
          "type": "uint256"
        },
        {
          "indexed": false,
          "internalType": "uint256",
          "name": "currentAmount",
          "type": "uint256"
        },
        {
          "indexed": false,
          "internalType": "string[]",
          "name": "notifyEmails",
          "type": "string[]"
        }
      ],
      "name": "CampaignFinished",
      "type": "event"
    },
    {
      "anonymous": false,
      "inputs": [
        {
          "indexed": false,
          "internalType": "uint256",
          "name": "campaignId",
          "type": "uint256"
        },
        {
          "indexed": false,
          "internalType": "uint256",
          "name": "donationAmount",
          "type": "uint256"
        },
        {
          "indexed": false,
          "internalType": "string",
          "name": "notifyEmail",
          "type": "string"
        }
      ],
      "name": "DonationMade",
      "type": "event"
    },
    {
      "inputs": [
        {
          "internalType": "string",
          "name": "_name",
          "type": "string"
        },
        {
          "internalType": "string",
          "name": "_description",
          "type": "string"
        },
        {
          "internalType": "string",
          "name": "_creatorEmail",
          "type": "string"
        },
        {
          "internalType": "uint256",
          "name": "_targetAmount",
          "type": "uint256"
        },
        {
          "internalType": "address payable",
          "name": "_beneficiaryAddress",
          "type": "address"
        }
      ],
      "name": "createCampaign",
      "outputs": [],
      "stateMutability": "nonpayable",
      "type": "function"
    },
    {
      "inputs": [
        {
          "internalType": "uint256",
          "name": "_campaignId",
          "type": "uint256"
        },
        {
          "internalType": "string",
          "name": "_donorEmail",
          "type": "string"
        },
        {
          "internalType": "uint256",
          "name": "_amount",
          "type": "uint256"
        }
      ],
      "name": "donateTest",
      "outputs": [],
      "stateMutability": "nonpayable",
      "type": "function"
    },
    {
      "inputs": [
        {
          "internalType": "uint256",
          "name": "_campaignId",
          "type": "uint256"
        },
        {
          "internalType": "string",
          "name": "_donorEmail",
          "type": "string"
        }
      ],
      "name": "donate",
      "outputs": [],
      "stateMutability": "payable",
      "type": "function",
      "payable": true
    },
    {
      "inputs": [
        {
          "internalType": "uint256",
          "name": "_campaignId",
          "type": "uint256"
        }
      ],
      "name": "getDonorEmails",
      "outputs": [
        {
          "internalType": "string[]",
          "name": "",
          "type": "string[]"
        }
      ],
      "stateMutability": "view",
      "type": "function",
      "constant": true
    },
    {
      "inputs": [],
      "name": "getCampaigns",
      "outputs": [
        {
          "components": [
            {
              "internalType": "uint256",
              "name": "id",
              "type": "uint256"
            },
            {
              "internalType": "string",
              "name": "name",
              "type": "string"
            },
            {
              "internalType": "string",
              "name": "description",
              "type": "string"
            },
            {
              "internalType": "string",
              "name": "creatorEmail",
              "type": "string"
            },
            {
              "internalType": "uint256",
              "name": "targetAmount",
              "type": "uint256"
            },
            {
              "internalType": "uint256",
              "name": "currentAmount",
              "type": "uint256"
            },
            {
              "internalType": "address payable",
              "name": "beneficiaryAddress",
              "type": "address"
            },
            {
              "internalType": "bool",
              "name": "active",
              "type": "bool"
            }
          ],
          "internalType": "struct SupportChildren.Campaign[]",
          "name": "",
          "type": "tuple[]"
        }
      ],
      "stateMutability": "view",
      "type": "function",
      "constant": true
    },
    {
      "inputs": [
        {
          "internalType": "uint256",
          "name": "_campaignId",
          "type": "uint256"
        }
      ],
      "name": "getCampaignAmount",
      "outputs": [
        {
          "internalType": "uint256",
          "name": "",
          "type": "uint256"
        }
      ],
      "stateMutability": "view",
      "type": "function",
      "constant": true
    }
  ],
  "bytecode": "0x608060405234801561001057600080fd5b506116a6806100206000396000f3fe6080604052600436106100555760003560e01c8063296c10f41461005a57806335640410146100975780636c4689e0146100c05780638d59d1f1146100e9578063909f7d6614610105578063a6b0363314610142575b600080fd5b34801561006657600080fd5b50610081600480360381019061007c9190610c92565b61016d565b60405161008e91906111de565b60405180910390f35b3480156100a357600080fd5b506100be60048036038101906100b99190610bc3565b61019c565b005b3480156100cc57600080fd5b506100e760048036038101906100e29190610d1b565b61031a565b005b61010360048036038101906100fe9190610cbf565b6103c6565b005b34801561011157600080fd5b5061012c60048036038101906101279190610c92565b6106f5565b604051610139919061117a565b60405180910390f35b34801561014e57600080fd5b506101576107e1565b604051610164919061119c565b60405180910390f35b60006002828154811061018357610182611596565b5b9060005260206000209060070201600501549050919050565b60026040518061010001604052806001548152602001878152602001868152602001858152602001848152602001600081526020018373ffffffffffffffffffffffffffffffffffffffff168152602001600115158152509080600181540180825580915050600190039060005260206000209060070201600090919091909150600082015181600001556020820151816001019080519060200190610243929190610a86565b506040820151816002019080519060200190610260929190610a86565b50606082015181600301908051906020019061027d929190610a86565b506080820151816004015560a0820151816005015560c08201518160060160006101000a81548173ffffffffffffffffffffffffffffffffffffffff021916908373ffffffffffffffffffffffffffffffffffffffff16021790555060e08201518160060160146101000a81548160ff02191690831515021790555050506001600081548092919061030e906114ef565b91905055505050505050565b6003600084815260200190815260200160002082908060018154018082558091505060019003906000526020600020016000909190919091509080519060200190610366929190610a86565b50806002848154811061037c5761037b611596565b5b90600052602060002090600702016005015461039891906113ac565b600284815481106103ac576103ab611596565b5b906000526020600020906007020160040181905550505050565b600282815481106103da576103d9611596565b5b906000526020600020906007020160060160149054906101000a900460ff16610438576040517f08c379a000000000000000000000000000000000000000000000000000000000815260040161042f906111be565b60405180910390fd5b6003600083815260200190815260200160002081908060018154018082558091505060019003906000526020600020016000909190919091509080519060200190610484929190610a86565b50346002838154811061049a57610499611596565b5b9060005260206000209060070201600501546104b691906113ac565b600283815481106104ca576104c9611596565b5b9060005260206000209060070201600501819055507ffddcfe672c89a3cee8466dfebd67c1f7c83adc2f524e714dd458e5c38e53fe2782346002858154811061051657610515611596565b5b906000526020600020906007020160030160405161053693929190611237565b60405180910390a16002828154811061055257610551611596565b5b9060005260206000209060070201600401546002838154811061057857610577611596565b5b906000526020600020906007020160050154106106f1577fbc6fdcbbc64181fa5b0a580ffa8643761277b5ab073214c08cce86c7317bf40082600284815481106105c5576105c4611596565b5b906000526020600020906007020160050154600360008681526020019081526020016000206040516105f9939291906111f9565b60405180910390a16002828154811061061557610614611596565b5b906000526020600020906007020160060160009054906101000a900473ffffffffffffffffffffffffffffffffffffffff1673ffffffffffffffffffffffffffffffffffffffff166108fc6002848154811061067457610673611596565b5b9060005260206000209060070201600501549081150290604051600060405180830381858888f193505050501580156106b1573d6000803e3d6000fd5b506000600283815481106106c8576106c7611596565b5b906000526020600020906007020160060160146101000a81548160ff0219169083151502179055505b5050565b606060036000838152602001908152602001600020805480602002602001604051908101604052809291908181526020016000905b828210156107d65783829060005260206000200180546107499061148c565b80601f01602080910402602001604051908101604052809291908181526020018280546107759061148c565b80156107c25780601f10610797576101008083540402835291602001916107c2565b820191906000526020600020905b8154815290600101906020018083116107a557829003601f168201915b50505050508152602001906001019061072a565b505050509050919050565b60606002805480602002602001604051908101604052809291908181526020016000905b82821015610a7d578382906000526020600020906007020160405180610100016040529081600082015481526020016001820180546108439061148c565b80601f016020809104026020016040519081016040528092919081815260200182805461086f9061148c565b80156108bc5780601f10610891576101008083540402835291602001916108bc565b820191906000526020600020905b81548152906001019060200180831161089f57829003601f168201915b505050505081526020016002820180546108d59061148c565b80601f01602080910402602001604051908101604052809291908181526020018280546109019061148c565b801561094e5780601f106109235761010080835404028352916020019161094e565b820191906000526020600020905b81548152906001019060200180831161093157829003601f168201915b505050505081526020016003820180546109679061148c565b80601f01602080910402602001604051908101604052809291908181526020018280546109939061148c565b80156109e05780601f106109b5576101008083540402835291602001916109e0565b820191906000526020600020905b8154815290600101906020018083116109c357829003601f168201915b5050505050815260200160048201548152602001600582015481526020016006820160009054906101000a900473ffffffffffffffffffffffffffffffffffffffff1673ffffffffffffffffffffffffffffffffffffffff1673ffffffffffffffffffffffffffffffffffffffff1681526020016006820160149054906101000a900460ff16151515158152505081526020019060010190610805565b50505050905090565b828054610a929061148c565b90600052602060002090601f016020900481019282610ab45760008555610afb565b82601f10610acd57805160ff1916838001178555610afb565b82800160010185558215610afb579182015b82811115610afa578251825591602001919060010190610adf565b5b509050610b089190610b0c565b5090565b5b80821115610b25576000816000905550600101610b0d565b5090565b6000610b3c610b378461129a565b611275565b905082815260208101848484011115610b5857610b576115f9565b5b610b6384828561144a565b509392505050565b600081359050610b7a81611642565b92915050565b600082601f830112610b9557610b946115f4565b5b8135610ba5848260208601610b29565b91505092915050565b600081359050610bbd81611659565b92915050565b600080600080600060a08688031215610bdf57610bde611603565b5b600086013567ffffffffffffffff811115610bfd57610bfc6115fe565b5b610c0988828901610b80565b955050602086013567ffffffffffffffff811115610c2a57610c296115fe565b5b610c3688828901610b80565b945050604086013567ffffffffffffffff811115610c5757610c566115fe565b5b610c6388828901610b80565b9350506060610c7488828901610bae565b9250506080610c8588828901610b6b565b9150509295509295909350565b600060208284031215610ca857610ca7611603565b5b6000610cb684828501610bae565b91505092915050565b60008060408385031215610cd657610cd5611603565b5b6000610ce485828601610bae565b925050602083013567ffffffffffffffff811115610d0557610d046115fe565b5b610d1185828601610b80565b9150509250929050565b600080600060608486031215610d3457610d33611603565b5b6000610d4286828701610bae565b935050602084013567ffffffffffffffff811115610d6357610d626115fe565b5b610d6f86828701610b80565b9250506040610d8086828701610bae565b9150509250925092565b6000610d968383610f42565b905092915050565b6000610daa8383610f7b565b905092915050565b6000610dbe838361109e565b905092915050565b610dcf81611402565b82525050565b6000610de082611315565b610dea8185611368565b935083602082028501610dfc856112cb565b8060005b85811015610e385784840389528151610e198582610d8a565b9450610e2483611341565b925060208a01995050600181019050610e00565b50829750879550505050505092915050565b6000610e5582611320565b610e5f8185611368565b935083602082028501610e71856112db565b8060005b85811015610eac57848403895281610e8d8582610d9e565b9450610e988361134e565b925060208a01995050600181019050610e75565b50829750879550505050505092915050565b6000610ec98261132b565b610ed38185611379565b935083602082028501610ee5856112f0565b8060005b85811015610f215784840389528151610f028582610db2565b9450610f0d8361135b565b925060208a01995050600181019050610ee9565b50829750879550505050505092915050565b610f3c81611414565b82525050565b6000610f4d82611336565b610f57818561138a565b9350610f67818560208601611459565b610f7081611608565b840191505092915050565b60008154610f888161148c565b610f92818661138a565b94506001821660008114610fad5760018114610fbf57610ff2565b60ff1983168652602086019350610ff2565b610fc885611300565b60005b83811015610fea57815481890152600182019150602081019050610fcb565b808801955050505b50505092915050565b600081546110088161148c565b611012818661139b565b9450600182166000811461102d576001811461103f57611072565b60ff1983168652602086019350611072565b61104885611300565b60005b8381101561106a5781548189015260018201915060208101905061104b565b808801955050505b50505092915050565b600061108860168361139b565b915061109382611619565b602082019050919050565b6000610100830160008301516110b7600086018261115c565b50602083015184820360208601526110cf8282610f42565b915050604083015184820360408601526110e98282610f42565b915050606083015184820360608601526111038282610f42565b9150506080830151611118608086018261115c565b5060a083015161112b60a086018261115c565b5060c083015161113e60c0860182610dc6565b5060e083015161115160e0860182610f33565b508091505092915050565b61116581611440565b82525050565b61117481611440565b82525050565b600060208201905081810360008301526111948184610dd5565b905092915050565b600060208201905081810360008301526111b68184610ebe565b905092915050565b600060208201905081810360008301526111d78161107b565b9050919050565b60006020820190506111f3600083018461116b565b92915050565b600060608201905061120e600083018661116b565b61121b602083018561116b565b818103604083015261122d8184610e4a565b9050949350505050565b600060608201905061124c600083018661116b565b611259602083018561116b565b818103604083015261126b8184610ffb565b9050949350505050565b600061127f611290565b905061128b82826114be565b919050565b6000604051905090565b600067ffffffffffffffff8211156112b5576112b46115c5565b5b6112be82611608565b9050602081019050919050565b6000819050602082019050919050565b60008190508160005260206000209050919050565b6000819050602082019050919050565b60008190508160005260206000209050919050565b600081519050919050565b600081549050919050565b600081519050919050565b600081519050919050565b6000602082019050919050565b6000600182019050919050565b6000602082019050919050565b600082825260208201905092915050565b600082825260208201905092915050565b600082825260208201905092915050565b600082825260208201905092915050565b60006113b782611440565b91506113c283611440565b9250827fffffffffffffffffffffffffffffffffffffffffffffffffffffffffffffffff038211156113f7576113f6611538565b5b828201905092915050565b600061140d82611420565b9050919050565b60008115159050919050565b600073ffffffffffffffffffffffffffffffffffffffff82169050919050565b6000819050919050565b82818337600083830152505050565b60005b8381101561147757808201518184015260208101905061145c565b83811115611486576000848401525b50505050565b600060028204905060018216806114a457607f821691505b602082108114156114b8576114b7611567565b5b50919050565b6114c782611608565b810181811067ffffffffffffffff821117156114e6576114e56115c5565b5b80604052505050565b60006114fa82611440565b91507fffffffffffffffffffffffffffffffffffffffffffffffffffffffffffffffff82141561152d5761152c611538565b5b600182019050919050565b7f4e487b7100000000000000000000000000000000000000000000000000000000600052601160045260246000fd5b7f4e487b7100000000000000000000000000000000000000000000000000000000600052602260045260246000fd5b7f4e487b7100000000000000000000000000000000000000000000000000000000600052603260045260246000fd5b7f4e487b7100000000000000000000000000000000000000000000000000000000600052604160045260246000fd5b600080fd5b600080fd5b600080fd5b600080fd5b6000601f19601f8301169050919050565b7f63616d706169676e206973206e6f742061637469766500000000000000000000600082015250565b61164b81611402565b811461165657600080fd5b50565b61166281611440565b811461166d57600080fd5b5056fea26469706673582212203e524aa35af48812846876f056a85624b33de66a347e9d3b502f7ebd3174753564736f6c63430008060033",
  "immutableReferences": {},
  "source": "// SPDX-License-Identifier: MIT\npragma solidity >=0.7.0 <0.9.0;\n\ncontract SupportChildren {\n\n    event DonationMade (\n        uint campaignId,\n        uint donationAmount,\n        string notifyEmail\n    );\n\n    event CampaignFinished (\n        uint campaignId,\n        uint currentAmount,\n        string[] notifyEmails\n    );\n    \n    uint campaignIndex;\n    uint count;\n    \n    struct Campaign {\n        uint id;\n        string name; \n        string description;\n        string creatorEmail; \n        uint targetAmount;\n        uint currentAmount;\n        address payable beneficiaryAddress;\n        bool active;\n    }\n    \n    Campaign[] campaigns;\n    \n    mapping(uint => string[]) campaignDonationsEmails;\n    \n    function createCampaign(string memory _name, string memory _description, string memory _creatorEmail, uint _targetAmount, address payable _beneficiaryAddress) public {\n         campaigns.push(Campaign({\n            id: count,\n            name: _name,\n            description: _description,\n            creatorEmail: _creatorEmail,\n            targetAmount: _targetAmount,\n            currentAmount: 0,\n            beneficiaryAddress: _beneficiaryAddress,\n            active: true\n        }));\n        \n        count++;\n    }\n    \n    // Only for test\n    function donateTest(uint _campaignId, string memory _donorEmail, uint _amount) public {\n        campaignDonationsEmails[_campaignId].push(_donorEmail);\n        \n        campaigns[_campaignId].targetAmount = campaigns[_campaignId].currentAmount + _amount;\n    }\n\n    // Real ETH donation\n    function donate(uint _campaignId, string memory _donorEmail) payable public {\n        require(campaigns[_campaignId].active, \"campaign is not active\");\n        campaignDonationsEmails[_campaignId].push(_donorEmail);\n        campaigns[_campaignId].currentAmount = campaigns[_campaignId].currentAmount  + msg.value;\n\n        emit DonationMade(_campaignId, msg.value, campaigns[_campaignId].creatorEmail);\n\n        if (campaigns[_campaignId].currentAmount >= campaigns[_campaignId].targetAmount) {\n            emit CampaignFinished(_campaignId, campaigns[_campaignId].currentAmount, campaignDonationsEmails[_campaignId]);\n            // Send ETH to the address of the child\n            campaigns[_campaignId].beneficiaryAddress.transfer(campaigns[_campaignId].currentAmount);\n            campaigns[_campaignId].active = false;\n        }\n    }\n    \n    function getDonorEmails(uint _campaignId) view public returns (string[] memory) {\n        return campaignDonationsEmails[_campaignId];\n    }\n    \n    function getCampaigns() public view returns (Campaign[] memory) {\n        return campaigns;\n    }\n\n    function getCampaignAmount(uint _campaignId) public view returns (uint) {\n        return campaigns[_campaignId].currentAmount;\n    }\n    \n}",
  "sourcePath": "/home/zarko/learn/ethereum/support-children/contracts/SupportChildren.sol",
  "compiler": {
    "name": "solc",
    "version": "0.8.6+commit.11564f7e.Emscripten.clang"
  },
  "schemaVersion": "3.4.1",
  "updatedAt": "2021-07-24T15:08:47.733Z",
  "networkType": "ethereum",
  "devdoc": {
    "kind": "dev",
    "methods": {},
    "version": 1
  },
  "userdoc": {
    "kind": "user",
    "methods": {},
    "version": 1
  }
}