{
  "contractName": "SupportChildren",
  "abi": [
    {
      "inputs": [
        {
          "internalType": "uint256",
          "name": "",
          "type": "uint256"
        }
      ],
      "name": "campaignDonationsAmounts",
      "outputs": [
        {
          "internalType": "uint256",
          "name": "",
          "type": "uint256"
        }
      ],
      "stateMutability": "view",
      "type": "function"
    },
    {
      "inputs": [
        {
          "internalType": "uint256",
          "name": "",
          "type": "uint256"
        }
      ],
      "name": "campaignDonationsTargetAmounts",
      "outputs": [
        {
          "internalType": "uint256",
          "name": "",
          "type": "uint256"
        }
      ],
      "stateMutability": "view",
      "type": "function"
    },
    {
      "inputs": [
        {
          "internalType": "string",
          "name": "_name",
          "type": "string"
        },
        {
          "internalType": "string",
          "name": "_description",
          "type": "string"
        },
        {
          "internalType": "string",
          "name": "_creatorEmail",
          "type": "string"
        },
        {
          "internalType": "uint32",
          "name": "_targetAmount",
          "type": "uint32"
        },
        {
          "internalType": "address",
          "name": "_targetAccount",
          "type": "address"
        }
      ],
      "name": "createCampaign",
      "outputs": [],
      "stateMutability": "nonpayable",
      "type": "function"
    },
    {
      "inputs": [
        {
          "internalType": "uint256",
          "name": "_campaignId",
          "type": "uint256"
        },
        {
          "internalType": "string",
          "name": "_donorEmail",
          "type": "string"
        },
        {
          "internalType": "uint32",
          "name": "_amount",
          "type": "uint32"
        }
      ],
      "name": "donateTest",
      "outputs": [],
      "stateMutability": "nonpayable",
      "type": "function"
    },
    {
      "inputs": [
        {
          "internalType": "uint256",
          "name": "_campaignId",
          "type": "uint256"
        },
        {
          "internalType": "string",
          "name": "_donorEmail",
          "type": "string"
        }
      ],
      "name": "donate",
      "outputs": [],
      "stateMutability": "payable",
      "type": "function"
    },
    {
      "inputs": [
        {
          "internalType": "uint256",
          "name": "_campaignId",
          "type": "uint256"
        }
      ],
      "name": "getDonatorEmails",
      "outputs": [
        {
          "internalType": "string[]",
          "name": "",
          "type": "string[]"
        }
      ],
      "stateMutability": "view",
      "type": "function"
    },
    {
      "inputs": [],
      "name": "getCampaigns",
      "outputs": [
        {
          "components": [
            {
              "internalType": "uint256",
              "name": "id",
              "type": "uint256"
            },
            {
              "internalType": "string",
              "name": "name",
              "type": "string"
            },
            {
              "internalType": "string",
              "name": "description",
              "type": "string"
            },
            {
              "internalType": "string",
              "name": "creatorEmail",
              "type": "string"
            },
            {
              "internalType": "uint32",
              "name": "targetAmount",
              "type": "uint32"
            },
            {
              "internalType": "address",
              "name": "targetAccount",
              "type": "address"
            }
          ],
          "internalType": "struct SupportChildren.Campaign[]",
          "name": "",
          "type": "tuple[]"
        }
      ],
      "stateMutability": "view",
      "type": "function"
    }
  ],
  "bytecode": "0x608060405234801561001057600080fd5b5061114e806100206000396000f3fe6080604052600436106100705760003560e01c80638d59d1f11161004e5780638d59d1f11461012c578063a6b0363314610148578063ac006c9614610173578063c610aa3f1461019c57610070565b8063105df696146100755780632f54a43a146100b257806348535117146100ef575b600080fd5b34801561008157600080fd5b5061009c60048036038101906100979190610a38565b6101c5565b6040516100a99190610d4e565b60405180910390f35b3480156100be57600080fd5b506100d960048036038101906100d49190610a38565b6102b1565b6040516100e69190610d92565b60405180910390f35b3480156100fb57600080fd5b5061011660048036038101906101119190610a38565b6102c9565b6040516101239190610d92565b60405180910390f35b61014660048036038101906101419190610a65565b6102e1565b005b34801561015457600080fd5b5061015d610368565b60405161016a9190610d70565b60405180910390f35b34801561017f57600080fd5b5061019a60048036038101906101959190610969565b610603565b005b3480156101a857600080fd5b506101c360048036038101906101be9190610ac1565b610789565b005b606060036000838152602001908152602001600020805480602002602001604051908101604052809291908181526020016000905b828210156102a657838290600052602060002001805461021990610f75565b80601f016020809104026020016040519081016040528092919081815260200182805461024590610f75565b80156102925780601f1061026757610100808354040283529160200191610292565b820191906000526020600020905b81548152906001019060200180831161027557829003601f168201915b5050505050815260200190600101906101fa565b505050509050919050565b60046020528060005260406000206000915090505481565b60056020528060005260406000206000915090505481565b600360008381526020019081526020016000208190806001815401808255809150506001900390600052602060002001600090919091909150908051906020019061032d929190610817565b5034600460008481526020019081526020016000205461034d9190610e91565b60046000848152602001908152602001600020819055505050565b60606002805480602002602001604051908101604052809291908181526020016000905b828210156105fa57838290600052602060002090600502016040518060c0016040529081600082015481526020016001820180546103c990610f75565b80601f01602080910402602001604051908101604052809291908181526020018280546103f590610f75565b80156104425780601f1061041757610100808354040283529160200191610442565b820191906000526020600020905b81548152906001019060200180831161042557829003601f168201915b5050505050815260200160028201805461045b90610f75565b80601f016020809104026020016040519081016040528092919081815260200182805461048790610f75565b80156104d45780601f106104a9576101008083540402835291602001916104d4565b820191906000526020600020905b8154815290600101906020018083116104b757829003601f168201915b505050505081526020016003820180546104ed90610f75565b80601f016020809104026020016040519081016040528092919081815260200182805461051990610f75565b80156105665780601f1061053b57610100808354040283529160200191610566565b820191906000526020600020905b81548152906001019060200180831161054957829003601f168201915b505050505081526020016004820160009054906101000a900463ffffffff1663ffffffff1663ffffffff1681526020016004820160049054906101000a900473ffffffffffffffffffffffffffffffffffffffff1673ffffffffffffffffffffffffffffffffffffffff1673ffffffffffffffffffffffffffffffffffffffff16815250508152602001906001019061038c565b50505050905090565b60026040518060c0016040528060015481526020018781526020018681526020018581526020018463ffffffff1681526020018373ffffffffffffffffffffffffffffffffffffffff16815250908060018154018082558091505060019003906000526020600020906005020160009091909190915060008201518160000155602082015181600101908051906020019061069f929190610817565b5060408201518160020190805190602001906106bc929190610817565b5060608201518160030190805190602001906106d9929190610817565b5060808201518160040160006101000a81548163ffffffff021916908363ffffffff16021790555060a08201518160040160046101000a81548173ffffffffffffffffffffffffffffffffffffffff021916908373ffffffffffffffffffffffffffffffffffffffff16021790555050508163ffffffff16600560006001548152602001908152602001600020819055506001600081548092919061077d90610fd8565b91905055505050505050565b60036000848152602001908152602001600020829080600181540180825580915050600190039060005260206000200160009091909190915090805190602001906107d5929190610817565b508063ffffffff1660046000858152602001908152602001600020546107fb9190610e91565b6004600085815260200190815260200160002081905550505050565b82805461082390610f75565b90600052602060002090601f016020900481019282610845576000855561088c565b82601f1061085e57805160ff191683800117855561088c565b8280016001018555821561088c579182015b8281111561088b578251825591602001919060010190610870565b5b509050610899919061089d565b5090565b5b808211156108b657600081600090555060010161089e565b5090565b60006108cd6108c884610dd2565b610dad565b9050828152602081018484840111156108e9576108e86110b3565b5b6108f4848285610f33565b509392505050565b60008135905061090b816110d3565b92915050565b600082601f830112610926576109256110ae565b5b81356109368482602086016108ba565b91505092915050565b60008135905061094e816110ea565b92915050565b60008135905061096381611101565b92915050565b600080600080600060a08688031215610985576109846110bd565b5b600086013567ffffffffffffffff8111156109a3576109a26110b8565b5b6109af88828901610911565b955050602086013567ffffffffffffffff8111156109d0576109cf6110b8565b5b6109dc88828901610911565b945050604086013567ffffffffffffffff8111156109fd576109fc6110b8565b5b610a0988828901610911565b9350506060610a1a88828901610954565b9250506080610a2b888289016108fc565b9150509295509295909350565b600060208284031215610a4e57610a4d6110bd565b5b6000610a5c8482850161093f565b91505092915050565b60008060408385031215610a7c57610a7b6110bd565b5b6000610a8a8582860161093f565b925050602083013567ffffffffffffffff811115610aab57610aaa6110b8565b5b610ab785828601610911565b9150509250929050565b600080600060608486031215610ada57610ad96110bd565b5b6000610ae88682870161093f565b935050602084013567ffffffffffffffff811115610b0957610b086110b8565b5b610b1586828701610911565b9250506040610b2686828701610954565b9150509250925092565b6000610b3c8383610c51565b905092915050565b6000610b508383610c8a565b905092915050565b610b6181610ee7565b82525050565b6000610b7282610e23565b610b7c8185610e5e565b935083602082028501610b8e85610e03565b8060005b85811015610bca5784840389528151610bab8582610b30565b9450610bb683610e44565b925060208a01995050600181019050610b92565b50829750879550505050505092915050565b6000610be782610e2e565b610bf18185610e6f565b935083602082028501610c0385610e13565b8060005b85811015610c3f5784840389528151610c208582610b44565b9450610c2b83610e51565b925060208a01995050600181019050610c07565b50829750879550505050505092915050565b6000610c5c82610e39565b610c668185610e80565b9350610c76818560208601610f42565b610c7f816110c2565b840191505092915050565b600060c083016000830151610ca26000860182610d21565b5060208301518482036020860152610cba8282610c51565b91505060408301518482036040860152610cd48282610c51565b91505060608301518482036060860152610cee8282610c51565b9150506080830151610d036080860182610d3f565b5060a0830151610d1660a0860182610b58565b508091505092915050565b610d2a81610f19565b82525050565b610d3981610f19565b82525050565b610d4881610f23565b82525050565b60006020820190508181036000830152610d688184610b67565b905092915050565b60006020820190508181036000830152610d8a8184610bdc565b905092915050565b6000602082019050610da76000830184610d30565b92915050565b6000610db7610dc8565b9050610dc38282610fa7565b919050565b6000604051905090565b600067ffffffffffffffff821115610ded57610dec61107f565b5b610df6826110c2565b9050602081019050919050565b6000819050602082019050919050565b6000819050602082019050919050565b600081519050919050565b600081519050919050565b600081519050919050565b6000602082019050919050565b6000602082019050919050565b600082825260208201905092915050565b600082825260208201905092915050565b600082825260208201905092915050565b6000610e9c82610f19565b9150610ea783610f19565b9250827fffffffffffffffffffffffffffffffffffffffffffffffffffffffffffffffff03821115610edc57610edb611021565b5b828201905092915050565b6000610ef282610ef9565b9050919050565b600073ffffffffffffffffffffffffffffffffffffffff82169050919050565b6000819050919050565b600063ffffffff82169050919050565b82818337600083830152505050565b60005b83811015610f60578082015181840152602081019050610f45565b83811115610f6f576000848401525b50505050565b60006002820490506001821680610f8d57607f821691505b60208210811415610fa157610fa0611050565b5b50919050565b610fb0826110c2565b810181811067ffffffffffffffff82111715610fcf57610fce61107f565b5b80604052505050565b6000610fe382610f19565b91507fffffffffffffffffffffffffffffffffffffffffffffffffffffffffffffffff82141561101657611015611021565b5b600182019050919050565b7f4e487b7100000000000000000000000000000000000000000000000000000000600052601160045260246000fd5b7f4e487b7100000000000000000000000000000000000000000000000000000000600052602260045260246000fd5b7f4e487b7100000000000000000000000000000000000000000000000000000000600052604160045260246000fd5b600080fd5b600080fd5b600080fd5b600080fd5b6000601f19601f8301169050919050565b6110dc81610ee7565b81146110e757600080fd5b50565b6110f381610f19565b81146110fe57600080fd5b50565b61110a81610f23565b811461111557600080fd5b5056fea2646970667358221220a7c7b1ec090841b890786b534b6582861d5f0674b50adc6e84c282da7abcb79c64736f6c63430008060033",
  "immutableReferences": {},
  "source": "// SPDX-License-Identifier: MIT\npragma solidity >=0.7.0 <0.9.0;\n\ncontract SupportChildren {\n    \n    uint campaignIndex;\n    uint count;\n    \n    struct Campaign {\n        uint id;\n        string name; \n        string description;\n        string creatorEmail; \n        uint32 targetAmount;\n        address targetAccount;\n    }\n    \n    Campaign[] campaigns;\n    \n    mapping(uint => string[]) campaignDonationsEmails;\n    mapping(uint => uint) public campaignDonationsAmounts;\n    mapping(uint => uint) public campaignDonationsTargetAmounts;\n    \n    function createCampaign(string memory _name, string memory _description, string memory _creatorEmail, uint32 _targetAmount, address _targetAccount) public {\n         campaigns.push(Campaign({\n            id: count,\n            name: _name,\n            description: _description,\n            creatorEmail: _creatorEmail,\n            targetAmount: _targetAmount,\n            targetAccount: _targetAccount\n        }));\n        campaignDonationsTargetAmounts[count] = _targetAmount;\n        \n        count++;\n    }\n    \n    // Fiktivno slanje para za test samo\n    function donateTest(uint _campaignId, string memory _donorEmail, uint32 _amount) public {\n        campaignDonationsEmails[_campaignId].push(_donorEmail);\n        campaignDonationsAmounts[_campaignId] = campaignDonationsAmounts[_campaignId] + _amount;\n    }\n\n    // Stvarno slanje ETH\n    function donate(uint _campaignId, string memory _donorEmail) payable public {\n        campaignDonationsEmails[_campaignId].push(_donorEmail);\n        campaignDonationsAmounts[_campaignId] = campaignDonationsAmounts[_campaignId] + msg.value;\n    }\n    \n    function getDonatorEmails(uint _campaignId) view public returns (string[] memory) {\n        return campaignDonationsEmails[_campaignId];\n    }\n    \n    function getCampaigns() public view returns (Campaign[] memory) {\n        return campaigns;\n    }\n    \n}",
  "sourcePath": "/home/zarko/learn/ethereum/support-children/contracts/SupportChildren.sol",
  "compiler": {
    "name": "solc",
    "version": "0.8.6+commit.11564f7e.Emscripten.clang"
  },
  "schemaVersion": "3.4.1",
  "updatedAt": "2021-07-20T18:27:20.320Z",
  "devdoc": {
    "kind": "dev",
    "methods": {},
    "version": 1
  },
  "userdoc": {
    "kind": "user",
    "methods": {},
    "version": 1
  }
}