{
  "contractName": "SupportChildren",
  "abi": [
    {
      "anonymous": false,
      "inputs": [
        {
          "indexed": false,
          "internalType": "uint256",
          "name": "campaignId",
          "type": "uint256"
        }
      ],
      "name": "CampaignCreated",
      "type": "event"
    },
    {
      "anonymous": false,
      "inputs": [
        {
          "indexed": false,
          "internalType": "uint256",
          "name": "campaignId",
          "type": "uint256"
        },
        {
          "indexed": false,
          "internalType": "uint256",
          "name": "currentAmount",
          "type": "uint256"
        },
        {
          "indexed": false,
          "internalType": "string[]",
          "name": "notifyEmails",
          "type": "string[]"
        }
      ],
      "name": "CampaignFinished",
      "type": "event"
    },
    {
      "anonymous": false,
      "inputs": [
        {
          "indexed": false,
          "internalType": "uint256",
          "name": "campaignId",
          "type": "uint256"
        },
        {
          "indexed": false,
          "internalType": "uint256",
          "name": "donationAmount",
          "type": "uint256"
        },
        {
          "indexed": false,
          "internalType": "string",
          "name": "notifyEmail",
          "type": "string"
        },
        {
          "indexed": false,
          "internalType": "string",
          "name": "currency",
          "type": "string"
        }
      ],
      "name": "DonationMade",
      "type": "event"
    },
    {
      "inputs": [],
      "name": "uniswap",
      "outputs": [
        {
          "internalType": "contract IUniswap",
          "name": "",
          "type": "address"
        }
      ],
      "stateMutability": "view",
      "type": "function",
      "constant": true
    },
    {
      "inputs": [
        {
          "internalType": "string",
          "name": "_name",
          "type": "string"
        },
        {
          "internalType": "string",
          "name": "_description",
          "type": "string"
        },
        {
          "internalType": "string",
          "name": "_creatorEmail",
          "type": "string"
        },
        {
          "internalType": "string",
          "name": "_image",
          "type": "string"
        },
        {
          "internalType": "uint256",
          "name": "_endTimestamp",
          "type": "uint256"
        },
        {
          "internalType": "uint256",
          "name": "_targetCurrency",
          "type": "uint256"
        },
        {
          "internalType": "uint256",
          "name": "_targetAmount",
          "type": "uint256"
        },
        {
          "internalType": "address payable",
          "name": "_beneficiaryAddress",
          "type": "address"
        }
      ],
      "name": "createCampaign",
      "outputs": [],
      "stateMutability": "nonpayable",
      "type": "function"
    },
    {
      "inputs": [
        {
          "internalType": "uint256",
          "name": "_campaignId",
          "type": "uint256"
        }
      ],
      "name": "endCampaign",
      "outputs": [],
      "stateMutability": "nonpayable",
      "type": "function"
    },
    {
      "inputs": [
        {
          "internalType": "uint256",
          "name": "_campaignId",
          "type": "uint256"
        },
        {
          "internalType": "string",
          "name": "_name",
          "type": "string"
        },
        {
          "internalType": "string",
          "name": "_description",
          "type": "string"
        },
        {
          "internalType": "string",
          "name": "_creatorEmail",
          "type": "string"
        },
        {
          "internalType": "string",
          "name": "_image",
          "type": "string"
        }
      ],
      "name": "editCampaign",
      "outputs": [],
      "stateMutability": "nonpayable",
      "type": "function"
    },
    {
      "inputs": [
        {
          "internalType": "uint256",
          "name": "_campaignId",
          "type": "uint256"
        },
        {
          "internalType": "string",
          "name": "_donorEmail",
          "type": "string"
        }
      ],
      "name": "donateEthToEthCampaign",
      "outputs": [],
      "stateMutability": "payable",
      "type": "function",
      "payable": true
    },
    {
      "inputs": [
        {
          "internalType": "uint256",
          "name": "_campaignId",
          "type": "uint256"
        },
        {
          "internalType": "string",
          "name": "_donorEmail",
          "type": "string"
        },
        {
          "internalType": "address",
          "name": "token",
          "type": "address"
        },
        {
          "internalType": "uint256",
          "name": "amountIn",
          "type": "uint256"
        },
        {
          "internalType": "uint256",
          "name": "amountOutMin",
          "type": "uint256"
        },
        {
          "internalType": "uint256",
          "name": "deadline",
          "type": "uint256"
        }
      ],
      "name": "donateTokenToETHCampaign",
      "outputs": [],
      "stateMutability": "nonpayable",
      "type": "function"
    },
    {
      "inputs": [
        {
          "internalType": "uint256",
          "name": "_campaignId",
          "type": "uint256"
        }
      ],
      "name": "getDonorEmails",
      "outputs": [
        {
          "internalType": "string[]",
          "name": "",
          "type": "string[]"
        }
      ],
      "stateMutability": "view",
      "type": "function",
      "constant": true
    },
    {
      "inputs": [
        {
          "internalType": "address",
          "name": "_donor",
          "type": "address"
        }
      ],
      "name": "getDonorsCampaingsList",
      "outputs": [
        {
          "internalType": "uint256[]",
          "name": "",
          "type": "uint256[]"
        }
      ],
      "stateMutability": "view",
      "type": "function",
      "constant": true
    },
    {
      "inputs": [],
      "name": "getCampaigns",
      "outputs": [
        {
          "components": [
            {
              "internalType": "uint256",
              "name": "id",
              "type": "uint256"
            },
            {
              "internalType": "string",
              "name": "name",
              "type": "string"
            },
            {
              "internalType": "string",
              "name": "description",
              "type": "string"
            },
            {
              "internalType": "string",
              "name": "creatorEmail",
              "type": "string"
            },
            {
              "internalType": "string",
              "name": "image",
              "type": "string"
            },
            {
              "internalType": "uint256",
              "name": "targetCurrency",
              "type": "uint256"
            },
            {
              "internalType": "uint256",
              "name": "targetAmount",
              "type": "uint256"
            },
            {
              "internalType": "uint256",
              "name": "currentAmount",
              "type": "uint256"
            },
            {
              "internalType": "address payable",
              "name": "beneficiaryAddress",
              "type": "address"
            },
            {
              "internalType": "address",
              "name": "creatorAddress",
              "type": "address"
            },
            {
              "internalType": "bool",
              "name": "active",
              "type": "bool"
            },
            {
              "internalType": "uint256",
              "name": "endTimestamp",
              "type": "uint256"
            }
          ],
          "internalType": "struct SupportChildren.Campaign[]",
          "name": "",
          "type": "tuple[]"
        }
      ],
      "stateMutability": "view",
      "type": "function",
      "constant": true
    },
    {
      "inputs": [
        {
          "internalType": "uint256",
          "name": "_campaignId",
          "type": "uint256"
        }
      ],
      "name": "getCampaignAmount",
      "outputs": [
        {
          "internalType": "uint256",
          "name": "",
          "type": "uint256"
        }
      ],
      "stateMutability": "view",
      "type": "function",
      "constant": true
    }
  ],
  "bytecode": "0x608060405234801561001057600080fd5b5061348f806100206000396000f3fe6080604052600436106100915760003560e01c8063a6b0363311610059578063a6b03633146101a1578063af0f42ee146101cc578063b25ba4bb146101f5578063dd0408ae1461021e578063e981dc021461024757610091565b806318fedf06146100965780632681f7e4146100d3578063296c10f4146100fe578063909f7d661461013b578063a2f5d1e814610178575b600080fd5b3480156100a257600080fd5b506100bd60048036038101906100b89190611d7a565b610263565b6040516100ca9190612911565b60405180910390f35b3480156100df57600080fd5b506100e86102fa565b6040516100f59190612933565b60405180910390f35b34801561010a57600080fd5b5061012560048036038101906101209190611f70565b610312565b6040516101329190612aae565b60405180910390f35b34801561014757600080fd5b50610162600480360381019061015d9190611f70565b610341565b60405161016f91906128cd565b60405180910390f35b34801561018457600080fd5b5061019f600480360381019061019a9190611e4a565b61042d565b005b3480156101ad57600080fd5b506101b6610764565b6040516101c391906128ef565b60405180910390f35b3480156101d857600080fd5b506101f360048036038101906101ee91906120a2565b610b05565b005b34801561020157600080fd5b5061021c60048036038101906102179190611ff9565b610d24565b005b34801561022a57600080fd5b5061024560048036038101906102409190611f70565b611276565b005b610261600480360381019061025c9190611f9d565b611472565b005b6060600460008373ffffffffffffffffffffffffffffffffffffffff1673ffffffffffffffffffffffffffffffffffffffff1681526020019081526020016000208054806020026020016040519081016040528092919081815260200182805480156102ee57602002820191906000526020600020905b8154815260200190600101908083116102da575b50505050509050919050565b73e592427a0aece92de3edee1f18e0157c0586156481565b600060028281548110610328576103276130a2565b5b90600052602060002090600b0201600701549050919050565b606060036000838152602001908152602001600020805480602002602001604051908101604052809291908181526020016000905b8282101561042257838290600052602060002001805461039590612f98565b80601f01602080910402602001604051908101604052809291908181526020018280546103c190612f98565b801561040e5780601f106103e35761010080835404028352916020019161040e565b820191906000526020600020905b8154815290600101906020018083116103f157829003601f168201915b505050505081526020019060010190610376565b505050509050919050565b60008211610470576040517f08c379a000000000000000000000000000000000000000000000000000000000815260040161046790612a2e565b60405180910390fd5b4284116104b2576040517f08c379a00000000000000000000000000000000000000000000000000000000081526004016104a990612a6e565b60405180910390fd5b60018314806104c15750600083145b610500576040517f08c379a00000000000000000000000000000000000000000000000000000000081526004016104f7906129ee565b60405180910390fd5b600260405180610180016040528060015481526020018a8152602001898152602001888152602001878152602001858152602001848152602001600081526020018373ffffffffffffffffffffffffffffffffffffffff1681526020013273ffffffffffffffffffffffffffffffffffffffff1681526020016001151581526020018681525090806001815401808255809150506001900390600052602060002090600b02016000909190919091506000820151816000015560208201518160010190805190602001906105d5929190611b4b565b5060408201518160020190805190602001906105f2929190611b4b565b50606082015181600301908051906020019061060f929190611b4b565b50608082015181600401908051906020019061062c929190611b4b565b5060a0820151816005015560c0820151816006015560e082015181600701556101008201518160080160006101000a81548173ffffffffffffffffffffffffffffffffffffffff021916908373ffffffffffffffffffffffffffffffffffffffff1602179055506101208201518160090160006101000a81548173ffffffffffffffffffffffffffffffffffffffff021916908373ffffffffffffffffffffffffffffffffffffffff1602179055506101408201518160090160146101000a81548160ff02191690831515021790555061016082015181600a015550507fbc0a5edd152fa5b886dcae82c5c109d113708653b4b9c0224549ccdf715af94e60015460405161073a9190612aae565b60405180910390a16001600081548092919061075590612ffb565b91905055505050505050505050565b60606002805480602002602001604051908101604052809291908181526020016000905b82821015610afc57838290600052602060002090600b020160405180610180016040529081600082015481526020016001820180546107c690612f98565b80601f01602080910402602001604051908101604052809291908181526020018280546107f290612f98565b801561083f5780601f106108145761010080835404028352916020019161083f565b820191906000526020600020905b81548152906001019060200180831161082257829003601f168201915b5050505050815260200160028201805461085890612f98565b80601f016020809104026020016040519081016040528092919081815260200182805461088490612f98565b80156108d15780601f106108a6576101008083540402835291602001916108d1565b820191906000526020600020905b8154815290600101906020018083116108b457829003601f168201915b505050505081526020016003820180546108ea90612f98565b80601f016020809104026020016040519081016040528092919081815260200182805461091690612f98565b80156109635780601f1061093857610100808354040283529160200191610963565b820191906000526020600020905b81548152906001019060200180831161094657829003601f168201915b5050505050815260200160048201805461097c90612f98565b80601f01602080910402602001604051908101604052809291908181526020018280546109a890612f98565b80156109f55780601f106109ca576101008083540402835291602001916109f5565b820191906000526020600020905b8154815290600101906020018083116109d857829003601f168201915b505050505081526020016005820154815260200160068201548152602001600782015481526020016008820160009054906101000a900473ffffffffffffffffffffffffffffffffffffffff1673ffffffffffffffffffffffffffffffffffffffff1673ffffffffffffffffffffffffffffffffffffffff1681526020016009820160009054906101000a900473ffffffffffffffffffffffffffffffffffffffff1673ffffffffffffffffffffffffffffffffffffffff1673ffffffffffffffffffffffffffffffffffffffff1681526020016009820160149054906101000a900460ff16151515158152602001600a8201548152505081526020019060010190610788565b50505050905090565b846001151560028281548110610b1e57610b1d6130a2565b5b90600052602060002090600b020160090160149054906101000a900460ff16151514610b7f576040517f08c379a0000000000000000000000000000000000000000000000000000000008152600401610b7690612a0e565b60405180910390fd5b853273ffffffffffffffffffffffffffffffffffffffff1660028281548110610bab57610baa6130a2565b5b90600052602060002090600b020160090160009054906101000a900473ffffffffffffffffffffffffffffffffffffffff1673ffffffffffffffffffffffffffffffffffffffff1614610c33576040517f08c379a0000000000000000000000000000000000000000000000000000000008152600401610c2a90612a4e565b60405180910390fd5b8560028881548110610c4857610c476130a2565b5b90600052602060002090600b02016001019080519060200190610c6c929190611b4b565b508460028881548110610c8257610c816130a2565b5b90600052602060002090600b02016002019080519060200190610ca6929190611b4b565b508360028881548110610cbc57610cbb6130a2565b5b90600052602060002090600b02016003019080519060200190610ce0929190611b4b565b508260028881548110610cf657610cf56130a2565b5b90600052602060002090600b02016004019080519060200190610d1a929190611b4b565b5050505050505050565b8373ffffffffffffffffffffffffffffffffffffffff1663095ea7b373e592427a0aece92de3edee1f18e0157c05861564856040518363ffffffff1660e01b8152600401610d739291906128a4565b602060405180830381600087803b158015610d8d57600080fd5b505af1158015610da1573d6000803e3d6000fd5b505050506040513d601f19601f82011682018060405250810190610dc59190611e1d565b506000600267ffffffffffffffff811115610de357610de26130d1565b5b604051908082528060200260200182016040528015610e115781602001602082028036833780820191505090505b509050736b175474e89094c44da98b954eedeac495271d0f81600081518110610e3d57610e3c6130a2565b5b602002602001019073ffffffffffffffffffffffffffffffffffffffff16908173ffffffffffffffffffffffffffffffffffffffff168152505073e592427a0aece92de3edee1f18e0157c0586156473ffffffffffffffffffffffffffffffffffffffff1663ad5c46486040518163ffffffff1660e01b815260040160206040518083038186803b158015610ed157600080fd5b505afa158015610ee5573d6000803e3d6000fd5b505050506040513d601f19601f82011682018060405250810190610f099190611da7565b81600181518110610f1d57610f1c6130a2565b5b602002602001019073ffffffffffffffffffffffffffffffffffffffff16908173ffffffffffffffffffffffffffffffffffffffff16815250508473ffffffffffffffffffffffffffffffffffffffff1663095ea7b373e592427a0aece92de3edee1f18e0157c05861564866040518363ffffffff1660e01b8152600401610fa69291906128a4565b602060405180830381600087803b158015610fc057600080fd5b505af1158015610fd4573d6000803e3d6000fd5b505050506040513d601f19601f82011682018060405250810190610ff89190611e1d565b5073e592427a0aece92de3edee1f18e0157c0586156473ffffffffffffffffffffffffffffffffffffffff166318cbafe585858430876040518663ffffffff1660e01b815260040161104e959493929190612b07565b600060405180830381600087803b15801561106857600080fd5b505af115801561107c573d6000803e3d6000fd5b505050506040513d6000823e3d601f19601f820116820180604052508101906110a59190611dd4565b5060036000888152602001908152602001600020869080600181540180825580915050600190039060005260206000200160009091909190915090805190602001906110f2929190611b4b565b50600460003273ffffffffffffffffffffffffffffffffffffffff1673ffffffffffffffffffffffffffffffffffffffff168152602001908152602001600020879080600181540180825580915050600190039060005260206000200160009091909190915055826002888154811061116e5761116d6130a2565b5b90600052602060002090600b02016007015461118a9190612e16565b6002888154811061119e5761119d6130a2565b5b90600052602060002090600b0201600701819055507f49bd9057431411616605ca919509a8df6a79bfde2f2fd58e8a376272b34c40f7878560028a815481106111ea576111e96130a2565b5b90600052602060002090600b020160030160405161120a93929190612b9f565b60405180910390a160028781548110611226576112256130a2565b5b90600052602060002090600b0201600601546002888154811061124c5761124b6130a2565b5b90600052602060002090600b0201600701541061126d5761126c876119e7565b5b50505050505050565b80600115156002828154811061128f5761128e6130a2565b5b90600052602060002090600b020160090160149054906101000a900460ff161515146112f0576040517f08c379a00000000000000000000000000000000000000000000000000000000081526004016112e790612a0e565b60405180910390fd5b813273ffffffffffffffffffffffffffffffffffffffff166002828154811061131c5761131b6130a2565b5b90600052602060002090600b020160090160009054906101000a900473ffffffffffffffffffffffffffffffffffffffff1673ffffffffffffffffffffffffffffffffffffffff16146113a4576040517f08c379a000000000000000000000000000000000000000000000000000000000815260040161139b90612a4e565b60405180910390fd5b6000600284815481106113ba576113b96130a2565b5b90600052602060002090600b02016007015411156113e0576113db836119e7565b61146d565b7fbc6fdcbbc64181fa5b0a580ffa8643761277b5ab073214c08cce86c7317bf4008360006003600087815260200190815260200160002060405161142693929190612ac9565b60405180910390a1600060028481548110611444576114436130a2565b5b90600052602060002090600b020160090160146101000a81548160ff0219169083151502179055505b505050565b81600115156002828154811061148b5761148a6130a2565b5b90600052602060002090600b020160090160149054906101000a900460ff161515146114ec576040517f08c379a00000000000000000000000000000000000000000000000000000000081526004016114e390612a0e565b60405180910390fd5b823273ffffffffffffffffffffffffffffffffffffffff1660028281548110611518576115176130a2565b5b90600052602060002090600b020160090160009054906101000a900473ffffffffffffffffffffffffffffffffffffffff1673ffffffffffffffffffffffffffffffffffffffff1614156115a1576040517f08c379a0000000000000000000000000000000000000000000000000000000008152600401611598906129ce565b60405180910390fd5b833273ffffffffffffffffffffffffffffffffffffffff16600282815481106115cd576115cc6130a2565b5b90600052602060002090600b020160080160009054906101000a900473ffffffffffffffffffffffffffffffffffffffff1673ffffffffffffffffffffffffffffffffffffffff161415611656576040517f08c379a000000000000000000000000000000000000000000000000000000000815260040161164d906129ae565b60405180910390fd5b8460006002828154811061166d5761166c6130a2565b5b90600052602060002090600b020160050154146116bf576040517f08c379a00000000000000000000000000000000000000000000000000000000081526004016116b69061298e565b60405180910390fd5b60003411611702576040517f08c379a00000000000000000000000000000000000000000000000000000000081526004016116f99061294e565b60405180910390fd5b4260028781548110611717576117166130a2565b5b90600052602060002090600b0201600a015411611769576040517f08c379a000000000000000000000000000000000000000000000000000000000815260040161176090612a8e565b60405180910390fd5b6002868154811061177d5761177c6130a2565b5b90600052602060002090600b020160060154600b61179b9190612e6c565b600a34600289815481106117b2576117b16130a2565b5b90600052602060002090600b0201600701546117ce9190612e16565b6117d89190612e6c565b10611818576040517f08c379a000000000000000000000000000000000000000000000000000000000815260040161180f9061296e565b60405180910390fd5b6003600087815260200190815260200160002085908060018154018082558091505060019003906000526020600020016000909190919091509080519060200190611864929190611b4b565b50600460003273ffffffffffffffffffffffffffffffffffffffff1673ffffffffffffffffffffffffffffffffffffffff16815260200190815260200160002086908060018154018082558091505060019003906000526020600020016000909190919091505534600287815481106118e0576118df6130a2565b5b90600052602060002090600b0201600701546118fc9190612e16565b600287815481106119105761190f6130a2565b5b90600052602060002090600b0201600701819055507f49bd9057431411616605ca919509a8df6a79bfde2f2fd58e8a376272b34c40f786346002898154811061195c5761195b6130a2565b5b90600052602060002090600b020160030160405161197c93929190612bf0565b60405180910390a160028681548110611998576119976130a2565b5b90600052602060002090600b020160060154600287815481106119be576119bd6130a2565b5b90600052602060002090600b020160070154106119df576119de866119e7565b5b505050505050565b7fbc6fdcbbc64181fa5b0a580ffa8643761277b5ab073214c08cce86c7317bf4008160028381548110611a1d57611a1c6130a2565b5b90600052602060002090600b02016007015460036000858152602001908152602001600020604051611a5193929190612b61565b60405180910390a160028181548110611a6d57611a6c6130a2565b5b90600052602060002090600b020160080160009054906101000a900473ffffffffffffffffffffffffffffffffffffffff1673ffffffffffffffffffffffffffffffffffffffff166108fc60028381548110611acc57611acb6130a2565b5b90600052602060002090600b0201600701549081150290604051600060405180830381858888f19350505050158015611b09573d6000803e3d6000fd5b50600060028281548110611b2057611b1f6130a2565b5b90600052602060002090600b020160090160146101000a81548160ff02191690831515021790555050565b828054611b5790612f98565b90600052602060002090601f016020900481019282611b795760008555611bc0565b82601f10611b9257805160ff1916838001178555611bc0565b82800160010185558215611bc0579182015b82811115611bbf578251825591602001919060010190611ba4565b5b509050611bcd9190611bd1565b5090565b5b80821115611bea576000816000905550600101611bd2565b5090565b6000611c01611bfc84612c66565b612c41565b90508083825260208201905082856020860282011115611c2457611c23613105565b5b60005b85811015611c545781611c3a8882611d65565b845260208401935060208301925050600181019050611c27565b5050509392505050565b6000611c71611c6c84612c92565b612c41565b905082815260208101848484011115611c8d57611c8c61310a565b5b611c98848285612f56565b509392505050565b600081359050611caf816133fd565b92915050565b600081519050611cc4816133fd565b92915050565b600081359050611cd981613414565b92915050565b600082601f830112611cf457611cf3613100565b5b8151611d04848260208601611bee565b91505092915050565b600081519050611d1c8161342b565b92915050565b600082601f830112611d3757611d36613100565b5b8135611d47848260208601611c5e565b91505092915050565b600081359050611d5f81613442565b92915050565b600081519050611d7481613442565b92915050565b600060208284031215611d9057611d8f613114565b5b6000611d9e84828501611ca0565b91505092915050565b600060208284031215611dbd57611dbc613114565b5b6000611dcb84828501611cb5565b91505092915050565b600060208284031215611dea57611de9613114565b5b600082015167ffffffffffffffff811115611e0857611e0761310f565b5b611e1484828501611cdf565b91505092915050565b600060208284031215611e3357611e32613114565b5b6000611e4184828501611d0d565b91505092915050565b600080600080600080600080610100898b031215611e6b57611e6a613114565b5b600089013567ffffffffffffffff811115611e8957611e8861310f565b5b611e958b828c01611d22565b985050602089013567ffffffffffffffff811115611eb657611eb561310f565b5b611ec28b828c01611d22565b975050604089013567ffffffffffffffff811115611ee357611ee261310f565b5b611eef8b828c01611d22565b965050606089013567ffffffffffffffff811115611f1057611f0f61310f565b5b611f1c8b828c01611d22565b9550506080611f2d8b828c01611d50565b94505060a0611f3e8b828c01611d50565b93505060c0611f4f8b828c01611d50565b92505060e0611f608b828c01611cca565b9150509295985092959890939650565b600060208284031215611f8657611f85613114565b5b6000611f9484828501611d50565b91505092915050565b60008060408385031215611fb457611fb3613114565b5b6000611fc285828601611d50565b925050602083013567ffffffffffffffff811115611fe357611fe261310f565b5b611fef85828601611d22565b9150509250929050565b60008060008060008060c0878903121561201657612015613114565b5b600061202489828a01611d50565b965050602087013567ffffffffffffffff8111156120455761204461310f565b5b61205189828a01611d22565b955050604061206289828a01611ca0565b945050606061207389828a01611d50565b935050608061208489828a01611d50565b92505060a061209589828a01611d50565b9150509295509295509295565b600080600080600060a086880312156120be576120bd613114565b5b60006120cc88828901611d50565b955050602086013567ffffffffffffffff8111156120ed576120ec61310f565b5b6120f988828901611d22565b945050604086013567ffffffffffffffff81111561211a5761211961310f565b5b61212688828901611d22565b935050606086013567ffffffffffffffff8111156121475761214661310f565b5b61215388828901611d22565b925050608086013567ffffffffffffffff8111156121745761217361310f565b5b61218088828901611d22565b9150509295509295909350565b60006121998383612208565b60208301905092915050565b60006121b1838361246d565b905092915050565b60006121c583836124a6565b905092915050565b60006121d9838361276d565b905092915050565b60006121ed8383612886565b60208301905092915050565b61220281612ed8565b82525050565b61221181612ec6565b82525050565b61222081612ec6565b82525050565b600061223182612d2d565b61223b8185612db0565b935061224683612cc3565b8060005b8381101561227757815161225e888261218d565b975061226983612d6f565b92505060018101905061224a565b5085935050505092915050565b600061228f82612d38565b6122998185612dc1565b9350836020820285016122ab85612cd3565b8060005b858110156122e757848403895281516122c885826121a5565b94506122d383612d7c565b925060208a019950506001810190506122af565b50829750879550505050505092915050565b600061230482612d43565b61230e8185612dc1565b93508360208202850161232085612ce3565b8060005b8581101561235b5784840389528161233c85826121b9565b945061234783612d89565b925060208a01995050600181019050612324565b50829750879550505050505092915050565b600061237882612d4e565b6123828185612dd2565b93508360208202850161239485612cf8565b8060005b858110156123d057848403895281516123b185826121cd565b94506123bc83612d96565b925060208a01995050600181019050612398565b50829750879550505050505092915050565b60006123ed82612d59565b6123f78185612de3565b935061240283612d08565b8060005b8381101561243357815161241a88826121e1565b975061242583612da3565b925050600181019050612406565b5085935050505092915050565b61244981612eea565b82525050565b61245881612f20565b82525050565b61246781612f44565b82525050565b600061247882612d64565b6124828185612df4565b9350612492818560208601612f65565b61249b81613119565b840191505092915050565b600081546124b381612f98565b6124bd8186612df4565b945060018216600081146124d857600181146124ea5761251d565b60ff198316865260208601935061251d565b6124f385612d18565b60005b83811015612515578154818901526001820191506020810190506124f6565b808801955050505b50505092915050565b6000815461253381612f98565b61253d8186612e05565b94506001821660008114612558576001811461256a5761259d565b60ff198316865260208601935061259d565b61257385612d18565b60005b8381101561259557815481890152600182019150602081019050612576565b808801955050505b50505092915050565b60006125b3601e83612e05565b91506125be8261312a565b602082019050919050565b60006125d6601583612e05565b91506125e182613153565b602082019050919050565b60006125f9601883612e05565b91506126048261317c565b602082019050919050565b600061261c602b83612e05565b9150612627826131a5565b604082019050919050565b600061263f602883612e05565b915061264a826131f4565b604082019050919050565b6000612662602b83612e05565b915061266d82613243565b604082019050919050565b6000612685600383612e05565b915061269082613292565b602082019050919050565b60006126a8600383612e05565b91506126b3826132bb565b602082019050919050565b60006126cb601583612e05565b91506126d6826132e4565b602082019050919050565b60006126ee602c83612e05565b91506126f98261330d565b604082019050919050565b6000612711602783612e05565b915061271c8261335c565b604082019050919050565b6000612734601f83612e05565b915061273f826133ab565b602082019050919050565b6000612757601983612e05565b9150612762826133d4565b602082019050919050565b6000610180830160008301516127866000860182612886565b506020830151848203602086015261279e828261246d565b915050604083015184820360408601526127b8828261246d565b915050606083015184820360608601526127d2828261246d565b915050608083015184820360808601526127ec828261246d565b91505060a083015161280160a0860182612886565b5060c083015161281460c0860182612886565b5060e083015161282760e0860182612886565b5061010083015161283c6101008601826121f9565b50610120830151612851610120860182612208565b50610140830151612866610140860182612440565b5061016083015161287b610160860182612886565b508091505092915050565b61288f81612f16565b82525050565b61289e81612f16565b82525050565b60006040820190506128b96000830185612217565b6128c66020830184612895565b9392505050565b600060208201905081810360008301526128e78184612284565b905092915050565b60006020820190508181036000830152612909818461236d565b905092915050565b6000602082019050818103600083015261292b81846123e2565b905092915050565b6000602082019050612948600083018461244f565b92915050565b60006020820190508181036000830152612967816125a6565b9050919050565b60006020820190508181036000830152612987816125c9565b9050919050565b600060208201905081810360008301526129a7816125ec565b9050919050565b600060208201905081810360008301526129c78161260f565b9050919050565b600060208201905081810360008301526129e781612632565b9050919050565b60006020820190508181036000830152612a0781612655565b9050919050565b60006020820190508181036000830152612a27816126be565b9050919050565b60006020820190508181036000830152612a47816126e1565b9050919050565b60006020820190508181036000830152612a6781612704565b9050919050565b60006020820190508181036000830152612a8781612727565b9050919050565b60006020820190508181036000830152612aa78161274a565b9050919050565b6000602082019050612ac36000830184612895565b92915050565b6000606082019050612ade6000830186612895565b612aeb602083018561245e565b8181036040830152612afd81846122f9565b9050949350505050565b600060a082019050612b1c6000830188612895565b612b296020830187612895565b8181036040830152612b3b8186612226565b9050612b4a6060830185612217565b612b576080830184612895565b9695505050505050565b6000606082019050612b766000830186612895565b612b836020830185612895565b8181036040830152612b9581846122f9565b9050949350505050565b6000608082019050612bb46000830186612895565b612bc16020830185612895565b8181036040830152612bd38184612526565b90508181036060830152612be681612678565b9050949350505050565b6000608082019050612c056000830186612895565b612c126020830185612895565b8181036040830152612c248184612526565b90508181036060830152612c378161269b565b9050949350505050565b6000612c4b612c5c565b9050612c578282612fca565b919050565b6000604051905090565b600067ffffffffffffffff821115612c8157612c806130d1565b5b602082029050602081019050919050565b600067ffffffffffffffff821115612cad57612cac6130d1565b5b612cb682613119565b9050602081019050919050565b6000819050602082019050919050565b6000819050602082019050919050565b60008190508160005260206000209050919050565b6000819050602082019050919050565b6000819050602082019050919050565b60008190508160005260206000209050919050565b600081519050919050565b600081519050919050565b600081549050919050565b600081519050919050565b600081519050919050565b600081519050919050565b6000602082019050919050565b6000602082019050919050565b6000600182019050919050565b6000602082019050919050565b6000602082019050919050565b600082825260208201905092915050565b600082825260208201905092915050565b600082825260208201905092915050565b600082825260208201905092915050565b600082825260208201905092915050565b600082825260208201905092915050565b6000612e2182612f16565b9150612e2c83612f16565b9250827fffffffffffffffffffffffffffffffffffffffffffffffffffffffffffffffff03821115612e6157612e60613044565b5b828201905092915050565b6000612e7782612f16565b9150612e8283612f16565b9250817fffffffffffffffffffffffffffffffffffffffffffffffffffffffffffffffff0483118215151615612ebb57612eba613044565b5b828202905092915050565b6000612ed182612ef6565b9050919050565b6000612ee382612ef6565b9050919050565b60008115159050919050565b600073ffffffffffffffffffffffffffffffffffffffff82169050919050565b6000819050919050565b6000612f2b82612f32565b9050919050565b6000612f3d82612ef6565b9050919050565b6000612f4f82612f16565b9050919050565b82818337600083830152505050565b60005b83811015612f83578082015181840152602081019050612f68565b83811115612f92576000848401525b50505050565b60006002820490506001821680612fb057607f821691505b60208210811415612fc457612fc3613073565b5b50919050565b612fd382613119565b810181811067ffffffffffffffff82111715612ff257612ff16130d1565b5b80604052505050565b600061300682612f16565b91507fffffffffffffffffffffffffffffffffffffffffffffffffffffffffffffffff82141561303957613038613044565b5b600182019050919050565b7f4e487b7100000000000000000000000000000000000000000000000000000000600052601160045260246000fd5b7f4e487b7100000000000000000000000000000000000000000000000000000000600052602260045260246000fd5b7f4e487b7100000000000000000000000000000000000000000000000000000000600052603260045260246000fd5b7f4e487b7100000000000000000000000000000000000000000000000000000000600052604160045260246000fd5b600080fd5b600080fd5b600080fd5b600080fd5b600080fd5b6000601f19601f8301169050919050565b7f646f6e6174696f6e206d757374206265206c6172676572207468616e20300000600082015250565b7f54617267657420616d6f756e7420657863656465640000000000000000000000600082015250565b7f54686973206973206e6f74204554482063616d706169676e0000000000000000600082015250565b7f796f752063616e27742062652063616d706169676e2062656e65666163746f7260008201527f20746f20646f2074686973000000000000000000000000000000000000000000602082015250565b7f796f752063616e27742062652063616d706169676e2063726561746f7220746f60008201527f20646f2074686973000000000000000000000000000000000000000000000000602082015250565b7f63616d7061696e67207461726765742063757272656e6379206d75737420626560008201527f20455448206f7220444149000000000000000000000000000000000000000000602082015250565b7f4441490000000000000000000000000000000000000000000000000000000000600082015250565b7f4554480000000000000000000000000000000000000000000000000000000000600082015250565b7f63616d7061696e67206861732066696e69736865640000000000000000000000600082015250565b7f63616d706169676e2074617267657420616d6f756e74206d757374206265206c60008201527f6172676572207468616e20300000000000000000000000000000000000000000602082015250565b7f796f75206d7573742062652063616d706169676e2063726561746f7220746f2060008201527f646f207468697300000000000000000000000000000000000000000000000000602082015250565b7f43616d706169676e206d75737420656e6420696e207468652066757475726500600082015250565b7f43616d706169676e20616c72656164792066696e697368656400000000000000600082015250565b61340681612ec6565b811461341157600080fd5b50565b61341d81612ed8565b811461342857600080fd5b50565b61343481612eea565b811461343f57600080fd5b50565b61344b81612f16565b811461345657600080fd5b5056fea26469706673582212202abbea4f6ab8c850babffdbaa3cc0bc5fcbca94af0d0dae158ecca748d7b496e64736f6c63430008060033",
  "immutableReferences": {},
  "source": "// SPDX-License-Identifier: MIT\npragma solidity >=0.7.0 <0.9.0;\n\ninterface IUniswap {\n    function swapExactTokensForETH(\n        uint amountIn, \n        uint amountOutMin, \n        address[] calldata path, \n        address to, \n        uint deadline)\n        external\n        returns (uint[] memory amounts);\n    function WETH() external pure returns (address);\n}\n\ninterface IERC20 {\n    function transferFrom(\n        address sender, \n        address recipient, \n        uint256 amount) \n        external \n        returns (bool);\n    function approve(address spender, uint tokens)  external returns (bool);\n}\n    \ncontract SupportChildren {\n\n    IUniswap public constant uniswap = IUniswap(0xE592427A0AEce92De3Edee1F18E0157C05861564);\n    \n    event DonationMade (\n        uint campaignId,\n        uint donationAmount,\n        string notifyEmail,\n        string currency\n    );\n\n    event CampaignCreated (\n        uint campaignId\n    );\n\n    event CampaignFinished (\n        uint campaignId,\n        uint currentAmount,\n        string[] notifyEmails\n    );\n    \n    uint campaignIndex;\n    uint count;\n    \n    struct Campaign {\n        uint id;\n        string name; \n        string description;\n        string creatorEmail; \n        string image; \n        uint targetCurrency; \n        uint targetAmount;\n        uint currentAmount;\n        address payable beneficiaryAddress;\n        address creatorAddress;\n        bool active;\n        uint endTimestamp;\n    }\n    \n    Campaign[] campaigns;\n    \n    mapping(uint => string[]) campaignDonationsEmails;\n    mapping(address => uint[]) campaignDonors;\n    \n    modifier campaignCreator(uint _campaignId) {\n        require(campaigns[_campaignId].creatorAddress == tx.origin, \"you must be campaign creator to do this\");\n        _;\n    }\n    \n    modifier notCampaignCreator(uint _campaignId) {\n        require(campaigns[_campaignId].creatorAddress != tx.origin, \"you can't be campaign creator to do this\");\n        _;\n    }\n\n    modifier ethCampaign(uint _campaignId) {\n        require(campaigns[_campaignId].targetCurrency == 0, \"This is not ETH campaign\");\n        _;\n    }\n\n    modifier daiCampaign(uint _campaignId) {\n        require(campaigns[_campaignId].targetCurrency == 1, \"This is not DAI campaign\");\n        _;\n    }\n\n    modifier notCampaignBenefactor(uint _campaignId) {\n        require(campaigns[_campaignId].beneficiaryAddress != tx.origin, \"you can't be campaign benefactor to do this\");\n        _;\n    }\n\n    modifier campaignActive(uint _campaignId) {\n        require(campaigns[_campaignId].active == true, \"campaing has finished\");\n        _;\n    }\n\n    function createCampaign(string memory _name, string memory _description, string memory _creatorEmail, string memory _image, uint _endTimestamp, uint _targetCurrency, uint _targetAmount, address payable _beneficiaryAddress) public {\n        require(_targetAmount > 0, \"campaign target amount must be larger than 0\");\n        require(_endTimestamp > block.timestamp, \"Campaign must end in the future\");\n        // TODO: save keccak256(bytes(\"ETH\") as variable to reduce gas fee's\n        require(_targetCurrency == 1 || _targetCurrency == 0, \"campaing target currency must be ETH or DAI\");\n        campaigns.push(Campaign({\n            id: count,\n            name: _name,\n            description: _description,\n            creatorEmail: _creatorEmail,\n            image: _image,\n            targetAmount: _targetAmount,\n            targetCurrency: _targetCurrency,\n            currentAmount: 0,\n            beneficiaryAddress: _beneficiaryAddress,\n            creatorAddress: tx.origin,\n            active: true,\n            endTimestamp: _endTimestamp \n        }));\n\n        emit CampaignCreated(count);\n        \n        count++;\n    }\n\n    function endCampaign(uint _campaignId) public campaignActive(_campaignId) campaignCreator(_campaignId) {\n        if (campaigns[_campaignId].currentAmount > 0) {\n            finishCampaign(_campaignId);\n        } else {\n            emit CampaignFinished(_campaignId, 0, campaignDonationsEmails[_campaignId]);\n            campaigns[_campaignId].active = false;\n        }\n    }\n\n    function editCampaign(uint _campaignId, string memory _name, string memory _description, string memory _creatorEmail, string memory _image) public campaignActive(_campaignId) campaignCreator(_campaignId) {\n        campaigns[_campaignId].name = _name;\n        campaigns[_campaignId].description = _description;\n        campaigns[_campaignId].creatorEmail = _creatorEmail;\n        campaigns[_campaignId].image = _image;\n    }\n\n    function finishCampaign(uint _campaignId) private {\n        emit CampaignFinished(_campaignId, campaigns[_campaignId].currentAmount, campaignDonationsEmails[_campaignId]);\n        // Send ETH to the address of the child\n        campaigns[_campaignId].beneficiaryAddress.transfer(campaigns[_campaignId].currentAmount);\n        campaigns[_campaignId].active = false;\n    }\n\n\n    // ETH to ETH\n    function donateEthToEthCampaign(uint _campaignId, string memory _donorEmail) payable public campaignActive(_campaignId) notCampaignCreator(_campaignId) notCampaignBenefactor(_campaignId) ethCampaign(_campaignId) {\n        require(msg.value > 0, \"donation must be larger than 0\");\n        require(campaigns[_campaignId].endTimestamp > block.timestamp, \"Campaign already finished\");\n\n        // curentamount must be fetched from frontend\n        require((campaigns[_campaignId].currentAmount  + msg.value) * 10 < 11 * campaigns[_campaignId].targetAmount, \"Target amount exceded\");\n        campaignDonationsEmails[_campaignId].push(_donorEmail);\n        campaignDonors[tx.origin].push(_campaignId);\n        campaigns[_campaignId].currentAmount = campaigns[_campaignId].currentAmount  + msg.value;\n\n        emit DonationMade(_campaignId, msg.value, campaigns[_campaignId].creatorEmail, \"ETH\");\n\n        if (campaigns[_campaignId].currentAmount >= campaigns[_campaignId].targetAmount) {\n            finishCampaign(_campaignId);\n        }\n    }\n\n    // Token to ETH\n    function donateTokenToETHCampaign(uint _campaignId, string memory _donorEmail, address token, uint amountIn, uint amountOutMin, uint deadline) public {\n        IERC20(token).approve(address(uniswap), amountIn);\n        address[] memory path = new address[](2);\n        path[0] = address(0x6B175474E89094C44Da98b954EedeAC495271d0F);\n        path[1] = uniswap.WETH();\n        IERC20(token).approve(address(uniswap), amountIn);\n        uniswap.swapExactTokensForETH(\n            amountIn, \n            amountOutMin, \n            path, \n            address(this), \n            deadline\n        );\n\n        campaignDonationsEmails[_campaignId].push(_donorEmail);\n        campaignDonors[tx.origin].push(_campaignId);\n        campaigns[_campaignId].currentAmount = campaigns[_campaignId].currentAmount + amountOutMin;\n        emit DonationMade(_campaignId, amountIn, campaigns[_campaignId].creatorEmail, \"DAI\");\n\n        if (campaigns[_campaignId].currentAmount >= campaigns[_campaignId].targetAmount) {\n            finishCampaign(_campaignId);\n        }\n    }\n    \n    function getDonorEmails(uint _campaignId) view public returns (string[] memory) {\n        return campaignDonationsEmails[_campaignId];\n    }\n    \n    function getDonorsCampaingsList(address _donor) view public returns (uint[] memory) {\n        return campaignDonors[_donor];\n    }\n    \n    function getCampaigns() public view returns (Campaign[] memory) {\n        return campaigns;\n    }\n\n    function getCampaignAmount(uint _campaignId) public view returns (uint) {\n        return campaigns[_campaignId].currentAmount;\n    }\n}",
  "sourcePath": "/home/zarko/learn/ethereum/support-children/contracts/SupportChildren.sol",
  "compiler": {
    "name": "solc",
    "version": "0.8.6+commit.11564f7e.Emscripten.clang"
  },
  "schemaVersion": "3.4.1",
  "updatedAt": "2021-08-07T10:51:13.766Z",
  "networkType": "ethereum",
  "devdoc": {
    "kind": "dev",
    "methods": {},
    "version": 1
  },
  "userdoc": {
    "kind": "user",
    "methods": {},
    "version": 1
  }
}