{
  "contractName": "SupportChildrenCollectable",
  "abi": [
    {
      "inputs": [],
      "stateMutability": "nonpayable",
      "type": "constructor"
    },
    {
      "anonymous": false,
      "inputs": [
        {
          "indexed": true,
          "internalType": "address",
          "name": "owner",
          "type": "address"
        },
        {
          "indexed": true,
          "internalType": "address",
          "name": "approved",
          "type": "address"
        },
        {
          "indexed": true,
          "internalType": "uint256",
          "name": "tokenId",
          "type": "uint256"
        }
      ],
      "name": "Approval",
      "type": "event"
    },
    {
      "anonymous": false,
      "inputs": [
        {
          "indexed": true,
          "internalType": "address",
          "name": "owner",
          "type": "address"
        },
        {
          "indexed": true,
          "internalType": "address",
          "name": "operator",
          "type": "address"
        },
        {
          "indexed": false,
          "internalType": "bool",
          "name": "approved",
          "type": "bool"
        }
      ],
      "name": "ApprovalForAll",
      "type": "event"
    },
    {
      "anonymous": false,
      "inputs": [
        {
          "indexed": false,
          "internalType": "uint256",
          "name": "id",
          "type": "uint256"
        },
        {
          "indexed": false,
          "internalType": "uint256",
          "name": "nftType",
          "type": "uint256"
        },
        {
          "indexed": false,
          "internalType": "string",
          "name": "tokenUrl",
          "type": "string"
        }
      ],
      "name": "NFTCreated",
      "type": "event"
    },
    {
      "anonymous": false,
      "inputs": [
        {
          "indexed": true,
          "internalType": "address",
          "name": "from",
          "type": "address"
        },
        {
          "indexed": true,
          "internalType": "address",
          "name": "to",
          "type": "address"
        },
        {
          "indexed": true,
          "internalType": "uint256",
          "name": "tokenId",
          "type": "uint256"
        }
      ],
      "name": "Transfer",
      "type": "event"
    },
    {
      "inputs": [
        {
          "internalType": "address",
          "name": "to",
          "type": "address"
        },
        {
          "internalType": "uint256",
          "name": "tokenId",
          "type": "uint256"
        }
      ],
      "name": "approve",
      "outputs": [],
      "stateMutability": "nonpayable",
      "type": "function"
    },
    {
      "inputs": [
        {
          "internalType": "address",
          "name": "owner",
          "type": "address"
        }
      ],
      "name": "balanceOf",
      "outputs": [
        {
          "internalType": "uint256",
          "name": "",
          "type": "uint256"
        }
      ],
      "stateMutability": "view",
      "type": "function",
      "constant": true
    },
    {
      "inputs": [
        {
          "internalType": "uint256",
          "name": "tokenId",
          "type": "uint256"
        }
      ],
      "name": "getApproved",
      "outputs": [
        {
          "internalType": "address",
          "name": "",
          "type": "address"
        }
      ],
      "stateMutability": "view",
      "type": "function",
      "constant": true
    },
    {
      "inputs": [
        {
          "internalType": "address",
          "name": "owner",
          "type": "address"
        },
        {
          "internalType": "address",
          "name": "operator",
          "type": "address"
        }
      ],
      "name": "isApprovedForAll",
      "outputs": [
        {
          "internalType": "bool",
          "name": "",
          "type": "bool"
        }
      ],
      "stateMutability": "view",
      "type": "function",
      "constant": true
    },
    {
      "inputs": [],
      "name": "name",
      "outputs": [
        {
          "internalType": "string",
          "name": "",
          "type": "string"
        }
      ],
      "stateMutability": "view",
      "type": "function",
      "constant": true
    },
    {
      "inputs": [
        {
          "internalType": "uint256",
          "name": "tokenId",
          "type": "uint256"
        }
      ],
      "name": "ownerOf",
      "outputs": [
        {
          "internalType": "address",
          "name": "",
          "type": "address"
        }
      ],
      "stateMutability": "view",
      "type": "function",
      "constant": true
    },
    {
      "inputs": [
        {
          "internalType": "address",
          "name": "from",
          "type": "address"
        },
        {
          "internalType": "address",
          "name": "to",
          "type": "address"
        },
        {
          "internalType": "uint256",
          "name": "tokenId",
          "type": "uint256"
        }
      ],
      "name": "safeTransferFrom",
      "outputs": [],
      "stateMutability": "nonpayable",
      "type": "function"
    },
    {
      "inputs": [
        {
          "internalType": "address",
          "name": "from",
          "type": "address"
        },
        {
          "internalType": "address",
          "name": "to",
          "type": "address"
        },
        {
          "internalType": "uint256",
          "name": "tokenId",
          "type": "uint256"
        },
        {
          "internalType": "bytes",
          "name": "_data",
          "type": "bytes"
        }
      ],
      "name": "safeTransferFrom",
      "outputs": [],
      "stateMutability": "nonpayable",
      "type": "function"
    },
    {
      "inputs": [
        {
          "internalType": "address",
          "name": "operator",
          "type": "address"
        },
        {
          "internalType": "bool",
          "name": "approved",
          "type": "bool"
        }
      ],
      "name": "setApprovalForAll",
      "outputs": [],
      "stateMutability": "nonpayable",
      "type": "function"
    },
    {
      "inputs": [
        {
          "internalType": "bytes4",
          "name": "interfaceId",
          "type": "bytes4"
        }
      ],
      "name": "supportsInterface",
      "outputs": [
        {
          "internalType": "bool",
          "name": "",
          "type": "bool"
        }
      ],
      "stateMutability": "view",
      "type": "function",
      "constant": true
    },
    {
      "inputs": [],
      "name": "symbol",
      "outputs": [
        {
          "internalType": "string",
          "name": "",
          "type": "string"
        }
      ],
      "stateMutability": "view",
      "type": "function",
      "constant": true
    },
    {
      "inputs": [],
      "name": "tokenCounter",
      "outputs": [
        {
          "internalType": "uint256",
          "name": "",
          "type": "uint256"
        }
      ],
      "stateMutability": "view",
      "type": "function",
      "constant": true
    },
    {
      "inputs": [
        {
          "internalType": "uint256",
          "name": "",
          "type": "uint256"
        }
      ],
      "name": "tokenIdToType",
      "outputs": [
        {
          "internalType": "enum SupportChildrenCollectable.Type",
          "name": "",
          "type": "uint8"
        }
      ],
      "stateMutability": "view",
      "type": "function",
      "constant": true
    },
    {
      "inputs": [
        {
          "internalType": "uint256",
          "name": "tokenId",
          "type": "uint256"
        }
      ],
      "name": "tokenURI",
      "outputs": [
        {
          "internalType": "string",
          "name": "",
          "type": "string"
        }
      ],
      "stateMutability": "view",
      "type": "function",
      "constant": true
    },
    {
      "inputs": [
        {
          "internalType": "address",
          "name": "from",
          "type": "address"
        },
        {
          "internalType": "address",
          "name": "to",
          "type": "address"
        },
        {
          "internalType": "uint256",
          "name": "tokenId",
          "type": "uint256"
        }
      ],
      "name": "transferFrom",
      "outputs": [],
      "stateMutability": "nonpayable",
      "type": "function"
    },
    {
      "inputs": [
        {
          "internalType": "string",
          "name": "tokenURI",
          "type": "string"
        },
        {
          "internalType": "uint256",
          "name": "tokenType",
          "type": "uint256"
        }
      ],
      "name": "createCollectible",
      "outputs": [],
      "stateMutability": "nonpayable",
      "type": "function"
    },
    {
      "inputs": [
        {
          "internalType": "address",
          "name": "_donor",
          "type": "address"
        }
      ],
      "name": "getCollectibleList",
      "outputs": [
        {
          "internalType": "uint256[]",
          "name": "",
          "type": "uint256[]"
        }
      ],
      "stateMutability": "view",
      "type": "function",
      "constant": true
    }
  ],
  "bytecode": "0x60806040523480156200001157600080fd5b506040518060400160405280601a81526020017f537570706f72744368696c6472656e436f6c6c65637469626c650000000000008152506040518060400160405280600381526020017f5343430000000000000000000000000000000000000000000000000000000000815250816000908051906020019062000096929190620000c0565b508060019080519060200190620000af929190620000c0565b5050506000600781905550620001d5565b828054620000ce9062000170565b90600052602060002090601f016020900481019282620000f257600085556200013e565b82601f106200010d57805160ff19168380011785556200013e565b828001600101855582156200013e579182015b828111156200013d57825182559160200191906001019062000120565b5b5090506200014d919062000151565b5090565b5b808211156200016c57600081600090555060010162000152565b5090565b600060028204905060018216806200018957607f821691505b60208210811415620001a0576200019f620001a6565b5b50919050565b7f4e487b7100000000000000000000000000000000000000000000000000000000600052602260045260246000fd5b612fdd80620001e56000396000f3fe608060405234801561001057600080fd5b506004361061010b5760003560e01c80636352211e116100a2578063a22cb46511610071578063a22cb465146102dc578063b88d4fde146102f8578063c87b56dd14610314578063d082e38114610344578063e985e9c5146103625761010b565b80636352211e1461022e57806370a082311461025e57806375a6c2b31461028e57806395d89b41146102be5761010b565b80631f061a29116100de5780631f061a29146101aa57806323b872dd146101c6578063356ee335146101e257806342842e0e146102125761010b565b806301ffc9a71461011057806306fdde0314610140578063081812fc1461015e578063095ea7b31461018e575b600080fd5b61012a60048036038101906101259190611e2f565b610392565b6040516101379190612353565b60405180910390f35b610148610474565b6040516101559190612389565b60405180910390f35b61017860048036038101906101739190611ee5565b610506565b60405161018591906122ca565b60405180910390f35b6101a860048036038101906101a39190611def565b61058b565b005b6101c460048036038101906101bf9190611e89565b6106a3565b005b6101e060048036038101906101db9190611cd9565b6107c8565b005b6101fc60048036038101906101f79190611ee5565b610828565b604051610209919061236e565b60405180910390f35b61022c60048036038101906102279190611cd9565b610848565b005b61024860048036038101906102439190611ee5565b610868565b60405161025591906122ca565b60405180910390f35b61027860048036038101906102739190611c6c565b61091a565b60405161028591906125ab565b60405180910390f35b6102a860048036038101906102a39190611c6c565b6109d2565b6040516102b59190612331565b60405180910390f35b6102c6610a69565b6040516102d39190612389565b60405180910390f35b6102f660048036038101906102f19190611daf565b610afb565b005b610312600480360381019061030d9190611d2c565b610c7c565b005b61032e60048036038101906103299190611ee5565b610cde565b60405161033b9190612389565b60405180910390f35b61034c610e30565b60405161035991906125ab565b60405180910390f35b61037c60048036038101906103779190611c99565b610e36565b6040516103899190612353565b60405180910390f35b60007f80ac58cd000000000000000000000000000000000000000000000000000000007bffffffffffffffffffffffffffffffffffffffffffffffffffffffff1916827bffffffffffffffffffffffffffffffffffffffffffffffffffffffff1916148061045d57507f5b5e139f000000000000000000000000000000000000000000000000000000007bffffffffffffffffffffffffffffffffffffffffffffffffffffffff1916827bffffffffffffffffffffffffffffffffffffffffffffffffffffffff1916145b8061046d575061046c82610eca565b5b9050919050565b6060600080546104839061289d565b80601f01602080910402602001604051908101604052809291908181526020018280546104af9061289d565b80156104fc5780601f106104d1576101008083540402835291602001916104fc565b820191906000526020600020905b8154815290600101906020018083116104df57829003601f168201915b5050505050905090565b600061051182610f34565b610550576040517f08c379a00000000000000000000000000000000000000000000000000000000081526004016105479061250b565b60405180910390fd5b6004600083815260200190815260200160002060009054906101000a900473ffffffffffffffffffffffffffffffffffffffff169050919050565b600061059682610868565b90508073ffffffffffffffffffffffffffffffffffffffff168373ffffffffffffffffffffffffffffffffffffffff161415610607576040517f08c379a00000000000000000000000000000000000000000000000000000000081526004016105fe9061256b565b60405180910390fd5b8073ffffffffffffffffffffffffffffffffffffffff16610626610fa0565b73ffffffffffffffffffffffffffffffffffffffff16148061065557506106548161064f610fa0565b610e36565b5b610694576040517f08c379a000000000000000000000000000000000000000000000000000000000815260040161068b9061244b565b60405180910390fd5b61069e8383610fa8565b505050565b6106af32600754611061565b6106bb6007548361107f565b8060038111156106ce576106cd6129d8565b5b60086000600754815260200190815260200160002060006101000a81548160ff02191690836003811115610705576107046129d8565b5b0217905550600960003273ffffffffffffffffffffffffffffffffffffffff1673ffffffffffffffffffffffffffffffffffffffff16815260200190815260200160002060075490806001815401808255809150506001900390600052602060002001600090919091909150557f91baf78dcd6f7e52a0938572fbd4bb82491acb5aaf59e3a07235100631e317af60075482846040516107a7939291906125c6565b60405180910390a160016007546107be9190612707565b6007819055505050565b6107d96107d3610fa0565b826110f3565b610818576040517f08c379a000000000000000000000000000000000000000000000000000000000815260040161080f9061258b565b60405180910390fd5b6108238383836111d1565b505050565b60086020528060005260406000206000915054906101000a900460ff1681565b61086383838360405180602001604052806000815250610c7c565b505050565b6000806002600084815260200190815260200160002060009054906101000a900473ffffffffffffffffffffffffffffffffffffffff169050600073ffffffffffffffffffffffffffffffffffffffff168173ffffffffffffffffffffffffffffffffffffffff161415610911576040517f08c379a00000000000000000000000000000000000000000000000000000000081526004016109089061248b565b60405180910390fd5b80915050919050565b60008073ffffffffffffffffffffffffffffffffffffffff168273ffffffffffffffffffffffffffffffffffffffff16141561098b576040517f08c379a00000000000000000000000000000000000000000000000000000000081526004016109829061246b565b60405180910390fd5b600360008373ffffffffffffffffffffffffffffffffffffffff1673ffffffffffffffffffffffffffffffffffffffff168152602001908152602001600020549050919050565b6060600960008373ffffffffffffffffffffffffffffffffffffffff1673ffffffffffffffffffffffffffffffffffffffff168152602001908152602001600020805480602002602001604051908101604052809291908181526020018280548015610a5d57602002820191906000526020600020905b815481526020019060010190808311610a49575b50505050509050919050565b606060018054610a789061289d565b80601f0160208091040260200160405190810160405280929190818152602001828054610aa49061289d565b8015610af15780601f10610ac657610100808354040283529160200191610af1565b820191906000526020600020905b815481529060010190602001808311610ad457829003601f168201915b5050505050905090565b610b03610fa0565b73ffffffffffffffffffffffffffffffffffffffff168273ffffffffffffffffffffffffffffffffffffffff161415610b71576040517f08c379a0000000000000000000000000000000000000000000000000000000008152600401610b689061240b565b60405180910390fd5b8060056000610b7e610fa0565b73ffffffffffffffffffffffffffffffffffffffff1673ffffffffffffffffffffffffffffffffffffffff16815260200190815260200160002060008473ffffffffffffffffffffffffffffffffffffffff1673ffffffffffffffffffffffffffffffffffffffff16815260200190815260200160002060006101000a81548160ff0219169083151502179055508173ffffffffffffffffffffffffffffffffffffffff16610c2b610fa0565b73ffffffffffffffffffffffffffffffffffffffff167f17307eab39ab6107e8899845ad3d59bd9653f200f220920489ca2b5937696c3183604051610c709190612353565b60405180910390a35050565b610c8d610c87610fa0565b836110f3565b610ccc576040517f08c379a0000000000000000000000000000000000000000000000000000000008152600401610cc39061258b565b60405180910390fd5b610cd88484848461142d565b50505050565b6060610ce982610f34565b610d28576040517f08c379a0000000000000000000000000000000000000000000000000000000008152600401610d1f906124eb565b60405180910390fd5b6000600660008481526020019081526020016000208054610d489061289d565b80601f0160208091040260200160405190810160405280929190818152602001828054610d749061289d565b8015610dc15780601f10610d9657610100808354040283529160200191610dc1565b820191906000526020600020905b815481529060010190602001808311610da457829003601f168201915b505050505090506000610dd2611489565b9050600081511415610de8578192505050610e2b565b600082511115610e1d578082604051602001610e059291906122a6565b60405160208183030381529060405292505050610e2b565b610e26846114a0565b925050505b919050565b60075481565b6000600560008473ffffffffffffffffffffffffffffffffffffffff1673ffffffffffffffffffffffffffffffffffffffff16815260200190815260200160002060008373ffffffffffffffffffffffffffffffffffffffff1673ffffffffffffffffffffffffffffffffffffffff16815260200190815260200160002060009054906101000a900460ff16905092915050565b60007f01ffc9a7000000000000000000000000000000000000000000000000000000007bffffffffffffffffffffffffffffffffffffffffffffffffffffffff1916827bffffffffffffffffffffffffffffffffffffffffffffffffffffffff1916149050919050565b60008073ffffffffffffffffffffffffffffffffffffffff166002600084815260200190815260200160002060009054906101000a900473ffffffffffffffffffffffffffffffffffffffff1673ffffffffffffffffffffffffffffffffffffffff1614159050919050565b600033905090565b816004600083815260200190815260200160002060006101000a81548173ffffffffffffffffffffffffffffffffffffffff021916908373ffffffffffffffffffffffffffffffffffffffff160217905550808273ffffffffffffffffffffffffffffffffffffffff1661101b83610868565b73ffffffffffffffffffffffffffffffffffffffff167f8c5be1e5ebec7d5bd14f71427d1e84f3dd0314c0f7b2291e5b200ac8c7c3b92560405160405180910390a45050565b61107b828260405180602001604052806000815250611547565b5050565b61108882610f34565b6110c7576040517f08c379a00000000000000000000000000000000000000000000000000000000081526004016110be906124ab565b60405180910390fd5b806006600084815260200190815260200160002090805190602001906110ee929190611a80565b505050565b60006110fe82610f34565b61113d576040517f08c379a00000000000000000000000000000000000000000000000000000000081526004016111349061242b565b60405180910390fd5b600061114883610868565b90508073ffffffffffffffffffffffffffffffffffffffff168473ffffffffffffffffffffffffffffffffffffffff1614806111b757508373ffffffffffffffffffffffffffffffffffffffff1661119f84610506565b73ffffffffffffffffffffffffffffffffffffffff16145b806111c857506111c78185610e36565b5b91505092915050565b8273ffffffffffffffffffffffffffffffffffffffff166111f182610868565b73ffffffffffffffffffffffffffffffffffffffff1614611247576040517f08c379a000000000000000000000000000000000000000000000000000000000815260040161123e9061252b565b60405180910390fd5b600073ffffffffffffffffffffffffffffffffffffffff168273ffffffffffffffffffffffffffffffffffffffff1614156112b7576040517f08c379a00000000000000000000000000000000000000000000000000000000081526004016112ae906123eb565b60405180910390fd5b6112c28383836115a2565b6112cd600082610fa8565b6001600360008573ffffffffffffffffffffffffffffffffffffffff1673ffffffffffffffffffffffffffffffffffffffff168152602001908152602001600020600082825461131d919061278e565b925050819055506001600360008473ffffffffffffffffffffffffffffffffffffffff1673ffffffffffffffffffffffffffffffffffffffff16815260200190815260200160002060008282546113749190612707565b92505081905550816002600083815260200190815260200160002060006101000a81548173ffffffffffffffffffffffffffffffffffffffff021916908373ffffffffffffffffffffffffffffffffffffffff160217905550808273ffffffffffffffffffffffffffffffffffffffff168473ffffffffffffffffffffffffffffffffffffffff167fddf252ad1be2c89b69c2b068fc378daa952ba7f163c4a11628f55a4df523b3ef60405160405180910390a4505050565b6114388484846111d1565b611444848484846115a7565b611483576040517f08c379a000000000000000000000000000000000000000000000000000000000815260040161147a906123ab565b60405180910390fd5b50505050565b606060405180602001604052806000815250905090565b60606114ab82610f34565b6114ea576040517f08c379a00000000000000000000000000000000000000000000000000000000081526004016114e19061254b565b60405180910390fd5b60006114f4611489565b90506000815111611514576040518060200160405280600081525061153f565b8061151e8461173e565b60405160200161152f9291906122a6565b6040516020818303038152906040525b915050919050565b611551838361189f565b61155e60008484846115a7565b61159d576040517f08c379a0000000000000000000000000000000000000000000000000000000008152600401611594906123ab565b60405180910390fd5b505050565b505050565b60006115c88473ffffffffffffffffffffffffffffffffffffffff16611a6d565b15611731578373ffffffffffffffffffffffffffffffffffffffff1663150b7a026115f1610fa0565b8786866040518563ffffffff1660e01b815260040161161394939291906122e5565b602060405180830381600087803b15801561162d57600080fd5b505af192505050801561165e57506040513d601f19601f8201168201806040525081019061165b9190611e5c565b60015b6116e1573d806000811461168e576040519150601f19603f3d011682016040523d82523d6000602084013e611693565b606091505b506000815114156116d9576040517f08c379a00000000000000000000000000000000000000000000000000000000081526004016116d0906123ab565b60405180910390fd5b805181602001fd5b63150b7a0260e01b7bffffffffffffffffffffffffffffffffffffffffffffffffffffffff1916817bffffffffffffffffffffffffffffffffffffffffffffffffffffffff191614915050611736565b600190505b949350505050565b60606000821415611786576040518060400160405280600181526020017f3000000000000000000000000000000000000000000000000000000000000000815250905061189a565b600082905060005b600082146117b85780806117a190612900565b915050600a826117b1919061275d565b915061178e565b60008167ffffffffffffffff8111156117d4576117d3612a65565b5b6040519080825280601f01601f1916602001820160405280156118065781602001600182028036833780820191505090505b5090505b600085146118935760018261181f919061278e565b9150600a8561182e9190612949565b603061183a9190612707565b60f81b8183815181106118505761184f612a36565b5b60200101907effffffffffffffffffffffffffffffffffffffffffffffffffffffffffffff1916908160001a905350600a8561188c919061275d565b945061180a565b8093505050505b919050565b600073ffffffffffffffffffffffffffffffffffffffff168273ffffffffffffffffffffffffffffffffffffffff16141561190f576040517f08c379a0000000000000000000000000000000000000000000000000000000008152600401611906906124cb565b60405180910390fd5b61191881610f34565b15611958576040517f08c379a000000000000000000000000000000000000000000000000000000000815260040161194f906123cb565b60405180910390fd5b611964600083836115a2565b6001600360008473ffffffffffffffffffffffffffffffffffffffff1673ffffffffffffffffffffffffffffffffffffffff16815260200190815260200160002060008282546119b49190612707565b92505081905550816002600083815260200190815260200160002060006101000a81548173ffffffffffffffffffffffffffffffffffffffff021916908373ffffffffffffffffffffffffffffffffffffffff160217905550808273ffffffffffffffffffffffffffffffffffffffff16600073ffffffffffffffffffffffffffffffffffffffff167fddf252ad1be2c89b69c2b068fc378daa952ba7f163c4a11628f55a4df523b3ef60405160405180910390a45050565b600080823b905060008111915050919050565b828054611a8c9061289d565b90600052602060002090601f016020900481019282611aae5760008555611af5565b82601f10611ac757805160ff1916838001178555611af5565b82800160010185558215611af5579182015b82811115611af4578251825591602001919060010190611ad9565b5b509050611b029190611b06565b5090565b5b80821115611b1f576000816000905550600101611b07565b5090565b6000611b36611b3184612629565b612604565b905082815260208101848484011115611b5257611b51612a99565b5b611b5d84828561285b565b509392505050565b6000611b78611b738461265a565b612604565b905082815260208101848484011115611b9457611b93612a99565b5b611b9f84828561285b565b509392505050565b600081359050611bb681612f4b565b92915050565b600081359050611bcb81612f62565b92915050565b600081359050611be081612f79565b92915050565b600081519050611bf581612f79565b92915050565b600082601f830112611c1057611c0f612a94565b5b8135611c20848260208601611b23565b91505092915050565b600082601f830112611c3e57611c3d612a94565b5b8135611c4e848260208601611b65565b91505092915050565b600081359050611c6681612f90565b92915050565b600060208284031215611c8257611c81612aa3565b5b6000611c9084828501611ba7565b91505092915050565b60008060408385031215611cb057611caf612aa3565b5b6000611cbe85828601611ba7565b9250506020611ccf85828601611ba7565b9150509250929050565b600080600060608486031215611cf257611cf1612aa3565b5b6000611d0086828701611ba7565b9350506020611d1186828701611ba7565b9250506040611d2286828701611c57565b9150509250925092565b60008060008060808587031215611d4657611d45612aa3565b5b6000611d5487828801611ba7565b9450506020611d6587828801611ba7565b9350506040611d7687828801611c57565b925050606085013567ffffffffffffffff811115611d9757611d96612a9e565b5b611da387828801611bfb565b91505092959194509250565b60008060408385031215611dc657611dc5612aa3565b5b6000611dd485828601611ba7565b9250506020611de585828601611bbc565b9150509250929050565b60008060408385031215611e0657611e05612aa3565b5b6000611e1485828601611ba7565b9250506020611e2585828601611c57565b9150509250929050565b600060208284031215611e4557611e44612aa3565b5b6000611e5384828501611bd1565b91505092915050565b600060208284031215611e7257611e71612aa3565b5b6000611e8084828501611be6565b91505092915050565b60008060408385031215611ea057611e9f612aa3565b5b600083013567ffffffffffffffff811115611ebe57611ebd612a9e565b5b611eca85828601611c29565b9250506020611edb85828601611c57565b9150509250929050565b600060208284031215611efb57611efa612aa3565b5b6000611f0984828501611c57565b91505092915050565b6000611f1e8383612288565b60208301905092915050565b611f33816127c2565b82525050565b6000611f448261269b565b611f4e81856126c9565b9350611f598361268b565b8060005b83811015611f8a578151611f718882611f12565b9750611f7c836126bc565b925050600181019050611f5d565b5085935050505092915050565b611fa0816127d4565b82525050565b6000611fb1826126a6565b611fbb81856126da565b9350611fcb81856020860161286a565b611fd481612aa8565b840191505092915050565b611fe881612849565b82525050565b6000611ff9826126b1565b61200381856126eb565b935061201381856020860161286a565b61201c81612aa8565b840191505092915050565b6000612032826126b1565b61203c81856126fc565b935061204c81856020860161286a565b80840191505092915050565b60006120656032836126eb565b915061207082612ab9565b604082019050919050565b6000612088601c836126eb565b915061209382612b08565b602082019050919050565b60006120ab6024836126eb565b91506120b682612b31565b604082019050919050565b60006120ce6019836126eb565b91506120d982612b80565b602082019050919050565b60006120f1602c836126eb565b91506120fc82612ba9565b604082019050919050565b60006121146038836126eb565b915061211f82612bf8565b604082019050919050565b6000612137602a836126eb565b915061214282612c47565b604082019050919050565b600061215a6029836126eb565b915061216582612c96565b604082019050919050565b600061217d602e836126eb565b915061218882612ce5565b604082019050919050565b60006121a06020836126eb565b91506121ab82612d34565b602082019050919050565b60006121c36031836126eb565b91506121ce82612d5d565b604082019050919050565b60006121e6602c836126eb565b91506121f182612dac565b604082019050919050565b60006122096029836126eb565b915061221482612dfb565b604082019050919050565b600061222c602f836126eb565b915061223782612e4a565b604082019050919050565b600061224f6021836126eb565b915061225a82612e99565b604082019050919050565b60006122726031836126eb565b915061227d82612ee8565b604082019050919050565b6122918161283f565b82525050565b6122a08161283f565b82525050565b60006122b28285612027565b91506122be8284612027565b91508190509392505050565b60006020820190506122df6000830184611f2a565b92915050565b60006080820190506122fa6000830187611f2a565b6123076020830186611f2a565b6123146040830185612297565b81810360608301526123268184611fa6565b905095945050505050565b6000602082019050818103600083015261234b8184611f39565b905092915050565b60006020820190506123686000830184611f97565b92915050565b60006020820190506123836000830184611fdf565b92915050565b600060208201905081810360008301526123a38184611fee565b905092915050565b600060208201905081810360008301526123c481612058565b9050919050565b600060208201905081810360008301526123e48161207b565b9050919050565b600060208201905081810360008301526124048161209e565b9050919050565b60006020820190508181036000830152612424816120c1565b9050919050565b60006020820190508181036000830152612444816120e4565b9050919050565b6000602082019050818103600083015261246481612107565b9050919050565b600060208201905081810360008301526124848161212a565b9050919050565b600060208201905081810360008301526124a48161214d565b9050919050565b600060208201905081810360008301526124c481612170565b9050919050565b600060208201905081810360008301526124e481612193565b9050919050565b60006020820190508181036000830152612504816121b6565b9050919050565b60006020820190508181036000830152612524816121d9565b9050919050565b60006020820190508181036000830152612544816121fc565b9050919050565b600060208201905081810360008301526125648161221f565b9050919050565b6000602082019050818103600083015261258481612242565b9050919050565b600060208201905081810360008301526125a481612265565b9050919050565b60006020820190506125c06000830184612297565b92915050565b60006060820190506125db6000830186612297565b6125e86020830185612297565b81810360408301526125fa8184611fee565b9050949350505050565b600061260e61261f565b905061261a82826128cf565b919050565b6000604051905090565b600067ffffffffffffffff82111561264457612643612a65565b5b61264d82612aa8565b9050602081019050919050565b600067ffffffffffffffff82111561267557612674612a65565b5b61267e82612aa8565b9050602081019050919050565b6000819050602082019050919050565b600081519050919050565b600081519050919050565b600081519050919050565b6000602082019050919050565b600082825260208201905092915050565b600082825260208201905092915050565b600082825260208201905092915050565b600081905092915050565b60006127128261283f565b915061271d8361283f565b9250827fffffffffffffffffffffffffffffffffffffffffffffffffffffffffffffffff038211156127525761275161297a565b5b828201905092915050565b60006127688261283f565b91506127738361283f565b925082612783576127826129a9565b5b828204905092915050565b60006127998261283f565b91506127a48361283f565b9250828210156127b7576127b661297a565b5b828203905092915050565b60006127cd8261281f565b9050919050565b60008115159050919050565b60007fffffffff0000000000000000000000000000000000000000000000000000000082169050919050565b600081905061281a82612f37565b919050565b600073ffffffffffffffffffffffffffffffffffffffff82169050919050565b6000819050919050565b60006128548261280c565b9050919050565b82818337600083830152505050565b60005b8381101561288857808201518184015260208101905061286d565b83811115612897576000848401525b50505050565b600060028204905060018216806128b557607f821691505b602082108114156128c9576128c8612a07565b5b50919050565b6128d882612aa8565b810181811067ffffffffffffffff821117156128f7576128f6612a65565b5b80604052505050565b600061290b8261283f565b91507fffffffffffffffffffffffffffffffffffffffffffffffffffffffffffffffff82141561293e5761293d61297a565b5b600182019050919050565b60006129548261283f565b915061295f8361283f565b92508261296f5761296e6129a9565b5b828206905092915050565b7f4e487b7100000000000000000000000000000000000000000000000000000000600052601160045260246000fd5b7f4e487b7100000000000000000000000000000000000000000000000000000000600052601260045260246000fd5b7f4e487b7100000000000000000000000000000000000000000000000000000000600052602160045260246000fd5b7f4e487b7100000000000000000000000000000000000000000000000000000000600052602260045260246000fd5b7f4e487b7100000000000000000000000000000000000000000000000000000000600052603260045260246000fd5b7f4e487b7100000000000000000000000000000000000000000000000000000000600052604160045260246000fd5b600080fd5b600080fd5b600080fd5b600080fd5b6000601f19601f8301169050919050565b7f4552433732313a207472616e7366657220746f206e6f6e20455243373231526560008201527f63656976657220696d706c656d656e7465720000000000000000000000000000602082015250565b7f4552433732313a20746f6b656e20616c7265616479206d696e74656400000000600082015250565b7f4552433732313a207472616e7366657220746f20746865207a65726f2061646460008201527f7265737300000000000000000000000000000000000000000000000000000000602082015250565b7f4552433732313a20617070726f766520746f2063616c6c657200000000000000600082015250565b7f4552433732313a206f70657261746f7220717565727920666f72206e6f6e657860008201527f697374656e7420746f6b656e0000000000000000000000000000000000000000602082015250565b7f4552433732313a20617070726f76652063616c6c6572206973206e6f74206f7760008201527f6e6572206e6f7220617070726f76656420666f7220616c6c0000000000000000602082015250565b7f4552433732313a2062616c616e636520717565727920666f7220746865207a6560008201527f726f206164647265737300000000000000000000000000000000000000000000602082015250565b7f4552433732313a206f776e657220717565727920666f72206e6f6e657869737460008201527f656e7420746f6b656e0000000000000000000000000000000000000000000000602082015250565b7f45524337323155524953746f726167653a2055524920736574206f66206e6f6e60008201527f6578697374656e7420746f6b656e000000000000000000000000000000000000602082015250565b7f4552433732313a206d696e7420746f20746865207a65726f2061646472657373600082015250565b7f45524337323155524953746f726167653a2055524920717565727920666f722060008201527f6e6f6e6578697374656e7420746f6b656e000000000000000000000000000000602082015250565b7f4552433732313a20617070726f76656420717565727920666f72206e6f6e657860008201527f697374656e7420746f6b656e0000000000000000000000000000000000000000602082015250565b7f4552433732313a207472616e73666572206f6620746f6b656e2074686174206960008201527f73206e6f74206f776e0000000000000000000000000000000000000000000000602082015250565b7f4552433732314d657461646174613a2055524920717565727920666f72206e6f60008201527f6e6578697374656e7420746f6b656e0000000000000000000000000000000000602082015250565b7f4552433732313a20617070726f76616c20746f2063757272656e74206f776e6560008201527f7200000000000000000000000000000000000000000000000000000000000000602082015250565b7f4552433732313a207472616e736665722063616c6c6572206973206e6f74206f60008201527f776e6572206e6f7220617070726f766564000000000000000000000000000000602082015250565b60048110612f4857612f476129d8565b5b50565b612f54816127c2565b8114612f5f57600080fd5b50565b612f6b816127d4565b8114612f7657600080fd5b50565b612f82816127e0565b8114612f8d57600080fd5b50565b612f998161283f565b8114612fa457600080fd5b5056fea2646970667358221220aa0625880ecd662dfdd3202272fce1246387bde1cbebd86102719ce846d5d57b64736f6c63430008060033",
  "immutableReferences": {},
  "source": "pragma solidity >=0.7.6 <0.9.0;\n\nimport \"@openzeppelin/contracts/token/ERC721/extensions/ERC721URIStorage.sol\";\n\ncontract SupportChildrenCollectable is ERC721URIStorage {\n    uint256 public tokenCounter;\n    enum Type{FirstDonation, LastDonation, FullCampaingDonation, CampaignSuccessfullyFinished}\n    \n    mapping(uint256 => Type) public tokenIdToType;\n    mapping(address => uint[]) tokenListbyUser;\n    \n    event NFTCreated (\n        uint id,\n        uint nftType,\n        string tokenUrl\n    );\n\n    constructor() ERC721(\"SupportChildrenCollectible\", \"SCC\") {\n        tokenCounter = 0;\n    }\n\n\n    function createCollectible(string memory tokenURI, uint tokenType) public {\n        _safeMint(tx.origin, tokenCounter);\n        _setTokenURI(tokenCounter, tokenURI);\n        tokenIdToType[tokenCounter] = Type(tokenType);\n        tokenListbyUser[tx.origin].push(tokenCounter);\n        emit NFTCreated(tokenCounter, tokenType, tokenURI);\n        tokenCounter = tokenCounter + 1;\n    }\n    \n    function getCollectibleList(address _donor) view public returns (uint[] memory) {\n        return tokenListbyUser[_donor];\n    }\n}",
  "sourcePath": "/home/appmodule/Crypto/support-children/contracts/SupportChildrenCollectable.sol",
  "compiler": {
    "name": "solc",
    "version": "0.8.6+commit.11564f7e.Emscripten.clang"
  },
  "schemaVersion": "3.4.2",
  "updatedAt": "2021-08-09T20:18:26.916Z",
  "networkType": "ethereum",
  "devdoc": {
    "kind": "dev",
    "methods": {
      "approve(address,uint256)": {
        "details": "See {IERC721-approve}."
      },
      "balanceOf(address)": {
        "details": "See {IERC721-balanceOf}."
      },
      "getApproved(uint256)": {
        "details": "See {IERC721-getApproved}."
      },
      "isApprovedForAll(address,address)": {
        "details": "See {IERC721-isApprovedForAll}."
      },
      "name()": {
        "details": "See {IERC721Metadata-name}."
      },
      "ownerOf(uint256)": {
        "details": "See {IERC721-ownerOf}."
      },
      "safeTransferFrom(address,address,uint256)": {
        "details": "See {IERC721-safeTransferFrom}."
      },
      "safeTransferFrom(address,address,uint256,bytes)": {
        "details": "See {IERC721-safeTransferFrom}."
      },
      "setApprovalForAll(address,bool)": {
        "details": "See {IERC721-setApprovalForAll}."
      },
      "supportsInterface(bytes4)": {
        "details": "See {IERC165-supportsInterface}."
      },
      "symbol()": {
        "details": "See {IERC721Metadata-symbol}."
      },
      "tokenURI(uint256)": {
        "details": "See {IERC721Metadata-tokenURI}."
      },
      "transferFrom(address,address,uint256)": {
        "details": "See {IERC721-transferFrom}."
      }
    },
    "version": 1
  },
  "userdoc": {
    "kind": "user",
    "methods": {},
    "version": 1
  }
}