{
  "contractName": "SupportChildrenCollectable",
  "abi": [
    {
      "inputs": [],
      "stateMutability": "nonpayable",
      "type": "constructor"
    },
    {
      "anonymous": false,
      "inputs": [
        {
          "indexed": true,
          "internalType": "address",
          "name": "owner",
          "type": "address"
        },
        {
          "indexed": true,
          "internalType": "address",
          "name": "approved",
          "type": "address"
        },
        {
          "indexed": true,
          "internalType": "uint256",
          "name": "tokenId",
          "type": "uint256"
        }
      ],
      "name": "Approval",
      "type": "event"
    },
    {
      "anonymous": false,
      "inputs": [
        {
          "indexed": true,
          "internalType": "address",
          "name": "owner",
          "type": "address"
        },
        {
          "indexed": true,
          "internalType": "address",
          "name": "operator",
          "type": "address"
        },
        {
          "indexed": false,
          "internalType": "bool",
          "name": "approved",
          "type": "bool"
        }
      ],
      "name": "ApprovalForAll",
      "type": "event"
    },
    {
      "anonymous": false,
      "inputs": [
        {
          "indexed": false,
          "internalType": "uint256",
          "name": "id",
          "type": "uint256"
        },
        {
          "indexed": false,
          "internalType": "uint256",
          "name": "nftType",
          "type": "uint256"
        },
        {
          "indexed": false,
          "internalType": "string",
          "name": "tokenUrl",
          "type": "string"
        }
      ],
      "name": "NFTCreated",
      "type": "event"
    },
    {
      "anonymous": false,
      "inputs": [
        {
          "indexed": true,
          "internalType": "address",
          "name": "from",
          "type": "address"
        },
        {
          "indexed": true,
          "internalType": "address",
          "name": "to",
          "type": "address"
        },
        {
          "indexed": true,
          "internalType": "uint256",
          "name": "tokenId",
          "type": "uint256"
        }
      ],
      "name": "Transfer",
      "type": "event"
    },
    {
      "inputs": [
        {
          "internalType": "address",
          "name": "to",
          "type": "address"
        },
        {
          "internalType": "uint256",
          "name": "tokenId",
          "type": "uint256"
        }
      ],
      "name": "approve",
      "outputs": [],
      "stateMutability": "nonpayable",
      "type": "function"
    },
    {
      "inputs": [
        {
          "internalType": "address",
          "name": "owner",
          "type": "address"
        }
      ],
      "name": "balanceOf",
      "outputs": [
        {
          "internalType": "uint256",
          "name": "",
          "type": "uint256"
        }
      ],
      "stateMutability": "view",
      "type": "function",
      "constant": true
    },
    {
      "inputs": [
        {
          "internalType": "uint256",
          "name": "tokenId",
          "type": "uint256"
        }
      ],
      "name": "getApproved",
      "outputs": [
        {
          "internalType": "address",
          "name": "",
          "type": "address"
        }
      ],
      "stateMutability": "view",
      "type": "function",
      "constant": true
    },
    {
      "inputs": [
        {
          "internalType": "address",
          "name": "owner",
          "type": "address"
        },
        {
          "internalType": "address",
          "name": "operator",
          "type": "address"
        }
      ],
      "name": "isApprovedForAll",
      "outputs": [
        {
          "internalType": "bool",
          "name": "",
          "type": "bool"
        }
      ],
      "stateMutability": "view",
      "type": "function",
      "constant": true
    },
    {
      "inputs": [],
      "name": "name",
      "outputs": [
        {
          "internalType": "string",
          "name": "",
          "type": "string"
        }
      ],
      "stateMutability": "view",
      "type": "function",
      "constant": true
    },
    {
      "inputs": [
        {
          "internalType": "uint256",
          "name": "tokenId",
          "type": "uint256"
        }
      ],
      "name": "ownerOf",
      "outputs": [
        {
          "internalType": "address",
          "name": "",
          "type": "address"
        }
      ],
      "stateMutability": "view",
      "type": "function",
      "constant": true
    },
    {
      "inputs": [
        {
          "internalType": "address",
          "name": "from",
          "type": "address"
        },
        {
          "internalType": "address",
          "name": "to",
          "type": "address"
        },
        {
          "internalType": "uint256",
          "name": "tokenId",
          "type": "uint256"
        }
      ],
      "name": "safeTransferFrom",
      "outputs": [],
      "stateMutability": "nonpayable",
      "type": "function"
    },
    {
      "inputs": [
        {
          "internalType": "address",
          "name": "from",
          "type": "address"
        },
        {
          "internalType": "address",
          "name": "to",
          "type": "address"
        },
        {
          "internalType": "uint256",
          "name": "tokenId",
          "type": "uint256"
        },
        {
          "internalType": "bytes",
          "name": "_data",
          "type": "bytes"
        }
      ],
      "name": "safeTransferFrom",
      "outputs": [],
      "stateMutability": "nonpayable",
      "type": "function"
    },
    {
      "inputs": [
        {
          "internalType": "address",
          "name": "operator",
          "type": "address"
        },
        {
          "internalType": "bool",
          "name": "approved",
          "type": "bool"
        }
      ],
      "name": "setApprovalForAll",
      "outputs": [],
      "stateMutability": "nonpayable",
      "type": "function"
    },
    {
      "inputs": [
        {
          "internalType": "bytes4",
          "name": "interfaceId",
          "type": "bytes4"
        }
      ],
      "name": "supportsInterface",
      "outputs": [
        {
          "internalType": "bool",
          "name": "",
          "type": "bool"
        }
      ],
      "stateMutability": "view",
      "type": "function",
      "constant": true
    },
    {
      "inputs": [],
      "name": "symbol",
      "outputs": [
        {
          "internalType": "string",
          "name": "",
          "type": "string"
        }
      ],
      "stateMutability": "view",
      "type": "function",
      "constant": true
    },
    {
      "inputs": [],
      "name": "tokenCounter",
      "outputs": [
        {
          "internalType": "uint256",
          "name": "",
          "type": "uint256"
        }
      ],
      "stateMutability": "view",
      "type": "function",
      "constant": true
    },
    {
      "inputs": [
        {
          "internalType": "uint256",
          "name": "",
          "type": "uint256"
        }
      ],
      "name": "tokenIdToType",
      "outputs": [
        {
          "internalType": "enum SupportChildrenCollectable.Type",
          "name": "",
          "type": "uint8"
        }
      ],
      "stateMutability": "view",
      "type": "function",
      "constant": true
    },
    {
      "inputs": [
        {
          "internalType": "uint256",
          "name": "tokenId",
          "type": "uint256"
        }
      ],
      "name": "tokenURI",
      "outputs": [
        {
          "internalType": "string",
          "name": "",
          "type": "string"
        }
      ],
      "stateMutability": "view",
      "type": "function",
      "constant": true
    },
    {
      "inputs": [
        {
          "internalType": "address",
          "name": "from",
          "type": "address"
        },
        {
          "internalType": "address",
          "name": "to",
          "type": "address"
        },
        {
          "internalType": "uint256",
          "name": "tokenId",
          "type": "uint256"
        }
      ],
      "name": "transferFrom",
      "outputs": [],
      "stateMutability": "nonpayable",
      "type": "function"
    },
    {
      "inputs": [
        {
          "internalType": "string",
          "name": "tokenURI",
          "type": "string"
        },
        {
          "internalType": "uint256",
          "name": "tokenType",
          "type": "uint256"
        },
        {
          "internalType": "address",
          "name": "owner",
          "type": "address"
        }
      ],
      "name": "createCollectible",
      "outputs": [],
      "stateMutability": "nonpayable",
      "type": "function"
    },
    {
      "inputs": [
        {
          "internalType": "address",
          "name": "_donor",
          "type": "address"
        }
      ],
      "name": "getCollectibleList",
      "outputs": [
        {
          "internalType": "uint256[]",
          "name": "",
          "type": "uint256[]"
        }
      ],
      "stateMutability": "view",
      "type": "function",
      "constant": true
    }
  ],
  "bytecode": "0x60806040523480156200001157600080fd5b506040518060400160405280601a81526020017f537570706f72744368696c6472656e436f6c6c65637469626c650000000000008152506040518060400160405280600381526020017f5343430000000000000000000000000000000000000000000000000000000000815250816000908051906020019062000096929190620000c0565b508060019080519060200190620000af929190620000c0565b5050506000600781905550620001d5565b828054620000ce9062000170565b90600052602060002090601f016020900481019282620000f257600085556200013e565b82601f106200010d57805160ff19168380011785556200013e565b828001600101855582156200013e579182015b828111156200013d57825182559160200191906001019062000120565b5b5090506200014d919062000151565b5090565b5b808211156200016c57600081600090555060010162000152565b5090565b600060028204905060018216806200018957607f821691505b60208210811415620001a0576200019f620001a6565b5b50919050565b7f4e487b7100000000000000000000000000000000000000000000000000000000600052602260045260246000fd5b6130a080620001e56000396000f3fe608060405234801561001057600080fd5b506004361061010b5760003560e01c806370a08231116100a2578063a22cb46511610071578063a22cb465146102dc578063b88d4fde146102f8578063c87b56dd14610314578063d082e38114610344578063e985e9c5146103625761010b565b806370a082311461024257806375a6c2b3146102725780637d9c80f9146102a257806395d89b41146102be5761010b565b806323b872dd116100de57806323b872dd146101aa578063356ee335146101c657806342842e0e146101f65780636352211e146102125761010b565b806301ffc9a71461011057806306fdde0314610140578063081812fc1461015e578063095ea7b31461018e575b600080fd5b61012a60048036038101906101259190611e73565b610392565b60405161013791906123cd565b60405180910390f35b610148610474565b6040516101559190612403565b60405180910390f35b61017860048036038101906101739190611f3c565b610506565b6040516101859190612344565b60405180910390f35b6101a860048036038101906101a39190611e33565b61058b565b005b6101c460048036038101906101bf9190611d1d565b6106a3565b005b6101e060048036038101906101db9190611f3c565b610703565b6040516101ed91906123e8565b60405180910390f35b610210600480360381019061020b9190611d1d565b610723565b005b61022c60048036038101906102279190611f3c565b610743565b6040516102399190612344565b60405180910390f35b61025c60048036038101906102579190611cb0565b6107f5565b6040516102699190612645565b60405180910390f35b61028c60048036038101906102879190611cb0565b6108ad565b60405161029991906123ab565b60405180910390f35b6102bc60048036038101906102b79190611ecd565b610944565b005b6102c6610aad565b6040516102d39190612403565b60405180910390f35b6102f660048036038101906102f19190611df3565b610b3f565b005b610312600480360381019061030d9190611d70565b610cc0565b005b61032e60048036038101906103299190611f3c565b610d22565b60405161033b9190612403565b60405180910390f35b61034c610e74565b6040516103599190612645565b60405180910390f35b61037c60048036038101906103779190611cdd565b610e7a565b60405161038991906123cd565b60405180910390f35b60007f80ac58cd000000000000000000000000000000000000000000000000000000007bffffffffffffffffffffffffffffffffffffffffffffffffffffffff1916827bffffffffffffffffffffffffffffffffffffffffffffffffffffffff1916148061045d57507f5b5e139f000000000000000000000000000000000000000000000000000000007bffffffffffffffffffffffffffffffffffffffffffffffffffffffff1916827bffffffffffffffffffffffffffffffffffffffffffffffffffffffff1916145b8061046d575061046c82610f0e565b5b9050919050565b60606000805461048390612937565b80601f01602080910402602001604051908101604052809291908181526020018280546104af90612937565b80156104fc5780601f106104d1576101008083540402835291602001916104fc565b820191906000526020600020905b8154815290600101906020018083116104df57829003601f168201915b5050505050905090565b600061051182610f78565b610550576040517f08c379a0000000000000000000000000000000000000000000000000000000008152600401610547906125a5565b60405180910390fd5b6004600083815260200190815260200160002060009054906101000a900473ffffffffffffffffffffffffffffffffffffffff169050919050565b600061059682610743565b90508073ffffffffffffffffffffffffffffffffffffffff168373ffffffffffffffffffffffffffffffffffffffff161415610607576040517f08c379a00000000000000000000000000000000000000000000000000000000081526004016105fe90612605565b60405180910390fd5b8073ffffffffffffffffffffffffffffffffffffffff16610626610fe4565b73ffffffffffffffffffffffffffffffffffffffff16148061065557506106548161064f610fe4565b610e7a565b5b610694576040517f08c379a000000000000000000000000000000000000000000000000000000000815260040161068b906124c5565b60405180910390fd5b61069e8383610fec565b505050565b6106b46106ae610fe4565b826110a5565b6106f3576040517f08c379a00000000000000000000000000000000000000000000000000000000081526004016106ea90612625565b60405180910390fd5b6106fe838383611183565b505050565b60086020528060005260406000206000915054906101000a900460ff1681565b61073e83838360405180602001604052806000815250610cc0565b505050565b6000806002600084815260200190815260200160002060009054906101000a900473ffffffffffffffffffffffffffffffffffffffff169050600073ffffffffffffffffffffffffffffffffffffffff168173ffffffffffffffffffffffffffffffffffffffff1614156107ec576040517f08c379a00000000000000000000000000000000000000000000000000000000081526004016107e390612525565b60405180910390fd5b80915050919050565b60008073ffffffffffffffffffffffffffffffffffffffff168273ffffffffffffffffffffffffffffffffffffffff161415610866576040517f08c379a000000000000000000000000000000000000000000000000000000000815260040161085d90612505565b60405180910390fd5b600360008373ffffffffffffffffffffffffffffffffffffffff1673ffffffffffffffffffffffffffffffffffffffff168152602001908152602001600020549050919050565b6060600960008373ffffffffffffffffffffffffffffffffffffffff1673ffffffffffffffffffffffffffffffffffffffff16815260200190815260200160002080548060200260200160405190810160405280929190818152602001828054801561093857602002820191906000526020600020905b815481526020019060010190808311610924575b50505050509050919050565b60038210610987576040517f08c379a000000000000000000000000000000000000000000000000000000000815260040161097e906124e5565b60405180910390fd5b610993816007546113df565b61099f600754846113fd565b8160038111156109b2576109b1612a72565b5b60086000600754815260200190815260200160002060006101000a81548160ff021916908360038111156109e9576109e8612a72565b5b0217905550600960008273ffffffffffffffffffffffffffffffffffffffff1673ffffffffffffffffffffffffffffffffffffffff16815260200190815260200160002060075490806001815401808255809150506001900390600052602060002001600090919091909150557f91baf78dcd6f7e52a0938572fbd4bb82491acb5aaf59e3a07235100631e317af6007548385604051610a8b93929190612660565b60405180910390a16001600754610aa291906127a1565b600781905550505050565b606060018054610abc90612937565b80601f0160208091040260200160405190810160405280929190818152602001828054610ae890612937565b8015610b355780601f10610b0a57610100808354040283529160200191610b35565b820191906000526020600020905b815481529060010190602001808311610b1857829003601f168201915b5050505050905090565b610b47610fe4565b73ffffffffffffffffffffffffffffffffffffffff168273ffffffffffffffffffffffffffffffffffffffff161415610bb5576040517f08c379a0000000000000000000000000000000000000000000000000000000008152600401610bac90612485565b60405180910390fd5b8060056000610bc2610fe4565b73ffffffffffffffffffffffffffffffffffffffff1673ffffffffffffffffffffffffffffffffffffffff16815260200190815260200160002060008473ffffffffffffffffffffffffffffffffffffffff1673ffffffffffffffffffffffffffffffffffffffff16815260200190815260200160002060006101000a81548160ff0219169083151502179055508173ffffffffffffffffffffffffffffffffffffffff16610c6f610fe4565b73ffffffffffffffffffffffffffffffffffffffff167f17307eab39ab6107e8899845ad3d59bd9653f200f220920489ca2b5937696c3183604051610cb491906123cd565b60405180910390a35050565b610cd1610ccb610fe4565b836110a5565b610d10576040517f08c379a0000000000000000000000000000000000000000000000000000000008152600401610d0790612625565b60405180910390fd5b610d1c84848484611471565b50505050565b6060610d2d82610f78565b610d6c576040517f08c379a0000000000000000000000000000000000000000000000000000000008152600401610d6390612585565b60405180910390fd5b6000600660008481526020019081526020016000208054610d8c90612937565b80601f0160208091040260200160405190810160405280929190818152602001828054610db890612937565b8015610e055780601f10610dda57610100808354040283529160200191610e05565b820191906000526020600020905b815481529060010190602001808311610de857829003601f168201915b505050505090506000610e166114cd565b9050600081511415610e2c578192505050610e6f565b600082511115610e61578082604051602001610e49929190612320565b60405160208183030381529060405292505050610e6f565b610e6a846114e4565b925050505b919050565b60075481565b6000600560008473ffffffffffffffffffffffffffffffffffffffff1673ffffffffffffffffffffffffffffffffffffffff16815260200190815260200160002060008373ffffffffffffffffffffffffffffffffffffffff1673ffffffffffffffffffffffffffffffffffffffff16815260200190815260200160002060009054906101000a900460ff16905092915050565b60007f01ffc9a7000000000000000000000000000000000000000000000000000000007bffffffffffffffffffffffffffffffffffffffffffffffffffffffff1916827bffffffffffffffffffffffffffffffffffffffffffffffffffffffff1916149050919050565b60008073ffffffffffffffffffffffffffffffffffffffff166002600084815260200190815260200160002060009054906101000a900473ffffffffffffffffffffffffffffffffffffffff1673ffffffffffffffffffffffffffffffffffffffff1614159050919050565b600033905090565b816004600083815260200190815260200160002060006101000a81548173ffffffffffffffffffffffffffffffffffffffff021916908373ffffffffffffffffffffffffffffffffffffffff160217905550808273ffffffffffffffffffffffffffffffffffffffff1661105f83610743565b73ffffffffffffffffffffffffffffffffffffffff167f8c5be1e5ebec7d5bd14f71427d1e84f3dd0314c0f7b2291e5b200ac8c7c3b92560405160405180910390a45050565b60006110b082610f78565b6110ef576040517f08c379a00000000000000000000000000000000000000000000000000000000081526004016110e6906124a5565b60405180910390fd5b60006110fa83610743565b90508073ffffffffffffffffffffffffffffffffffffffff168473ffffffffffffffffffffffffffffffffffffffff16148061116957508373ffffffffffffffffffffffffffffffffffffffff1661115184610506565b73ffffffffffffffffffffffffffffffffffffffff16145b8061117a57506111798185610e7a565b5b91505092915050565b8273ffffffffffffffffffffffffffffffffffffffff166111a382610743565b73ffffffffffffffffffffffffffffffffffffffff16146111f9576040517f08c379a00000000000000000000000000000000000000000000000000000000081526004016111f0906125c5565b60405180910390fd5b600073ffffffffffffffffffffffffffffffffffffffff168273ffffffffffffffffffffffffffffffffffffffff161415611269576040517f08c379a000000000000000000000000000000000000000000000000000000000815260040161126090612465565b60405180910390fd5b61127483838361158b565b61127f600082610fec565b6001600360008573ffffffffffffffffffffffffffffffffffffffff1673ffffffffffffffffffffffffffffffffffffffff16815260200190815260200160002060008282546112cf9190612828565b925050819055506001600360008473ffffffffffffffffffffffffffffffffffffffff1673ffffffffffffffffffffffffffffffffffffffff168152602001908152602001600020600082825461132691906127a1565b92505081905550816002600083815260200190815260200160002060006101000a81548173ffffffffffffffffffffffffffffffffffffffff021916908373ffffffffffffffffffffffffffffffffffffffff160217905550808273ffffffffffffffffffffffffffffffffffffffff168473ffffffffffffffffffffffffffffffffffffffff167fddf252ad1be2c89b69c2b068fc378daa952ba7f163c4a11628f55a4df523b3ef60405160405180910390a4505050565b6113f9828260405180602001604052806000815250611590565b5050565b61140682610f78565b611445576040517f08c379a000000000000000000000000000000000000000000000000000000000815260040161143c90612545565b60405180910390fd5b8060066000848152602001908152602001600020908051906020019061146c929190611ac4565b505050565b61147c848484611183565b611488848484846115eb565b6114c7576040517f08c379a00000000000000000000000000000000000000000000000000000000081526004016114be90612425565b60405180910390fd5b50505050565b606060405180602001604052806000815250905090565b60606114ef82610f78565b61152e576040517f08c379a0000000000000000000000000000000000000000000000000000000008152600401611525906125e5565b60405180910390fd5b60006115386114cd565b905060008151116115585760405180602001604052806000815250611583565b8061156284611782565b604051602001611573929190612320565b6040516020818303038152906040525b915050919050565b505050565b61159a83836118e3565b6115a760008484846115eb565b6115e6576040517f08c379a00000000000000000000000000000000000000000000000000000000081526004016115dd90612425565b60405180910390fd5b505050565b600061160c8473ffffffffffffffffffffffffffffffffffffffff16611ab1565b15611775578373ffffffffffffffffffffffffffffffffffffffff1663150b7a02611635610fe4565b8786866040518563ffffffff1660e01b8152600401611657949392919061235f565b602060405180830381600087803b15801561167157600080fd5b505af19250505080156116a257506040513d601f19601f8201168201806040525081019061169f9190611ea0565b60015b611725573d80600081146116d2576040519150601f19603f3d011682016040523d82523d6000602084013e6116d7565b606091505b5060008151141561171d576040517f08c379a000000000000000000000000000000000000000000000000000000000815260040161171490612425565b60405180910390fd5b805181602001fd5b63150b7a0260e01b7bffffffffffffffffffffffffffffffffffffffffffffffffffffffff1916817bffffffffffffffffffffffffffffffffffffffffffffffffffffffff19161491505061177a565b600190505b949350505050565b606060008214156117ca576040518060400160405280600181526020017f300000000000000000000000000000000000000000000000000000000000000081525090506118de565b600082905060005b600082146117fc5780806117e59061299a565b915050600a826117f591906127f7565b91506117d2565b60008167ffffffffffffffff81111561181857611817612aff565b5b6040519080825280601f01601f19166020018201604052801561184a5781602001600182028036833780820191505090505b5090505b600085146118d7576001826118639190612828565b9150600a8561187291906129e3565b603061187e91906127a1565b60f81b81838151811061189457611893612ad0565b5b60200101907effffffffffffffffffffffffffffffffffffffffffffffffffffffffffffff1916908160001a905350600a856118d091906127f7565b945061184e565b8093505050505b919050565b600073ffffffffffffffffffffffffffffffffffffffff168273ffffffffffffffffffffffffffffffffffffffff161415611953576040517f08c379a000000000000000000000000000000000000000000000000000000000815260040161194a90612565565b60405180910390fd5b61195c81610f78565b1561199c576040517f08c379a000000000000000000000000000000000000000000000000000000000815260040161199390612445565b60405180910390fd5b6119a86000838361158b565b6001600360008473ffffffffffffffffffffffffffffffffffffffff1673ffffffffffffffffffffffffffffffffffffffff16815260200190815260200160002060008282546119f891906127a1565b92505081905550816002600083815260200190815260200160002060006101000a81548173ffffffffffffffffffffffffffffffffffffffff021916908373ffffffffffffffffffffffffffffffffffffffff160217905550808273ffffffffffffffffffffffffffffffffffffffff16600073ffffffffffffffffffffffffffffffffffffffff167fddf252ad1be2c89b69c2b068fc378daa952ba7f163c4a11628f55a4df523b3ef60405160405180910390a45050565b600080823b905060008111915050919050565b828054611ad090612937565b90600052602060002090601f016020900481019282611af25760008555611b39565b82601f10611b0b57805160ff1916838001178555611b39565b82800160010185558215611b39579182015b82811115611b38578251825591602001919060010190611b1d565b5b509050611b469190611b4a565b5090565b5b80821115611b63576000816000905550600101611b4b565b5090565b6000611b7a611b75846126c3565b61269e565b905082815260208101848484011115611b9657611b95612b33565b5b611ba18482856128f5565b509392505050565b6000611bbc611bb7846126f4565b61269e565b905082815260208101848484011115611bd857611bd7612b33565b5b611be38482856128f5565b509392505050565b600081359050611bfa8161300e565b92915050565b600081359050611c0f81613025565b92915050565b600081359050611c248161303c565b92915050565b600081519050611c398161303c565b92915050565b600082601f830112611c5457611c53612b2e565b5b8135611c64848260208601611b67565b91505092915050565b600082601f830112611c8257611c81612b2e565b5b8135611c92848260208601611ba9565b91505092915050565b600081359050611caa81613053565b92915050565b600060208284031215611cc657611cc5612b3d565b5b6000611cd484828501611beb565b91505092915050565b60008060408385031215611cf457611cf3612b3d565b5b6000611d0285828601611beb565b9250506020611d1385828601611beb565b9150509250929050565b600080600060608486031215611d3657611d35612b3d565b5b6000611d4486828701611beb565b9350506020611d5586828701611beb565b9250506040611d6686828701611c9b565b9150509250925092565b60008060008060808587031215611d8a57611d89612b3d565b5b6000611d9887828801611beb565b9450506020611da987828801611beb565b9350506040611dba87828801611c9b565b925050606085013567ffffffffffffffff811115611ddb57611dda612b38565b5b611de787828801611c3f565b91505092959194509250565b60008060408385031215611e0a57611e09612b3d565b5b6000611e1885828601611beb565b9250506020611e2985828601611c00565b9150509250929050565b60008060408385031215611e4a57611e49612b3d565b5b6000611e5885828601611beb565b9250506020611e6985828601611c9b565b9150509250929050565b600060208284031215611e8957611e88612b3d565b5b6000611e9784828501611c15565b91505092915050565b600060208284031215611eb657611eb5612b3d565b5b6000611ec484828501611c2a565b91505092915050565b600080600060608486031215611ee657611ee5612b3d565b5b600084013567ffffffffffffffff811115611f0457611f03612b38565b5b611f1086828701611c6d565b9350506020611f2186828701611c9b565b9250506040611f3286828701611beb565b9150509250925092565b600060208284031215611f5257611f51612b3d565b5b6000611f6084828501611c9b565b91505092915050565b6000611f758383612302565b60208301905092915050565b611f8a8161285c565b82525050565b6000611f9b82612735565b611fa58185612763565b9350611fb083612725565b8060005b83811015611fe1578151611fc88882611f69565b9750611fd383612756565b925050600181019050611fb4565b5085935050505092915050565b611ff78161286e565b82525050565b600061200882612740565b6120128185612774565b9350612022818560208601612904565b61202b81612b42565b840191505092915050565b61203f816128e3565b82525050565b60006120508261274b565b61205a8185612785565b935061206a818560208601612904565b61207381612b42565b840191505092915050565b60006120898261274b565b6120938185612796565b93506120a3818560208601612904565b80840191505092915050565b60006120bc603283612785565b91506120c782612b53565b604082019050919050565b60006120df601c83612785565b91506120ea82612ba2565b602082019050919050565b6000612102602483612785565b915061210d82612bcb565b604082019050919050565b6000612125601983612785565b915061213082612c1a565b602082019050919050565b6000612148602c83612785565b915061215382612c43565b604082019050919050565b600061216b603883612785565b915061217682612c92565b604082019050919050565b600061218e600e83612785565b915061219982612ce1565b602082019050919050565b60006121b1602a83612785565b91506121bc82612d0a565b604082019050919050565b60006121d4602983612785565b91506121df82612d59565b604082019050919050565b60006121f7602e83612785565b915061220282612da8565b604082019050919050565b600061221a602083612785565b915061222582612df7565b602082019050919050565b600061223d603183612785565b915061224882612e20565b604082019050919050565b6000612260602c83612785565b915061226b82612e6f565b604082019050919050565b6000612283602983612785565b915061228e82612ebe565b604082019050919050565b60006122a6602f83612785565b91506122b182612f0d565b604082019050919050565b60006122c9602183612785565b91506122d482612f5c565b604082019050919050565b60006122ec603183612785565b91506122f782612fab565b604082019050919050565b61230b816128d9565b82525050565b61231a816128d9565b82525050565b600061232c828561207e565b9150612338828461207e565b91508190509392505050565b60006020820190506123596000830184611f81565b92915050565b60006080820190506123746000830187611f81565b6123816020830186611f81565b61238e6040830185612311565b81810360608301526123a08184611ffd565b905095945050505050565b600060208201905081810360008301526123c58184611f90565b905092915050565b60006020820190506123e26000830184611fee565b92915050565b60006020820190506123fd6000830184612036565b92915050565b6000602082019050818103600083015261241d8184612045565b905092915050565b6000602082019050818103600083015261243e816120af565b9050919050565b6000602082019050818103600083015261245e816120d2565b9050919050565b6000602082019050818103600083015261247e816120f5565b9050919050565b6000602082019050818103600083015261249e81612118565b9050919050565b600060208201905081810360008301526124be8161213b565b9050919050565b600060208201905081810360008301526124de8161215e565b9050919050565b600060208201905081810360008301526124fe81612181565b9050919050565b6000602082019050818103600083015261251e816121a4565b9050919050565b6000602082019050818103600083015261253e816121c7565b9050919050565b6000602082019050818103600083015261255e816121ea565b9050919050565b6000602082019050818103600083015261257e8161220d565b9050919050565b6000602082019050818103600083015261259e81612230565b9050919050565b600060208201905081810360008301526125be81612253565b9050919050565b600060208201905081810360008301526125de81612276565b9050919050565b600060208201905081810360008301526125fe81612299565b9050919050565b6000602082019050818103600083015261261e816122bc565b9050919050565b6000602082019050818103600083015261263e816122df565b9050919050565b600060208201905061265a6000830184612311565b92915050565b60006060820190506126756000830186612311565b6126826020830185612311565b81810360408301526126948184612045565b9050949350505050565b60006126a86126b9565b90506126b48282612969565b919050565b6000604051905090565b600067ffffffffffffffff8211156126de576126dd612aff565b5b6126e782612b42565b9050602081019050919050565b600067ffffffffffffffff82111561270f5761270e612aff565b5b61271882612b42565b9050602081019050919050565b6000819050602082019050919050565b600081519050919050565b600081519050919050565b600081519050919050565b6000602082019050919050565b600082825260208201905092915050565b600082825260208201905092915050565b600082825260208201905092915050565b600081905092915050565b60006127ac826128d9565b91506127b7836128d9565b9250827fffffffffffffffffffffffffffffffffffffffffffffffffffffffffffffffff038211156127ec576127eb612a14565b5b828201905092915050565b6000612802826128d9565b915061280d836128d9565b92508261281d5761281c612a43565b5b828204905092915050565b6000612833826128d9565b915061283e836128d9565b92508282101561285157612850612a14565b5b828203905092915050565b6000612867826128b9565b9050919050565b60008115159050919050565b60007fffffffff0000000000000000000000000000000000000000000000000000000082169050919050565b60008190506128b482612ffa565b919050565b600073ffffffffffffffffffffffffffffffffffffffff82169050919050565b6000819050919050565b60006128ee826128a6565b9050919050565b82818337600083830152505050565b60005b83811015612922578082015181840152602081019050612907565b83811115612931576000848401525b50505050565b6000600282049050600182168061294f57607f821691505b6020821081141561296357612962612aa1565b5b50919050565b61297282612b42565b810181811067ffffffffffffffff8211171561299157612990612aff565b5b80604052505050565b60006129a5826128d9565b91507fffffffffffffffffffffffffffffffffffffffffffffffffffffffffffffffff8214156129d8576129d7612a14565b5b600182019050919050565b60006129ee826128d9565b91506129f9836128d9565b925082612a0957612a08612a43565b5b828206905092915050565b7f4e487b7100000000000000000000000000000000000000000000000000000000600052601160045260246000fd5b7f4e487b7100000000000000000000000000000000000000000000000000000000600052601260045260246000fd5b7f4e487b7100000000000000000000000000000000000000000000000000000000600052602160045260246000fd5b7f4e487b7100000000000000000000000000000000000000000000000000000000600052602260045260246000fd5b7f4e487b7100000000000000000000000000000000000000000000000000000000600052603260045260246000fd5b7f4e487b7100000000000000000000000000000000000000000000000000000000600052604160045260246000fd5b600080fd5b600080fd5b600080fd5b600080fd5b6000601f19601f8301169050919050565b7f4552433732313a207472616e7366657220746f206e6f6e20455243373231526560008201527f63656976657220696d706c656d656e7465720000000000000000000000000000602082015250565b7f4552433732313a20746f6b656e20616c7265616479206d696e74656400000000600082015250565b7f4552433732313a207472616e7366657220746f20746865207a65726f2061646460008201527f7265737300000000000000000000000000000000000000000000000000000000602082015250565b7f4552433732313a20617070726f766520746f2063616c6c657200000000000000600082015250565b7f4552433732313a206f70657261746f7220717565727920666f72206e6f6e657860008201527f697374656e7420746f6b656e0000000000000000000000000000000000000000602082015250565b7f4552433732313a20617070726f76652063616c6c6572206973206e6f74206f7760008201527f6e6572206e6f7220617070726f76656420666f7220616c6c0000000000000000602082015250565b7f696e76616c696420747970656964000000000000000000000000000000000000600082015250565b7f4552433732313a2062616c616e636520717565727920666f7220746865207a6560008201527f726f206164647265737300000000000000000000000000000000000000000000602082015250565b7f4552433732313a206f776e657220717565727920666f72206e6f6e657869737460008201527f656e7420746f6b656e0000000000000000000000000000000000000000000000602082015250565b7f45524337323155524953746f726167653a2055524920736574206f66206e6f6e60008201527f6578697374656e7420746f6b656e000000000000000000000000000000000000602082015250565b7f4552433732313a206d696e7420746f20746865207a65726f2061646472657373600082015250565b7f45524337323155524953746f726167653a2055524920717565727920666f722060008201527f6e6f6e6578697374656e7420746f6b656e000000000000000000000000000000602082015250565b7f4552433732313a20617070726f76656420717565727920666f72206e6f6e657860008201527f697374656e7420746f6b656e0000000000000000000000000000000000000000602082015250565b7f4552433732313a207472616e73666572206f6620746f6b656e2074686174206960008201527f73206e6f74206f776e0000000000000000000000000000000000000000000000602082015250565b7f4552433732314d657461646174613a2055524920717565727920666f72206e6f60008201527f6e6578697374656e7420746f6b656e0000000000000000000000000000000000602082015250565b7f4552433732313a20617070726f76616c20746f2063757272656e74206f776e6560008201527f7200000000000000000000000000000000000000000000000000000000000000602082015250565b7f4552433732313a207472616e736665722063616c6c6572206973206e6f74206f60008201527f776e6572206e6f7220617070726f766564000000000000000000000000000000602082015250565b6004811061300b5761300a612a72565b5b50565b6130178161285c565b811461302257600080fd5b50565b61302e8161286e565b811461303957600080fd5b50565b6130458161287a565b811461305057600080fd5b50565b61305c816128d9565b811461306757600080fd5b5056fea2646970667358221220f5ce472937fd8593b4c91be745dbc3b7e130ec3c9e9d3371f17e87b9ed24972764736f6c63430008060033",
  "immutableReferences": {},
  "source": "pragma solidity >=0.7.6 <0.9.0;\n\nimport \"@openzeppelin/contracts/token/ERC721/extensions/ERC721URIStorage.sol\";\n\ncontract SupportChildrenCollectable is ERC721URIStorage {\n    uint256 public tokenCounter;\n    enum Type{FirstDonation, LastDonation, FullCampaingDonation, CampaignSuccessfullyFinished}\n    \n    mapping(uint256 => Type) public tokenIdToType;\n    mapping(address => uint[]) tokenListbyUser;\n    \n    event NFTCreated (\n        uint id,\n        uint nftType,\n        string tokenUrl\n    );\n\n    constructor() ERC721(\"SupportChildrenCollectible\", \"SCC\") {\n        tokenCounter = 0;\n    }\n\n\n    function createCollectible(string memory tokenURI, uint tokenType, address owner) public {\n        require(tokenType < 3, \"invalid typeid\");\n        _safeMint(owner, tokenCounter);\n        _setTokenURI(tokenCounter, tokenURI);\n        tokenIdToType[tokenCounter] = Type(tokenType);\n        tokenListbyUser[owner].push(tokenCounter);\n        emit NFTCreated(tokenCounter, tokenType, tokenURI);\n        tokenCounter = tokenCounter + 1;\n    }\n    \n    function getCollectibleList(address _donor) view public returns (uint[] memory) {\n        return tokenListbyUser[_donor];\n    }\n}",
  "sourcePath": "/home/appmodule/Crypto/support-children/contracts/SupportChildrenCollectable.sol",
  "compiler": {
    "name": "solc",
    "version": "0.8.6+commit.11564f7e.Emscripten.clang"
  },
  "schemaVersion": "3.4.2",
  "updatedAt": "2021-08-09T23:40:23.427Z",
  "networkType": "ethereum",
  "devdoc": {
    "kind": "dev",
    "methods": {
      "approve(address,uint256)": {
        "details": "See {IERC721-approve}."
      },
      "balanceOf(address)": {
        "details": "See {IERC721-balanceOf}."
      },
      "getApproved(uint256)": {
        "details": "See {IERC721-getApproved}."
      },
      "isApprovedForAll(address,address)": {
        "details": "See {IERC721-isApprovedForAll}."
      },
      "name()": {
        "details": "See {IERC721Metadata-name}."
      },
      "ownerOf(uint256)": {
        "details": "See {IERC721-ownerOf}."
      },
      "safeTransferFrom(address,address,uint256)": {
        "details": "See {IERC721-safeTransferFrom}."
      },
      "safeTransferFrom(address,address,uint256,bytes)": {
        "details": "See {IERC721-safeTransferFrom}."
      },
      "setApprovalForAll(address,bool)": {
        "details": "See {IERC721-setApprovalForAll}."
      },
      "supportsInterface(bytes4)": {
        "details": "See {IERC165-supportsInterface}."
      },
      "symbol()": {
        "details": "See {IERC721Metadata-symbol}."
      },
      "tokenURI(uint256)": {
        "details": "See {IERC721Metadata-tokenURI}."
      },
      "transferFrom(address,address,uint256)": {
        "details": "See {IERC721-transferFrom}."
      }
    },
    "version": 1
  },
  "userdoc": {
    "kind": "user",
    "methods": {},
    "version": 1
  }
}