{
  "contractName": "SupportChildren",
  "abi": [
    {
      "anonymous": false,
      "inputs": [
        {
          "indexed": false,
          "internalType": "uint256",
          "name": "campaignId",
          "type": "uint256"
        }
      ],
      "name": "CampaignCreated",
      "type": "event"
    },
    {
      "anonymous": false,
      "inputs": [
        {
          "indexed": false,
          "internalType": "uint256",
          "name": "campaignId",
          "type": "uint256"
        },
        {
          "indexed": false,
          "internalType": "uint256",
          "name": "currentAmount",
          "type": "uint256"
        },
        {
          "indexed": false,
          "internalType": "string[]",
          "name": "notifyEmails",
          "type": "string[]"
        }
      ],
      "name": "CampaignFinished",
      "type": "event"
    },
    {
      "anonymous": false,
      "inputs": [
        {
          "indexed": false,
          "internalType": "uint256",
          "name": "campaignId",
          "type": "uint256"
        },
        {
          "indexed": false,
          "internalType": "uint256",
          "name": "donationAmount",
          "type": "uint256"
        },
        {
          "indexed": false,
          "internalType": "string",
          "name": "notifyEmail",
          "type": "string"
        }
      ],
      "name": "DonationMade",
      "type": "event"
    },
    {
      "inputs": [
        {
          "internalType": "string",
          "name": "_name",
          "type": "string"
        },
        {
          "internalType": "string",
          "name": "_description",
          "type": "string"
        },
        {
          "internalType": "string",
          "name": "_creatorEmail",
          "type": "string"
        },
        {
          "internalType": "string",
          "name": "_image",
          "type": "string"
        },
        {
          "internalType": "uint256",
          "name": "_targetAmount",
          "type": "uint256"
        },
        {
          "internalType": "address payable",
          "name": "_beneficiaryAddress",
          "type": "address"
        }
      ],
      "name": "createCampaign",
      "outputs": [],
      "stateMutability": "nonpayable",
      "type": "function"
    },
    {
      "inputs": [
        {
          "internalType": "uint256",
          "name": "_campaignId",
          "type": "uint256"
        }
      ],
      "name": "endCampaign",
      "outputs": [],
      "stateMutability": "nonpayable",
      "type": "function"
    },
    {
      "inputs": [
        {
          "internalType": "uint256",
          "name": "_campaignId",
          "type": "uint256"
        },
        {
          "internalType": "string",
          "name": "_donorEmail",
          "type": "string"
        }
      ],
      "name": "donate",
      "outputs": [],
      "stateMutability": "payable",
      "type": "function",
      "payable": true
    },
    {
      "inputs": [
        {
          "internalType": "uint256",
          "name": "_campaignId",
          "type": "uint256"
        }
      ],
      "name": "getDonorEmails",
      "outputs": [
        {
          "internalType": "string[]",
          "name": "",
          "type": "string[]"
        }
      ],
      "stateMutability": "view",
      "type": "function",
      "constant": true
    },
    {
      "inputs": [
        {
          "internalType": "address",
          "name": "_donor",
          "type": "address"
        }
      ],
      "name": "getDonorsCampaingsList",
      "outputs": [
        {
          "internalType": "uint256[]",
          "name": "",
          "type": "uint256[]"
        }
      ],
      "stateMutability": "view",
      "type": "function",
      "constant": true
    },
    {
      "inputs": [],
      "name": "getCampaigns",
      "outputs": [
        {
          "components": [
            {
              "internalType": "uint256",
              "name": "id",
              "type": "uint256"
            },
            {
              "internalType": "string",
              "name": "name",
              "type": "string"
            },
            {
              "internalType": "string",
              "name": "description",
              "type": "string"
            },
            {
              "internalType": "string",
              "name": "creatorEmail",
              "type": "string"
            },
            {
              "internalType": "string",
              "name": "image",
              "type": "string"
            },
            {
              "internalType": "uint256",
              "name": "targetAmount",
              "type": "uint256"
            },
            {
              "internalType": "uint256",
              "name": "currentAmount",
              "type": "uint256"
            },
            {
              "internalType": "address payable",
              "name": "beneficiaryAddress",
              "type": "address"
            },
            {
              "internalType": "address",
              "name": "creatorAddress",
              "type": "address"
            },
            {
              "internalType": "bool",
              "name": "active",
              "type": "bool"
            }
          ],
          "internalType": "struct SupportChildren.Campaign[]",
          "name": "",
          "type": "tuple[]"
        }
      ],
      "stateMutability": "view",
      "type": "function",
      "constant": true
    },
    {
      "inputs": [
        {
          "internalType": "uint256",
          "name": "_campaignId",
          "type": "uint256"
        }
      ],
      "name": "getCampaignAmount",
      "outputs": [
        {
          "internalType": "uint256",
          "name": "",
          "type": "uint256"
        }
      ],
      "stateMutability": "view",
      "type": "function",
      "constant": true
    }
  ],
  "bytecode": "0x608060405234801561001057600080fd5b50611f19806100206000396000f3fe6080604052600436106100705760003560e01c8063909f7d661161004e578063909f7d661461010b578063a6b0363314610148578063b168530614610173578063dd0408ae1461019c57610070565b806318fedf0614610075578063296c10f4146100b25780638d59d1f1146100ef575b600080fd5b34801561008157600080fd5b5061009c600480360381019061009791906110b5565b6101c5565b6040516100a991906117ed565b60405180910390f35b3480156100be57600080fd5b506100d960048036038101906100d491906111df565b61025c565b6040516100e691906118af565b60405180910390f35b6101096004803603810190610104919061120c565b61028b565b005b34801561011757600080fd5b50610132600480360381019061012d91906111df565b61050b565b60405161013f91906117a9565b60405180910390f35b34801561015457600080fd5b5061015d6105f7565b60405161016a91906117cb565b60405180910390f35b34801561017f57600080fd5b5061019a600480360381019061019591906110e2565b610984565b005b3480156101a857600080fd5b506101c360048036038101906101be91906111df565b610c07565b005b6060600460008373ffffffffffffffffffffffffffffffffffffffff1673ffffffffffffffffffffffffffffffffffffffff16815260200190815260200160002080548060200260200160405190810160405280929190818152602001828054801561025057602002820191906000526020600020905b81548152602001906001019080831161023c575b50505050509050919050565b60006002828154811061027257610271611d02565b5b9060005260206000209060090201600601549050919050565b6002828154811061029f5761029e611d02565b5b906000526020600020906009020160080160149054906101000a900460ff166102fd576040517f08c379a00000000000000000000000000000000000000000000000000000000081526004016102f49061186f565b60405180910390fd5b60003411610340576040517f08c379a00000000000000000000000000000000000000000000000000000000081526004016103379061180f565b60405180910390fd5b600360008381526020019081526020016000208190806001815401808255809150506001900390600052602060002001600090919091909150908051906020019061038c929190610f63565b50600460003273ffffffffffffffffffffffffffffffffffffffff1673ffffffffffffffffffffffffffffffffffffffff168152602001908152602001600020829080600181540180825580915050600190039060005260206000200160009091909190915055346002838154811061040857610407611d02565b5b9060005260206000209060090201600601546104249190611af4565b6002838154811061043857610437611d02565b5b9060005260206000209060090201600601819055507ffddcfe672c89a3cee8466dfebd67c1f7c83adc2f524e714dd458e5c38e53fe2782346002858154811061048457610483611d02565b5b90600052602060002090600902016003016040516104a493929190611946565b60405180910390a1600282815481106104c0576104bf611d02565b5b906000526020600020906009020160050154600283815481106104e6576104e5611d02565b5b906000526020600020906009020160060154106105075761050682610dff565b5b5050565b606060036000838152602001908152602001600020805480602002602001604051908101604052809291908181526020016000905b828210156105ec57838290600052602060002001805461055f90611bf8565b80601f016020809104026020016040519081016040528092919081815260200182805461058b90611bf8565b80156105d85780601f106105ad576101008083540402835291602001916105d8565b820191906000526020600020905b8154815290600101906020018083116105bb57829003601f168201915b505050505081526020019060010190610540565b505050509050919050565b60606002805480602002602001604051908101604052809291908181526020016000905b8282101561097b5783829060005260206000209060090201604051806101400160405290816000820154815260200160018201805461065990611bf8565b80601f016020809104026020016040519081016040528092919081815260200182805461068590611bf8565b80156106d25780601f106106a7576101008083540402835291602001916106d2565b820191906000526020600020905b8154815290600101906020018083116106b557829003601f168201915b505050505081526020016002820180546106eb90611bf8565b80601f016020809104026020016040519081016040528092919081815260200182805461071790611bf8565b80156107645780601f1061073957610100808354040283529160200191610764565b820191906000526020600020905b81548152906001019060200180831161074757829003601f168201915b5050505050815260200160038201805461077d90611bf8565b80601f01602080910402602001604051908101604052809291908181526020018280546107a990611bf8565b80156107f65780601f106107cb576101008083540402835291602001916107f6565b820191906000526020600020905b8154815290600101906020018083116107d957829003601f168201915b5050505050815260200160048201805461080f90611bf8565b80601f016020809104026020016040519081016040528092919081815260200182805461083b90611bf8565b80156108885780601f1061085d57610100808354040283529160200191610888565b820191906000526020600020905b81548152906001019060200180831161086b57829003601f168201915b5050505050815260200160058201548152602001600682015481526020016007820160009054906101000a900473ffffffffffffffffffffffffffffffffffffffff1673ffffffffffffffffffffffffffffffffffffffff1673ffffffffffffffffffffffffffffffffffffffff1681526020016008820160009054906101000a900473ffffffffffffffffffffffffffffffffffffffff1673ffffffffffffffffffffffffffffffffffffffff1673ffffffffffffffffffffffffffffffffffffffff1681526020016008820160149054906101000a900460ff1615151515815250508152602001906001019061061b565b50505050905090565b600082116109c7576040517f08c379a00000000000000000000000000000000000000000000000000000000081526004016109be9061184f565b60405180910390fd5b60026040518061014001604052806001548152602001888152602001878152602001868152602001858152602001848152602001600081526020018373ffffffffffffffffffffffffffffffffffffffff1681526020013273ffffffffffffffffffffffffffffffffffffffff168152602001600115158152509080600181540180825580915050600190039060005260206000209060090201600090919091909150600082015181600001556020820151816001019080519060200190610a90929190610f63565b506040820151816002019080519060200190610aad929190610f63565b506060820151816003019080519060200190610aca929190610f63565b506080820151816004019080519060200190610ae7929190610f63565b5060a0820151816005015560c0820151816006015560e08201518160070160006101000a81548173ffffffffffffffffffffffffffffffffffffffff021916908373ffffffffffffffffffffffffffffffffffffffff1602179055506101008201518160080160006101000a81548173ffffffffffffffffffffffffffffffffffffffff021916908373ffffffffffffffffffffffffffffffffffffffff1602179055506101208201518160080160146101000a81548160ff02191690831515021790555050507fbc0a5edd152fa5b886dcae82c5c109d113708653b4b9c0224549ccdf715af94e600154604051610bdf91906118af565b60405180910390a160016000815480929190610bfa90611c5b565b9190505550505050505050565b3273ffffffffffffffffffffffffffffffffffffffff1660028281548110610c3257610c31611d02565b5b906000526020600020906009020160080160009054906101000a900473ffffffffffffffffffffffffffffffffffffffff1673ffffffffffffffffffffffffffffffffffffffff1614610cba576040517f08c379a0000000000000000000000000000000000000000000000000000000008152600401610cb19061188f565b60405180910390fd5b6001151560028281548110610cd257610cd1611d02565b5b906000526020600020906009020160080160149054906101000a900460ff16151514610d33576040517f08c379a0000000000000000000000000000000000000000000000000000000008152600401610d2a9061182f565b60405180910390fd5b600060028281548110610d4957610d48611d02565b5b9060005260206000209060090201600601541115610d6f57610d6a81610dff565b610dfc565b7fbc6fdcbbc64181fa5b0a580ffa8643761277b5ab073214c08cce86c7317bf40081600060036000858152602001908152602001600020604051610db5939291906118ca565b60405180910390a1600060028281548110610dd357610dd2611d02565b5b906000526020600020906009020160080160146101000a81548160ff0219169083151502179055505b50565b7fbc6fdcbbc64181fa5b0a580ffa8643761277b5ab073214c08cce86c7317bf4008160028381548110610e3557610e34611d02565b5b90600052602060002090600902016006015460036000858152602001908152602001600020604051610e6993929190611908565b60405180910390a160028181548110610e8557610e84611d02565b5b906000526020600020906009020160070160009054906101000a900473ffffffffffffffffffffffffffffffffffffffff1673ffffffffffffffffffffffffffffffffffffffff166108fc60028381548110610ee457610ee3611d02565b5b9060005260206000209060090201600601549081150290604051600060405180830381858888f19350505050158015610f21573d6000803e3d6000fd5b50600060028281548110610f3857610f37611d02565b5b906000526020600020906009020160080160146101000a81548160ff02191690831515021790555050565b828054610f6f90611bf8565b90600052602060002090601f016020900481019282610f915760008555610fd8565b82601f10610faa57805160ff1916838001178555610fd8565b82800160010185558215610fd8579182015b82811115610fd7578251825591602001919060010190610fbc565b5b509050610fe59190610fe9565b5090565b5b80821115611002576000816000905550600101610fea565b5090565b6000611019611014846119a9565b611984565b90508281526020810184848401111561103557611034611d65565b5b611040848285611bb6565b509392505050565b60008135905061105781611e9e565b92915050565b60008135905061106c81611eb5565b92915050565b600082601f83011261108757611086611d60565b5b8135611097848260208601611006565b91505092915050565b6000813590506110af81611ecc565b92915050565b6000602082840312156110cb576110ca611d6f565b5b60006110d984828501611048565b91505092915050565b60008060008060008060c087890312156110ff576110fe611d6f565b5b600087013567ffffffffffffffff81111561111d5761111c611d6a565b5b61112989828a01611072565b965050602087013567ffffffffffffffff81111561114a57611149611d6a565b5b61115689828a01611072565b955050604087013567ffffffffffffffff81111561117757611176611d6a565b5b61118389828a01611072565b945050606087013567ffffffffffffffff8111156111a4576111a3611d6a565b5b6111b089828a01611072565b93505060806111c189828a016110a0565b92505060a06111d289828a0161105d565b9150509295509295509295565b6000602082840312156111f5576111f4611d6f565b5b6000611203848285016110a0565b91505092915050565b6000806040838503121561122357611222611d6f565b5b6000611231858286016110a0565b925050602083013567ffffffffffffffff81111561125257611251611d6a565b5b61125e85828601611072565b9150509250929050565b600061127483836114b4565b905092915050565b600061128883836114ed565b905092915050565b600061129c838361169c565b905092915050565b60006112b0838361178b565b60208301905092915050565b6112c581611b5c565b82525050565b6112d481611b4a565b82525050565b60006112e582611a34565b6112ef8185611a9f565b935083602082028501611301856119da565b8060005b8581101561133d578484038952815161131e8582611268565b945061132983611a6b565b925060208a01995050600181019050611305565b50829750879550505050505092915050565b600061135a82611a3f565b6113648185611a9f565b935083602082028501611376856119ea565b8060005b858110156113b157848403895281611392858261127c565b945061139d83611a78565b925060208a0199505060018101905061137a565b50829750879550505050505092915050565b60006113ce82611a4a565b6113d88185611ab0565b9350836020820285016113ea856119ff565b8060005b8581101561142657848403895281516114078582611290565b945061141283611a85565b925060208a019950506001810190506113ee565b50829750879550505050505092915050565b600061144382611a55565b61144d8185611ac1565b935061145883611a0f565b8060005b8381101561148957815161147088826112a4565b975061147b83611a92565b92505060018101905061145c565b5085935050505092915050565b61149f81611b6e565b82525050565b6114ae81611ba4565b82525050565b60006114bf82611a60565b6114c98185611ad2565b93506114d9818560208601611bc5565b6114e281611d74565b840191505092915050565b600081546114fa81611bf8565b6115048186611ad2565b9450600182166000811461151f576001811461153157611564565b60ff1983168652602086019350611564565b61153a85611a1f565b60005b8381101561155c5781548189015260018201915060208101905061153d565b808801955050505b50505092915050565b6000815461157a81611bf8565b6115848186611ae3565b9450600182166000811461159f57600181146115b1576115e4565b60ff19831686526020860193506115e4565b6115ba85611a1f565b60005b838110156115dc578154818901526001820191506020810190506115bd565b808801955050505b50505092915050565b60006115fa601e83611ae3565b915061160582611d85565b602082019050919050565b600061161d601583611ae3565b915061162882611dae565b602082019050919050565b6000611640602c83611ae3565b915061164b82611dd7565b604082019050919050565b6000611663601683611ae3565b915061166e82611e26565b602082019050919050565b6000611686602b83611ae3565b915061169182611e4f565b604082019050919050565b6000610140830160008301516116b5600086018261178b565b50602083015184820360208601526116cd82826114b4565b915050604083015184820360408601526116e782826114b4565b9150506060830151848203606086015261170182826114b4565b9150506080830151848203608086015261171b82826114b4565b91505060a083015161173060a086018261178b565b5060c083015161174360c086018261178b565b5060e083015161175660e08601826112bc565b5061010083015161176b6101008601826112cb565b50610120830151611780610120860182611496565b508091505092915050565b61179481611b9a565b82525050565b6117a381611b9a565b82525050565b600060208201905081810360008301526117c381846112da565b905092915050565b600060208201905081810360008301526117e581846113c3565b905092915050565b600060208201905081810360008301526118078184611438565b905092915050565b60006020820190508181036000830152611828816115ed565b9050919050565b6000602082019050818103600083015261184881611610565b9050919050565b6000602082019050818103600083015261186881611633565b9050919050565b6000602082019050818103600083015261188881611656565b9050919050565b600060208201905081810360008301526118a881611679565b9050919050565b60006020820190506118c4600083018461179a565b92915050565b60006060820190506118df600083018661179a565b6118ec60208301856114a5565b81810360408301526118fe818461134f565b9050949350505050565b600060608201905061191d600083018661179a565b61192a602083018561179a565b818103604083015261193c818461134f565b9050949350505050565b600060608201905061195b600083018661179a565b611968602083018561179a565b818103604083015261197a818461156d565b9050949350505050565b600061198e61199f565b905061199a8282611c2a565b919050565b6000604051905090565b600067ffffffffffffffff8211156119c4576119c3611d31565b5b6119cd82611d74565b9050602081019050919050565b6000819050602082019050919050565b60008190508160005260206000209050919050565b6000819050602082019050919050565b6000819050602082019050919050565b60008190508160005260206000209050919050565b600081519050919050565b600081549050919050565b600081519050919050565b600081519050919050565b600081519050919050565b6000602082019050919050565b6000600182019050919050565b6000602082019050919050565b6000602082019050919050565b600082825260208201905092915050565b600082825260208201905092915050565b600082825260208201905092915050565b600082825260208201905092915050565b600082825260208201905092915050565b6000611aff82611b9a565b9150611b0a83611b9a565b9250827fffffffffffffffffffffffffffffffffffffffffffffffffffffffffffffffff03821115611b3f57611b3e611ca4565b5b828201905092915050565b6000611b5582611b7a565b9050919050565b6000611b6782611b7a565b9050919050565b60008115159050919050565b600073ffffffffffffffffffffffffffffffffffffffff82169050919050565b6000819050919050565b6000611baf82611b9a565b9050919050565b82818337600083830152505050565b60005b83811015611be3578082015181840152602081019050611bc8565b83811115611bf2576000848401525b50505050565b60006002820490506001821680611c1057607f821691505b60208210811415611c2457611c23611cd3565b5b50919050565b611c3382611d74565b810181811067ffffffffffffffff82111715611c5257611c51611d31565b5b80604052505050565b6000611c6682611b9a565b91507fffffffffffffffffffffffffffffffffffffffffffffffffffffffffffffffff821415611c9957611c98611ca4565b5b600182019050919050565b7f4e487b7100000000000000000000000000000000000000000000000000000000600052601160045260246000fd5b7f4e487b7100000000000000000000000000000000000000000000000000000000600052602260045260246000fd5b7f4e487b7100000000000000000000000000000000000000000000000000000000600052603260045260246000fd5b7f4e487b7100000000000000000000000000000000000000000000000000000000600052604160045260246000fd5b600080fd5b600080fd5b600080fd5b600080fd5b6000601f19601f8301169050919050565b7f646f6e6174696f6e206d757374206265206c6172676572207468616e20300000600082015250565b7f63616d7061696e677320696e2066696e69736865640000000000000000000000600082015250565b7f63616d706169676e2074617267657420616d6f756e74206d757374206265206c60008201527f6172676572207468616e20300000000000000000000000000000000000000000602082015250565b7f63616d706169676e206973206e6f742061637469766500000000000000000000600082015250565b7f796f75206d7573742062652063726561746f72206f662063616d706169676e2060008201527f746f20636c6f7365206974000000000000000000000000000000000000000000602082015250565b611ea781611b4a565b8114611eb257600080fd5b50565b611ebe81611b5c565b8114611ec957600080fd5b50565b611ed581611b9a565b8114611ee057600080fd5b5056fea2646970667358221220f38908532a3db54587baab703a5aad14c4dbe0b30426bb2b808472fdeb18c1a564736f6c63430008060033",
  "immutableReferences": {},
  "source": "// SPDX-License-Identifier: MIT\npragma solidity >=0.7.0 <0.9.0;\n\ncontract SupportChildren {\n\n    event DonationMade (\n        uint campaignId,\n        uint donationAmount,\n        string notifyEmail\n    );\n\n    event CampaignCreated (\n        uint campaignId\n    );\n\n    event CampaignFinished (\n        uint campaignId,\n        uint currentAmount,\n        string[] notifyEmails\n    );\n    \n    uint campaignIndex;\n    uint count;\n    \n    struct Campaign {\n        uint id;\n        string name; \n        string description;\n        string creatorEmail; \n        string image; \n        uint targetAmount;\n        uint currentAmount;\n        address payable beneficiaryAddress;\n        address creatorAddress;\n        bool active;\n    }\n    \n    Campaign[] campaigns;\n    \n    mapping(uint => string[]) campaignDonationsEmails;\n    mapping(address => uint[]) campaignDonors;\n    \n    function createCampaign(string memory _name, string memory _description, string memory _creatorEmail, string memory _image, uint _targetAmount, address payable _beneficiaryAddress) public {\n        require(_targetAmount > 0, \"campaign target amount must be larger than 0\");\n        campaigns.push(Campaign({\n            id: count,\n            name: _name,\n            description: _description,\n            creatorEmail: _creatorEmail,\n            image: _image,\n            targetAmount: _targetAmount,\n            currentAmount: 0,\n            beneficiaryAddress: _beneficiaryAddress,\n            creatorAddress: tx.origin,\n            active: true\n        }));\n\n        emit CampaignCreated(count);\n        \n        count++;\n    }\n    \n    function endCampaign(uint _campaignId) public {\n        require(campaigns[_campaignId].creatorAddress == tx.origin, \"you must be creator of campaign to close it\");\n        require(campaigns[_campaignId].active == true, \"campaings in finished\");\n        if (campaigns[_campaignId].currentAmount > 0) {\n            finishCampaign(_campaignId);\n        } else {\n            emit CampaignFinished(_campaignId, 0, campaignDonationsEmails[_campaignId]);\n            campaigns[_campaignId].active = false;\n        }\n    }\n\n    function finishCampaign(uint _campaignId) private {\n        emit CampaignFinished(_campaignId, campaigns[_campaignId].currentAmount, campaignDonationsEmails[_campaignId]);\n        // Send ETH to the address of the child\n        campaigns[_campaignId].beneficiaryAddress.transfer(campaigns[_campaignId].currentAmount);\n        campaigns[_campaignId].active = false;\n    }\n\n    // Real ETH donation\n    function donate(uint _campaignId, string memory _donorEmail) payable public {\n        require(campaigns[_campaignId].active, \"campaign is not active\");\n        require(msg.value > 0, \"donation must be larger than 0\");\n        campaignDonationsEmails[_campaignId].push(_donorEmail);\n        campaignDonors[tx.origin].push(_campaignId);\n        campaigns[_campaignId].currentAmount = campaigns[_campaignId].currentAmount  + msg.value;\n\n        emit DonationMade(_campaignId, msg.value, campaigns[_campaignId].creatorEmail);\n\n        if (campaigns[_campaignId].currentAmount >= campaigns[_campaignId].targetAmount) {\n            finishCampaign(_campaignId);\n        }\n    }\n    \n    function getDonorEmails(uint _campaignId) view public returns (string[] memory) {\n        return campaignDonationsEmails[_campaignId];\n    }\n    \n    function getDonorsCampaingsList(address _donor) view public returns (uint[] memory) {\n        return campaignDonors[_donor];\n    }\n    \n    function getCampaigns() public view returns (Campaign[] memory) {\n        return campaigns;\n    }\n\n    function getCampaignAmount(uint _campaignId) public view returns (uint) {\n        return campaigns[_campaignId].currentAmount;\n    }\n    \n}",
  "sourcePath": "/home/kaliman/crypto/support-children/contracts/SupportChildren.sol",
  "compiler": {
    "name": "solc",
    "version": "0.8.6+commit.11564f7e.Emscripten.clang"
  },
  "schemaVersion": "3.4.2",
  "updatedAt": "2021-07-26T13:16:22.802Z",
  "networkType": "ethereum",
  "devdoc": {
    "kind": "dev",
    "methods": {},
    "version": 1
  },
  "userdoc": {
    "kind": "user",
    "methods": {},
    "version": 1
  }
}