{
  "contractName": "SupportChildren",
  "abi": [
    {
      "anonymous": false,
      "inputs": [
        {
          "indexed": false,
          "internalType": "uint256",
          "name": "campaignId",
          "type": "uint256"
        }
      ],
      "name": "CampaignCreated",
      "type": "event"
    },
    {
      "anonymous": false,
      "inputs": [
        {
          "indexed": false,
          "internalType": "uint256",
          "name": "campaignId",
          "type": "uint256"
        },
        {
          "indexed": false,
          "internalType": "uint256",
          "name": "currentAmount",
          "type": "uint256"
        },
        {
          "indexed": false,
          "internalType": "string[]",
          "name": "notifyEmails",
          "type": "string[]"
        }
      ],
      "name": "CampaignFinished",
      "type": "event"
    },
    {
      "anonymous": false,
      "inputs": [
        {
          "indexed": false,
          "internalType": "uint256",
          "name": "campaignId",
          "type": "uint256"
        },
        {
          "indexed": false,
          "internalType": "string",
          "name": "campaignImage",
          "type": "string"
        },
        {
          "indexed": false,
          "internalType": "uint256",
          "name": "nftType",
          "type": "uint256"
        }
      ],
      "name": "CreateNFT",
      "type": "event"
    },
    {
      "anonymous": false,
      "inputs": [
        {
          "indexed": false,
          "internalType": "uint256",
          "name": "campaignId",
          "type": "uint256"
        },
        {
          "indexed": false,
          "internalType": "uint256",
          "name": "donationAmount",
          "type": "uint256"
        },
        {
          "indexed": false,
          "internalType": "string",
          "name": "notifyEmail",
          "type": "string"
        },
        {
          "indexed": false,
          "internalType": "address",
          "name": "token",
          "type": "address"
        }
      ],
      "name": "DonationMade",
      "type": "event"
    },
    {
      "inputs": [],
      "name": "quoter",
      "outputs": [
        {
          "internalType": "contract IQuoter",
          "name": "",
          "type": "address"
        }
      ],
      "stateMutability": "view",
      "type": "function",
      "constant": true
    },
    {
      "inputs": [],
      "name": "uniswapRouter",
      "outputs": [
        {
          "internalType": "contract IUniswapRouter",
          "name": "",
          "type": "address"
        }
      ],
      "stateMutability": "view",
      "type": "function",
      "constant": true
    },
    {
      "stateMutability": "payable",
      "type": "receive",
      "payable": true
    },
    {
      "inputs": [
        {
          "internalType": "string",
          "name": "_name",
          "type": "string"
        },
        {
          "internalType": "string",
          "name": "_description",
          "type": "string"
        },
        {
          "internalType": "string",
          "name": "_creatorEmail",
          "type": "string"
        },
        {
          "internalType": "string",
          "name": "_image",
          "type": "string"
        },
        {
          "internalType": "uint256",
          "name": "_endTimestamp",
          "type": "uint256"
        },
        {
          "internalType": "address",
          "name": "_targetCurrency",
          "type": "address"
        },
        {
          "internalType": "uint256",
          "name": "_targetAmount",
          "type": "uint256"
        },
        {
          "internalType": "address payable",
          "name": "_beneficiaryAddress",
          "type": "address"
        }
      ],
      "name": "createCampaign",
      "outputs": [],
      "stateMutability": "nonpayable",
      "type": "function"
    },
    {
      "inputs": [
        {
          "internalType": "uint256",
          "name": "_campaignId",
          "type": "uint256"
        }
      ],
      "name": "endCampaign",
      "outputs": [],
      "stateMutability": "nonpayable",
      "type": "function"
    },
    {
      "inputs": [
        {
          "internalType": "uint256",
          "name": "_campaignId",
          "type": "uint256"
        },
        {
          "internalType": "string",
          "name": "_name",
          "type": "string"
        },
        {
          "internalType": "string",
          "name": "_description",
          "type": "string"
        },
        {
          "internalType": "string",
          "name": "_creatorEmail",
          "type": "string"
        },
        {
          "internalType": "string",
          "name": "_image",
          "type": "string"
        }
      ],
      "name": "editCampaign",
      "outputs": [],
      "stateMutability": "nonpayable",
      "type": "function"
    },
    {
      "inputs": [
        {
          "internalType": "uint256",
          "name": "_campaignId",
          "type": "uint256"
        },
        {
          "internalType": "string",
          "name": "_donorEmail",
          "type": "string"
        }
      ],
      "name": "donateEthToEthCampaign",
      "outputs": [],
      "stateMutability": "payable",
      "type": "function",
      "payable": true
    },
    {
      "inputs": [
        {
          "internalType": "uint256",
          "name": "_campaignId",
          "type": "uint256"
        },
        {
          "internalType": "string",
          "name": "_donorEmail",
          "type": "string"
        }
      ],
      "name": "donateEthToTokenCampaign",
      "outputs": [],
      "stateMutability": "payable",
      "type": "function",
      "payable": true
    },
    {
      "inputs": [
        {
          "internalType": "uint256",
          "name": "_campaignId",
          "type": "uint256"
        },
        {
          "internalType": "string",
          "name": "_donorEmail",
          "type": "string"
        },
        {
          "internalType": "address",
          "name": "token",
          "type": "address"
        },
        {
          "internalType": "uint256",
          "name": "amountOut",
          "type": "uint256"
        },
        {
          "internalType": "uint256",
          "name": "amountInMax",
          "type": "uint256"
        }
      ],
      "name": "donateTokenToETHCampaign",
      "outputs": [],
      "stateMutability": "nonpayable",
      "type": "function"
    },
    {
      "inputs": [
        {
          "internalType": "uint256",
          "name": "_campaignId",
          "type": "uint256"
        },
        {
          "internalType": "string",
          "name": "_donorEmail",
          "type": "string"
        },
        {
          "internalType": "address",
          "name": "tokenIn",
          "type": "address"
        },
        {
          "internalType": "uint256",
          "name": "amountOut",
          "type": "uint256"
        },
        {
          "internalType": "uint256",
          "name": "amountInMax",
          "type": "uint256"
        }
      ],
      "name": "donateTokenToTokenCampaign",
      "outputs": [],
      "stateMutability": "nonpayable",
      "type": "function"
    },
    {
      "inputs": [
        {
          "internalType": "uint256",
          "name": "_campaignId",
          "type": "uint256"
        }
      ],
      "name": "getDonorEmails",
      "outputs": [
        {
          "internalType": "string[]",
          "name": "",
          "type": "string[]"
        }
      ],
      "stateMutability": "view",
      "type": "function",
      "constant": true
    },
    {
      "inputs": [
        {
          "internalType": "address",
          "name": "_donor",
          "type": "address"
        }
      ],
      "name": "getDonorsCampaingsList",
      "outputs": [
        {
          "internalType": "uint256[]",
          "name": "",
          "type": "uint256[]"
        }
      ],
      "stateMutability": "view",
      "type": "function",
      "constant": true
    },
    {
      "inputs": [],
      "name": "getCampaigns",
      "outputs": [
        {
          "components": [
            {
              "internalType": "uint256",
              "name": "id",
              "type": "uint256"
            },
            {
              "internalType": "string",
              "name": "name",
              "type": "string"
            },
            {
              "internalType": "string",
              "name": "description",
              "type": "string"
            },
            {
              "internalType": "string",
              "name": "creatorEmail",
              "type": "string"
            },
            {
              "internalType": "string",
              "name": "image",
              "type": "string"
            },
            {
              "internalType": "address",
              "name": "targetCurrency",
              "type": "address"
            },
            {
              "internalType": "uint256",
              "name": "targetAmount",
              "type": "uint256"
            },
            {
              "internalType": "uint256",
              "name": "currentAmount",
              "type": "uint256"
            },
            {
              "internalType": "uint256",
              "name": "amountInWeth",
              "type": "uint256"
            },
            {
              "internalType": "address payable",
              "name": "beneficiaryAddress",
              "type": "address"
            },
            {
              "internalType": "address",
              "name": "creatorAddress",
              "type": "address"
            },
            {
              "internalType": "bool",
              "name": "active",
              "type": "bool"
            },
            {
              "internalType": "uint256",
              "name": "endTimestamp",
              "type": "uint256"
            }
          ],
          "internalType": "struct SupportChildren.Campaign[]",
          "name": "",
          "type": "tuple[]"
        }
      ],
      "stateMutability": "view",
      "type": "function",
      "constant": true
    },
    {
      "inputs": [
        {
          "internalType": "uint256",
          "name": "_campaignId",
          "type": "uint256"
        }
      ],
      "name": "getCampaignAmount",
      "outputs": [
        {
          "internalType": "uint256",
          "name": "",
          "type": "uint256"
        }
      ],
      "stateMutability": "view",
      "type": "function",
      "constant": true
    }
  ],
  "bytecode": "0x608060405234801561001057600080fd5b50614f63806100206000396000f3fe6080604052600436106100c65760003560e01c8063af0f42ee1161007f578063dd0408ae11610059578063dd0408ae14610285578063e0c6b5f9146102ae578063e981dc02146102d7578063f798b2c7146102f3576100cd565b8063af0f42ee14610208578063c6bbd5a714610231578063c8d865641461025c576100cd565b806311862ab1146100d257806318fedf06146100fb578063296c10f414610138578063735de9f714610175578063909f7d66146101a0578063a6b03633146101dd576100cd565b366100cd57005b600080fd5b3480156100de57600080fd5b506100f960048036038101906100f491906136e3565b61030f565b005b34801561010757600080fd5b50610122600480360381019061011d91906134ad565b6106b1565b60405161012f9190614203565b60405180910390f35b34801561014457600080fd5b5061015f600480360381019061015a919061362d565b610748565b60405161016c91906144b3565b60405180910390f35b34801561018157600080fd5b5061018a610777565b6040516101979190614240565b60405180910390f35b3480156101ac57600080fd5b506101c760048036038101906101c2919061362d565b61078f565b6040516101d491906141bf565b60405180910390f35b3480156101e957600080fd5b506101f261087b565b6040516101ff91906141e1565b60405180910390f35b34801561021457600080fd5b5061022f600480360381019061022a919061377a565b610c72565b005b34801561023d57600080fd5b50610246610ef8565b6040516102539190614225565b60405180910390f35b34801561026857600080fd5b50610283600480360381019061027e91906136e3565b610f10565b005b34801561029157600080fd5b506102ac60048036038101906102a7919061362d565b61129e565b005b3480156102ba57600080fd5b506102d560048036038101906102d09190613507565b611501565b005b6102f160048036038101906102ec9190613687565b61184f565b005b61030d60048036038101906103089190613687565b611fc1565b005b84600115156002828154811061032857610327614ad7565b5b90600052602060002090600c0201600a0160149054906101000a900460ff16151514610389576040517f08c379a00000000000000000000000000000000000000000000000000000000081526004016103809061439b565b60405180910390fd5b426002828154811061039e5761039d614ad7565b5b90600052602060002090600c0201600b0154116103f0576040517f08c379a00000000000000000000000000000000000000000000000000000000081526004016103e79061441b565b60405180910390fd5b60008211610433576040517f08c379a000000000000000000000000000000000000000000000000000000000815260040161042a9061435b565b60405180910390fd5b60008311610476576040517f08c379a000000000000000000000000000000000000000000000000000000000815260040161046d9061435b565b60405180910390fd5b6000610483858585612306565b905060036000888152602001908152602001600020869080600181540180825580915050600190039060005260206000200160009091909190915090805190602001906104d1929190613331565b50600460003273ffffffffffffffffffffffffffffffffffffffff1673ffffffffffffffffffffffffffffffffffffffff168152602001908152602001600020879080600181540180825580915050600190039060005260206000200160009091909190915055836002888154811061054d5761054c614ad7565b5b90600052602060002090600c02016008015461056991906147c0565b6002888154811061057d5761057c614ad7565b5b90600052602060002090600c02016008018190555083600288815481106105a7576105a6614ad7565b5b90600052602060002090600c0201600701546105c391906147c0565b600288815481106105d7576105d6614ad7565b5b90600052602060002090600c0201600701819055507fe3a6b824a5dcd9cc376de3c8eddd6aef4d82cce288e42272e2b874fa54f2d51a878260028a8154811061062357610622614ad7565b5b90600052602060002090600c0201600301886040516106459493929190614604565b60405180910390a16002878154811061066157610660614ad7565b5b90600052602060002090600c0201600601546002888154811061068757610686614ad7565b5b90600052602060002090600c020160070154106106a8576106a78761277c565b5b50505050505050565b6060600460008373ffffffffffffffffffffffffffffffffffffffff1673ffffffffffffffffffffffffffffffffffffffff16815260200190815260200160002080548060200260200160405190810160405280929190818152602001828054801561073c57602002820191906000526020600020905b815481526020019060010190808311610728575b50505050509050919050565b60006002828154811061075e5761075d614ad7565b5b90600052602060002090600c0201600701549050919050565b73e592427a0aece92de3edee1f18e0157c0586156481565b606060036000838152602001908152602001600020805480602002602001604051908101604052809291908181526020016000905b828210156108705783829060005260206000200180546107e3906149cd565b80601f016020809104026020016040519081016040528092919081815260200182805461080f906149cd565b801561085c5780601f106108315761010080835404028352916020019161085c565b820191906000526020600020905b81548152906001019060200180831161083f57829003601f168201915b5050505050815260200190600101906107c4565b505050509050919050565b60606002805480602002602001604051908101604052809291908181526020016000905b82821015610c6957838290600052602060002090600c0201604051806101a0016040529081600082015481526020016001820180546108dd906149cd565b80601f0160208091040260200160405190810160405280929190818152602001828054610909906149cd565b80156109565780601f1061092b57610100808354040283529160200191610956565b820191906000526020600020905b81548152906001019060200180831161093957829003601f168201915b5050505050815260200160028201805461096f906149cd565b80601f016020809104026020016040519081016040528092919081815260200182805461099b906149cd565b80156109e85780601f106109bd576101008083540402835291602001916109e8565b820191906000526020600020905b8154815290600101906020018083116109cb57829003601f168201915b50505050508152602001600382018054610a01906149cd565b80601f0160208091040260200160405190810160405280929190818152602001828054610a2d906149cd565b8015610a7a5780601f10610a4f57610100808354040283529160200191610a7a565b820191906000526020600020905b815481529060010190602001808311610a5d57829003601f168201915b50505050508152602001600482018054610a93906149cd565b80601f0160208091040260200160405190810160405280929190818152602001828054610abf906149cd565b8015610b0c5780601f10610ae157610100808354040283529160200191610b0c565b820191906000526020600020905b815481529060010190602001808311610aef57829003601f168201915b505050505081526020016005820160009054906101000a900473ffffffffffffffffffffffffffffffffffffffff1673ffffffffffffffffffffffffffffffffffffffff1673ffffffffffffffffffffffffffffffffffffffff1681526020016006820154815260200160078201548152602001600882015481526020016009820160009054906101000a900473ffffffffffffffffffffffffffffffffffffffff1673ffffffffffffffffffffffffffffffffffffffff1673ffffffffffffffffffffffffffffffffffffffff168152602001600a820160009054906101000a900473ffffffffffffffffffffffffffffffffffffffff1673ffffffffffffffffffffffffffffffffffffffff1673ffffffffffffffffffffffffffffffffffffffff168152602001600a820160149054906101000a900460ff16151515158152602001600b820154815250508152602001906001019061089f565b50505050905090565b846001151560028281548110610c8b57610c8a614ad7565b5b90600052602060002090600c0201600a0160149054906101000a900460ff16151514610cec576040517f08c379a0000000000000000000000000000000000000000000000000000000008152600401610ce39061439b565b60405180910390fd5b4260028281548110610d0157610d00614ad7565b5b90600052602060002090600c0201600b015411610d53576040517f08c379a0000000000000000000000000000000000000000000000000000000008152600401610d4a9061441b565b60405180910390fd5b853273ffffffffffffffffffffffffffffffffffffffff1660028281548110610d7f57610d7e614ad7565b5b90600052602060002090600c0201600a0160009054906101000a900473ffffffffffffffffffffffffffffffffffffffff1673ffffffffffffffffffffffffffffffffffffffff1614610e07576040517f08c379a0000000000000000000000000000000000000000000000000000000008152600401610dfe906143db565b60405180910390fd5b8560028881548110610e1c57610e1b614ad7565b5b90600052602060002090600c02016001019080519060200190610e40929190613331565b508460028881548110610e5657610e55614ad7565b5b90600052602060002090600c02016002019080519060200190610e7a929190613331565b508360028881548110610e9057610e8f614ad7565b5b90600052602060002090600c02016003019080519060200190610eb4929190613331565b508260028881548110610eca57610ec9614ad7565b5b90600052602060002090600c02016004019080519060200190610eee929190613331565b5050505050505050565b73b27308f9f90d607463bb33ea1bebb41c27ce5ab681565b846001151560028281548110610f2957610f28614ad7565b5b90600052602060002090600c0201600a0160149054906101000a900460ff16151514610f8a576040517f08c379a0000000000000000000000000000000000000000000000000000000008152600401610f819061439b565b60405180910390fd5b4260028281548110610f9f57610f9e614ad7565b5b90600052602060002090600c0201600b015411610ff1576040517f08c379a0000000000000000000000000000000000000000000000000000000008152600401610fe89061441b565b60405180910390fd5b60008211611034576040517f08c379a000000000000000000000000000000000000000000000000000000000815260040161102b9061435b565b60405180910390fd5b60008311611077576040517f08c379a000000000000000000000000000000000000000000000000000000000815260040161106e9061435b565b60405180910390fd5b60006110ca856002898154811061109157611090614ad7565b5b90600052602060002090600c020160050160009054906101000a900473ffffffffffffffffffffffffffffffffffffffff168686612cbb565b90506003600088815260200190815260200160002086908060018154018082558091505060019003906000526020600020016000909190919091509080519060200190611118929190613331565b50600460003273ffffffffffffffffffffffffffffffffffffffff1673ffffffffffffffffffffffffffffffffffffffff168152602001908152602001600020879080600181540180825580915050600190039060005260206000200160009091909190915055836002888154811061119457611193614ad7565b5b90600052602060002090600c0201600701546111b091906147c0565b600288815481106111c4576111c3614ad7565b5b90600052602060002090600c0201600701819055507fe3a6b824a5dcd9cc376de3c8eddd6aef4d82cce288e42272e2b874fa54f2d51a878260028a815481106112105761120f614ad7565b5b90600052602060002090600c0201600301886040516112329493929190614604565b60405180910390a16002878154811061124e5761124d614ad7565b5b90600052602060002090600c0201600601546002888154811061127457611273614ad7565b5b90600052602060002090600c02016007015410611295576112948761277c565b5b50505050505050565b8060011515600282815481106112b7576112b6614ad7565b5b90600052602060002090600c0201600a0160149054906101000a900460ff16151514611318576040517f08c379a000000000000000000000000000000000000000000000000000000000815260040161130f9061439b565b60405180910390fd5b426002828154811061132d5761132c614ad7565b5b90600052602060002090600c0201600b01541161137f576040517f08c379a00000000000000000000000000000000000000000000000000000000081526004016113769061441b565b60405180910390fd5b813273ffffffffffffffffffffffffffffffffffffffff16600282815481106113ab576113aa614ad7565b5b90600052602060002090600c0201600a0160009054906101000a900473ffffffffffffffffffffffffffffffffffffffff1673ffffffffffffffffffffffffffffffffffffffff1614611433576040517f08c379a000000000000000000000000000000000000000000000000000000000815260040161142a906143db565b60405180910390fd5b60006002848154811061144957611448614ad7565b5b90600052602060002090600c020160070154111561146f5761146a8361277c565b6114fc565b7fbc6fdcbbc64181fa5b0a580ffa8643761277b5ab073214c08cce86c7317bf400836000600360008781526020019081526020016000206040516114b5939291906144ce565b60405180910390a16000600284815481106114d3576114d2614ad7565b5b90600052602060002090600c0201600a0160146101000a81548160ff0219169083151502179055505b505050565b60008211611544576040517f08c379a000000000000000000000000000000000000000000000000000000000815260040161153b906143bb565b60405180910390fd5b428411611586576040517f08c379a000000000000000000000000000000000000000000000000000000000815260040161157d906143fb565b60405180910390fd5b6002604051806101a0016040528060015481526020018a81526020018981526020018881526020018781526020018573ffffffffffffffffffffffffffffffffffffffff16815260200184815260200160008152602001600081526020018373ffffffffffffffffffffffffffffffffffffffff1681526020013273ffffffffffffffffffffffffffffffffffffffff1681526020016001151581526020018681525090806001815401808255809150506001900390600052602060002090600c0201600090919091909150600082015181600001556020820151816001019080519060200190611678929190613331565b506040820151816002019080519060200190611695929190613331565b5060608201518160030190805190602001906116b2929190613331565b5060808201518160040190805190602001906116cf929190613331565b5060a08201518160050160006101000a81548173ffffffffffffffffffffffffffffffffffffffff021916908373ffffffffffffffffffffffffffffffffffffffff16021790555060c0820151816006015560e0820151816007015561010082015181600801556101208201518160090160006101000a81548173ffffffffffffffffffffffffffffffffffffffff021916908373ffffffffffffffffffffffffffffffffffffffff16021790555061014082015181600a0160006101000a81548173ffffffffffffffffffffffffffffffffffffffff021916908373ffffffffffffffffffffffffffffffffffffffff16021790555061016082015181600a0160146101000a81548160ff02191690831515021790555061018082015181600b015550507fbc0a5edd152fa5b886dcae82c5c109d113708653b4b9c0224549ccdf715af94e60015460405161182591906144b3565b60405180910390a16001600081548092919061184090614a30565b91905055505050505050505050565b81600115156002828154811061186857611867614ad7565b5b90600052602060002090600c0201600a0160149054906101000a900460ff161515146118c9576040517f08c379a00000000000000000000000000000000000000000000000000000000081526004016118c09061439b565b60405180910390fd5b42600282815481106118de576118dd614ad7565b5b90600052602060002090600c0201600b015411611930576040517f08c379a00000000000000000000000000000000000000000000000000000000081526004016119279061441b565b60405180910390fd5b823273ffffffffffffffffffffffffffffffffffffffff166002828154811061195c5761195b614ad7565b5b90600052602060002090600c0201600a0160009054906101000a900473ffffffffffffffffffffffffffffffffffffffff1673ffffffffffffffffffffffffffffffffffffffff1614156119e5576040517f08c379a00000000000000000000000000000000000000000000000000000000081526004016119dc906142fb565b60405180910390fd5b833273ffffffffffffffffffffffffffffffffffffffff1660028281548110611a1157611a10614ad7565b5b90600052602060002090600c020160090160009054906101000a900473ffffffffffffffffffffffffffffffffffffffff1673ffffffffffffffffffffffffffffffffffffffff161415611a9a576040517f08c379a0000000000000000000000000000000000000000000000000000000008152600401611a91906142db565b60405180910390fd5b843073ffffffffffffffffffffffffffffffffffffffff1660028281548110611ac657611ac5614ad7565b5b90600052602060002090600c020160050160009054906101000a900473ffffffffffffffffffffffffffffffffffffffff1673ffffffffffffffffffffffffffffffffffffffff1614611b4e576040517f08c379a0000000000000000000000000000000000000000000000000000000008152600401611b45906142bb565b60405180910390fd5b60003411611b91576040517f08c379a0000000000000000000000000000000000000000000000000000000008152600401611b889061425b565b60405180910390fd5b60028681548110611ba557611ba4614ad7565b5b90600052602060002090600c020160060154600b611bc39190614816565b600a3460028981548110611bda57611bd9614ad7565b5b90600052602060002090600c020160070154611bf691906147c0565b611c009190614816565b10611c40576040517f08c379a0000000000000000000000000000000000000000000000000000000008152600401611c379061429b565b60405180910390fd5b600060028781548110611c5657611c55614ad7565b5b90600052602060002090600c02016007015490506003600088815260200190815260200160002086908060018154018082558091505060019003906000526020600020016000909190919091509080519060200190611cb6929190613331565b50600460003273ffffffffffffffffffffffffffffffffffffffff1673ffffffffffffffffffffffffffffffffffffffff1681526020019081526020016000208790806001815401808255809150506001900390600052602060002001600090919091909150553460028881548110611d3257611d31614ad7565b5b90600052602060002090600c020160070154611d4e91906147c0565b60028881548110611d6257611d61614ad7565b5b90600052602060002090600c0201600701819055507fe3a6b824a5dcd9cc376de3c8eddd6aef4d82cce288e42272e2b874fa54f2d51a873460028a81548110611dae57611dad614ad7565b5b90600052602060002090600c020160030130604051611dd09493929190614604565b60405180910390a16000811415611ef45760028781548110611df557611df4614ad7565b5b90600052602060002090600c02016006015460028881548110611e1b57611e1a614ad7565b5b90600052602060002090600c02016007015410611e93577f3b7e7e43da4efbcdd1006b7dd791491eeeae82429c2793a71b72b08ef743eb338760028981548110611e6857611e67614ad7565b5b90600052602060002090600c02016004016002604051611e8a93929190614588565b60405180910390a15b7f3b7e7e43da4efbcdd1006b7dd791491eeeae82429c2793a71b72b08ef743eb338760028981548110611ec957611ec8614ad7565b5b90600052602060002090600c02016004016000604051611eeb9392919061450c565b60405180910390a15b60028781548110611f0857611f07614ad7565b5b90600052602060002090600c02016006015460028881548110611f2e57611f2d614ad7565b5b90600052602060002090600c02016007015410611fb857611f4e8761277c565b60008114611fb7577f3b7e7e43da4efbcdd1006b7dd791491eeeae82429c2793a71b72b08ef743eb338760028981548110611f8c57611f8b614ad7565b5b90600052602060002090600c02016004016001604051611fae9392919061454a565b60405180910390a15b5b50505050505050565b816001151560028281548110611fda57611fd9614ad7565b5b90600052602060002090600c0201600a0160149054906101000a900460ff1615151461203b576040517f08c379a00000000000000000000000000000000000000000000000000000000081526004016120329061439b565b60405180910390fd5b42600282815481106120505761204f614ad7565b5b90600052602060002090600c0201600b0154116120a2576040517f08c379a00000000000000000000000000000000000000000000000000000000081526004016120999061441b565b60405180910390fd5b600034116120e5576040517f08c379a00000000000000000000000000000000000000000000000000000000081526004016120dc9061425b565b60405180910390fd5b6000612135600285815481106120fe576120fd614ad7565b5b90600052602060002090600c020160050160009054906101000a900473ffffffffffffffffffffffffffffffffffffffff16613112565b90506003600085815260200190815260200160002083908060018154018082558091505060019003906000526020600020016000909190919091509080519060200190612183929190613331565b50600460003273ffffffffffffffffffffffffffffffffffffffff1673ffffffffffffffffffffffffffffffffffffffff16815260200190815260200160002084908060018154018082558091505060019003906000526020600020016000909190919091505580600285815481106121ff576121fe614ad7565b5b90600052602060002090600c02016007015461221b91906147c0565b6002858154811061222f5761222e614ad7565b5b90600052602060002090600c0201600701819055507fe3a6b824a5dcd9cc376de3c8eddd6aef4d82cce288e42272e2b874fa54f2d51a84346002878154811061227b5761227a614ad7565b5b90600052602060002090600c02016003013060405161229d9493929190614604565b60405180910390a1600284815481106122b9576122b8614ad7565b5b90600052602060002090600c020160060154600285815481106122df576122de614ad7565b5b90600052602060002090600c02016007015410612300576122ff8461277c565b5b50505050565b6000808473ffffffffffffffffffffffffffffffffffffffff1663dd62ed3e33306040518363ffffffff1660e01b8152600401612344929190614136565b60206040518083038186803b15801561235c57600080fd5b505afa158015612370573d6000803e3d6000fd5b505050506040513d601f19601f82011682018060405250810190612394919061365a565b9050828110156123d9576040517f08c379a00000000000000000000000000000000000000000000000000000000081526004016123d09061431b565b60405180910390fd5b8473ffffffffffffffffffffffffffffffffffffffff166323b872dd3330866040518463ffffffff1660e01b81526004016124169392919061415f565b602060405180830381600087803b15801561243057600080fd5b505af1158015612444573d6000803e3d6000fd5b505050506040513d601f19601f8201168201806040525081019061246891906134da565b506000600f4261247891906147c0565b90506000869050600073c02aaa39b223fe8d0a0e5c4f27ead9083c756cc290506000610bb89050600030905060008a73ffffffffffffffffffffffffffffffffffffffff1663095ea7b373e592427a0aece92de3edee1f18e0157c058615648b6040518363ffffffff1660e01b81526004016124f5929190614196565b602060405180830381600087803b15801561250f57600080fd5b505af1158015612523573d6000803e3d6000fd5b505050506040513d601f19601f8201168201806040525081019061254791906134da565b5060006040518061010001604052808773ffffffffffffffffffffffffffffffffffffffff1681526020018673ffffffffffffffffffffffffffffffffffffffff1681526020018562ffffff1681526020018473ffffffffffffffffffffffffffffffffffffffff1681526020018881526020018c81526020018b81526020018373ffffffffffffffffffffffffffffffffffffffff168152509050600073e592427a0aece92de3edee1f18e0157c0586156473ffffffffffffffffffffffffffffffffffffffff1663db3e2198836040518263ffffffff1660e01b81526004016126329190614497565b602060405180830381600087803b15801561264c57600080fd5b505af1158015612660573d6000803e3d6000fd5b505050506040513d601f19601f82011682018060405250810190612684919061365a565b90506000818c6126949190614870565b905060008e73ffffffffffffffffffffffffffffffffffffffff1663a9059cbb33846040518363ffffffff1660e01b81526004016126d3929190614196565b602060405180830381600087803b1580156126ed57600080fd5b505af1158015612701573d6000803e3d6000fd5b505050506040513d601f19601f8201168201806040525081019061272591906134da565b905080612767576040517f08c379a000000000000000000000000000000000000000000000000000000000815260040161275e9061445b565b60405180910390fd5b829b5050505050505050505050509392505050565b7fbc6fdcbbc64181fa5b0a580ffa8643761277b5ab073214c08cce86c7317bf40081600283815481106127b2576127b1614ad7565b5b90600052602060002090600c020160070154600360008581526020019081526020016000206040516127e6939291906145c6565b60405180910390a13073ffffffffffffffffffffffffffffffffffffffff166002828154811061281957612818614ad7565b5b90600052602060002090600c020160050160009054906101000a900473ffffffffffffffffffffffffffffffffffffffff1673ffffffffffffffffffffffffffffffffffffffff161415612b3d5760006002828154811061287d5761287c614ad7565b5b90600052602060002090600c0201600801541115612a8657600281815481106128a9576128a8614ad7565b5b90600052602060002090600c020160090160009054906101000a900473ffffffffffffffffffffffffffffffffffffffff1673ffffffffffffffffffffffffffffffffffffffff166108fc6002838154811061290857612907614ad7565b5b90600052602060002090600c0201600801546002848154811061292e5761292d614ad7565b5b90600052602060002090600c02016007015461294a9190614870565b9081150290604051600060405180830381858888f19350505050158015612975573d6000803e3d6000fd5b50600073c02aaa39b223fe8d0a0e5c4f27ead9083c756cc273ffffffffffffffffffffffffffffffffffffffff1663a9059cbb33600285815481106129bd576129bc614ad7565b5b90600052602060002090600c0201600801546040518363ffffffff1660e01b81526004016129ec929190614196565b602060405180830381600087803b158015612a0657600080fd5b505af1158015612a1a573d6000803e3d6000fd5b505050506040513d601f19601f82011682018060405250810190612a3e91906134da565b905080612a80576040517f08c379a0000000000000000000000000000000000000000000000000000000008152600401612a779061437b565b60405180910390fd5b50612b38565b60028181548110612a9a57612a99614ad7565b5b90600052602060002090600c020160090160009054906101000a900473ffffffffffffffffffffffffffffffffffffffff1673ffffffffffffffffffffffffffffffffffffffff166108fc60028381548110612af957612af8614ad7565b5b90600052602060002090600c0201600701549081150290604051600060405180830381858888f19350505050158015612b36573d6000803e3d6000fd5b505b612c7a565b600060028281548110612b5357612b52614ad7565b5b90600052602060002090600c020160050160009054906101000a900473ffffffffffffffffffffffffffffffffffffffff1673ffffffffffffffffffffffffffffffffffffffff1663a9059cbb3360028581548110612bb557612bb4614ad7565b5b90600052602060002090600c0201600701546040518363ffffffff1660e01b8152600401612be4929190614196565b602060405180830381600087803b158015612bfe57600080fd5b505af1158015612c12573d6000803e3d6000fd5b505050506040513d601f19601f82011682018060405250810190612c3691906134da565b905080612c78576040517f08c379a0000000000000000000000000000000000000000000000000000000008152600401612c6f9061433b565b60405180910390fd5b505b600060028281548110612c9057612c8f614ad7565b5b90600052602060002090600c0201600a0160146101000a81548160ff02191690831515021790555050565b6000808573ffffffffffffffffffffffffffffffffffffffff1663dd62ed3e33306040518363ffffffff1660e01b8152600401612cf9929190614136565b60206040518083038186803b158015612d1157600080fd5b505afa158015612d25573d6000803e3d6000fd5b505050506040513d601f19601f82011682018060405250810190612d49919061365a565b905082811015612d8e576040517f08c379a0000000000000000000000000000000000000000000000000000000008152600401612d859061431b565b60405180910390fd5b8573ffffffffffffffffffffffffffffffffffffffff166323b872dd3330866040518463ffffffff1660e01b8152600401612dcb9392919061415f565b602060405180830381600087803b158015612de557600080fd5b505af1158015612df9573d6000803e3d6000fd5b505050506040513d601f19601f82011682018060405250810190612e1d91906134da565b506000600f42612e2d91906147c0565b90506000610bb89050600030905060008973ffffffffffffffffffffffffffffffffffffffff1663095ea7b373e592427a0aece92de3edee1f18e0157c05861564896040518363ffffffff1660e01b8152600401612e8c929190614196565b602060405180830381600087803b158015612ea657600080fd5b505af1158015612eba573d6000803e3d6000fd5b505050506040513d601f19601f82011682018060405250810190612ede91906134da565b5060006040518061010001604052808c73ffffffffffffffffffffffffffffffffffffffff1681526020018b73ffffffffffffffffffffffffffffffffffffffff1681526020018562ffffff1681526020018473ffffffffffffffffffffffffffffffffffffffff1681526020018681526020018a81526020018981526020018373ffffffffffffffffffffffffffffffffffffffff168152509050600073e592427a0aece92de3edee1f18e0157c0586156473ffffffffffffffffffffffffffffffffffffffff1663db3e2198836040518263ffffffff1660e01b8152600401612fc99190614497565b602060405180830381600087803b158015612fe357600080fd5b505af1158015612ff7573d6000803e3d6000fd5b505050506040513d601f19601f8201168201806040525081019061301b919061365a565b90506000818a61302b9190614870565b905060008d73ffffffffffffffffffffffffffffffffffffffff1663a9059cbb33846040518363ffffffff1660e01b815260040161306a929190614196565b602060405180830381600087803b15801561308457600080fd5b505af1158015613098573d6000803e3d6000fd5b505050506040513d601f19601f820116820180604052508101906130bc91906134da565b9050806130fe576040517f08c379a00000000000000000000000000000000000000000000000000000000081526004016130f59061445b565b60405180910390fd5b829950505050505050505050949350505050565b6000803411613156576040517f08c379a000000000000000000000000000000000000000000000000000000000815260040161314d9061443b565b60405180910390fd5b6000600f4261316591906147c0565b9050600073c02aaa39b223fe8d0a0e5c4f27ead9083c756cc2905060008490506000610bb89050600030905060003490506000600190506000806040518061010001604052808973ffffffffffffffffffffffffffffffffffffffff1681526020018873ffffffffffffffffffffffffffffffffffffffff1681526020018762ffffff1681526020018673ffffffffffffffffffffffffffffffffffffffff1681526020018a81526020018581526020018481526020018373ffffffffffffffffffffffffffffffffffffffff168152509050600073e592427a0aece92de3edee1f18e0157c0586156473ffffffffffffffffffffffffffffffffffffffff1663414bf38934846040518363ffffffff1660e01b8152600401613288919061447b565b6020604051808303818588803b1580156132a157600080fd5b505af11580156132b5573d6000803e3d6000fd5b50505050506040513d601f19601f820116820180604052508101906132da919061365a565b90506000811161331f576040517f08c379a00000000000000000000000000000000000000000000000000000000081526004016133169061427b565b60405180910390fd5b809a5050505050505050505050919050565b82805461333d906149cd565b90600052602060002090601f01602090048101928261335f57600085556133a6565b82601f1061337857805160ff19168380011785556133a6565b828001600101855582156133a6579182015b828111156133a557825182559160200191906001019061338a565b5b5090506133b391906133b7565b5090565b5b808211156133d05760008160009055506001016133b8565b5090565b60006133e76133e284614675565b614650565b90508281526020810184848401111561340357613402614b3a565b5b61340e84828561498b565b509392505050565b60008135905061342581614ed1565b92915050565b60008135905061343a81614ee8565b92915050565b60008151905061344f81614eff565b92915050565b600082601f83011261346a57613469614b35565b5b813561347a8482602086016133d4565b91505092915050565b60008135905061349281614f16565b92915050565b6000815190506134a781614f16565b92915050565b6000602082840312156134c3576134c2614b44565b5b60006134d184828501613416565b91505092915050565b6000602082840312156134f0576134ef614b44565b5b60006134fe84828501613440565b91505092915050565b600080600080600080600080610100898b03121561352857613527614b44565b5b600089013567ffffffffffffffff81111561354657613545614b3f565b5b6135528b828c01613455565b985050602089013567ffffffffffffffff81111561357357613572614b3f565b5b61357f8b828c01613455565b975050604089013567ffffffffffffffff8111156135a05761359f614b3f565b5b6135ac8b828c01613455565b965050606089013567ffffffffffffffff8111156135cd576135cc614b3f565b5b6135d98b828c01613455565b95505060806135ea8b828c01613483565b94505060a06135fb8b828c01613416565b93505060c061360c8b828c01613483565b92505060e061361d8b828c0161342b565b9150509295985092959890939650565b60006020828403121561364357613642614b44565b5b600061365184828501613483565b91505092915050565b6000602082840312156136705761366f614b44565b5b600061367e84828501613498565b91505092915050565b6000806040838503121561369e5761369d614b44565b5b60006136ac85828601613483565b925050602083013567ffffffffffffffff8111156136cd576136cc614b3f565b5b6136d985828601613455565b9150509250929050565b600080600080600060a086880312156136ff576136fe614b44565b5b600061370d88828901613483565b955050602086013567ffffffffffffffff81111561372e5761372d614b3f565b5b61373a88828901613455565b945050604061374b88828901613416565b935050606061375c88828901613483565b925050608061376d88828901613483565b9150509295509295909350565b600080600080600060a0868803121561379657613795614b44565b5b60006137a488828901613483565b955050602086013567ffffffffffffffff8111156137c5576137c4614b3f565b5b6137d188828901613455565b945050604086013567ffffffffffffffff8111156137f2576137f1614b3f565b5b6137fe88828901613455565b935050606086013567ffffffffffffffff81111561381f5761381e614b3f565b5b61382b88828901613455565b925050608086013567ffffffffffffffff81111561384c5761384b614b3f565b5b61385888828901613455565b9150509295509295909350565b60006138718383613afc565b905092915050565b60006138858383613b35565b905092915050565b60006138998383613e88565b905092915050565b60006138ad8383614118565b60208301905092915050565b6138c2816148b6565b82525050565b6138d1816148a4565b82525050565b6138e0816148a4565b82525050565b60006138f182614700565b6138fb818561476b565b93508360208202850161390d856146a6565b8060005b85811015613949578484038952815161392a8582613865565b945061393583614737565b925060208a01995050600181019050613911565b50829750879550505050505092915050565b60006139668261470b565b613970818561476b565b935083602082028501613982856146b6565b8060005b858110156139bd5784840389528161399e8582613879565b94506139a983614744565b925060208a01995050600181019050613986565b50829750879550505050505092915050565b60006139da82614716565b6139e4818561477c565b9350836020820285016139f6856146cb565b8060005b85811015613a325784840389528151613a13858261388d565b9450613a1e83614751565b925060208a019950506001810190506139fa565b50829750879550505050505092915050565b6000613a4f82614721565b613a59818561478d565b9350613a64836146db565b8060005b83811015613a95578151613a7c88826138a1565b9750613a878361475e565b925050600181019050613a68565b5085935050505092915050565b613aab816148c8565b82525050565b613aba8161490d565b82525050565b613ac981614931565b82525050565b613ad881614955565b82525050565b613ae781614967565b82525050565b613af681614979565b82525050565b6000613b078261472c565b613b11818561479e565b9350613b2181856020860161499a565b613b2a81614b49565b840191505092915050565b60008154613b42816149cd565b613b4c818661479e565b94506001821660008114613b675760018114613b7957613bac565b60ff1983168652602086019350613bac565b613b82856146eb565b60005b83811015613ba457815481890152600182019150602081019050613b85565b808801955050505b50505092915050565b60008154613bc2816149cd565b613bcc81866147af565b94506001821660008114613be75760018114613bf957613c2c565b60ff1983168652602086019350613c2c565b613c02856146eb565b60005b83811015613c2457815481890152600182019150602081019050613c05565b808801955050505b50505092915050565b6000613c42601e836147af565b9150613c4d82614b5a565b602082019050919050565b6000613c656012836147af565b9150613c7082614b83565b602082019050919050565b6000613c886015836147af565b9150613c9382614bac565b602082019050919050565b6000613cab6018836147af565b9150613cb682614bd5565b602082019050919050565b6000613cce602b836147af565b9150613cd982614bfe565b604082019050919050565b6000613cf16028836147af565b9150613cfc82614c4d565b604082019050919050565b6000613d146019836147af565b9150613d1f82614c9c565b602082019050919050565b6000613d376018836147af565b9150613d4282614cc5565b602082019050919050565b6000613d5a6024836147af565b9150613d6582614cee565b604082019050919050565b6000613d7d601d836147af565b9150613d8882614d3d565b602082019050919050565b6000613da06015836147af565b9150613dab82614d66565b602082019050919050565b6000613dc3602c836147af565b9150613dce82614d8f565b604082019050919050565b6000613de66027836147af565b9150613df182614dde565b604082019050919050565b6000613e09601f836147af565b9150613e1482614e2d565b602082019050919050565b6000613e2c6019836147af565b9150613e3782614e56565b602082019050919050565b6000613e4f601a836147af565b9150613e5a82614e7f565b602082019050919050565b6000613e72600d836147af565b9150613e7d82614ea8565b602082019050919050565b60006101a083016000830151613ea16000860182614118565b5060208301518482036020860152613eb98282613afc565b91505060408301518482036040860152613ed38282613afc565b91505060608301518482036060860152613eed8282613afc565b91505060808301518482036080860152613f078282613afc565b91505060a0830151613f1c60a08601826138c8565b5060c0830151613f2f60c0860182614118565b5060e0830151613f4260e0860182614118565b50610100830151613f57610100860182614118565b50610120830151613f6c6101208601826138b9565b50610140830151613f816101408601826138c8565b50610160830151613f96610160860182613aa2565b50610180830151613fab610180860182614118565b508091505092915050565b61010082016000820151613fcd60008501826138c8565b506020820151613fe060208501826138c8565b506040820151613ff36040850182614109565b50606082015161400660608501826138c8565b5060808201516140196080850182614118565b5060a082015161402c60a0850182614118565b5060c082015161403f60c0850182614118565b5060e082015161405260e08501826140fa565b50505050565b6101008201600082015161406f60008501826138c8565b50602082015161408260208501826138c8565b5060408201516140956040850182614109565b5060608201516140a860608501826138c8565b5060808201516140bb6080850182614118565b5060a08201516140ce60a0850182614118565b5060c08201516140e160c0850182614118565b5060e08201516140f460e08501826140fa565b50505050565b614103816148d4565b82525050565b614112816148f4565b82525050565b61412181614903565b82525050565b61413081614903565b82525050565b600060408201905061414b60008301856138d7565b61415860208301846138d7565b9392505050565b600060608201905061417460008301866138d7565b61418160208301856138d7565b61418e6040830184614127565b949350505050565b60006040820190506141ab60008301856138d7565b6141b86020830184614127565b9392505050565b600060208201905081810360008301526141d981846138e6565b905092915050565b600060208201905081810360008301526141fb81846139cf565b905092915050565b6000602082019050818103600083015261421d8184613a44565b905092915050565b600060208201905061423a6000830184613ab1565b92915050565b60006020820190506142556000830184613ac0565b92915050565b6000602082019050818103600083015261427481613c35565b9050919050565b6000602082019050818103600083015261429481613c58565b9050919050565b600060208201905081810360008301526142b481613c7b565b9050919050565b600060208201905081810360008301526142d481613c9e565b9050919050565b600060208201905081810360008301526142f481613cc1565b9050919050565b6000602082019050818103600083015261431481613ce4565b9050919050565b6000602082019050818103600083015261433481613d07565b9050919050565b6000602082019050818103600083015261435481613d2a565b9050919050565b6000602082019050818103600083015261437481613d4d565b9050919050565b6000602082019050818103600083015261439481613d70565b9050919050565b600060208201905081810360008301526143b481613d93565b9050919050565b600060208201905081810360008301526143d481613db6565b9050919050565b600060208201905081810360008301526143f481613dd9565b9050919050565b6000602082019050818103600083015261441481613dfc565b9050919050565b6000602082019050818103600083015261443481613e1f565b9050919050565b6000602082019050818103600083015261445481613e42565b9050919050565b6000602082019050818103600083015261447481613e65565b9050919050565b6000610100820190506144916000830184613fb6565b92915050565b6000610100820190506144ad6000830184614058565b92915050565b60006020820190506144c86000830184614127565b92915050565b60006060820190506144e36000830186614127565b6144f06020830185613acf565b8181036040830152614502818461395b565b9050949350505050565b60006060820190506145216000830186614127565b81810360208301526145338185613bb5565b90506145426040830184613acf565b949350505050565b600060608201905061455f6000830186614127565b81810360208301526145718185613bb5565b90506145806040830184613ade565b949350505050565b600060608201905061459d6000830186614127565b81810360208301526145af8185613bb5565b90506145be6040830184613aed565b949350505050565b60006060820190506145db6000830186614127565b6145e86020830185614127565b81810360408301526145fa818461395b565b9050949350505050565b60006080820190506146196000830187614127565b6146266020830186614127565b81810360408301526146388185613bb5565b905061464760608301846138d7565b95945050505050565b600061465a61466b565b905061466682826149ff565b919050565b6000604051905090565b600067ffffffffffffffff8211156146905761468f614b06565b5b61469982614b49565b9050602081019050919050565b6000819050602082019050919050565b60008190508160005260206000209050919050565b6000819050602082019050919050565b6000819050602082019050919050565b60008190508160005260206000209050919050565b600081519050919050565b600081549050919050565b600081519050919050565b600081519050919050565b600081519050919050565b6000602082019050919050565b6000600182019050919050565b6000602082019050919050565b6000602082019050919050565b600082825260208201905092915050565b600082825260208201905092915050565b600082825260208201905092915050565b600082825260208201905092915050565b600082825260208201905092915050565b60006147cb82614903565b91506147d683614903565b9250827fffffffffffffffffffffffffffffffffffffffffffffffffffffffffffffffff0382111561480b5761480a614a79565b5b828201905092915050565b600061482182614903565b915061482c83614903565b9250817fffffffffffffffffffffffffffffffffffffffffffffffffffffffffffffffff048311821515161561486557614864614a79565b5b828202905092915050565b600061487b82614903565b915061488683614903565b92508282101561489957614898614a79565b5b828203905092915050565b60006148af826148d4565b9050919050565b60006148c1826148d4565b9050919050565b60008115159050919050565b600073ffffffffffffffffffffffffffffffffffffffff82169050919050565b600062ffffff82169050919050565b6000819050919050565b60006149188261491f565b9050919050565b600061492a826148d4565b9050919050565b600061493c82614943565b9050919050565b600061494e826148d4565b9050919050565b600061496082614903565b9050919050565b600061497282614903565b9050919050565b600061498482614903565b9050919050565b82818337600083830152505050565b60005b838110156149b857808201518184015260208101905061499d565b838111156149c7576000848401525b50505050565b600060028204905060018216806149e557607f821691505b602082108114156149f9576149f8614aa8565b5b50919050565b614a0882614b49565b810181811067ffffffffffffffff82111715614a2757614a26614b06565b5b80604052505050565b6000614a3b82614903565b91507fffffffffffffffffffffffffffffffffffffffffffffffffffffffffffffffff821415614a6e57614a6d614a79565b5b600182019050919050565b7f4e487b7100000000000000000000000000000000000000000000000000000000600052601160045260246000fd5b7f4e487b7100000000000000000000000000000000000000000000000000000000600052602260045260246000fd5b7f4e487b7100000000000000000000000000000000000000000000000000000000600052603260045260246000fd5b7f4e487b7100000000000000000000000000000000000000000000000000000000600052604160045260246000fd5b600080fd5b600080fd5b600080fd5b600080fd5b6000601f19601f8301169050919050565b7f646f6e6174696f6e206d757374206265206c6172676572207468616e20300000600082015250565b7f6e6f20746f6b656e732072656365697665640000000000000000000000000000600082015250565b7f54617267657420616d6f756e7420657863656465640000000000000000000000600082015250565b7f54686973206973206e6f74204554482063616d706169676e0000000000000000600082015250565b7f796f752063616e27742062652063616d706169676e2062656e65666163746f7260008201527f20746f20646f2074686973000000000000000000000000000000000000000000602082015250565b7f796f752063616e27742062652063616d706169676e2063726561746f7220746f60008201527f20646f2074686973000000000000000000000000000000000000000000000000602082015250565b7f436865636b2074686520746f6b656e20616c6c6f77616e636500000000000000600082015250565b7f7472616e73666572206f6620546f6b656e206661696c65640000000000000000600082015250565b7f746f6b656e20646f6e6174696f6e206d757374206265206c617267657220746860008201527f616e203000000000000000000000000000000000000000000000000000000000602082015250565b7f7472616e73666572206f66205765746820546f6b656e206661696c6564000000600082015250565b7f63616d7061696e67206861732066696e69736865640000000000000000000000600082015250565b7f63616d706169676e2074617267657420616d6f756e74206d757374206265206c60008201527f6172676572207468616e20300000000000000000000000000000000000000000602082015250565b7f796f75206d7573742062652063616d706169676e2063726561746f7220746f2060008201527f646f207468697300000000000000000000000000000000000000000000000000602082015250565b7f43616d706169676e206d75737420656e6420696e207468652066757475726500600082015250565b7f43616d706169676e20616c72656164792066696e697368656400000000000000600082015250565b7f4d7573742070617373206e6f6e20302045544820616d6f756e74000000000000600082015250565b7f726566756e64206661696c656400000000000000000000000000000000000000600082015250565b614eda816148a4565b8114614ee557600080fd5b50565b614ef1816148b6565b8114614efc57600080fd5b50565b614f08816148c8565b8114614f1357600080fd5b50565b614f1f81614903565b8114614f2a57600080fd5b5056fea2646970667358221220c1e03847a45267fe6c680702f6b1bc0ce9be780e865f78af8fd254e7b6f0f0a764736f6c63430008060033",
  "immutableReferences": {},
  "source": "// SPDX-License-Identifier: MIT\npragma solidity >=0.7.6 <0.9.0;\npragma abicoder v2;\n\n// import \"https://github.com/Uniswap/uniswap-v3-periphery/blob/main/contracts/interfaces/ISwapRouter.sol\";\n// import \"https://github.com/Uniswap/uniswap-v3-periphery/blob/main/contracts/interfaces/IQuoter.sol\";\nimport \"@uniswap/v3-periphery/contracts/interfaces/ISwapRouter.sol\";\nimport \"@uniswap/v3-periphery/contracts/interfaces/IQuoter.sol\";\n\ninterface IUniswapRouter is ISwapRouter {\n    function refundETH() external payable;\n}\n\ninterface IERC20 {\n    function transferFrom(\n        address sender, \n        address recipient, \n        uint256 amount) \n        external \n        returns (bool);\n    function approve(address spender, uint tokens)  external returns (bool);\n    function totalSupply() external view returns (uint256);\n    function balanceOf(address account) external view returns (uint256);\n    function allowance(address owner, address spender) external view returns (uint256);\n\n    function transfer(address recipient, uint256 amount) external returns (bool);\n}\n\ninterface IUniswap {\n    function swapExactTokensForETH(\n        uint amountIn, \n        uint amountOutMin, \n        address[] calldata path, \n        address to, \n        uint deadline)\n        external\n        returns (uint[] memory amounts);\n    function WETH() external pure returns (address);\n}\n    \ncontract SupportChildren {\n    IUniswapRouter public constant uniswapRouter = IUniswapRouter(0xE592427A0AEce92De3Edee1F18E0157C05861564);\n    IQuoter public constant quoter = IQuoter(0xb27308f9F90D607463bb33eA1BeBb41C27CE5AB6);\n    address private constant multiDaiKovan = 0x6B175474E89094C44Da98b954EedeAC495271d0F;\n    address private constant WETH9 = 0xC02aaA39b223FE8D0A0e5C4F27eAD9083C756Cc2;\n  \n    event DonationMade (\n        uint campaignId,\n        uint donationAmount,\n        string notifyEmail,\n        address token\n    );\n\n    event CampaignCreated (\n        uint campaignId\n    );\n\n    event CampaignFinished (\n        uint campaignId,\n        uint currentAmount,\n        string[] notifyEmails\n    );\n\n    event CreateNFT (\n        uint campaignId,\n        string campaignImage,\n        uint nftType\n    );\n    \n    uint campaignIndex;\n    uint count;\n    \n    struct Campaign {\n        uint id;\n        string name; \n        string description;\n        string creatorEmail; \n        string image; \n        address targetCurrency; \n        uint targetAmount;\n        uint currentAmount;\n        uint amountInWeth;\n        address payable beneficiaryAddress;\n        address creatorAddress;\n        bool active;\n        uint endTimestamp;\n    }\n    \n    Campaign[] campaigns;\n    \n    mapping(uint => string[]) campaignDonationsEmails;\n    mapping(address => uint[]) campaignDonors;\n    \n    modifier campaignCreator(uint _campaignId) {\n        require(campaigns[_campaignId].creatorAddress == tx.origin, \"you must be campaign creator to do this\");\n        _;\n    }\n    \n    modifier notCampaignCreator(uint _campaignId) {\n        require(campaigns[_campaignId].creatorAddress != tx.origin, \"you can't be campaign creator to do this\");\n        _;\n    }\n\n    modifier ethCampaign(uint _campaignId) {\n        require(campaigns[_campaignId].targetCurrency == address(this), \"This is not ETH campaign\");\n        _;\n    }\n\n    modifier notCampaignBenefactor(uint _campaignId) {\n        require(campaigns[_campaignId].beneficiaryAddress != tx.origin, \"you can't be campaign benefactor to do this\");\n        _;\n    }\n\n    modifier campaignActive(uint _campaignId) {\n        require(campaigns[_campaignId].active == true, \"campaing has finished\");\n        require(campaigns[_campaignId].endTimestamp > block.timestamp, \"Campaign already finished\");\n        _;\n    }\n\n    function createCampaign(string memory _name, string memory _description, string memory _creatorEmail, string memory _image, uint _endTimestamp, address _targetCurrency, uint _targetAmount, address payable _beneficiaryAddress) public {\n        require(_targetAmount > 0, \"campaign target amount must be larger than 0\");\n        require(_endTimestamp > block.timestamp, \"Campaign must end in the future\");\n        campaigns.push(Campaign({\n            id: count,\n            name: _name,\n            description: _description,\n            creatorEmail: _creatorEmail,\n            image: _image,\n            targetAmount: _targetAmount,\n            targetCurrency: _targetCurrency,\n            currentAmount: 0,\n            amountInWeth: 0,\n            beneficiaryAddress: _beneficiaryAddress,\n            creatorAddress: tx.origin,\n            active: true,\n            endTimestamp: _endTimestamp \n        }));\n\n        emit CampaignCreated(count);\n        \n        count++;\n    }\n\n    function endCampaign(uint _campaignId) public campaignActive(_campaignId) campaignCreator(_campaignId) {\n        if (campaigns[_campaignId].currentAmount > 0) {\n            finishCampaign(_campaignId);\n        } else {\n            emit CampaignFinished(_campaignId, 0, campaignDonationsEmails[_campaignId]);\n            campaigns[_campaignId].active = false;\n        }\n    }\n\n    function editCampaign(uint _campaignId, string memory _name, string memory _description, string memory _creatorEmail, string memory _image) public campaignActive(_campaignId) campaignCreator(_campaignId) {\n        campaigns[_campaignId].name = _name;\n        campaigns[_campaignId].description = _description;\n        campaigns[_campaignId].creatorEmail = _creatorEmail;\n        campaigns[_campaignId].image = _image;\n    }\n\n    function finishCampaign(uint _campaignId) private {\n        emit CampaignFinished(_campaignId, campaigns[_campaignId].currentAmount, campaignDonationsEmails[_campaignId]);\n        // Send collected value to the address of the child\n        if (campaigns[_campaignId].targetCurrency == address(this)) {\n            if (campaigns[_campaignId].amountInWeth > 0) {\n                campaigns[_campaignId].beneficiaryAddress.transfer(campaigns[_campaignId].currentAmount-campaigns[_campaignId].amountInWeth);\n                \n                (bool success) = IERC20(WETH9).transfer(msg.sender, campaigns[_campaignId].amountInWeth);\n                require(success, \"transfer of Weth Token failed\");\n            } else {\n                campaigns[_campaignId].beneficiaryAddress.transfer(campaigns[_campaignId].currentAmount);\n            }\n        } else {\n            (bool success) = IERC20(campaigns[_campaignId].targetCurrency).transfer(msg.sender, campaigns[_campaignId].currentAmount);\n            require(success, \"transfer of Token failed\");\n        }\n        campaigns[_campaignId].active = false;\n    }\n\n\n    // ETH to ETH\n    function donateEthToEthCampaign(uint _campaignId, string memory _donorEmail) payable public campaignActive(_campaignId) notCampaignCreator(_campaignId) notCampaignBenefactor(_campaignId) ethCampaign(_campaignId) {\n        require(msg.value > 0, \"donation must be larger than 0\");\n        // curentamount must be fetched from frontend\n        require((campaigns[_campaignId].currentAmount  + msg.value) * 10 < 11 * campaigns[_campaignId].targetAmount, \"Target amount exceded\");\n        uint initialCampaingAmount = campaigns[_campaignId].currentAmount;\n        campaignDonationsEmails[_campaignId].push(_donorEmail);\n        campaignDonors[tx.origin].push(_campaignId);\n        campaigns[_campaignId].currentAmount = campaigns[_campaignId].currentAmount  + msg.value;\n\n        emit DonationMade(_campaignId, msg.value, campaigns[_campaignId].creatorEmail, address(this));\n\n        if (initialCampaingAmount == 0) {\n            if (campaigns[_campaignId].currentAmount >= campaigns[_campaignId].targetAmount) {\n                emit CreateNFT(_campaignId, campaigns[_campaignId].image, 2);\n            }\n            emit CreateNFT(_campaignId, campaigns[_campaignId].image, 0);\n        }\n\n        if (campaigns[_campaignId].currentAmount >= campaigns[_campaignId].targetAmount) {\n            finishCampaign(_campaignId);\n            if (initialCampaingAmount != 0) {\n                emit CreateNFT(_campaignId, campaigns[_campaignId].image, 1);\n            }\n        }\n    }\n\n    // ETH to Token\n    function donateEthToTokenCampaign(uint _campaignId, string memory _donorEmail) payable public campaignActive(_campaignId) {\n        require(msg.value > 0, \"donation must be larger than 0\");\n        (uint256 tokensReceived) = convertExactEthToToken(campaigns[_campaignId].targetCurrency);\n        campaignDonationsEmails[_campaignId].push(_donorEmail);\n        campaignDonors[tx.origin].push(_campaignId);\n        campaigns[_campaignId].currentAmount = campaigns[_campaignId].currentAmount  + tokensReceived;\n\n        emit DonationMade(_campaignId, msg.value, campaigns[_campaignId].creatorEmail, address(this));\n\n        if (campaigns[_campaignId].currentAmount >= campaigns[_campaignId].targetAmount) {\n            finishCampaign(_campaignId);\n        }\n    }\n\n    // Token to ETH\n    function donateTokenToETHCampaign(uint _campaignId, string memory _donorEmail, address token, uint amountOut, uint amountInMax) public campaignActive(_campaignId) {\n        require(amountInMax > 0, \"token donation must be larger than 0\");\n        require(amountOut > 0, \"token donation must be larger than 0\");\n        (uint256 tokensSpent) = convertTokenToExactEth(token, amountOut, amountInMax);\n        campaignDonationsEmails[_campaignId].push(_donorEmail);\n        campaignDonors[tx.origin].push(_campaignId);\n        campaigns[_campaignId].amountInWeth = campaigns[_campaignId].amountInWeth + amountOut;\n        campaigns[_campaignId].currentAmount = campaigns[_campaignId].currentAmount + amountOut;\n        emit DonationMade(_campaignId, tokensSpent, campaigns[_campaignId].creatorEmail, token);\n\n        if (campaigns[_campaignId].currentAmount >= campaigns[_campaignId].targetAmount) {\n            finishCampaign(_campaignId);\n        }\n    }\n    \n    // Token to Token\n    function donateTokenToTokenCampaign(uint _campaignId, string memory _donorEmail, address tokenIn, uint amountOut, uint amountInMax) public campaignActive(_campaignId) {\n        require(amountInMax > 0, \"token donation must be larger than 0\");\n        require(amountOut > 0, \"token donation must be larger than 0\");\n        (uint256 tokensSpent) = convertTokenToExactToken(tokenIn, campaigns[_campaignId].targetCurrency, amountOut, amountInMax);\n        campaignDonationsEmails[_campaignId].push(_donorEmail);\n        campaignDonors[tx.origin].push(_campaignId);\n        campaigns[_campaignId].currentAmount = campaigns[_campaignId].currentAmount + amountOut;\n        emit DonationMade(_campaignId, tokensSpent, campaigns[_campaignId].creatorEmail, tokenIn);\n\n        if (campaigns[_campaignId].currentAmount >= campaigns[_campaignId].targetAmount) {\n            finishCampaign(_campaignId);\n        }\n    }\n    \n    function getDonorEmails(uint _campaignId) view public returns (string[] memory) {\n        return campaignDonationsEmails[_campaignId];\n    }\n    \n    function getDonorsCampaingsList(address _donor) view public returns (uint[] memory) {\n        return campaignDonors[_donor];\n    }\n    \n    function getCampaigns() public view returns (Campaign[] memory) {\n        return campaigns;\n    }\n\n    function getCampaignAmount(uint _campaignId) public view returns (uint) {\n        return campaigns[_campaignId].currentAmount;\n    }\n\n    function convertExactEthToToken(address token) internal returns (uint256) {\n        require(msg.value > 0, \"Must pass non 0 ETH amount\");\n\n        uint256 deadline = block.timestamp + 15; // using 'now' for convenience, for mainnet pass deadline from frontend!\n        address tokenIn = WETH9;\n        address tokenOut = token;\n        uint24 fee = 3000;\n        address recipient = address(this);\n        uint256 amountIn = msg.value;\n        uint256 amountOutMinimum = 1;\n        uint160 sqrtPriceLimitX96 = 0;\n        \n        ISwapRouter.ExactInputSingleParams memory params = ISwapRouter.ExactInputSingleParams(\n            tokenIn,\n            tokenOut,\n            fee,\n            recipient,\n            deadline,\n            amountIn,\n            amountOutMinimum,\n            sqrtPriceLimitX96\n        );\n        \n        uint256 amountOfTokenReceived = uniswapRouter.exactInputSingle{ value: msg.value }(params);\n        require(amountOfTokenReceived > 0, \"no tokens received\");\n        return amountOfTokenReceived;\n    }\n    \n    function convertTokenToExactEth(address token, uint amountOut, uint amountInMaximum) internal returns (uint256) {\n        uint256 allowance = IERC20(token).allowance(msg.sender, address(this));\n        require(allowance >= amountInMaximum, \"Check the token allowance\");\n        IERC20(token).transferFrom(msg.sender, address(this), amountInMaximum);\n        uint256 deadline = block.timestamp + 15; // using 'now' for convenience, for mainnet pass deadline from frontend!\n        address tokenIn = token;\n        address tokenOut = WETH9;\n        uint24 fee = 3000;\n        address recipient = address(this);\n        uint160 sqrtPriceLimitX96 = 0;\n        IERC20(token).approve(address(uniswapRouter), amountInMaximum);\n        \n        ISwapRouter.ExactOutputSingleParams memory params = ISwapRouter.ExactOutputSingleParams(\n            tokenIn,\n            tokenOut,\n            fee,\n            recipient,\n            deadline,\n            amountOut,\n            amountInMaximum,\n            sqrtPriceLimitX96\n        );\n        \n        uint256 amountOfTokenUsed = uniswapRouter.exactOutputSingle(params);\n        uint256 remainderOfTokens = amountInMaximum-amountOfTokenUsed;\n        // refund leftover Tokens to user\n        (bool success) = IERC20(token).transfer(msg.sender, remainderOfTokens);\n        require(success, \"refund failed\");\n        \n        return amountOfTokenUsed;\n    }\n    \n    function convertTokenToExactToken(address tokenIn, address tokenOut, uint amountOut, uint amountInMaximum) internal returns (uint256) {\n        uint256 allowance = IERC20(tokenIn).allowance(msg.sender, address(this));\n        require(allowance >= amountInMaximum, \"Check the token allowance\");\n        IERC20(tokenIn).transferFrom(msg.sender, address(this), amountInMaximum);\n        uint256 deadline = block.timestamp + 15; // using 'now' for convenience, for mainnet pass deadline from frontend!\n        uint24 fee = 3000;\n        address recipient = address(this);\n        uint160 sqrtPriceLimitX96 = 0;\n        IERC20(tokenIn).approve(address(uniswapRouter), amountInMaximum);\n        \n        ISwapRouter.ExactOutputSingleParams memory params = ISwapRouter.ExactOutputSingleParams(\n            tokenIn,\n            tokenOut,\n            fee,\n            recipient,\n            deadline,\n            amountOut,\n            amountInMaximum,\n            sqrtPriceLimitX96\n        );\n        \n        uint256 amountOfTokenUsed = uniswapRouter.exactOutputSingle(params);\n        uint256 remainderOfTokens = amountInMaximum-amountOfTokenUsed;\n        \n        // refund leftover Tokens to user\n        (bool success) = IERC20(tokenIn).transfer(msg.sender, remainderOfTokens);\n        require(success, \"refund failed\");\n        \n        return amountOfTokenUsed;\n    }\n    \n    // do not used on-chain, gas inefficient!\n    function getEstimatedETHforDAI(uint daiAmount) internal returns (uint256) {\n        address tokenIn = WETH9;\n        address tokenOut = multiDaiKovan;\n        uint24 fee = 3000;\n        uint160 sqrtPriceLimitX96 = 0;\n\n        return quoter.quoteExactOutputSingle(\n            tokenIn,\n            tokenOut,\n            fee,\n            daiAmount,\n            sqrtPriceLimitX96\n        );\n    }\n\n    // important to receive ETH\n    receive() payable external {}\n}",
  "sourcePath": "/home/appmodule/Crypto/support-children/contracts/SupportChildren.sol",
  "compiler": {
    "name": "solc",
    "version": "0.8.6+commit.11564f7e.Emscripten.clang"
  },
  "schemaVersion": "3.4.2",
  "updatedAt": "2021-08-09T17:06:45.192Z",
  "networkType": "ethereum",
  "devdoc": {
    "kind": "dev",
    "methods": {},
    "version": 1
  },
  "userdoc": {
    "kind": "user",
    "methods": {},
    "version": 1
  }
}